{
	"data": {
		"bytecode": {
			"linkReferences": {},
			"object": "60806040526014805460ff1916905560026016553480156200002057600080fd5b5060405162001e6f38038062001e6f833981016040819052620000439162000489565b6200004e33620001b1565b60018055600280546001600160a01b0319166001600160a01b0387169081179091556040805163313ce56760e01b8152905163313ce567916004808201926020929091908290030181865afa158015620000ac573d6000803e3d6000fd5b505050506040513d601f19601f82011682018060405250810190620000d2919062000570565b60ff16600355600480546001600160a01b0319166001600160a01b03861690811782556040805163313ce56760e01b81529051919263313ce5679282820192602092908290030181865afa1580156200012f573d6000803e3d6000fd5b505050506040513d601f19601f8201168201806040525081019062000155919062000570565b60ff166005558251600755602083015160085560408301516009556060830151600a556080830151600b5560a0830151600c5560c0830151600d556200019b8262000201565b620001a681620002fa565b5050505050620006f7565b600080546001600160a01b038381166001600160a01b0319831681178455604051919092169283917f8be0079c531659141344cd1fd0a4f28419497f9722a3daafe3b4186f6b6457e09190a35050565b6020810151815110620002765760405162461bcd60e51b815260206004820152603260248201527f53746172742074696d657374616d70206d757374206265206c6573732074686160448201527106e2066696e6973682074696d657374616d760741b60648201526084015b60405180910390fd5b42816020015111620002e45760405162461bcd60e51b815260206004820152603060248201527f46696e6973682074696d657374616d70206d757374206265206d6f726520746860448201526f616e2063757272656e7420626c6f636b60801b60648201526084016200026d565b8051600e556020810151600f5560400151601055565b60066200030882826200062b565b5050565b80516001600160a01b03811681146200032457600080fd5b919050565b634e487b7160e01b600052604160045260246000fd5b60405160e081016001600160401b038111828210171562000364576200036462000329565b60405290565b604051601f8201601f191681016001600160401b038111828210171562000395576200039562000329565b604052919050565b600060608284031215620003b057600080fd5b604051606081016001600160401b0381118282101715620003d557620003d562000329565b80604052508091508251815260208301516020820152604083015160408201525092915050565b600082601f8301126200040e57600080fd5b81516001600160401b038111156200042a576200042a62000329565b602062000440601f8301601f191682016200036a565b82815285828487010111156200045557600080fd5b60005b838110156200047557858101830151828201840152820162000458565b506000928101909101919091529392505050565b60008060008060008587036101a0811215620004a457600080fd5b620004af876200030c565b9550620004bf602088016200030c565b945060e0603f1982011215620004d457600080fd5b50620004df6200033f565b60408701518152606087015160208201526080870151604082015260a0870151606082015260c0870151608082015260e087015160a082015261010087015160c082015280935050620005378761012088016200039d565b6101808701519092506001600160401b038111156200055557600080fd5b6200056388828901620003fc565b9150509295509295909350565b6000602082840312156200058357600080fd5b815160ff811681146200059557600080fd5b9392505050565b600181811c90821680620005b157607f821691505b602082108103620005d257634e487b7160e01b600052602260045260246000fd5b50919050565b601f8211156200062657600081815260208120601f850160051c81016020861015620006015750805b601f850160051c820191505b8181101562000622578281556001016200060d565b5050505b505050565b81516001600160401b0381111562000647576200064762000329565b6200065f816200065884546200059c565b84620005d8565b602080601f8311600181146200069757600084156200067e5750858301515b600019600386901b1c1916600185901b17855562000622565b600085815260208120601f198616915b82811015620006c857888601518255948401946001909101908401620006a7565b5085821015620006e75787850151600019600388901b60f8161c191681555b5050505050600190811b01905550565b61176880620007076000396000f3fe608060405234801561001057600080fd5b506004361061018e5760003560e01c80636444e37b116100de578063c290d69111610097578063ddeae03311610071578063ddeae0331461034f578063f2fde38b14610362578063f7c618c114610375578063f84b903e1461038857600080fd5b8063c290d6911461032b578063c6a0e27d1461033e578063cb2ef6f71461034657600080fd5b80636444e37b146102c757806371007509146102d0578063715018a6146102d8578063747daec5146102e05780638da5cb5b146102f357806396336b301461031857600080fd5b8063491447a81161014b5780635216aeec116101255780635216aeec146102a5578063586360ce146102ae578063590e1ae3146102b757806362bea93f146102bf57600080fd5b8063491447a8146102825780634b1a4c0c146102945780634e71d92d1461029d57600080fd5b806312d3675e146101935780631959a002146101ef5780632dcc8c6614610239578063313ce5671461024e5780633ccfd60b146102655780633f138d4b1461026f575b600080fd5b600754600854600954600a54600b54600c54600d546101b59695949392919087565b604080519788526020880196909652948601939093526060850191909152608084015260a083015260c082015260e0015b60405180910390f35b61021e6101fd366004611230565b60156020526000908152604090208054600182015460029092015490919083565b604080519384526020840192909252908201526060016101e6565b6102416103a5565b6040516101e6919061126f565b61025760035481565b6040519081526020016101e6565b61026d610433565b005b61026d61027d3660046112a2565b61056f565b600e54600f5460105461021e92919083565b61025760125481565b61026d6105aa565b61025760115481565b61025760135481565b61026d6105b5565b6102576106b2565b61025760055481565b61026d61074c565b61026d6108ad565b61026d6102ee3660046112e2565b6108bf565b6000546001600160a01b03165b6040516001600160a01b0390911681526020016101e6565b600454610300906001600160a01b031681565b61026d610339366004611393565b6108cb565b61026d610b49565b61025760165481565b61026d61035d366004611230565b610c17565b61026d610370366004611230565b610c20565b600254610300906001600160a01b031681565b6014546103959060ff1681565b60405190151581526020016101e6565b600680546103b2906113ac565b80601f01602080910402602001604051908101604052809291908181526020018280546103de906113ac565b801561042b5780601f106104005761010080835404028352916020019161042b565b820191906000526020600020905b81548152906001019060200180831161040e57829003601f168201915b505050505081565b61043b610c96565b600f5442116104655760405162461bcd60e51b815260040161045c906113e6565b60405180910390fd5b60085460115410156104895760405162461bcd60e51b815260040161045c9061141d565b60145460ff16156104d35760405162461bcd60e51b815260206004820152601460248201527320b63932b0b23c903234b9ba3934b13aba32b21760611b604482015260640161045c565b600480546040516370a0823160e01b815230928101929092526000916001600160a01b03909116906370a0823190602401602060405180830381865afa158015610521573d6000803e3d6000fd5b505050506040513d601f19601f820116820180604052508101906105459190611461565b60045490915061055f906001600160a01b03163383610cf0565b506014805460ff19166001179055565b610577610c96565b6002546001600160a01b039081169083160361059257600080fd5b6105a66001600160a01b0383163383610cf0565b5050565b6105b333610d58565b565b600f5442116105d65760405162461bcd60e51b815260040161045c906113e6565b600854601154106106295760405162461bcd60e51b815260206004820181905260248201527f5468652049444f20706f6f6c2068617320726561636820736f6674206361702e604482015260640161045c565b33600090815260156020526040902060028101548061068a5760405162461bcd60e51b815260206004820152601760248201527f596f752068617665206e6f20696e766573746d656e742e000000000000000000604482015260640161045c565b60008083556002830181905560018301556004546105a6906001600160a01b03163383610cf0565b6002546040516370a0823160e01b815230600482015260009182916001600160a01b03909116906370a0823190602401602060405180830381865afa1580156106ff573d6000803e3d6000fd5b505050506040513d601f19601f820116820180604052508101906107239190611461565b905061074660125461074060135484610e8590919063ffffffff16565b90610e9a565b91505090565b610754610c96565b600f5442116107755760405162461bcd60e51b815260040161045c906113e6565b600854601154106107c85760405162461bcd60e51b815260206004820181905260248201527f5468652049444f20706f6f6c2068617320726561636820736f6674206361702e604482015260640161045c565b6002546040516370a0823160e01b81523060048201526000916001600160a01b0316906370a0823190602401602060405180830381865afa158015610811573d6000803e3d6000fd5b505050506040513d601f19601f820116820180604052508101906108359190611461565b9050600081116108935760405162461bcd60e51b815260206004820152602360248201527f5468652049444f20706f6f6c20686173206e6f7420726566756e6420746f6b6560448201526237399760e91b606482015260840161045c565b6002546108aa906001600160a01b03163383610cf0565b50565b6108b5610c96565b6105b36000610ea6565b60066105a682826114c8565b600e5442101561090b5760405162461bcd60e51b815260206004820152600b60248201526a139bdd081cdd185c9d195960aa1b604482015260640161045c565b600f5442106109445760405162461bcd60e51b8152602060048201526005602482015264115b99195960da1b604482015260640161045c565b600a5481101561098d5760405162461bcd60e51b815260206004820152601460248201527313195cdcc81d1a195b881b5a5b88185b5bdd5b9d60621b604482015260640161045c565b600b548111156109d65760405162461bcd60e51b8152602060048201526014602482015273135bdc99481d1a195b881b585e08185b5bdd5b9d60621b604482015260640161045c565b6009546011546109e69083610e85565b1115610a215760405162461bcd60e51b815260206004820152600a60248201526913dd995c999a5b1b195960b21b604482015260640161045c565b336000908152601560205260409020600b546002820154610a429084610e85565b1115610a875760405162461bcd60e51b8152602060048201526014602482015273135bdc99481d1a195b881b585e08185b5bdd5b9d60621b604482015260640161045c565b6000610a9883600760000154610ef6565b600454909150610ab3906001600160a01b0316333086610f1b565b601154610ac09084610e85565b601155601254610ad09082610e85565b6012556002820154610ae29084610e85565b60028301556001820154610af69082610e85565b60018301558154610b079082610e85565b8255604080518481526020810183905233917fb55d4ca2fc644ca3f8cdc9c907826e24acd68d2b2d4d73f48b8f2378dbaedf5d910160405180910390a2505050565b610b51610c96565b60145460ff16610baf5760405162461bcd60e51b815260206004820152602360248201527f576974686472617720616c6c6f7765642061667465722064697374726962757460448201526232b21760e91b606482015260840161045c565b6000610bb96106b2565b9050600081116108935760405162461bcd60e51b815260206004820152602360248201527f5468652049444f20706f6f6c20686173206e6f7420756e736f6c6420746f6b6560448201526237399760e91b606482015260840161045c565b6108aa81610d58565b610c28610c96565b6001600160a01b038116610c8d5760405162461bcd60e51b815260206004820152602660248201527f4f776e61626c653a206e6577206f776e657220697320746865207a65726f206160448201526564647265737360d01b606482015260840161045c565b6108aa81610ea6565b6000546001600160a01b031633146105b35760405162461bcd60e51b815260206004820181905260248201527f4f776e61626c653a2063616c6c6572206973206e6f7420746865206f776e6572604482015260640161045c565b6040516001600160a01b038316602482015260448101829052610d5390849063a9059cbb60e01b906064015b60408051601f198184030181529190526020810180516001600160e01b03166001600160e01b031990931692909217909152610f59565b505050565b610d6061102b565b600f544211610d815760405162461bcd60e51b815260040161045c906113e6565b6008546011541015610da55760405162461bcd60e51b815260040161045c9061141d565b6001600160a01b0381166000908152601560205260409020805480610e0c5760405162461bcd60e51b815260206004820152601c60248201527f596f7520646f206e6f742068617665206465627420746f6b656e732e00000000604482015260640161045c565b60008255601354610e1d9082610e85565b601355600254610e37906001600160a01b03168483610cf0565b826001600160a01b03167f6352c5382c4a4578e712449ca65e83cdb392d045dfcf1cad9615189db2da244b82604051610e7291815260200190565b60405180910390a250506108aa60018055565b6000610e91828461159e565b90505b92915050565b6000610e9182846115b1565b600080546001600160a01b038381166001600160a01b0319831681178455604051919092169283917f8be0079c531659141344cd1fd0a4f28419497f9722a3daafe3b4186f6b6457e09190a35050565b6000600354600a610f0791906116a8565b610f1183856116b4565b610e9191906116d6565b6040516001600160a01b0380851660248301528316604482015260648101829052610f539085906323b872dd60e01b90608401610d1c565b50505050565b6000610fae826040518060400160405280602081526020017f5361666545524332303a206c6f772d6c6576656c2063616c6c206661696c6564815250856001600160a01b03166110849092919063ffffffff16565b805190915015610d535780806020019051810190610fcc91906116ed565b610d535760405162461bcd60e51b815260206004820152602a60248201527f5361666545524332303a204552433230206f7065726174696f6e20646964206e6044820152691bdd081cdd58d8d9595960b21b606482015260840161045c565b60026001540361107d5760405162461bcd60e51b815260206004820152601f60248201527f5265656e7472616e637947756172643a207265656e7472616e742063616c6c00604482015260640161045c565b6002600155565b6060611093848460008561109b565b949350505050565b6060824710156110fc5760405162461bcd60e51b815260206004820152602660248201527f416464726573733a20696e73756666696369656e742062616c616e636520666f6044820152651c8818d85b1b60d21b606482015260840161045c565b600080866001600160a01b031685876040516111189190611716565b60006040518083038185875af1925050503d8060008114611155576040519150601f19603f3d011682016040523d82523d6000602084013e61115a565b606091505b509150915061116b87838387611176565b979650505050505050565b606083156111e55782516000036111de576001600160a01b0385163b6111de5760405162461bcd60e51b815260206004820152601d60248201527f416464726573733a2063616c6c20746f206e6f6e2d636f6e7472616374000000604482015260640161045c565b5081611093565b61109383838151156111fa5781518083602001fd5b8060405162461bcd60e51b815260040161045c919061126f565b80356001600160a01b038116811461122b57600080fd5b919050565b60006020828403121561124257600080fd5b610e9182611214565b60005b8381101561126657818101518382015260200161124e565b50506000910152565b602081526000825180602084015261128e81604085016020870161124b565b601f01601f19169190910160400192915050565b600080604083850312156112b557600080fd5b6112be83611214565b946020939093013593505050565b634e487b7160e01b600052604160045260246000fd5b6000602082840312156112f457600080fd5b813567ffffffffffffffff8082111561130c57600080fd5b818401915084601f83011261132057600080fd5b813581811115611332576113326112cc565b604051601f8201601f19908116603f0116810190838211818310171561135a5761135a6112cc565b8160405282815287602084870101111561137357600080fd5b826020860160208301376000928101602001929092525095945050505050565b6000602082840312156113a557600080fd5b5035919050565b600181811c908216806113c057607f821691505b6020821081036113e057634e487b7160e01b600052602260045260246000fd5b50919050565b6020808252601b908201527f5468652049444f20706f6f6c20686173206e6f7420656e6465642e0000000000604082015260600190565b60208082526024908201527f5468652049444f20706f6f6c20646964206e6f7420726561636820736f66742060408201526331b0b81760e11b606082015260800190565b60006020828403121561147357600080fd5b5051919050565b601f821115610d5357600081815260208120601f850160051c810160208610156114a15750805b601f850160051c820191505b818110156114c0578281556001016114ad565b505050505050565b815167ffffffffffffffff8111156114e2576114e26112cc565b6114f6816114f084546113ac565b8461147a565b602080601f83116001811461152b57600084156115135750858301515b600019600386901b1c1916600185901b1785556114c0565b600085815260208120601f198616915b8281101561155a5788860151825594840194600190910190840161153b565b50858210156115785787850151600019600388901b60f8161c191681555b5050505050600190811b01905550565b634e487b7160e01b600052601160045260246000fd5b80820180821115610e9457610e94611588565b81810381811115610e9457610e94611588565b600181815b808511156115ff5781600019048211156115e5576115e5611588565b808516156115f257918102915b93841c93908002906115c9565b509250929050565b60008261161657506001610e94565b8161162357506000610e94565b816001811461163957600281146116435761165f565b6001915050610e94565b60ff84111561165457611654611588565b50506001821b610e94565b5060208310610133831016604e8410600b8410161715611682575081810a610e94565b61168c83836115c4565b80600019048211156116a0576116a0611588565b029392505050565b6000610e918383611607565b6000826116d157634e487b7160e01b600052601260045260246000fd5b500490565b8082028115828204841417610e9457610e94611588565b6000602082840312156116ff57600080fd5b8151801515811461170f57600080fd5b9392505050565b6000825161172881846020870161124b565b919091019291505056fea2646970667358221220d03312b041b91c03626b653e49aa13f78d05feac553f2677804c9b216f64891664736f6c63430008120033",
			"opcodes": "PUSH1 0x80 PUSH1 0x40 MSTORE PUSH1 0x14 DUP1 SLOAD PUSH1 0xFF NOT AND SWAP1 SSTORE PUSH1 0x2 PUSH1 0x16 SSTORE CALLVALUE DUP1 ISZERO PUSH3 0x20 JUMPI PUSH1 0x0 DUP1 REVERT JUMPDEST POP PUSH1 0x40 MLOAD PUSH3 0x1E6F CODESIZE SUB DUP1 PUSH3 0x1E6F DUP4 CODECOPY DUP2 ADD PUSH1 0x40 DUP2 SWAP1 MSTORE PUSH3 0x43 SWAP2 PUSH3 0x489 JUMP JUMPDEST PUSH3 0x4E CALLER PUSH3 0x1B1 JUMP JUMPDEST PUSH1 0x1 DUP1 SSTORE PUSH1 0x2 DUP1 SLOAD PUSH1 0x1 PUSH1 0x1 PUSH1 0xA0 SHL SUB NOT AND PUSH1 0x1 PUSH1 0x1 PUSH1 0xA0 SHL SUB DUP8 AND SWAP1 DUP2 OR SWAP1 SWAP2 SSTORE PUSH1 0x40 DUP1 MLOAD PUSH4 0x313CE567 PUSH1 0xE0 SHL DUP2 MSTORE SWAP1 MLOAD PUSH4 0x313CE567 SWAP2 PUSH1 0x4 DUP1 DUP3 ADD SWAP3 PUSH1 0x20 SWAP3 SWAP1 SWAP2 SWAP1 DUP3 SWAP1 SUB ADD DUP2 DUP7 GAS STATICCALL ISZERO DUP1 ISZERO PUSH3 0xAC JUMPI RETURNDATASIZE PUSH1 0x0 DUP1 RETURNDATACOPY RETURNDATASIZE PUSH1 0x0 REVERT JUMPDEST POP POP POP POP PUSH1 0x40 MLOAD RETURNDATASIZE PUSH1 0x1F NOT PUSH1 0x1F DUP3 ADD AND DUP3 ADD DUP1 PUSH1 0x40 MSTORE POP DUP2 ADD SWAP1 PUSH3 0xD2 SWAP2 SWAP1 PUSH3 0x570 JUMP JUMPDEST PUSH1 0xFF AND PUSH1 0x3 SSTORE PUSH1 0x4 DUP1 SLOAD PUSH1 0x1 PUSH1 0x1 PUSH1 0xA0 SHL SUB NOT AND PUSH1 0x1 PUSH1 0x1 PUSH1 0xA0 SHL SUB DUP7 AND SWAP1 DUP2 OR DUP3 SSTORE PUSH1 0x40 DUP1 MLOAD PUSH4 0x313CE567 PUSH1 0xE0 SHL DUP2 MSTORE SWAP1 MLOAD SWAP2 SWAP3 PUSH4 0x313CE567 SWAP3 DUP3 DUP3 ADD SWAP3 PUSH1 0x20 SWAP3 SWAP1 DUP3 SWAP1 SUB ADD DUP2 DUP7 GAS STATICCALL ISZERO DUP1 ISZERO PUSH3 0x12F JUMPI RETURNDATASIZE PUSH1 0x0 DUP1 RETURNDATACOPY RETURNDATASIZE PUSH1 0x0 REVERT JUMPDEST POP POP POP POP PUSH1 0x40 MLOAD RETURNDATASIZE PUSH1 0x1F NOT PUSH1 0x1F DUP3 ADD AND DUP3 ADD DUP1 PUSH1 0x40 MSTORE POP DUP2 ADD SWAP1 PUSH3 0x155 SWAP2 SWAP1 PUSH3 0x570 JUMP JUMPDEST PUSH1 0xFF AND PUSH1 0x5 SSTORE DUP3 MLOAD PUSH1 0x7 SSTORE PUSH1 0x20 DUP4 ADD MLOAD PUSH1 0x8 SSTORE PUSH1 0x40 DUP4 ADD MLOAD PUSH1 0x9 SSTORE PUSH1 0x60 DUP4 ADD MLOAD PUSH1 0xA SSTORE PUSH1 0x80 DUP4 ADD MLOAD PUSH1 0xB SSTORE PUSH1 0xA0 DUP4 ADD MLOAD PUSH1 0xC SSTORE PUSH1 0xC0 DUP4 ADD MLOAD PUSH1 0xD SSTORE PUSH3 0x19B DUP3 PUSH3 0x201 JUMP JUMPDEST PUSH3 0x1A6 DUP2 PUSH3 0x2FA JUMP JUMPDEST POP POP POP POP POP PUSH3 0x6F7 JUMP JUMPDEST PUSH1 0x0 DUP1 SLOAD PUSH1 0x1 PUSH1 0x1 PUSH1 0xA0 SHL SUB DUP4 DUP2 AND PUSH1 0x1 PUSH1 0x1 PUSH1 0xA0 SHL SUB NOT DUP4 AND DUP2 OR DUP5 SSTORE PUSH1 0x40 MLOAD SWAP2 SWAP1 SWAP3 AND SWAP3 DUP4 SWAP2 PUSH32 0x8BE0079C531659141344CD1FD0A4F28419497F9722A3DAAFE3B4186F6B6457E0 SWAP2 SWAP1 LOG3 POP POP JUMP JUMPDEST PUSH1 0x20 DUP2 ADD MLOAD DUP2 MLOAD LT PUSH3 0x276 JUMPI PUSH1 0x40 MLOAD PUSH3 0x461BCD PUSH1 0xE5 SHL DUP2 MSTORE PUSH1 0x20 PUSH1 0x4 DUP3 ADD MSTORE PUSH1 0x32 PUSH1 0x24 DUP3 ADD MSTORE PUSH32 0x53746172742074696D657374616D70206D757374206265206C65737320746861 PUSH1 0x44 DUP3 ADD MSTORE PUSH18 0x6E2066696E6973682074696D657374616D7 PUSH1 0x74 SHL PUSH1 0x64 DUP3 ADD MSTORE PUSH1 0x84 ADD JUMPDEST PUSH1 0x40 MLOAD DUP1 SWAP2 SUB SWAP1 REVERT JUMPDEST TIMESTAMP DUP2 PUSH1 0x20 ADD MLOAD GT PUSH3 0x2E4 JUMPI PUSH1 0x40 MLOAD PUSH3 0x461BCD PUSH1 0xE5 SHL DUP2 MSTORE PUSH1 0x20 PUSH1 0x4 DUP3 ADD MSTORE PUSH1 0x30 PUSH1 0x24 DUP3 ADD MSTORE PUSH32 0x46696E6973682074696D657374616D70206D757374206265206D6F7265207468 PUSH1 0x44 DUP3 ADD MSTORE PUSH16 0x616E2063757272656E7420626C6F636B PUSH1 0x80 SHL PUSH1 0x64 DUP3 ADD MSTORE PUSH1 0x84 ADD PUSH3 0x26D JUMP JUMPDEST DUP1 MLOAD PUSH1 0xE SSTORE PUSH1 0x20 DUP2 ADD MLOAD PUSH1 0xF SSTORE PUSH1 0x40 ADD MLOAD PUSH1 0x10 SSTORE JUMP JUMPDEST PUSH1 0x6 PUSH3 0x308 DUP3 DUP3 PUSH3 0x62B JUMP JUMPDEST POP POP JUMP JUMPDEST DUP1 MLOAD PUSH1 0x1 PUSH1 0x1 PUSH1 0xA0 SHL SUB DUP2 AND DUP2 EQ PUSH3 0x324 JUMPI PUSH1 0x0 DUP1 REVERT JUMPDEST SWAP2 SWAP1 POP JUMP JUMPDEST PUSH4 0x4E487B71 PUSH1 0xE0 SHL PUSH1 0x0 MSTORE PUSH1 0x41 PUSH1 0x4 MSTORE PUSH1 0x24 PUSH1 0x0 REVERT JUMPDEST PUSH1 0x40 MLOAD PUSH1 0xE0 DUP2 ADD PUSH1 0x1 PUSH1 0x1 PUSH1 0x40 SHL SUB DUP2 GT DUP3 DUP3 LT OR ISZERO PUSH3 0x364 JUMPI PUSH3 0x364 PUSH3 0x329 JUMP JUMPDEST PUSH1 0x40 MSTORE SWAP1 JUMP JUMPDEST PUSH1 0x40 MLOAD PUSH1 0x1F DUP3 ADD PUSH1 0x1F NOT AND DUP2 ADD PUSH1 0x1 PUSH1 0x1 PUSH1 0x40 SHL SUB DUP2 GT DUP3 DUP3 LT OR ISZERO PUSH3 0x395 JUMPI PUSH3 0x395 PUSH3 0x329 JUMP JUMPDEST PUSH1 0x40 MSTORE SWAP2 SWAP1 POP JUMP JUMPDEST PUSH1 0x0 PUSH1 0x60 DUP3 DUP5 SUB SLT ISZERO PUSH3 0x3B0 JUMPI PUSH1 0x0 DUP1 REVERT JUMPDEST PUSH1 0x40 MLOAD PUSH1 0x60 DUP2 ADD PUSH1 0x1 PUSH1 0x1 PUSH1 0x40 SHL SUB DUP2 GT DUP3 DUP3 LT OR ISZERO PUSH3 0x3D5 JUMPI PUSH3 0x3D5 PUSH3 0x329 JUMP JUMPDEST DUP1 PUSH1 0x40 MSTORE POP DUP1 SWAP2 POP DUP3 MLOAD DUP2 MSTORE PUSH1 0x20 DUP4 ADD MLOAD PUSH1 0x20 DUP3 ADD MSTORE PUSH1 0x40 DUP4 ADD MLOAD PUSH1 0x40 DUP3 ADD MSTORE POP SWAP3 SWAP2 POP POP JUMP JUMPDEST PUSH1 0x0 DUP3 PUSH1 0x1F DUP4 ADD SLT PUSH3 0x40E JUMPI PUSH1 0x0 DUP1 REVERT JUMPDEST DUP2 MLOAD PUSH1 0x1 PUSH1 0x1 PUSH1 0x40 SHL SUB DUP2 GT ISZERO PUSH3 0x42A JUMPI PUSH3 0x42A PUSH3 0x329 JUMP JUMPDEST PUSH1 0x20 PUSH3 0x440 PUSH1 0x1F DUP4 ADD PUSH1 0x1F NOT AND DUP3 ADD PUSH3 0x36A JUMP JUMPDEST DUP3 DUP2 MSTORE DUP6 DUP3 DUP5 DUP8 ADD ADD GT ISZERO PUSH3 0x455 JUMPI PUSH1 0x0 DUP1 REVERT JUMPDEST PUSH1 0x0 JUMPDEST DUP4 DUP2 LT ISZERO PUSH3 0x475 JUMPI DUP6 DUP2 ADD DUP4 ADD MLOAD DUP3 DUP3 ADD DUP5 ADD MSTORE DUP3 ADD PUSH3 0x458 JUMP JUMPDEST POP PUSH1 0x0 SWAP3 DUP2 ADD SWAP1 SWAP2 ADD SWAP2 SWAP1 SWAP2 MSTORE SWAP4 SWAP3 POP POP POP JUMP JUMPDEST PUSH1 0x0 DUP1 PUSH1 0x0 DUP1 PUSH1 0x0 DUP6 DUP8 SUB PUSH2 0x1A0 DUP2 SLT ISZERO PUSH3 0x4A4 JUMPI PUSH1 0x0 DUP1 REVERT JUMPDEST PUSH3 0x4AF DUP8 PUSH3 0x30C JUMP JUMPDEST SWAP6 POP PUSH3 0x4BF PUSH1 0x20 DUP9 ADD PUSH3 0x30C JUMP JUMPDEST SWAP5 POP PUSH1 0xE0 PUSH1 0x3F NOT DUP3 ADD SLT ISZERO PUSH3 0x4D4 JUMPI PUSH1 0x0 DUP1 REVERT JUMPDEST POP PUSH3 0x4DF PUSH3 0x33F JUMP JUMPDEST PUSH1 0x40 DUP8 ADD MLOAD DUP2 MSTORE PUSH1 0x60 DUP8 ADD MLOAD PUSH1 0x20 DUP3 ADD MSTORE PUSH1 0x80 DUP8 ADD MLOAD PUSH1 0x40 DUP3 ADD MSTORE PUSH1 0xA0 DUP8 ADD MLOAD PUSH1 0x60 DUP3 ADD MSTORE PUSH1 0xC0 DUP8 ADD MLOAD PUSH1 0x80 DUP3 ADD MSTORE PUSH1 0xE0 DUP8 ADD MLOAD PUSH1 0xA0 DUP3 ADD MSTORE PUSH2 0x100 DUP8 ADD MLOAD PUSH1 0xC0 DUP3 ADD MSTORE DUP1 SWAP4 POP POP PUSH3 0x537 DUP8 PUSH2 0x120 DUP9 ADD PUSH3 0x39D JUMP JUMPDEST PUSH2 0x180 DUP8 ADD MLOAD SWAP1 SWAP3 POP PUSH1 0x1 PUSH1 0x1 PUSH1 0x40 SHL SUB DUP2 GT ISZERO PUSH3 0x555 JUMPI PUSH1 0x0 DUP1 REVERT JUMPDEST PUSH3 0x563 DUP9 DUP3 DUP10 ADD PUSH3 0x3FC JUMP JUMPDEST SWAP2 POP POP SWAP3 SWAP6 POP SWAP3 SWAP6 SWAP1 SWAP4 POP JUMP JUMPDEST PUSH1 0x0 PUSH1 0x20 DUP3 DUP5 SUB SLT ISZERO PUSH3 0x583 JUMPI PUSH1 0x0 DUP1 REVERT JUMPDEST DUP2 MLOAD PUSH1 0xFF DUP2 AND DUP2 EQ PUSH3 0x595 JUMPI PUSH1 0x0 DUP1 REVERT JUMPDEST SWAP4 SWAP3 POP POP POP JUMP JUMPDEST PUSH1 0x1 DUP2 DUP2 SHR SWAP1 DUP3 AND DUP1 PUSH3 0x5B1 JUMPI PUSH1 0x7F DUP3 AND SWAP2 POP JUMPDEST PUSH1 0x20 DUP3 LT DUP2 SUB PUSH3 0x5D2 JUMPI PUSH4 0x4E487B71 PUSH1 0xE0 SHL PUSH1 0x0 MSTORE PUSH1 0x22 PUSH1 0x4 MSTORE PUSH1 0x24 PUSH1 0x0 REVERT JUMPDEST POP SWAP2 SWAP1 POP JUMP JUMPDEST PUSH1 0x1F DUP3 GT ISZERO PUSH3 0x626 JUMPI PUSH1 0x0 DUP2 DUP2 MSTORE PUSH1 0x20 DUP2 KECCAK256 PUSH1 0x1F DUP6 ADD PUSH1 0x5 SHR DUP2 ADD PUSH1 0x20 DUP7 LT ISZERO PUSH3 0x601 JUMPI POP DUP1 JUMPDEST PUSH1 0x1F DUP6 ADD PUSH1 0x5 SHR DUP3 ADD SWAP2 POP JUMPDEST DUP2 DUP2 LT ISZERO PUSH3 0x622 JUMPI DUP3 DUP2 SSTORE PUSH1 0x1 ADD PUSH3 0x60D JUMP JUMPDEST POP POP POP JUMPDEST POP POP POP JUMP JUMPDEST DUP2 MLOAD PUSH1 0x1 PUSH1 0x1 PUSH1 0x40 SHL SUB DUP2 GT ISZERO PUSH3 0x647 JUMPI PUSH3 0x647 PUSH3 0x329 JUMP JUMPDEST PUSH3 0x65F DUP2 PUSH3 0x658 DUP5 SLOAD PUSH3 0x59C JUMP JUMPDEST DUP5 PUSH3 0x5D8 JUMP JUMPDEST PUSH1 0x20 DUP1 PUSH1 0x1F DUP4 GT PUSH1 0x1 DUP2 EQ PUSH3 0x697 JUMPI PUSH1 0x0 DUP5 ISZERO PUSH3 0x67E JUMPI POP DUP6 DUP4 ADD MLOAD JUMPDEST PUSH1 0x0 NOT PUSH1 0x3 DUP7 SWAP1 SHL SHR NOT AND PUSH1 0x1 DUP6 SWAP1 SHL OR DUP6 SSTORE PUSH3 0x622 JUMP JUMPDEST PUSH1 0x0 DUP6 DUP2 MSTORE PUSH1 0x20 DUP2 KECCAK256 PUSH1 0x1F NOT DUP7 AND SWAP2 JUMPDEST DUP3 DUP2 LT ISZERO PUSH3 0x6C8 JUMPI DUP9 DUP7 ADD MLOAD DUP3 SSTORE SWAP5 DUP5 ADD SWAP5 PUSH1 0x1 SWAP1 SWAP2 ADD SWAP1 DUP5 ADD PUSH3 0x6A7 JUMP JUMPDEST POP DUP6 DUP3 LT ISZERO PUSH3 0x6E7 JUMPI DUP8 DUP6 ADD MLOAD PUSH1 0x0 NOT PUSH1 0x3 DUP9 SWAP1 SHL PUSH1 0xF8 AND SHR NOT AND DUP2 SSTORE JUMPDEST POP POP POP POP POP PUSH1 0x1 SWAP1 DUP2 SHL ADD SWAP1 SSTORE POP JUMP JUMPDEST PUSH2 0x1768 DUP1 PUSH3 0x707 PUSH1 0x0 CODECOPY PUSH1 0x0 RETURN INVALID PUSH1 0x80 PUSH1 0x40 MSTORE CALLVALUE DUP1 ISZERO PUSH2 0x10 JUMPI PUSH1 0x0 DUP1 REVERT JUMPDEST POP PUSH1 0x4 CALLDATASIZE LT PUSH2 0x18E JUMPI PUSH1 0x0 CALLDATALOAD PUSH1 0xE0 SHR DUP1 PUSH4 0x6444E37B GT PUSH2 0xDE JUMPI DUP1 PUSH4 0xC290D691 GT PUSH2 0x97 JUMPI DUP1 PUSH4 0xDDEAE033 GT PUSH2 0x71 JUMPI DUP1 PUSH4 0xDDEAE033 EQ PUSH2 0x34F JUMPI DUP1 PUSH4 0xF2FDE38B EQ PUSH2 0x362 JUMPI DUP1 PUSH4 0xF7C618C1 EQ PUSH2 0x375 JUMPI DUP1 PUSH4 0xF84B903E EQ PUSH2 0x388 JUMPI PUSH1 0x0 DUP1 REVERT JUMPDEST DUP1 PUSH4 0xC290D691 EQ PUSH2 0x32B JUMPI DUP1 PUSH4 0xC6A0E27D EQ PUSH2 0x33E JUMPI DUP1 PUSH4 0xCB2EF6F7 EQ PUSH2 0x346 JUMPI PUSH1 0x0 DUP1 REVERT JUMPDEST DUP1 PUSH4 0x6444E37B EQ PUSH2 0x2C7 JUMPI DUP1 PUSH4 0x71007509 EQ PUSH2 0x2D0 JUMPI DUP1 PUSH4 0x715018A6 EQ PUSH2 0x2D8 JUMPI DUP1 PUSH4 0x747DAEC5 EQ PUSH2 0x2E0 JUMPI DUP1 PUSH4 0x8DA5CB5B EQ PUSH2 0x2F3 JUMPI DUP1 PUSH4 0x96336B30 EQ PUSH2 0x318 JUMPI PUSH1 0x0 DUP1 REVERT JUMPDEST DUP1 PUSH4 0x491447A8 GT PUSH2 0x14B JUMPI DUP1 PUSH4 0x5216AEEC GT PUSH2 0x125 JUMPI DUP1 PUSH4 0x5216AEEC EQ PUSH2 0x2A5 JUMPI DUP1 PUSH4 0x586360CE EQ PUSH2 0x2AE JUMPI DUP1 PUSH4 0x590E1AE3 EQ PUSH2 0x2B7 JUMPI DUP1 PUSH4 0x62BEA93F EQ PUSH2 0x2BF JUMPI PUSH1 0x0 DUP1 REVERT JUMPDEST DUP1 PUSH4 0x491447A8 EQ PUSH2 0x282 JUMPI DUP1 PUSH4 0x4B1A4C0C EQ PUSH2 0x294 JUMPI DUP1 PUSH4 0x4E71D92D EQ PUSH2 0x29D JUMPI PUSH1 0x0 DUP1 REVERT JUMPDEST DUP1 PUSH4 0x12D3675E EQ PUSH2 0x193 JUMPI DUP1 PUSH4 0x1959A002 EQ PUSH2 0x1EF JUMPI DUP1 PUSH4 0x2DCC8C66 EQ PUSH2 0x239 JUMPI DUP1 PUSH4 0x313CE567 EQ PUSH2 0x24E JUMPI DUP1 PUSH4 0x3CCFD60B EQ PUSH2 0x265 JUMPI DUP1 PUSH4 0x3F138D4B EQ PUSH2 0x26F JUMPI JUMPDEST PUSH1 0x0 DUP1 REVERT JUMPDEST PUSH1 0x7 SLOAD PUSH1 0x8 SLOAD PUSH1 0x9 SLOAD PUSH1 0xA SLOAD PUSH1 0xB SLOAD PUSH1 0xC SLOAD PUSH1 0xD SLOAD PUSH2 0x1B5 SWAP7 SWAP6 SWAP5 SWAP4 SWAP3 SWAP2 SWAP1 DUP8 JUMP JUMPDEST PUSH1 0x40 DUP1 MLOAD SWAP8 DUP9 MSTORE PUSH1 0x20 DUP9 ADD SWAP7 SWAP1 SWAP7 MSTORE SWAP5 DUP7 ADD SWAP4 SWAP1 SWAP4 MSTORE PUSH1 0x60 DUP6 ADD SWAP2 SWAP1 SWAP2 MSTORE PUSH1 0x80 DUP5 ADD MSTORE PUSH1 0xA0 DUP4 ADD MSTORE PUSH1 0xC0 DUP3 ADD MSTORE PUSH1 0xE0 ADD JUMPDEST PUSH1 0x40 MLOAD DUP1 SWAP2 SUB SWAP1 RETURN JUMPDEST PUSH2 0x21E PUSH2 0x1FD CALLDATASIZE PUSH1 0x4 PUSH2 0x1230 JUMP JUMPDEST PUSH1 0x15 PUSH1 0x20 MSTORE PUSH1 0x0 SWAP1 DUP2 MSTORE PUSH1 0x40 SWAP1 KECCAK256 DUP1 SLOAD PUSH1 0x1 DUP3 ADD SLOAD PUSH1 0x2 SWAP1 SWAP3 ADD SLOAD SWAP1 SWAP2 SWAP1 DUP4 JUMP JUMPDEST PUSH1 0x40 DUP1 MLOAD SWAP4 DUP5 MSTORE PUSH1 0x20 DUP5 ADD SWAP3 SWAP1 SWAP3 MSTORE SWAP1 DUP3 ADD MSTORE PUSH1 0x60 ADD PUSH2 0x1E6 JUMP JUMPDEST PUSH2 0x241 PUSH2 0x3A5 JUMP JUMPDEST PUSH1 0x40 MLOAD PUSH2 0x1E6 SWAP2 SWAP1 PUSH2 0x126F JUMP JUMPDEST PUSH2 0x257 PUSH1 0x3 SLOAD DUP2 JUMP JUMPDEST PUSH1 0x40 MLOAD SWAP1 DUP2 MSTORE PUSH1 0x20 ADD PUSH2 0x1E6 JUMP JUMPDEST PUSH2 0x26D PUSH2 0x433 JUMP JUMPDEST STOP JUMPDEST PUSH2 0x26D PUSH2 0x27D CALLDATASIZE PUSH1 0x4 PUSH2 0x12A2 JUMP JUMPDEST PUSH2 0x56F JUMP JUMPDEST PUSH1 0xE SLOAD PUSH1 0xF SLOAD PUSH1 0x10 SLOAD PUSH2 0x21E SWAP3 SWAP2 SWAP1 DUP4 JUMP JUMPDEST PUSH2 0x257 PUSH1 0x12 SLOAD DUP2 JUMP JUMPDEST PUSH2 0x26D PUSH2 0x5AA JUMP JUMPDEST PUSH2 0x257 PUSH1 0x11 SLOAD DUP2 JUMP JUMPDEST PUSH2 0x257 PUSH1 0x13 SLOAD DUP2 JUMP JUMPDEST PUSH2 0x26D PUSH2 0x5B5 JUMP JUMPDEST PUSH2 0x257 PUSH2 0x6B2 JUMP JUMPDEST PUSH2 0x257 PUSH1 0x5 SLOAD DUP2 JUMP JUMPDEST PUSH2 0x26D PUSH2 0x74C JUMP JUMPDEST PUSH2 0x26D PUSH2 0x8AD JUMP JUMPDEST PUSH2 0x26D PUSH2 0x2EE CALLDATASIZE PUSH1 0x4 PUSH2 0x12E2 JUMP JUMPDEST PUSH2 0x8BF JUMP JUMPDEST PUSH1 0x0 SLOAD PUSH1 0x1 PUSH1 0x1 PUSH1 0xA0 SHL SUB AND JUMPDEST PUSH1 0x40 MLOAD PUSH1 0x1 PUSH1 0x1 PUSH1 0xA0 SHL SUB SWAP1 SWAP2 AND DUP2 MSTORE PUSH1 0x20 ADD PUSH2 0x1E6 JUMP JUMPDEST PUSH1 0x4 SLOAD PUSH2 0x300 SWAP1 PUSH1 0x1 PUSH1 0x1 PUSH1 0xA0 SHL SUB AND DUP2 JUMP JUMPDEST PUSH2 0x26D PUSH2 0x339 CALLDATASIZE PUSH1 0x4 PUSH2 0x1393 JUMP JUMPDEST PUSH2 0x8CB JUMP JUMPDEST PUSH2 0x26D PUSH2 0xB49 JUMP JUMPDEST PUSH2 0x257 PUSH1 0x16 SLOAD DUP2 JUMP JUMPDEST PUSH2 0x26D PUSH2 0x35D CALLDATASIZE PUSH1 0x4 PUSH2 0x1230 JUMP JUMPDEST PUSH2 0xC17 JUMP JUMPDEST PUSH2 0x26D PUSH2 0x370 CALLDATASIZE PUSH1 0x4 PUSH2 0x1230 JUMP JUMPDEST PUSH2 0xC20 JUMP JUMPDEST PUSH1 0x2 SLOAD PUSH2 0x300 SWAP1 PUSH1 0x1 PUSH1 0x1 PUSH1 0xA0 SHL SUB AND DUP2 JUMP JUMPDEST PUSH1 0x14 SLOAD PUSH2 0x395 SWAP1 PUSH1 0xFF AND DUP2 JUMP JUMPDEST PUSH1 0x40 MLOAD SWAP1 ISZERO ISZERO DUP2 MSTORE PUSH1 0x20 ADD PUSH2 0x1E6 JUMP JUMPDEST PUSH1 0x6 DUP1 SLOAD PUSH2 0x3B2 SWAP1 PUSH2 0x13AC JUMP JUMPDEST DUP1 PUSH1 0x1F ADD PUSH1 0x20 DUP1 SWAP2 DIV MUL PUSH1 0x20 ADD PUSH1 0x40 MLOAD SWAP1 DUP2 ADD PUSH1 0x40 MSTORE DUP1 SWAP3 SWAP2 SWAP1 DUP2 DUP2 MSTORE PUSH1 0x20 ADD DUP3 DUP1 SLOAD PUSH2 0x3DE SWAP1 PUSH2 0x13AC JUMP JUMPDEST DUP1 ISZERO PUSH2 0x42B JUMPI DUP1 PUSH1 0x1F LT PUSH2 0x400 JUMPI PUSH2 0x100 DUP1 DUP4 SLOAD DIV MUL DUP4 MSTORE SWAP2 PUSH1 0x20 ADD SWAP2 PUSH2 0x42B JUMP JUMPDEST DUP3 ADD SWAP2 SWAP1 PUSH1 0x0 MSTORE PUSH1 0x20 PUSH1 0x0 KECCAK256 SWAP1 JUMPDEST DUP2 SLOAD DUP2 MSTORE SWAP1 PUSH1 0x1 ADD SWAP1 PUSH1 0x20 ADD DUP1 DUP4 GT PUSH2 0x40E JUMPI DUP3 SWAP1 SUB PUSH1 0x1F AND DUP3 ADD SWAP2 JUMPDEST POP POP POP POP POP DUP2 JUMP JUMPDEST PUSH2 0x43B PUSH2 0xC96 JUMP JUMPDEST PUSH1 0xF SLOAD TIMESTAMP GT PUSH2 0x465 JUMPI PUSH1 0x40 MLOAD PUSH3 0x461BCD PUSH1 0xE5 SHL DUP2 MSTORE PUSH1 0x4 ADD PUSH2 0x45C SWAP1 PUSH2 0x13E6 JUMP JUMPDEST PUSH1 0x40 MLOAD DUP1 SWAP2 SUB SWAP1 REVERT JUMPDEST PUSH1 0x8 SLOAD PUSH1 0x11 SLOAD LT ISZERO PUSH2 0x489 JUMPI PUSH1 0x40 MLOAD PUSH3 0x461BCD PUSH1 0xE5 SHL DUP2 MSTORE PUSH1 0x4 ADD PUSH2 0x45C SWAP1 PUSH2 0x141D JUMP JUMPDEST PUSH1 0x14 SLOAD PUSH1 0xFF AND ISZERO PUSH2 0x4D3 JUMPI PUSH1 0x40 MLOAD PUSH3 0x461BCD PUSH1 0xE5 SHL DUP2 MSTORE PUSH1 0x20 PUSH1 0x4 DUP3 ADD MSTORE PUSH1 0x14 PUSH1 0x24 DUP3 ADD MSTORE PUSH20 0x20B63932B0B23C903234B9BA3934B13ABA32B217 PUSH1 0x61 SHL PUSH1 0x44 DUP3 ADD MSTORE PUSH1 0x64 ADD PUSH2 0x45C JUMP JUMPDEST PUSH1 0x4 DUP1 SLOAD PUSH1 0x40 MLOAD PUSH4 0x70A08231 PUSH1 0xE0 SHL DUP2 MSTORE ADDRESS SWAP3 DUP2 ADD SWAP3 SWAP1 SWAP3 MSTORE PUSH1 0x0 SWAP2 PUSH1 0x1 PUSH1 0x1 PUSH1 0xA0 SHL SUB SWAP1 SWAP2 AND SWAP1 PUSH4 0x70A08231 SWAP1 PUSH1 0x24 ADD PUSH1 0x20 PUSH1 0x40 MLOAD DUP1 DUP4 SUB DUP2 DUP7 GAS STATICCALL ISZERO DUP1 ISZERO PUSH2 0x521 JUMPI RETURNDATASIZE PUSH1 0x0 DUP1 RETURNDATACOPY RETURNDATASIZE PUSH1 0x0 REVERT JUMPDEST POP POP POP POP PUSH1 0x40 MLOAD RETURNDATASIZE PUSH1 0x1F NOT PUSH1 0x1F DUP3 ADD AND DUP3 ADD DUP1 PUSH1 0x40 MSTORE POP DUP2 ADD SWAP1 PUSH2 0x545 SWAP2 SWAP1 PUSH2 0x1461 JUMP JUMPDEST PUSH1 0x4 SLOAD SWAP1 SWAP2 POP PUSH2 0x55F SWAP1 PUSH1 0x1 PUSH1 0x1 PUSH1 0xA0 SHL SUB AND CALLER DUP4 PUSH2 0xCF0 JUMP JUMPDEST POP PUSH1 0x14 DUP1 SLOAD PUSH1 0xFF NOT AND PUSH1 0x1 OR SWAP1 SSTORE JUMP JUMPDEST PUSH2 0x577 PUSH2 0xC96 JUMP JUMPDEST PUSH1 0x2 SLOAD PUSH1 0x1 PUSH1 0x1 PUSH1 0xA0 SHL SUB SWAP1 DUP2 AND SWAP1 DUP4 AND SUB PUSH2 0x592 JUMPI PUSH1 0x0 DUP1 REVERT JUMPDEST PUSH2 0x5A6 PUSH1 0x1 PUSH1 0x1 PUSH1 0xA0 SHL SUB DUP4 AND CALLER DUP4 PUSH2 0xCF0 JUMP JUMPDEST POP POP JUMP JUMPDEST PUSH2 0x5B3 CALLER PUSH2 0xD58 JUMP JUMPDEST JUMP JUMPDEST PUSH1 0xF SLOAD TIMESTAMP GT PUSH2 0x5D6 JUMPI PUSH1 0x40 MLOAD PUSH3 0x461BCD PUSH1 0xE5 SHL DUP2 MSTORE PUSH1 0x4 ADD PUSH2 0x45C SWAP1 PUSH2 0x13E6 JUMP JUMPDEST PUSH1 0x8 SLOAD PUSH1 0x11 SLOAD LT PUSH2 0x629 JUMPI PUSH1 0x40 MLOAD PUSH3 0x461BCD PUSH1 0xE5 SHL DUP2 MSTORE PUSH1 0x20 PUSH1 0x4 DUP3 ADD DUP2 SWAP1 MSTORE PUSH1 0x24 DUP3 ADD MSTORE PUSH32 0x5468652049444F20706F6F6C2068617320726561636820736F6674206361702E PUSH1 0x44 DUP3 ADD MSTORE PUSH1 0x64 ADD PUSH2 0x45C JUMP JUMPDEST CALLER PUSH1 0x0 SWAP1 DUP2 MSTORE PUSH1 0x15 PUSH1 0x20 MSTORE PUSH1 0x40 SWAP1 KECCAK256 PUSH1 0x2 DUP2 ADD SLOAD DUP1 PUSH2 0x68A JUMPI PUSH1 0x40 MLOAD PUSH3 0x461BCD PUSH1 0xE5 SHL DUP2 MSTORE PUSH1 0x20 PUSH1 0x4 DUP3 ADD MSTORE PUSH1 0x17 PUSH1 0x24 DUP3 ADD MSTORE PUSH32 0x596F752068617665206E6F20696E766573746D656E742E000000000000000000 PUSH1 0x44 DUP3 ADD MSTORE PUSH1 0x64 ADD PUSH2 0x45C JUMP JUMPDEST PUSH1 0x0 DUP1 DUP4 SSTORE PUSH1 0x2 DUP4 ADD DUP2 SWAP1 SSTORE PUSH1 0x1 DUP4 ADD SSTORE PUSH1 0x4 SLOAD PUSH2 0x5A6 SWAP1 PUSH1 0x1 PUSH1 0x1 PUSH1 0xA0 SHL SUB AND CALLER DUP4 PUSH2 0xCF0 JUMP JUMPDEST PUSH1 0x2 SLOAD PUSH1 0x40 MLOAD PUSH4 0x70A08231 PUSH1 0xE0 SHL DUP2 MSTORE ADDRESS PUSH1 0x4 DUP3 ADD MSTORE PUSH1 0x0 SWAP2 DUP3 SWAP2 PUSH1 0x1 PUSH1 0x1 PUSH1 0xA0 SHL SUB SWAP1 SWAP2 AND SWAP1 PUSH4 0x70A08231 SWAP1 PUSH1 0x24 ADD PUSH1 0x20 PUSH1 0x40 MLOAD DUP1 DUP4 SUB DUP2 DUP7 GAS STATICCALL ISZERO DUP1 ISZERO PUSH2 0x6FF JUMPI RETURNDATASIZE PUSH1 0x0 DUP1 RETURNDATACOPY RETURNDATASIZE PUSH1 0x0 REVERT JUMPDEST POP POP POP POP PUSH1 0x40 MLOAD RETURNDATASIZE PUSH1 0x1F NOT PUSH1 0x1F DUP3 ADD AND DUP3 ADD DUP1 PUSH1 0x40 MSTORE POP DUP2 ADD SWAP1 PUSH2 0x723 SWAP2 SWAP1 PUSH2 0x1461 JUMP JUMPDEST SWAP1 POP PUSH2 0x746 PUSH1 0x12 SLOAD PUSH2 0x740 PUSH1 0x13 SLOAD DUP5 PUSH2 0xE85 SWAP1 SWAP2 SWAP1 PUSH4 0xFFFFFFFF AND JUMP JUMPDEST SWAP1 PUSH2 0xE9A JUMP JUMPDEST SWAP2 POP POP SWAP1 JUMP JUMPDEST PUSH2 0x754 PUSH2 0xC96 JUMP JUMPDEST PUSH1 0xF SLOAD TIMESTAMP GT PUSH2 0x775 JUMPI PUSH1 0x40 MLOAD PUSH3 0x461BCD PUSH1 0xE5 SHL DUP2 MSTORE PUSH1 0x4 ADD PUSH2 0x45C SWAP1 PUSH2 0x13E6 JUMP JUMPDEST PUSH1 0x8 SLOAD PUSH1 0x11 SLOAD LT PUSH2 0x7C8 JUMPI PUSH1 0x40 MLOAD PUSH3 0x461BCD PUSH1 0xE5 SHL DUP2 MSTORE PUSH1 0x20 PUSH1 0x4 DUP3 ADD DUP2 SWAP1 MSTORE PUSH1 0x24 DUP3 ADD MSTORE PUSH32 0x5468652049444F20706F6F6C2068617320726561636820736F6674206361702E PUSH1 0x44 DUP3 ADD MSTORE PUSH1 0x64 ADD PUSH2 0x45C JUMP JUMPDEST PUSH1 0x2 SLOAD PUSH1 0x40 MLOAD PUSH4 0x70A08231 PUSH1 0xE0 SHL DUP2 MSTORE ADDRESS PUSH1 0x4 DUP3 ADD MSTORE PUSH1 0x0 SWAP2 PUSH1 0x1 PUSH1 0x1 PUSH1 0xA0 SHL SUB AND SWAP1 PUSH4 0x70A08231 SWAP1 PUSH1 0x24 ADD PUSH1 0x20 PUSH1 0x40 MLOAD DUP1 DUP4 SUB DUP2 DUP7 GAS STATICCALL ISZERO DUP1 ISZERO PUSH2 0x811 JUMPI RETURNDATASIZE PUSH1 0x0 DUP1 RETURNDATACOPY RETURNDATASIZE PUSH1 0x0 REVERT JUMPDEST POP POP POP POP PUSH1 0x40 MLOAD RETURNDATASIZE PUSH1 0x1F NOT PUSH1 0x1F DUP3 ADD AND DUP3 ADD DUP1 PUSH1 0x40 MSTORE POP DUP2 ADD SWAP1 PUSH2 0x835 SWAP2 SWAP1 PUSH2 0x1461 JUMP JUMPDEST SWAP1 POP PUSH1 0x0 DUP2 GT PUSH2 0x893 JUMPI PUSH1 0x40 MLOAD PUSH3 0x461BCD PUSH1 0xE5 SHL DUP2 MSTORE PUSH1 0x20 PUSH1 0x4 DUP3 ADD MSTORE PUSH1 0x23 PUSH1 0x24 DUP3 ADD MSTORE PUSH32 0x5468652049444F20706F6F6C20686173206E6F7420726566756E6420746F6B65 PUSH1 0x44 DUP3 ADD MSTORE PUSH3 0x373997 PUSH1 0xE9 SHL PUSH1 0x64 DUP3 ADD MSTORE PUSH1 0x84 ADD PUSH2 0x45C JUMP JUMPDEST PUSH1 0x2 SLOAD PUSH2 0x8AA SWAP1 PUSH1 0x1 PUSH1 0x1 PUSH1 0xA0 SHL SUB AND CALLER DUP4 PUSH2 0xCF0 JUMP JUMPDEST POP JUMP JUMPDEST PUSH2 0x8B5 PUSH2 0xC96 JUMP JUMPDEST PUSH2 0x5B3 PUSH1 0x0 PUSH2 0xEA6 JUMP JUMPDEST PUSH1 0x6 PUSH2 0x5A6 DUP3 DUP3 PUSH2 0x14C8 JUMP JUMPDEST PUSH1 0xE SLOAD TIMESTAMP LT ISZERO PUSH2 0x90B JUMPI PUSH1 0x40 MLOAD PUSH3 0x461BCD PUSH1 0xE5 SHL DUP2 MSTORE PUSH1 0x20 PUSH1 0x4 DUP3 ADD MSTORE PUSH1 0xB PUSH1 0x24 DUP3 ADD MSTORE PUSH11 0x139BDD081CDD185C9D1959 PUSH1 0xAA SHL PUSH1 0x44 DUP3 ADD MSTORE PUSH1 0x64 ADD PUSH2 0x45C JUMP JUMPDEST PUSH1 0xF SLOAD TIMESTAMP LT PUSH2 0x944 JUMPI PUSH1 0x40 MLOAD PUSH3 0x461BCD PUSH1 0xE5 SHL DUP2 MSTORE PUSH1 0x20 PUSH1 0x4 DUP3 ADD MSTORE PUSH1 0x5 PUSH1 0x24 DUP3 ADD MSTORE PUSH5 0x115B991959 PUSH1 0xDA SHL PUSH1 0x44 DUP3 ADD MSTORE PUSH1 0x64 ADD PUSH2 0x45C JUMP JUMPDEST PUSH1 0xA SLOAD DUP2 LT ISZERO PUSH2 0x98D JUMPI PUSH1 0x40 MLOAD PUSH3 0x461BCD PUSH1 0xE5 SHL DUP2 MSTORE PUSH1 0x20 PUSH1 0x4 DUP3 ADD MSTORE PUSH1 0x14 PUSH1 0x24 DUP3 ADD MSTORE PUSH20 0x13195CDCC81D1A195B881B5A5B88185B5BDD5B9D PUSH1 0x62 SHL PUSH1 0x44 DUP3 ADD MSTORE PUSH1 0x64 ADD PUSH2 0x45C JUMP JUMPDEST PUSH1 0xB SLOAD DUP2 GT ISZERO PUSH2 0x9D6 JUMPI PUSH1 0x40 MLOAD PUSH3 0x461BCD PUSH1 0xE5 SHL DUP2 MSTORE PUSH1 0x20 PUSH1 0x4 DUP3 ADD MSTORE PUSH1 0x14 PUSH1 0x24 DUP3 ADD MSTORE PUSH20 0x135BDC99481D1A195B881B585E08185B5BDD5B9D PUSH1 0x62 SHL PUSH1 0x44 DUP3 ADD MSTORE PUSH1 0x64 ADD PUSH2 0x45C JUMP JUMPDEST PUSH1 0x9 SLOAD PUSH1 0x11 SLOAD PUSH2 0x9E6 SWAP1 DUP4 PUSH2 0xE85 JUMP JUMPDEST GT ISZERO PUSH2 0xA21 JUMPI PUSH1 0x40 MLOAD PUSH3 0x461BCD PUSH1 0xE5 SHL DUP2 MSTORE PUSH1 0x20 PUSH1 0x4 DUP3 ADD MSTORE PUSH1 0xA PUSH1 0x24 DUP3 ADD MSTORE PUSH10 0x13DD995C999A5B1B1959 PUSH1 0xB2 SHL PUSH1 0x44 DUP3 ADD MSTORE PUSH1 0x64 ADD PUSH2 0x45C JUMP JUMPDEST CALLER PUSH1 0x0 SWAP1 DUP2 MSTORE PUSH1 0x15 PUSH1 0x20 MSTORE PUSH1 0x40 SWAP1 KECCAK256 PUSH1 0xB SLOAD PUSH1 0x2 DUP3 ADD SLOAD PUSH2 0xA42 SWAP1 DUP5 PUSH2 0xE85 JUMP JUMPDEST GT ISZERO PUSH2 0xA87 JUMPI PUSH1 0x40 MLOAD PUSH3 0x461BCD PUSH1 0xE5 SHL DUP2 MSTORE PUSH1 0x20 PUSH1 0x4 DUP3 ADD MSTORE PUSH1 0x14 PUSH1 0x24 DUP3 ADD MSTORE PUSH20 0x135BDC99481D1A195B881B585E08185B5BDD5B9D PUSH1 0x62 SHL PUSH1 0x44 DUP3 ADD MSTORE PUSH1 0x64 ADD PUSH2 0x45C JUMP JUMPDEST PUSH1 0x0 PUSH2 0xA98 DUP4 PUSH1 0x7 PUSH1 0x0 ADD SLOAD PUSH2 0xEF6 JUMP JUMPDEST PUSH1 0x4 SLOAD SWAP1 SWAP2 POP PUSH2 0xAB3 SWAP1 PUSH1 0x1 PUSH1 0x1 PUSH1 0xA0 SHL SUB AND CALLER ADDRESS DUP7 PUSH2 0xF1B JUMP JUMPDEST PUSH1 0x11 SLOAD PUSH2 0xAC0 SWAP1 DUP5 PUSH2 0xE85 JUMP JUMPDEST PUSH1 0x11 SSTORE PUSH1 0x12 SLOAD PUSH2 0xAD0 SWAP1 DUP3 PUSH2 0xE85 JUMP JUMPDEST PUSH1 0x12 SSTORE PUSH1 0x2 DUP3 ADD SLOAD PUSH2 0xAE2 SWAP1 DUP5 PUSH2 0xE85 JUMP JUMPDEST PUSH1 0x2 DUP4 ADD SSTORE PUSH1 0x1 DUP3 ADD SLOAD PUSH2 0xAF6 SWAP1 DUP3 PUSH2 0xE85 JUMP JUMPDEST PUSH1 0x1 DUP4 ADD SSTORE DUP2 SLOAD PUSH2 0xB07 SWAP1 DUP3 PUSH2 0xE85 JUMP JUMPDEST DUP3 SSTORE PUSH1 0x40 DUP1 MLOAD DUP5 DUP2 MSTORE PUSH1 0x20 DUP2 ADD DUP4 SWAP1 MSTORE CALLER SWAP2 PUSH32 0xB55D4CA2FC644CA3F8CDC9C907826E24ACD68D2B2D4D73F48B8F2378DBAEDF5D SWAP2 ADD PUSH1 0x40 MLOAD DUP1 SWAP2 SUB SWAP1 LOG2 POP POP POP JUMP JUMPDEST PUSH2 0xB51 PUSH2 0xC96 JUMP JUMPDEST PUSH1 0x14 SLOAD PUSH1 0xFF AND PUSH2 0xBAF JUMPI PUSH1 0x40 MLOAD PUSH3 0x461BCD PUSH1 0xE5 SHL DUP2 MSTORE PUSH1 0x20 PUSH1 0x4 DUP3 ADD MSTORE PUSH1 0x23 PUSH1 0x24 DUP3 ADD MSTORE PUSH32 0x576974686472617720616C6C6F77656420616674657220646973747269627574 PUSH1 0x44 DUP3 ADD MSTORE PUSH3 0x32B217 PUSH1 0xE9 SHL PUSH1 0x64 DUP3 ADD MSTORE PUSH1 0x84 ADD PUSH2 0x45C JUMP JUMPDEST PUSH1 0x0 PUSH2 0xBB9 PUSH2 0x6B2 JUMP JUMPDEST SWAP1 POP PUSH1 0x0 DUP2 GT PUSH2 0x893 JUMPI PUSH1 0x40 MLOAD PUSH3 0x461BCD PUSH1 0xE5 SHL DUP2 MSTORE PUSH1 0x20 PUSH1 0x4 DUP3 ADD MSTORE PUSH1 0x23 PUSH1 0x24 DUP3 ADD MSTORE PUSH32 0x5468652049444F20706F6F6C20686173206E6F7420756E736F6C6420746F6B65 PUSH1 0x44 DUP3 ADD MSTORE PUSH3 0x373997 PUSH1 0xE9 SHL PUSH1 0x64 DUP3 ADD MSTORE PUSH1 0x84 ADD PUSH2 0x45C JUMP JUMPDEST PUSH2 0x8AA DUP2 PUSH2 0xD58 JUMP JUMPDEST PUSH2 0xC28 PUSH2 0xC96 JUMP JUMPDEST PUSH1 0x1 PUSH1 0x1 PUSH1 0xA0 SHL SUB DUP2 AND PUSH2 0xC8D JUMPI PUSH1 0x40 MLOAD PUSH3 0x461BCD PUSH1 0xE5 SHL DUP2 MSTORE PUSH1 0x20 PUSH1 0x4 DUP3 ADD MSTORE PUSH1 0x26 PUSH1 0x24 DUP3 ADD MSTORE PUSH32 0x4F776E61626C653A206E6577206F776E657220697320746865207A65726F2061 PUSH1 0x44 DUP3 ADD MSTORE PUSH6 0x646472657373 PUSH1 0xD0 SHL PUSH1 0x64 DUP3 ADD MSTORE PUSH1 0x84 ADD PUSH2 0x45C JUMP JUMPDEST PUSH2 0x8AA DUP2 PUSH2 0xEA6 JUMP JUMPDEST PUSH1 0x0 SLOAD PUSH1 0x1 PUSH1 0x1 PUSH1 0xA0 SHL SUB AND CALLER EQ PUSH2 0x5B3 JUMPI PUSH1 0x40 MLOAD PUSH3 0x461BCD PUSH1 0xE5 SHL DUP2 MSTORE PUSH1 0x20 PUSH1 0x4 DUP3 ADD DUP2 SWAP1 MSTORE PUSH1 0x24 DUP3 ADD MSTORE PUSH32 0x4F776E61626C653A2063616C6C6572206973206E6F7420746865206F776E6572 PUSH1 0x44 DUP3 ADD MSTORE PUSH1 0x64 ADD PUSH2 0x45C JUMP JUMPDEST PUSH1 0x40 MLOAD PUSH1 0x1 PUSH1 0x1 PUSH1 0xA0 SHL SUB DUP4 AND PUSH1 0x24 DUP3 ADD MSTORE PUSH1 0x44 DUP2 ADD DUP3 SWAP1 MSTORE PUSH2 0xD53 SWAP1 DUP5 SWAP1 PUSH4 0xA9059CBB PUSH1 0xE0 SHL SWAP1 PUSH1 0x64 ADD JUMPDEST PUSH1 0x40 DUP1 MLOAD PUSH1 0x1F NOT DUP2 DUP5 SUB ADD DUP2 MSTORE SWAP2 SWAP1 MSTORE PUSH1 0x20 DUP2 ADD DUP1 MLOAD PUSH1 0x1 PUSH1 0x1 PUSH1 0xE0 SHL SUB AND PUSH1 0x1 PUSH1 0x1 PUSH1 0xE0 SHL SUB NOT SWAP1 SWAP4 AND SWAP3 SWAP1 SWAP3 OR SWAP1 SWAP2 MSTORE PUSH2 0xF59 JUMP JUMPDEST POP POP POP JUMP JUMPDEST PUSH2 0xD60 PUSH2 0x102B JUMP JUMPDEST PUSH1 0xF SLOAD TIMESTAMP GT PUSH2 0xD81 JUMPI PUSH1 0x40 MLOAD PUSH3 0x461BCD PUSH1 0xE5 SHL DUP2 MSTORE PUSH1 0x4 ADD PUSH2 0x45C SWAP1 PUSH2 0x13E6 JUMP JUMPDEST PUSH1 0x8 SLOAD PUSH1 0x11 SLOAD LT ISZERO PUSH2 0xDA5 JUMPI PUSH1 0x40 MLOAD PUSH3 0x461BCD PUSH1 0xE5 SHL DUP2 MSTORE PUSH1 0x4 ADD PUSH2 0x45C SWAP1 PUSH2 0x141D JUMP JUMPDEST PUSH1 0x1 PUSH1 0x1 PUSH1 0xA0 SHL SUB DUP2 AND PUSH1 0x0 SWAP1 DUP2 MSTORE PUSH1 0x15 PUSH1 0x20 MSTORE PUSH1 0x40 SWAP1 KECCAK256 DUP1 SLOAD DUP1 PUSH2 0xE0C JUMPI PUSH1 0x40 MLOAD PUSH3 0x461BCD PUSH1 0xE5 SHL DUP2 MSTORE PUSH1 0x20 PUSH1 0x4 DUP3 ADD MSTORE PUSH1 0x1C PUSH1 0x24 DUP3 ADD MSTORE PUSH32 0x596F7520646F206E6F742068617665206465627420746F6B656E732E00000000 PUSH1 0x44 DUP3 ADD MSTORE PUSH1 0x64 ADD PUSH2 0x45C JUMP JUMPDEST PUSH1 0x0 DUP3 SSTORE PUSH1 0x13 SLOAD PUSH2 0xE1D SWAP1 DUP3 PUSH2 0xE85 JUMP JUMPDEST PUSH1 0x13 SSTORE PUSH1 0x2 SLOAD PUSH2 0xE37 SWAP1 PUSH1 0x1 PUSH1 0x1 PUSH1 0xA0 SHL SUB AND DUP5 DUP4 PUSH2 0xCF0 JUMP JUMPDEST DUP3 PUSH1 0x1 PUSH1 0x1 PUSH1 0xA0 SHL SUB AND PUSH32 0x6352C5382C4A4578E712449CA65E83CDB392D045DFCF1CAD9615189DB2DA244B DUP3 PUSH1 0x40 MLOAD PUSH2 0xE72 SWAP2 DUP2 MSTORE PUSH1 0x20 ADD SWAP1 JUMP JUMPDEST PUSH1 0x40 MLOAD DUP1 SWAP2 SUB SWAP1 LOG2 POP POP PUSH2 0x8AA PUSH1 0x1 DUP1 SSTORE JUMP JUMPDEST PUSH1 0x0 PUSH2 0xE91 DUP3 DUP5 PUSH2 0x159E JUMP JUMPDEST SWAP1 POP JUMPDEST SWAP3 SWAP2 POP POP JUMP JUMPDEST PUSH1 0x0 PUSH2 0xE91 DUP3 DUP5 PUSH2 0x15B1 JUMP JUMPDEST PUSH1 0x0 DUP1 SLOAD PUSH1 0x1 PUSH1 0x1 PUSH1 0xA0 SHL SUB DUP4 DUP2 AND PUSH1 0x1 PUSH1 0x1 PUSH1 0xA0 SHL SUB NOT DUP4 AND DUP2 OR DUP5 SSTORE PUSH1 0x40 MLOAD SWAP2 SWAP1 SWAP3 AND SWAP3 DUP4 SWAP2 PUSH32 0x8BE0079C531659141344CD1FD0A4F28419497F9722A3DAAFE3B4186F6B6457E0 SWAP2 SWAP1 LOG3 POP POP JUMP JUMPDEST PUSH1 0x0 PUSH1 0x3 SLOAD PUSH1 0xA PUSH2 0xF07 SWAP2 SWAP1 PUSH2 0x16A8 JUMP JUMPDEST PUSH2 0xF11 DUP4 DUP6 PUSH2 0x16B4 JUMP JUMPDEST PUSH2 0xE91 SWAP2 SWAP1 PUSH2 0x16D6 JUMP JUMPDEST PUSH1 0x40 MLOAD PUSH1 0x1 PUSH1 0x1 PUSH1 0xA0 SHL SUB DUP1 DUP6 AND PUSH1 0x24 DUP4 ADD MSTORE DUP4 AND PUSH1 0x44 DUP3 ADD MSTORE PUSH1 0x64 DUP2 ADD DUP3 SWAP1 MSTORE PUSH2 0xF53 SWAP1 DUP6 SWAP1 PUSH4 0x23B872DD PUSH1 0xE0 SHL SWAP1 PUSH1 0x84 ADD PUSH2 0xD1C JUMP JUMPDEST POP POP POP POP JUMP JUMPDEST PUSH1 0x0 PUSH2 0xFAE DUP3 PUSH1 0x40 MLOAD DUP1 PUSH1 0x40 ADD PUSH1 0x40 MSTORE DUP1 PUSH1 0x20 DUP2 MSTORE PUSH1 0x20 ADD PUSH32 0x5361666545524332303A206C6F772D6C6576656C2063616C6C206661696C6564 DUP2 MSTORE POP DUP6 PUSH1 0x1 PUSH1 0x1 PUSH1 0xA0 SHL SUB AND PUSH2 0x1084 SWAP1 SWAP3 SWAP2 SWAP1 PUSH4 0xFFFFFFFF AND JUMP JUMPDEST DUP1 MLOAD SWAP1 SWAP2 POP ISZERO PUSH2 0xD53 JUMPI DUP1 DUP1 PUSH1 0x20 ADD SWAP1 MLOAD DUP2 ADD SWAP1 PUSH2 0xFCC SWAP2 SWAP1 PUSH2 0x16ED JUMP JUMPDEST PUSH2 0xD53 JUMPI PUSH1 0x40 MLOAD PUSH3 0x461BCD PUSH1 0xE5 SHL DUP2 MSTORE PUSH1 0x20 PUSH1 0x4 DUP3 ADD MSTORE PUSH1 0x2A PUSH1 0x24 DUP3 ADD MSTORE PUSH32 0x5361666545524332303A204552433230206F7065726174696F6E20646964206E PUSH1 0x44 DUP3 ADD MSTORE PUSH10 0x1BDD081CDD58D8D95959 PUSH1 0xB2 SHL PUSH1 0x64 DUP3 ADD MSTORE PUSH1 0x84 ADD PUSH2 0x45C JUMP JUMPDEST PUSH1 0x2 PUSH1 0x1 SLOAD SUB PUSH2 0x107D JUMPI PUSH1 0x40 MLOAD PUSH3 0x461BCD PUSH1 0xE5 SHL DUP2 MSTORE PUSH1 0x20 PUSH1 0x4 DUP3 ADD MSTORE PUSH1 0x1F PUSH1 0x24 DUP3 ADD MSTORE PUSH32 0x5265656E7472616E637947756172643A207265656E7472616E742063616C6C00 PUSH1 0x44 DUP3 ADD MSTORE PUSH1 0x64 ADD PUSH2 0x45C JUMP JUMPDEST PUSH1 0x2 PUSH1 0x1 SSTORE JUMP JUMPDEST PUSH1 0x60 PUSH2 0x1093 DUP5 DUP5 PUSH1 0x0 DUP6 PUSH2 0x109B JUMP JUMPDEST SWAP5 SWAP4 POP POP POP POP JUMP JUMPDEST PUSH1 0x60 DUP3 SELFBALANCE LT ISZERO PUSH2 0x10FC JUMPI PUSH1 0x40 MLOAD PUSH3 0x461BCD PUSH1 0xE5 SHL DUP2 MSTORE PUSH1 0x20 PUSH1 0x4 DUP3 ADD MSTORE PUSH1 0x26 PUSH1 0x24 DUP3 ADD MSTORE PUSH32 0x416464726573733A20696E73756666696369656E742062616C616E636520666F PUSH1 0x44 DUP3 ADD MSTORE PUSH6 0x1C8818D85B1B PUSH1 0xD2 SHL PUSH1 0x64 DUP3 ADD MSTORE PUSH1 0x84 ADD PUSH2 0x45C JUMP JUMPDEST PUSH1 0x0 DUP1 DUP7 PUSH1 0x1 PUSH1 0x1 PUSH1 0xA0 SHL SUB AND DUP6 DUP8 PUSH1 0x40 MLOAD PUSH2 0x1118 SWAP2 SWAP1 PUSH2 0x1716 JUMP JUMPDEST PUSH1 0x0 PUSH1 0x40 MLOAD DUP1 DUP4 SUB DUP2 DUP6 DUP8 GAS CALL SWAP3 POP POP POP RETURNDATASIZE DUP1 PUSH1 0x0 DUP2 EQ PUSH2 0x1155 JUMPI PUSH1 0x40 MLOAD SWAP2 POP PUSH1 0x1F NOT PUSH1 0x3F RETURNDATASIZE ADD AND DUP3 ADD PUSH1 0x40 MSTORE RETURNDATASIZE DUP3 MSTORE RETURNDATASIZE PUSH1 0x0 PUSH1 0x20 DUP5 ADD RETURNDATACOPY PUSH2 0x115A JUMP JUMPDEST PUSH1 0x60 SWAP2 POP JUMPDEST POP SWAP2 POP SWAP2 POP PUSH2 0x116B DUP8 DUP4 DUP4 DUP8 PUSH2 0x1176 JUMP JUMPDEST SWAP8 SWAP7 POP POP POP POP POP POP POP JUMP JUMPDEST PUSH1 0x60 DUP4 ISZERO PUSH2 0x11E5 JUMPI DUP3 MLOAD PUSH1 0x0 SUB PUSH2 0x11DE JUMPI PUSH1 0x1 PUSH1 0x1 PUSH1 0xA0 SHL SUB DUP6 AND EXTCODESIZE PUSH2 0x11DE JUMPI PUSH1 0x40 MLOAD PUSH3 0x461BCD PUSH1 0xE5 SHL DUP2 MSTORE PUSH1 0x20 PUSH1 0x4 DUP3 ADD MSTORE PUSH1 0x1D PUSH1 0x24 DUP3 ADD MSTORE PUSH32 0x416464726573733A2063616C6C20746F206E6F6E2D636F6E7472616374000000 PUSH1 0x44 DUP3 ADD MSTORE PUSH1 0x64 ADD PUSH2 0x45C JUMP JUMPDEST POP DUP2 PUSH2 0x1093 JUMP JUMPDEST PUSH2 0x1093 DUP4 DUP4 DUP2 MLOAD ISZERO PUSH2 0x11FA JUMPI DUP2 MLOAD DUP1 DUP4 PUSH1 0x20 ADD REVERT JUMPDEST DUP1 PUSH1 0x40 MLOAD PUSH3 0x461BCD PUSH1 0xE5 SHL DUP2 MSTORE PUSH1 0x4 ADD PUSH2 0x45C SWAP2 SWAP1 PUSH2 0x126F JUMP JUMPDEST DUP1 CALLDATALOAD PUSH1 0x1 PUSH1 0x1 PUSH1 0xA0 SHL SUB DUP2 AND DUP2 EQ PUSH2 0x122B JUMPI PUSH1 0x0 DUP1 REVERT JUMPDEST SWAP2 SWAP1 POP JUMP JUMPDEST PUSH1 0x0 PUSH1 0x20 DUP3 DUP5 SUB SLT ISZERO PUSH2 0x1242 JUMPI PUSH1 0x0 DUP1 REVERT JUMPDEST PUSH2 0xE91 DUP3 PUSH2 0x1214 JUMP JUMPDEST PUSH1 0x0 JUMPDEST DUP4 DUP2 LT ISZERO PUSH2 0x1266 JUMPI DUP2 DUP2 ADD MLOAD DUP4 DUP3 ADD MSTORE PUSH1 0x20 ADD PUSH2 0x124E JUMP JUMPDEST POP POP PUSH1 0x0 SWAP2 ADD MSTORE JUMP JUMPDEST PUSH1 0x20 DUP2 MSTORE PUSH1 0x0 DUP3 MLOAD DUP1 PUSH1 0x20 DUP5 ADD MSTORE PUSH2 0x128E DUP2 PUSH1 0x40 DUP6 ADD PUSH1 0x20 DUP8 ADD PUSH2 0x124B JUMP JUMPDEST PUSH1 0x1F ADD PUSH1 0x1F NOT AND SWAP2 SWAP1 SWAP2 ADD PUSH1 0x40 ADD SWAP3 SWAP2 POP POP JUMP JUMPDEST PUSH1 0x0 DUP1 PUSH1 0x40 DUP4 DUP6 SUB SLT ISZERO PUSH2 0x12B5 JUMPI PUSH1 0x0 DUP1 REVERT JUMPDEST PUSH2 0x12BE DUP4 PUSH2 0x1214 JUMP JUMPDEST SWAP5 PUSH1 0x20 SWAP4 SWAP1 SWAP4 ADD CALLDATALOAD SWAP4 POP POP POP JUMP JUMPDEST PUSH4 0x4E487B71 PUSH1 0xE0 SHL PUSH1 0x0 MSTORE PUSH1 0x41 PUSH1 0x4 MSTORE PUSH1 0x24 PUSH1 0x0 REVERT JUMPDEST PUSH1 0x0 PUSH1 0x20 DUP3 DUP5 SUB SLT ISZERO PUSH2 0x12F4 JUMPI PUSH1 0x0 DUP1 REVERT JUMPDEST DUP2 CALLDATALOAD PUSH8 0xFFFFFFFFFFFFFFFF DUP1 DUP3 GT ISZERO PUSH2 0x130C JUMPI PUSH1 0x0 DUP1 REVERT JUMPDEST DUP2 DUP5 ADD SWAP2 POP DUP5 PUSH1 0x1F DUP4 ADD SLT PUSH2 0x1320 JUMPI PUSH1 0x0 DUP1 REVERT JUMPDEST DUP2 CALLDATALOAD DUP2 DUP2 GT ISZERO PUSH2 0x1332 JUMPI PUSH2 0x1332 PUSH2 0x12CC JUMP JUMPDEST PUSH1 0x40 MLOAD PUSH1 0x1F DUP3 ADD PUSH1 0x1F NOT SWAP1 DUP2 AND PUSH1 0x3F ADD AND DUP2 ADD SWAP1 DUP4 DUP3 GT DUP2 DUP4 LT OR ISZERO PUSH2 0x135A JUMPI PUSH2 0x135A PUSH2 0x12CC JUMP JUMPDEST DUP2 PUSH1 0x40 MSTORE DUP3 DUP2 MSTORE DUP8 PUSH1 0x20 DUP5 DUP8 ADD ADD GT ISZERO PUSH2 0x1373 JUMPI PUSH1 0x0 DUP1 REVERT JUMPDEST DUP3 PUSH1 0x20 DUP7 ADD PUSH1 0x20 DUP4 ADD CALLDATACOPY PUSH1 0x0 SWAP3 DUP2 ADD PUSH1 0x20 ADD SWAP3 SWAP1 SWAP3 MSTORE POP SWAP6 SWAP5 POP POP POP POP POP JUMP JUMPDEST PUSH1 0x0 PUSH1 0x20 DUP3 DUP5 SUB SLT ISZERO PUSH2 0x13A5 JUMPI PUSH1 0x0 DUP1 REVERT JUMPDEST POP CALLDATALOAD SWAP2 SWAP1 POP JUMP JUMPDEST PUSH1 0x1 DUP2 DUP2 SHR SWAP1 DUP3 AND DUP1 PUSH2 0x13C0 JUMPI PUSH1 0x7F DUP3 AND SWAP2 POP JUMPDEST PUSH1 0x20 DUP3 LT DUP2 SUB PUSH2 0x13E0 JUMPI PUSH4 0x4E487B71 PUSH1 0xE0 SHL PUSH1 0x0 MSTORE PUSH1 0x22 PUSH1 0x4 MSTORE PUSH1 0x24 PUSH1 0x0 REVERT JUMPDEST POP SWAP2 SWAP1 POP JUMP JUMPDEST PUSH1 0x20 DUP1 DUP3 MSTORE PUSH1 0x1B SWAP1 DUP3 ADD MSTORE PUSH32 0x5468652049444F20706F6F6C20686173206E6F7420656E6465642E0000000000 PUSH1 0x40 DUP3 ADD MSTORE PUSH1 0x60 ADD SWAP1 JUMP JUMPDEST PUSH1 0x20 DUP1 DUP3 MSTORE PUSH1 0x24 SWAP1 DUP3 ADD MSTORE PUSH32 0x5468652049444F20706F6F6C20646964206E6F7420726561636820736F667420 PUSH1 0x40 DUP3 ADD MSTORE PUSH4 0x31B0B817 PUSH1 0xE1 SHL PUSH1 0x60 DUP3 ADD MSTORE PUSH1 0x80 ADD SWAP1 JUMP JUMPDEST PUSH1 0x0 PUSH1 0x20 DUP3 DUP5 SUB SLT ISZERO PUSH2 0x1473 JUMPI PUSH1 0x0 DUP1 REVERT JUMPDEST POP MLOAD SWAP2 SWAP1 POP JUMP JUMPDEST PUSH1 0x1F DUP3 GT ISZERO PUSH2 0xD53 JUMPI PUSH1 0x0 DUP2 DUP2 MSTORE PUSH1 0x20 DUP2 KECCAK256 PUSH1 0x1F DUP6 ADD PUSH1 0x5 SHR DUP2 ADD PUSH1 0x20 DUP7 LT ISZERO PUSH2 0x14A1 JUMPI POP DUP1 JUMPDEST PUSH1 0x1F DUP6 ADD PUSH1 0x5 SHR DUP3 ADD SWAP2 POP JUMPDEST DUP2 DUP2 LT ISZERO PUSH2 0x14C0 JUMPI DUP3 DUP2 SSTORE PUSH1 0x1 ADD PUSH2 0x14AD JUMP JUMPDEST POP POP POP POP POP POP JUMP JUMPDEST DUP2 MLOAD PUSH8 0xFFFFFFFFFFFFFFFF DUP2 GT ISZERO PUSH2 0x14E2 JUMPI PUSH2 0x14E2 PUSH2 0x12CC JUMP JUMPDEST PUSH2 0x14F6 DUP2 PUSH2 0x14F0 DUP5 SLOAD PUSH2 0x13AC JUMP JUMPDEST DUP5 PUSH2 0x147A JUMP JUMPDEST PUSH1 0x20 DUP1 PUSH1 0x1F DUP4 GT PUSH1 0x1 DUP2 EQ PUSH2 0x152B JUMPI PUSH1 0x0 DUP5 ISZERO PUSH2 0x1513 JUMPI POP DUP6 DUP4 ADD MLOAD JUMPDEST PUSH1 0x0 NOT PUSH1 0x3 DUP7 SWAP1 SHL SHR NOT AND PUSH1 0x1 DUP6 SWAP1 SHL OR DUP6 SSTORE PUSH2 0x14C0 JUMP JUMPDEST PUSH1 0x0 DUP6 DUP2 MSTORE PUSH1 0x20 DUP2 KECCAK256 PUSH1 0x1F NOT DUP7 AND SWAP2 JUMPDEST DUP3 DUP2 LT ISZERO PUSH2 0x155A JUMPI DUP9 DUP7 ADD MLOAD DUP3 SSTORE SWAP5 DUP5 ADD SWAP5 PUSH1 0x1 SWAP1 SWAP2 ADD SWAP1 DUP5 ADD PUSH2 0x153B JUMP JUMPDEST POP DUP6 DUP3 LT ISZERO PUSH2 0x1578 JUMPI DUP8 DUP6 ADD MLOAD PUSH1 0x0 NOT PUSH1 0x3 DUP9 SWAP1 SHL PUSH1 0xF8 AND SHR NOT AND DUP2 SSTORE JUMPDEST POP POP POP POP POP PUSH1 0x1 SWAP1 DUP2 SHL ADD SWAP1 SSTORE POP JUMP JUMPDEST PUSH4 0x4E487B71 PUSH1 0xE0 SHL PUSH1 0x0 MSTORE PUSH1 0x11 PUSH1 0x4 MSTORE PUSH1 0x24 PUSH1 0x0 REVERT JUMPDEST DUP1 DUP3 ADD DUP1 DUP3 GT ISZERO PUSH2 0xE94 JUMPI PUSH2 0xE94 PUSH2 0x1588 JUMP JUMPDEST DUP2 DUP2 SUB DUP2 DUP2 GT ISZERO PUSH2 0xE94 JUMPI PUSH2 0xE94 PUSH2 0x1588 JUMP JUMPDEST PUSH1 0x1 DUP2 DUP2 JUMPDEST DUP1 DUP6 GT ISZERO PUSH2 0x15FF JUMPI DUP2 PUSH1 0x0 NOT DIV DUP3 GT ISZERO PUSH2 0x15E5 JUMPI PUSH2 0x15E5 PUSH2 0x1588 JUMP JUMPDEST DUP1 DUP6 AND ISZERO PUSH2 0x15F2 JUMPI SWAP2 DUP2 MUL SWAP2 JUMPDEST SWAP4 DUP5 SHR SWAP4 SWAP1 DUP1 MUL SWAP1 PUSH2 0x15C9 JUMP JUMPDEST POP SWAP3 POP SWAP3 SWAP1 POP JUMP JUMPDEST PUSH1 0x0 DUP3 PUSH2 0x1616 JUMPI POP PUSH1 0x1 PUSH2 0xE94 JUMP JUMPDEST DUP2 PUSH2 0x1623 JUMPI POP PUSH1 0x0 PUSH2 0xE94 JUMP JUMPDEST DUP2 PUSH1 0x1 DUP2 EQ PUSH2 0x1639 JUMPI PUSH1 0x2 DUP2 EQ PUSH2 0x1643 JUMPI PUSH2 0x165F JUMP JUMPDEST PUSH1 0x1 SWAP2 POP POP PUSH2 0xE94 JUMP JUMPDEST PUSH1 0xFF DUP5 GT ISZERO PUSH2 0x1654 JUMPI PUSH2 0x1654 PUSH2 0x1588 JUMP JUMPDEST POP POP PUSH1 0x1 DUP3 SHL PUSH2 0xE94 JUMP JUMPDEST POP PUSH1 0x20 DUP4 LT PUSH2 0x133 DUP4 LT AND PUSH1 0x4E DUP5 LT PUSH1 0xB DUP5 LT AND OR ISZERO PUSH2 0x1682 JUMPI POP DUP2 DUP2 EXP PUSH2 0xE94 JUMP JUMPDEST PUSH2 0x168C DUP4 DUP4 PUSH2 0x15C4 JUMP JUMPDEST DUP1 PUSH1 0x0 NOT DIV DUP3 GT ISZERO PUSH2 0x16A0 JUMPI PUSH2 0x16A0 PUSH2 0x1588 JUMP JUMPDEST MUL SWAP4 SWAP3 POP POP POP JUMP JUMPDEST PUSH1 0x0 PUSH2 0xE91 DUP4 DUP4 PUSH2 0x1607 JUMP JUMPDEST PUSH1 0x0 DUP3 PUSH2 0x16D1 JUMPI PUSH4 0x4E487B71 PUSH1 0xE0 SHL PUSH1 0x0 MSTORE PUSH1 0x12 PUSH1 0x4 MSTORE PUSH1 0x24 PUSH1 0x0 REVERT JUMPDEST POP DIV SWAP1 JUMP JUMPDEST DUP1 DUP3 MUL DUP2 ISZERO DUP3 DUP3 DIV DUP5 EQ OR PUSH2 0xE94 JUMPI PUSH2 0xE94 PUSH2 0x1588 JUMP JUMPDEST PUSH1 0x0 PUSH1 0x20 DUP3 DUP5 SUB SLT ISZERO PUSH2 0x16FF JUMPI PUSH1 0x0 DUP1 REVERT JUMPDEST DUP2 MLOAD DUP1 ISZERO ISZERO DUP2 EQ PUSH2 0x170F JUMPI PUSH1 0x0 DUP1 REVERT JUMPDEST SWAP4 SWAP3 POP POP POP JUMP JUMPDEST PUSH1 0x0 DUP3 MLOAD PUSH2 0x1728 DUP2 DUP5 PUSH1 0x20 DUP8 ADD PUSH2 0x124B JUMP JUMPDEST SWAP2 SWAP1 SWAP2 ADD SWAP3 SWAP2 POP POP JUMP INVALID LOG2 PUSH5 0x6970667358 0x22 SLT KECCAK256 0xD0 CALLER SLT 0xB0 COINBASE 0xB9 SHR SUB PUSH3 0x6B653E 0x49 0xAA SGT 0xF7 DUP14 SDIV INVALID 0xAC SSTORE EXTCODEHASH 0x26 PUSH24 0x804C9B216F64891664736F6C634300081200330000000000 "
		},
		"gasEstimates": {
			"creation": {
				"codeDepositCost": "1198400",
				"executionCost": "infinite",
				"totalCost": "infinite"
			},
			"external": {
				"claim()": "infinite",
				"claimFor(address)": "infinite",
				"contractType()": "2384",
				"decimals()": "2385",
				"distributed()": "2420",
				"distributedTokens()": "2362",
				"finInfo()": "15067",
				"getNotSoldToken()": "infinite",
				"metadataURL()": "infinite",
				"owner()": "2431",
				"pay(uint256)": "infinite",
				"payToken()": "2470",
				"payTokenDecimals()": "2318",
				"recoverWrongTokens(address,uint256)": "infinite",
				"refund()": "infinite",
				"refundTokens()": "infinite",
				"renounceOwnership()": "infinite",
				"rewardToken()": "2425",
				"setMetadataURL(string)": "infinite",
				"timestamps()": "6598",
				"tokensForDistribution()": "2363",
				"totalInvested()": "2340",
				"transferOwnership(address)": "28403",
				"userInfo(address)": "6844",
				"withdraw()": "infinite",
				"withdrawNotSoldTokens()": "infinite"
			},
			"internal": {
				"getTokenAmount(uint256,uint256)": "infinite",
				"proccessClaim(address)": "infinite",
				"setTimestamps(struct IDOERC20Pool.Timestamps memory)": "infinite"
			}
		},
		"methodIdentifiers": {
			"claim()": "4e71d92d",
			"claimFor(address)": "ddeae033",
			"contractType()": "cb2ef6f7",
			"decimals()": "313ce567",
			"distributed()": "f84b903e",
			"distributedTokens()": "586360ce",
			"finInfo()": "12d3675e",
			"getNotSoldToken()": "62bea93f",
			"metadataURL()": "2dcc8c66",
			"owner()": "8da5cb5b",
			"pay(uint256)": "c290d691",
			"payToken()": "96336b30",
			"payTokenDecimals()": "6444e37b",
			"recoverWrongTokens(address,uint256)": "3f138d4b",
			"refund()": "590e1ae3",
			"refundTokens()": "71007509",
			"renounceOwnership()": "715018a6",
			"rewardToken()": "f7c618c1",
			"setMetadataURL(string)": "747daec5",
			"timestamps()": "491447a8",
			"tokensForDistribution()": "4b1a4c0c",
			"totalInvested()": "5216aeec",
			"transferOwnership(address)": "f2fde38b",
			"userInfo(address)": "1959a002",
			"withdraw()": "3ccfd60b",
			"withdrawNotSoldTokens()": "c6a0e27d"
		}
	},
	"abi": [
		{
			"inputs": [
				{
					"internalType": "contract ERC20",
					"name": "_rewardToken",
					"type": "address"
				},
				{
					"internalType": "contract ERC20",
					"name": "_payToken",
					"type": "address"
				},
				{
					"components": [
						{
							"internalType": "uint256",
							"name": "tokenPrice",
							"type": "uint256"
						},
						{
							"internalType": "uint256",
							"name": "softCap",
							"type": "uint256"
						},
						{
							"internalType": "uint256",
							"name": "hardCap",
							"type": "uint256"
						},
						{
							"internalType": "uint256",
							"name": "minPayment",
							"type": "uint256"
						},
						{
							"internalType": "uint256",
							"name": "maxPayment",
							"type": "uint256"
						},
						{
							"internalType": "uint256",
							"name": "listingPrice",
							"type": "uint256"
						},
						{
							"internalType": "uint256",
							"name": "lpInterestRate",
							"type": "uint256"
						}
					],
					"internalType": "struct IDOERC20Pool.FinInfo",
					"name": "_finInfo",
					"type": "tuple"
				},
				{
					"components": [
						{
							"internalType": "uint256",
							"name": "startTimestamp",
							"type": "uint256"
						},
						{
							"internalType": "uint256",
							"name": "endTimestamp",
							"type": "uint256"
						},
						{
							"internalType": "uint256",
							"name": "unlockTimestamp",
							"type": "uint256"
						}
					],
					"internalType": "struct IDOERC20Pool.Timestamps",
					"name": "_timestamps",
					"type": "tuple"
				},
				{
					"internalType": "string",
					"name": "_metadataURL",
					"type": "string"
				}
			],
			"stateMutability": "nonpayable",
			"type": "constructor"
		},
		{
			"anonymous": false,
			"inputs": [
				{
					"indexed": true,
					"internalType": "address",
					"name": "previousOwner",
					"type": "address"
				},
				{
					"indexed": true,
					"internalType": "address",
					"name": "newOwner",
					"type": "address"
				}
			],
			"name": "OwnershipTransferred",
			"type": "event"
		},
		{
			"anonymous": false,
			"inputs": [
				{
					"indexed": true,
					"internalType": "address",
					"name": "holder",
					"type": "address"
				},
				{
					"indexed": false,
					"internalType": "uint256",
					"name": "payAmount",
					"type": "uint256"
				},
				{
					"indexed": false,
					"internalType": "uint256",
					"name": "tokenAmount",
					"type": "uint256"
				}
			],
			"name": "TokensDebt",
			"type": "event"
		},
		{
			"anonymous": false,
			"inputs": [
				{
					"indexed": true,
					"internalType": "address",
					"name": "holder",
					"type": "address"
				},
				{
					"indexed": false,
					"internalType": "uint256",
					"name": "amount",
					"type": "uint256"
				}
			],
			"name": "TokensWithdrawn",
			"type": "event"
		},
		{
			"inputs": [],
			"name": "claim",
			"outputs": [],
			"stateMutability": "nonpayable",
			"type": "function"
		},
		{
			"inputs": [
				{
					"internalType": "address",
					"name": "_user",
					"type": "address"
				}
			],
			"name": "claimFor",
			"outputs": [],
			"stateMutability": "nonpayable",
			"type": "function"
		},
		{
			"inputs": [],
			"name": "contractType",
			"outputs": [
				{
					"internalType": "uint256",
					"name": "",
					"type": "uint256"
				}
			],
			"stateMutability": "view",
			"type": "function"
		},
		{
			"inputs": [],
			"name": "decimals",
			"outputs": [
				{
					"internalType": "uint256",
					"name": "",
					"type": "uint256"
				}
			],
			"stateMutability": "view",
			"type": "function"
		},
		{
			"inputs": [],
			"name": "distributed",
			"outputs": [
				{
					"internalType": "bool",
					"name": "",
					"type": "bool"
				}
			],
			"stateMutability": "view",
			"type": "function"
		},
		{
			"inputs": [],
			"name": "distributedTokens",
			"outputs": [
				{
					"internalType": "uint256",
					"name": "",
					"type": "uint256"
				}
			],
			"stateMutability": "view",
			"type": "function"
		},
		{
			"inputs": [],
			"name": "finInfo",
			"outputs": [
				{
					"internalType": "uint256",
					"name": "tokenPrice",
					"type": "uint256"
				},
				{
					"internalType": "uint256",
					"name": "softCap",
					"type": "uint256"
				},
				{
					"internalType": "uint256",
					"name": "hardCap",
					"type": "uint256"
				},
				{
					"internalType": "uint256",
					"name": "minPayment",
					"type": "uint256"
				},
				{
					"internalType": "uint256",
					"name": "maxPayment",
					"type": "uint256"
				},
				{
					"internalType": "uint256",
					"name": "listingPrice",
					"type": "uint256"
				},
				{
					"internalType": "uint256",
					"name": "lpInterestRate",
					"type": "uint256"
				}
			],
			"stateMutability": "view",
			"type": "function"
		},
		{
			"inputs": [],
			"name": "getNotSoldToken",
			"outputs": [
				{
					"internalType": "uint256",
					"name": "",
					"type": "uint256"
				}
			],
			"stateMutability": "view",
			"type": "function"
		},
		{
			"inputs": [],
			"name": "metadataURL",
			"outputs": [
				{
					"internalType": "string",
					"name": "",
					"type": "string"
				}
			],
			"stateMutability": "view",
			"type": "function"
		},
		{
			"inputs": [],
			"name": "owner",
			"outputs": [
				{
					"internalType": "address",
					"name": "",
					"type": "address"
				}
			],
			"stateMutability": "view",
			"type": "function"
		},
		{
			"inputs": [
				{
					"internalType": "uint256",
					"name": "amount",
					"type": "uint256"
				}
			],
			"name": "pay",
			"outputs": [],
			"stateMutability": "nonpayable",
			"type": "function"
		},
		{
			"inputs": [],
			"name": "payToken",
			"outputs": [
				{
					"internalType": "contract ERC20",
					"name": "",
					"type": "address"
				}
			],
			"stateMutability": "view",
			"type": "function"
		},
		{
			"inputs": [],
			"name": "payTokenDecimals",
			"outputs": [
				{
					"internalType": "uint256",
					"name": "",
					"type": "uint256"
				}
			],
			"stateMutability": "view",
			"type": "function"
		},
		{
			"inputs": [
				{
					"internalType": "address",
					"name": "_tokenAddress",
					"type": "address"
				},
				{
					"internalType": "uint256",
					"name": "_tokenAmount",
					"type": "uint256"
				}
			],
			"name": "recoverWrongTokens",
			"outputs": [],
			"stateMutability": "nonpayable",
			"type": "function"
		},
		{
			"inputs": [],
			"name": "refund",
			"outputs": [],
			"stateMutability": "nonpayable",
			"type": "function"
		},
		{
			"inputs": [],
			"name": "refundTokens",
			"outputs": [],
			"stateMutability": "nonpayable",
			"type": "function"
		},
		{
			"inputs": [],
			"name": "renounceOwnership",
			"outputs": [],
			"stateMutability": "nonpayable",
			"type": "function"
		},
		{
			"inputs": [],
			"name": "rewardToken",
			"outputs": [
				{
					"internalType": "contract ERC20",
					"name": "",
					"type": "address"
				}
			],
			"stateMutability": "view",
			"type": "function"
		},
		{
			"inputs": [
				{
					"internalType": "string",
					"name": "_metadataURL",
					"type": "string"
				}
			],
			"name": "setMetadataURL",
			"outputs": [],
			"stateMutability": "nonpayable",
			"type": "function"
		},
		{
			"inputs": [],
			"name": "timestamps",
			"outputs": [
				{
					"internalType": "uint256",
					"name": "startTimestamp",
					"type": "uint256"
				},
				{
					"internalType": "uint256",
					"name": "endTimestamp",
					"type": "uint256"
				},
				{
					"internalType": "uint256",
					"name": "unlockTimestamp",
					"type": "uint256"
				}
			],
			"stateMutability": "view",
			"type": "function"
		},
		{
			"inputs": [],
			"name": "tokensForDistribution",
			"outputs": [
				{
					"internalType": "uint256",
					"name": "",
					"type": "uint256"
				}
			],
			"stateMutability": "view",
			"type": "function"
		},
		{
			"inputs": [],
			"name": "totalInvested",
			"outputs": [
				{
					"internalType": "uint256",
					"name": "",
					"type": "uint256"
				}
			],
			"stateMutability": "view",
			"type": "function"
		},
		{
			"inputs": [
				{
					"internalType": "address",
					"name": "newOwner",
					"type": "address"
				}
			],
			"name": "transferOwnership",
			"outputs": [],
			"stateMutability": "nonpayable",
			"type": "function"
		},
		{
			"inputs": [
				{
					"internalType": "address",
					"name": "",
					"type": "address"
				}
			],
			"name": "userInfo",
			"outputs": [
				{
					"internalType": "uint256",
					"name": "debt",
					"type": "uint256"
				},
				{
					"internalType": "uint256",
					"name": "total",
					"type": "uint256"
				},
				{
					"internalType": "uint256",
					"name": "totalInvested",
					"type": "uint256"
				}
			],
			"stateMutability": "view",
			"type": "function"
		},
		{
			"inputs": [],
			"name": "withdraw",
			"outputs": [],
			"stateMutability": "nonpayable",
			"type": "function"
		},
		{
			"inputs": [],
			"name": "withdrawNotSoldTokens",
			"outputs": [],
			"stateMutability": "nonpayable",
			"type": "function"
		}
	]
}