{
	"data": {
		"bytecode": {
			"linkReferences": {},
			"object": "608060405260026001556007805460ff1916905534801561001f57600080fd5b5060405162005d7738038062005d77833981016040819052610040916100ca565b6100493361007a565b600280546001600160a01b0319166001600160a01b039490941693909317909255600455600555606460065561010d565b600080546001600160a01b038381166001600160a01b0319831681178455604051919092169283917f8be0079c531659141344cd1fd0a4f28419497f9722a3daafe3b4186f6b6457e09190a35050565b6000806000606084860312156100df57600080fd5b83516001600160a01b03811681146100f657600080fd5b602085015160409095015190969495509392505050565b615c5a806200011d6000396000f3fe60806040523480156200001157600080fd5b5060043610620001395760003560e01c80636a1860e211620000bb5780638da5cb5b116200007a5780638da5cb5b14620002745780638dc12991146200028657806390d49b9d146200029d578063f25f4b5614620002b4578063f2fde38b14620002c857600080fd5b80636a1860e214620002045780636b392680146200021d5780636e42366b14620002345780637104c9fd1462000253578063715018a6146200026a57600080fd5b806337491a91116200010857806337491a9114620001a2578063378efa3714620001b957806354fd4d5014620001c3578063647846a514620001cd57806369e1540414620001fa57600080fd5b806303807ee5146200013e578063103a9981146200015b57806315cce2241462000174578063198c46a8146200018b575b600080fd5b6200014860055481565b6040519081526020015b60405180910390f35b620001726200016c36600462000f92565b620002df565b005b620001726200018536600462000fe1565b620002fc565b620001726200019c3660046200119d565b620003b5565b62000172620001b336600462001232565b62000552565b6200014860065481565b6200014860015481565b600254620001e1906001600160a01b031681565b6040516001600160a01b03909116815260200162000152565b6200014860045481565b6200020e620006f2565b60405162000152919062001328565b620001726200022e36600462001377565b62000756565b600754620002429060ff1681565b604051901515815260200162000152565b620001e16200026436600462001377565b62000796565b62000172620007c1565b6000546001600160a01b0316620001e1565b620001726200029736600462001391565b620007d9565b62000172620002ae36600462000fe1565b6200088b565b600354620001e1906001600160a01b031681565b62000172620002d936600462000fe1565b620008e4565b620002e962000963565b6007805460ff1916911515919091179055565b6200030662000963565b803b63ffffffff16620003605760405162461bcd60e51b815260206004820152601a60248201527f4e65772061646472657373206973206e6f74206120746f6b656e00000000000060448201526064015b60405180910390fd5b600280546001600160a01b0319166001600160a01b0383169081179091556040519081527f9e892f555b0a5cac6c8cc33c82ebb9308207bd16dfdca9d0289b96d7e4186c8a906020015b60405180910390a150565b60075460ff16156200048857306001600160a01b0316638da5cb5b6040518163ffffffff1660e01b8152600401602060405180830381865afa15801562000400573d6000803e3d6000fd5b505050506040513d601f19601f82011682018060405250810190620004269190620013b4565b6001600160a01b0316336001600160a01b031614620004885760405162461bcd60e51b815260206004820152601d60248201527f4f6e6c79206f776e65722063616e206372656174652049444f506f6f6c000000604482015260640162000357565b600085858585856040516200049d9062000f67565b620004ad9594939291906200146c565b604051809103906000f080158015620004ca573d6000803e3d6000fd5b5060405163f2fde38b60e01b81523360048201529091506001600160a01b0382169063f2fde38b90602401600060405180830381600087803b1580156200051057600080fd5b505af115801562000525573d6000803e3d6000fd5b505050506200054a8682866040015187600001518860c001518960a0015188620009bf565b505050505050565b60075460ff16156200062557306001600160a01b0316638da5cb5b6040518163ffffffff1660e01b8152600401602060405180830381865afa1580156200059d573d6000803e3d6000fd5b505050506040513d601f19601f82011682018060405250810190620005c39190620013b4565b6001600160a01b0316336001600160a01b031614620006255760405162461bcd60e51b815260206004820152601d60248201527f4f6e6c79206f776e65722063616e206372656174652049444f506f6f6c000000604482015260640162000357565b60008686868686866040516200063b9062000f75565b6200064c96959493929190620014d3565b604051809103906000f08015801562000669573d6000803e3d6000fd5b5060405163f2fde38b60e01b81523360048201529091506001600160a01b0382169063f2fde38b90602401600060405180830381600087803b158015620006af57600080fd5b505af1158015620006c4573d6000803e3d6000fd5b50505050620006e98782886040015189600001518a60c001518b60a0015188620009bf565b50505050505050565b606060088054806020026020016040519081016040528092919081815260200182805480156200074c57602002820191906000526020600020905b81546001600160a01b031681526001909101906020018083116200072d575b5050505050905090565b6200076062000963565b60048190556040518181527fbb128cd9921d003aff00ed910fe24b1655b2bf1f4a2090cc3523f61bdc17231690602001620003aa565b60088181548110620007a757600080fd5b6000918252602090912001546001600160a01b0316905081565b620007cb62000963565b620007d7600062000c42565b565b620007e362000963565b80821115620008445760405162461bcd60e51b815260206004820152602660248201527f4275726e2070657263656e74206d757374206265206c657373207468616e206460448201526534bb34b232b960d11b606482015260840162000357565b6005829055600681905560408051838152602081018390527fb62d69c6ddf4f4bd443dca17ea7405d8018efb872e82e77bb8ef13b5be2f2e9c910160405180910390a15050565b6200089562000963565b600380546001600160a01b0319166001600160a01b0383169081179091556040519081527f29acee77dafcfa0143d74a7ea236018f3a6e1fa71e27fc59bbfbc6b8ca8edccd90602001620003aa565b620008ee62000963565b6001600160a01b038116620009555760405162461bcd60e51b815260206004820152602660248201527f4f776e61626c653a206e6577206f776e657220697320746865207a65726f206160448201526564647265737360d01b606482015260840162000357565b620009608162000c42565b50565b6000546001600160a01b03163314620007d75760405162461bcd60e51b815260206004820181905260248201527f4f776e61626c653a2063616c6c6572206973206e6f7420746865206f776e6572604482015260640162000357565b6000876001600160a01b031663313ce5676040518163ffffffff1660e01b8152600401602060405180830381865afa15801562000a00573d6000803e3d6000fd5b505050506040513d601f19601f8201168201806040525081019062000a26919062001563565b9050600062000a3787878462000c92565b905060008511801562000a4a5750600084115b1562000a855762000a76606462000a62878a6200159e565b62000a6e9190620015b8565b858462000c92565b62000a829082620015db565b90505b62000a9c6001600160a01b038a16338a8462000cc1565b600880546001810182556000919091527ff3f7a9fe364faab93b216da50a3214154f22a0a2b415b23a84c8169e8b636ee30180546001600160a01b0319166001600160a01b038a811691909117909155604051908a169033907ff71c11ab5bd622b01d634c5c9e59846d77ee252871f11645b7b8376ddd4dd3e29062000b26908c908890620015f1565b60405180910390a36004541562000c37576005541562000c1157600062000b6960065462000b6260055460045462000d2390919063ffffffff16565b9062000d3a565b60035460045491925062000ba49133916001600160a01b03169062000b8f908562000d48565b6002546001600160a01b031692919062000cc1565b60025460405163079cc67960e41b8152336004820152602481018390526001600160a01b03909116906379cc679090604401600060405180830381600087803b15801562000bf157600080fd5b505af115801562000c06573d6000803e3d6000fd5b505050505062000c37565b60035460045460025462000c37926001600160a01b039182169233929091169062000cc1565b505050505050505050565b600080546001600160a01b038381166001600160a01b0319831681178455604051919092169283917f8be0079c531659141344cd1fd0a4f28419497f9722a3daafe3b4186f6b6457e09190a35050565b600062000ca182600a62001714565b62000cad8486620015b8565b62000cb991906200159e565b949350505050565b604080516001600160a01b0385811660248301528416604482015260648082018490528251808303909101815260849091019091526020810180516001600160e01b03166323b872dd60e01b17905262000d1d90859062000d56565b50505050565b600062000d3182846200159e565b90505b92915050565b600062000d318284620015b8565b600062000d31828462001725565b600062000dad826040518060400160405280602081526020017f5361666545524332303a206c6f772d6c6576656c2063616c6c206661696c6564815250856001600160a01b031662000e349092919063ffffffff16565b80519091501562000e2f578080602001905181019062000dce91906200173b565b62000e2f5760405162461bcd60e51b815260206004820152602a60248201527f5361666545524332303a204552433230206f7065726174696f6e20646964206e6044820152691bdd081cdd58d8d9595960b21b606482015260840162000357565b505050565b606062000cb9848460008585600080866001600160a01b0316858760405162000e5e91906200175b565b60006040518083038185875af1925050503d806000811462000e9d576040519150601f19603f3d011682016040523d82523d6000602084013e62000ea2565b606091505b509150915062000eb58783838762000ec0565b979650505050505050565b6060831562000f3457825160000362000f2c576001600160a01b0385163b62000f2c5760405162461bcd60e51b815260206004820152601d60248201527f416464726573733a2063616c6c20746f206e6f6e2d636f6e7472616374000000604482015260640162000357565b508162000cb9565b62000cb9838381511562000f4b5781518083602001fd5b8060405162461bcd60e51b815260040162000357919062001779565b611e6f806200178f83390190565b61262780620035fe83390190565b80151581146200096057600080fd5b60006020828403121562000fa557600080fd5b813562000fb28162000f83565b9392505050565b6001600160a01b03811681146200096057600080fd5b803562000fdc8162000fb9565b919050565b60006020828403121562000ff457600080fd5b813562000fb28162000fb9565b634e487b7160e01b600052604160045260246000fd5b6040516060810167ffffffffffffffff811182821017156200103d576200103d62001001565b60405290565b600060e082840312156200105657600080fd5b60405160e0810181811067ffffffffffffffff821117156200107c576200107c62001001565b8060405250809150823581526020830135602082015260408301356040820152606083013560608201526080830135608082015260a083013560a082015260c083013560c08201525092915050565b600060608284031215620010de57600080fd5b620010e862001017565b905081358152602082013560208201526040820135604082015292915050565b600082601f8301126200111a57600080fd5b813567ffffffffffffffff8082111562001138576200113862001001565b604051601f8301601f19908116603f0116810190828211818310171562001163576200116362001001565b816040528381528660208588010111156200117d57600080fd5b836020870160208301376000602085830101528094505050505092915050565b60008060008060006101a08688031215620011b757600080fd5b8535620011c48162000fb9565b94506020860135620011d68162000fb9565b9350620011e7876040880162001043565b9250620011f9876101208801620010cb565b915061018086013567ffffffffffffffff8111156200121757600080fd5b620012258882890162001108565b9150509295509295909350565b6000806000806000808688036102008112156200124e57600080fd5b87356200125b8162000fb9565b96506200126c8960208a0162001043565b95506200127e896101008a01620010cb565b9450606061015f19820112156200129457600080fd5b506200129f62001017565b610160880135620012b08162000fb9565b8152610180880135620012c38162000fb9565b60208201526101a0880135620012d98162000fb9565b60408201529250620012ef6101c0880162000fcf565b91506101e087013567ffffffffffffffff8111156200130d57600080fd5b6200131b89828a0162001108565b9150509295509295509295565b6020808252825182820181905260009190848201906040850190845b818110156200136b5783516001600160a01b03168352928401929184019160010162001344565b50909695505050505050565b6000602082840312156200138a57600080fd5b5035919050565b60008060408385031215620013a557600080fd5b50508035926020909101359150565b600060208284031215620013c757600080fd5b815162000fb28162000fb9565b805182526020810151602083015260408101516040830152606081015160608301526080810151608083015260a081015160a083015260c081015160c08301525050565b60005b83811015620014355781810151838201526020016200141b565b50506000910152565b600081518084526200145881602086016020860162001418565b601f01601f19169290920160200192915050565b6001600160a01b0386811682528516602082015260006101a0620014946040840187620013d4565b84516101208401526020850151610140840152604085015161016084015280610180840152620014c7818401856200143e565b98975050505050505050565b6001600160a01b03878116825260009061020090620014f6602085018a620013d4565b8751610100850152602088015161012085015260408801516101408501528651811661016085015260208701518116610180850152604087015181166101a085015285166101c08401526101e0830181905262001556818401856200143e565b9998505050505050505050565b6000602082840312156200157657600080fd5b815160ff8116811462000fb257600080fd5b634e487b7160e01b600052601160045260246000fd5b808202811582820484141762000d345762000d3462001588565b600082620015d657634e487b7160e01b600052601260045260246000fd5b500490565b8082018082111562000d345762000d3462001588565b6001600160a01b038316815260406020820181905260009062000cb9908301846200143e565b600181815b80851115620016585781600019048211156200163c576200163c62001588565b808516156200164a57918102915b93841c93908002906200161c565b509250929050565b600082620016715750600162000d34565b81620016805750600062000d34565b8160018114620016995760028114620016a457620016c4565b600191505062000d34565b60ff841115620016b857620016b862001588565b50506001821b62000d34565b5060208310610133831016604e8410600b8410161715620016e9575081810a62000d34565b620016f5838362001617565b80600019048211156200170c576200170c62001588565b029392505050565b600062000d3160ff84168362001660565b8181038181111562000d345762000d3462001588565b6000602082840312156200174e57600080fd5b815162000fb28162000f83565b600082516200176f81846020870162001418565b9190910192915050565b60208152600062000d3160208301846200143e56fe60806040526014805460ff1916905560026016553480156200002057600080fd5b5060405162001e6f38038062001e6f833981016040819052620000439162000489565b6200004e33620001b1565b60018055600280546001600160a01b0319166001600160a01b0387169081179091556040805163313ce56760e01b8152905163313ce567916004808201926020929091908290030181865afa158015620000ac573d6000803e3d6000fd5b505050506040513d601f19601f82011682018060405250810190620000d2919062000570565b60ff16600355600480546001600160a01b0319166001600160a01b03861690811782556040805163313ce56760e01b81529051919263313ce5679282820192602092908290030181865afa1580156200012f573d6000803e3d6000fd5b505050506040513d601f19601f8201168201806040525081019062000155919062000570565b60ff166005558251600755602083015160085560408301516009556060830151600a556080830151600b5560a0830151600c5560c0830151600d556200019b8262000201565b620001a681620002fa565b5050505050620006f7565b600080546001600160a01b038381166001600160a01b0319831681178455604051919092169283917f8be0079c531659141344cd1fd0a4f28419497f9722a3daafe3b4186f6b6457e09190a35050565b6020810151815110620002765760405162461bcd60e51b815260206004820152603260248201527f53746172742074696d657374616d70206d757374206265206c6573732074686160448201527106e2066696e6973682074696d657374616d760741b60648201526084015b60405180910390fd5b42816020015111620002e45760405162461bcd60e51b815260206004820152603060248201527f46696e6973682074696d657374616d70206d757374206265206d6f726520746860448201526f616e2063757272656e7420626c6f636b60801b60648201526084016200026d565b8051600e556020810151600f5560400151601055565b60066200030882826200062b565b5050565b80516001600160a01b03811681146200032457600080fd5b919050565b634e487b7160e01b600052604160045260246000fd5b60405160e081016001600160401b038111828210171562000364576200036462000329565b60405290565b604051601f8201601f191681016001600160401b038111828210171562000395576200039562000329565b604052919050565b600060608284031215620003b057600080fd5b604051606081016001600160401b0381118282101715620003d557620003d562000329565b80604052508091508251815260208301516020820152604083015160408201525092915050565b600082601f8301126200040e57600080fd5b81516001600160401b038111156200042a576200042a62000329565b602062000440601f8301601f191682016200036a565b82815285828487010111156200045557600080fd5b60005b838110156200047557858101830151828201840152820162000458565b506000928101909101919091529392505050565b60008060008060008587036101a0811215620004a457600080fd5b620004af876200030c565b9550620004bf602088016200030c565b945060e0603f1982011215620004d457600080fd5b50620004df6200033f565b60408701518152606087015160208201526080870151604082015260a0870151606082015260c0870151608082015260e087015160a082015261010087015160c082015280935050620005378761012088016200039d565b6101808701519092506001600160401b038111156200055557600080fd5b6200056388828901620003fc565b9150509295509295909350565b6000602082840312156200058357600080fd5b815160ff811681146200059557600080fd5b9392505050565b600181811c90821680620005b157607f821691505b602082108103620005d257634e487b7160e01b600052602260045260246000fd5b50919050565b601f8211156200062657600081815260208120601f850160051c81016020861015620006015750805b601f850160051c820191505b8181101562000622578281556001016200060d565b5050505b505050565b81516001600160401b0381111562000647576200064762000329565b6200065f816200065884546200059c565b84620005d8565b602080601f8311600181146200069757600084156200067e5750858301515b600019600386901b1c1916600185901b17855562000622565b600085815260208120601f198616915b82811015620006c857888601518255948401946001909101908401620006a7565b5085821015620006e75787850151600019600388901b60f8161c191681555b5050505050600190811b01905550565b61176880620007076000396000f3fe608060405234801561001057600080fd5b506004361061018e5760003560e01c80636444e37b116100de578063c290d69111610097578063ddeae03311610071578063ddeae0331461034f578063f2fde38b14610362578063f7c618c114610375578063f84b903e1461038857600080fd5b8063c290d6911461032b578063c6a0e27d1461033e578063cb2ef6f71461034657600080fd5b80636444e37b146102c757806371007509146102d0578063715018a6146102d8578063747daec5146102e05780638da5cb5b146102f357806396336b301461031857600080fd5b8063491447a81161014b5780635216aeec116101255780635216aeec146102a5578063586360ce146102ae578063590e1ae3146102b757806362bea93f146102bf57600080fd5b8063491447a8146102825780634b1a4c0c146102945780634e71d92d1461029d57600080fd5b806312d3675e146101935780631959a002146101ef5780632dcc8c6614610239578063313ce5671461024e5780633ccfd60b146102655780633f138d4b1461026f575b600080fd5b600754600854600954600a54600b54600c54600d546101b59695949392919087565b604080519788526020880196909652948601939093526060850191909152608084015260a083015260c082015260e0015b60405180910390f35b61021e6101fd366004611230565b60156020526000908152604090208054600182015460029092015490919083565b604080519384526020840192909252908201526060016101e6565b6102416103a5565b6040516101e6919061126f565b61025760035481565b6040519081526020016101e6565b61026d610433565b005b61026d61027d3660046112a2565b61056f565b600e54600f5460105461021e92919083565b61025760125481565b61026d6105aa565b61025760115481565b61025760135481565b61026d6105b5565b6102576106b2565b61025760055481565b61026d61074c565b61026d6108ad565b61026d6102ee3660046112e2565b6108bf565b6000546001600160a01b03165b6040516001600160a01b0390911681526020016101e6565b600454610300906001600160a01b031681565b61026d610339366004611393565b6108cb565b61026d610b49565b61025760165481565b61026d61035d366004611230565b610c17565b61026d610370366004611230565b610c20565b600254610300906001600160a01b031681565b6014546103959060ff1681565b60405190151581526020016101e6565b600680546103b2906113ac565b80601f01602080910402602001604051908101604052809291908181526020018280546103de906113ac565b801561042b5780601f106104005761010080835404028352916020019161042b565b820191906000526020600020905b81548152906001019060200180831161040e57829003601f168201915b505050505081565b61043b610c96565b600f5442116104655760405162461bcd60e51b815260040161045c906113e6565b60405180910390fd5b60085460115410156104895760405162461bcd60e51b815260040161045c9061141d565b60145460ff16156104d35760405162461bcd60e51b815260206004820152601460248201527320b63932b0b23c903234b9ba3934b13aba32b21760611b604482015260640161045c565b600480546040516370a0823160e01b815230928101929092526000916001600160a01b03909116906370a0823190602401602060405180830381865afa158015610521573d6000803e3d6000fd5b505050506040513d601f19601f820116820180604052508101906105459190611461565b60045490915061055f906001600160a01b03163383610cf0565b506014805460ff19166001179055565b610577610c96565b6002546001600160a01b039081169083160361059257600080fd5b6105a66001600160a01b0383163383610cf0565b5050565b6105b333610d58565b565b600f5442116105d65760405162461bcd60e51b815260040161045c906113e6565b600854601154106106295760405162461bcd60e51b815260206004820181905260248201527f5468652049444f20706f6f6c2068617320726561636820736f6674206361702e604482015260640161045c565b33600090815260156020526040902060028101548061068a5760405162461bcd60e51b815260206004820152601760248201527f596f752068617665206e6f20696e766573746d656e742e000000000000000000604482015260640161045c565b60008083556002830181905560018301556004546105a6906001600160a01b03163383610cf0565b6002546040516370a0823160e01b815230600482015260009182916001600160a01b03909116906370a0823190602401602060405180830381865afa1580156106ff573d6000803e3d6000fd5b505050506040513d601f19601f820116820180604052508101906107239190611461565b905061074660125461074060135484610e8590919063ffffffff16565b90610e9a565b91505090565b610754610c96565b600f5442116107755760405162461bcd60e51b815260040161045c906113e6565b600854601154106107c85760405162461bcd60e51b815260206004820181905260248201527f5468652049444f20706f6f6c2068617320726561636820736f6674206361702e604482015260640161045c565b6002546040516370a0823160e01b81523060048201526000916001600160a01b0316906370a0823190602401602060405180830381865afa158015610811573d6000803e3d6000fd5b505050506040513d601f19601f820116820180604052508101906108359190611461565b9050600081116108935760405162461bcd60e51b815260206004820152602360248201527f5468652049444f20706f6f6c20686173206e6f7420726566756e6420746f6b6560448201526237399760e91b606482015260840161045c565b6002546108aa906001600160a01b03163383610cf0565b50565b6108b5610c96565b6105b36000610ea6565b60066105a682826114c8565b600e5442101561090b5760405162461bcd60e51b815260206004820152600b60248201526a139bdd081cdd185c9d195960aa1b604482015260640161045c565b600f5442106109445760405162461bcd60e51b8152602060048201526005602482015264115b99195960da1b604482015260640161045c565b600a5481101561098d5760405162461bcd60e51b815260206004820152601460248201527313195cdcc81d1a195b881b5a5b88185b5bdd5b9d60621b604482015260640161045c565b600b548111156109d65760405162461bcd60e51b8152602060048201526014602482015273135bdc99481d1a195b881b585e08185b5bdd5b9d60621b604482015260640161045c565b6009546011546109e69083610e85565b1115610a215760405162461bcd60e51b815260206004820152600a60248201526913dd995c999a5b1b195960b21b604482015260640161045c565b336000908152601560205260409020600b546002820154610a429084610e85565b1115610a875760405162461bcd60e51b8152602060048201526014602482015273135bdc99481d1a195b881b585e08185b5bdd5b9d60621b604482015260640161045c565b6000610a9883600760000154610ef6565b600454909150610ab3906001600160a01b0316333086610f1b565b601154610ac09084610e85565b601155601254610ad09082610e85565b6012556002820154610ae29084610e85565b60028301556001820154610af69082610e85565b60018301558154610b079082610e85565b8255604080518481526020810183905233917fb55d4ca2fc644ca3f8cdc9c907826e24acd68d2b2d4d73f48b8f2378dbaedf5d910160405180910390a2505050565b610b51610c96565b60145460ff16610baf5760405162461bcd60e51b815260206004820152602360248201527f576974686472617720616c6c6f7765642061667465722064697374726962757460448201526232b21760e91b606482015260840161045c565b6000610bb96106b2565b9050600081116108935760405162461bcd60e51b815260206004820152602360248201527f5468652049444f20706f6f6c20686173206e6f7420756e736f6c6420746f6b6560448201526237399760e91b606482015260840161045c565b6108aa81610d58565b610c28610c96565b6001600160a01b038116610c8d5760405162461bcd60e51b815260206004820152602660248201527f4f776e61626c653a206e6577206f776e657220697320746865207a65726f206160448201526564647265737360d01b606482015260840161045c565b6108aa81610ea6565b6000546001600160a01b031633146105b35760405162461bcd60e51b815260206004820181905260248201527f4f776e61626c653a2063616c6c6572206973206e6f7420746865206f776e6572604482015260640161045c565b6040516001600160a01b038316602482015260448101829052610d5390849063a9059cbb60e01b906064015b60408051601f198184030181529190526020810180516001600160e01b03166001600160e01b031990931692909217909152610f59565b505050565b610d6061102b565b600f544211610d815760405162461bcd60e51b815260040161045c906113e6565b6008546011541015610da55760405162461bcd60e51b815260040161045c9061141d565b6001600160a01b0381166000908152601560205260409020805480610e0c5760405162461bcd60e51b815260206004820152601c60248201527f596f7520646f206e6f742068617665206465627420746f6b656e732e00000000604482015260640161045c565b60008255601354610e1d9082610e85565b601355600254610e37906001600160a01b03168483610cf0565b826001600160a01b03167f6352c5382c4a4578e712449ca65e83cdb392d045dfcf1cad9615189db2da244b82604051610e7291815260200190565b60405180910390a250506108aa60018055565b6000610e91828461159e565b90505b92915050565b6000610e9182846115b1565b600080546001600160a01b038381166001600160a01b0319831681178455604051919092169283917f8be0079c531659141344cd1fd0a4f28419497f9722a3daafe3b4186f6b6457e09190a35050565b6000600354600a610f0791906116a8565b610f1183856116b4565b610e9191906116d6565b6040516001600160a01b0380851660248301528316604482015260648101829052610f539085906323b872dd60e01b90608401610d1c565b50505050565b6000610fae826040518060400160405280602081526020017f5361666545524332303a206c6f772d6c6576656c2063616c6c206661696c6564815250856001600160a01b03166110849092919063ffffffff16565b805190915015610d535780806020019051810190610fcc91906116ed565b610d535760405162461bcd60e51b815260206004820152602a60248201527f5361666545524332303a204552433230206f7065726174696f6e20646964206e6044820152691bdd081cdd58d8d9595960b21b606482015260840161045c565b60026001540361107d5760405162461bcd60e51b815260206004820152601f60248201527f5265656e7472616e637947756172643a207265656e7472616e742063616c6c00604482015260640161045c565b6002600155565b6060611093848460008561109b565b949350505050565b6060824710156110fc5760405162461bcd60e51b815260206004820152602660248201527f416464726573733a20696e73756666696369656e742062616c616e636520666f6044820152651c8818d85b1b60d21b606482015260840161045c565b600080866001600160a01b031685876040516111189190611716565b60006040518083038185875af1925050503d8060008114611155576040519150601f19603f3d011682016040523d82523d6000602084013e61115a565b606091505b509150915061116b87838387611176565b979650505050505050565b606083156111e55782516000036111de576001600160a01b0385163b6111de5760405162461bcd60e51b815260206004820152601d60248201527f416464726573733a2063616c6c20746f206e6f6e2d636f6e7472616374000000604482015260640161045c565b5081611093565b61109383838151156111fa5781518083602001fd5b8060405162461bcd60e51b815260040161045c919061126f565b80356001600160a01b038116811461122b57600080fd5b919050565b60006020828403121561124257600080fd5b610e9182611214565b60005b8381101561126657818101518382015260200161124e565b50506000910152565b602081526000825180602084015261128e81604085016020870161124b565b601f01601f19169190910160400192915050565b600080604083850312156112b557600080fd5b6112be83611214565b946020939093013593505050565b634e487b7160e01b600052604160045260246000fd5b6000602082840312156112f457600080fd5b813567ffffffffffffffff8082111561130c57600080fd5b818401915084601f83011261132057600080fd5b813581811115611332576113326112cc565b604051601f8201601f19908116603f0116810190838211818310171561135a5761135a6112cc565b8160405282815287602084870101111561137357600080fd5b826020860160208301376000928101602001929092525095945050505050565b6000602082840312156113a557600080fd5b5035919050565b600181811c908216806113c057607f821691505b6020821081036113e057634e487b7160e01b600052602260045260246000fd5b50919050565b6020808252601b908201527f5468652049444f20706f6f6c20686173206e6f7420656e6465642e0000000000604082015260600190565b60208082526024908201527f5468652049444f20706f6f6c20646964206e6f7420726561636820736f66742060408201526331b0b81760e11b606082015260800190565b60006020828403121561147357600080fd5b5051919050565b601f821115610d5357600081815260208120601f850160051c810160208610156114a15750805b601f850160051c820191505b818110156114c0578281556001016114ad565b505050505050565b815167ffffffffffffffff8111156114e2576114e26112cc565b6114f6816114f084546113ac565b8461147a565b602080601f83116001811461152b57600084156115135750858301515b600019600386901b1c1916600185901b1785556114c0565b600085815260208120601f198616915b8281101561155a5788860151825594840194600190910190840161153b565b50858210156115785787850151600019600388901b60f8161c191681555b5050505050600190811b01905550565b634e487b7160e01b600052601160045260246000fd5b80820180821115610e9457610e94611588565b81810381811115610e9457610e94611588565b600181815b808511156115ff5781600019048211156115e5576115e5611588565b808516156115f257918102915b93841c93908002906115c9565b509250929050565b60008261161657506001610e94565b8161162357506000610e94565b816001811461163957600281146116435761165f565b6001915050610e94565b60ff84111561165457611654611588565b50506001821b610e94565b5060208310610133831016604e8410600b8410161715611682575081810a610e94565b61168c83836115c4565b80600019048211156116a0576116a0611588565b029392505050565b6000610e918383611607565b6000826116d157634e487b7160e01b600052601260045260246000fd5b500490565b8082028115828204841417610e9457610e94611588565b6000602082840312156116ff57600080fd5b8151801515811461170f57600080fd5b9392505050565b6000825161172881846020870161124b565b919091019291505056fea2646970667358221220d03312b041b91c03626b653e49aa13f78d05feac553f2677804c9b216f64891664736f6c6343000812003360806040526016805460ff1916905560016018553480156200002057600080fd5b5060405162002627380380620026278339810160408190526200004391620004d9565b6200004e3362000192565b60018055600280546001600160a01b0319166001600160a01b0388169081179091556040805163313ce56760e01b8152905163313ce567916004808201926020929091908290030181865afa158015620000ac573d6000803e3d6000fd5b505050506040513d601f19601f82011682018060405250810190620000d29190620005d5565b60ff16600355601280546001600160a01b0319166001600160a01b0384161790558451600555602085015160065560408501516007556060850151600855608085015160095560a0850151600a5560c0850151600b556200013384620001e2565b8251600f80546001600160a01b039283166001600160a01b0319918216179091556020850151601080549184169183169190911790556040850151601180549190931691161790556200018681620002db565b5050505050506200075c565b600080546001600160a01b038381166001600160a01b0319831681178455604051919092169283917f8be0079c531659141344cd1fd0a4f28419497f9722a3daafe3b4186f6b6457e09190a35050565b6020810151815110620002575760405162461bcd60e51b815260206004820152603260248201527f53746172742074696d657374616d70206d757374206265206c6573732074686160448201527106e2066696e6973682074696d657374616d760741b60648201526084015b60405180910390fd5b42816020015111620002c55760405162461bcd60e51b815260206004820152603060248201527f46696e6973682074696d657374616d70206d757374206265206d6f726520746860448201526f616e2063757272656e7420626c6f636b60801b60648201526084016200024e565b8051600c556020810151600d5560400151600e55565b6004620002e9828262000690565b5050565b6001600160a01b03811681146200030357600080fd5b50565b634e487b7160e01b600052604160045260246000fd5b604051606081016001600160401b038111828210171562000341576200034162000306565b60405290565b60405160e081016001600160401b038111828210171562000341576200034162000306565b604051601f8201601f191681016001600160401b038111828210171562000397576200039762000306565b604052919050565b600060608284031215620003b257600080fd5b620003bc6200031c565b905081518152602082015160208201526040820151604082015292915050565b8051620003e981620002ed565b919050565b6000606082840312156200040157600080fd5b6200040b6200031c565b905081516200041a81620002ed565b815260208201516200042c81620002ed565b602082015260408201516200044181620002ed565b604082015292915050565b600082601f8301126200045e57600080fd5b81516001600160401b038111156200047a576200047a62000306565b602062000490601f8301601f191682016200036c565b8281528582848701011115620004a557600080fd5b60005b83811015620004c5578581018301518282018401528201620004a8565b506000928101909101919091529392505050565b600080600080600080868803610200811215620004f557600080fd5b87516200050281620002ed565b965060e0601f19820112156200051757600080fd5b506200052262000347565b6020880151815260408801516020820152606088015160408201526080880151606082015260a0880151608082015260c088015160a082015260e088015160c082015280955050620005798861010089016200039f565b93506200058b886101608901620003ee565b92506200059c6101c08801620003dc565b6101e08801519092506001600160401b03811115620005ba57600080fd5b620005c889828a016200044c565b9150509295509295509295565b600060208284031215620005e857600080fd5b815160ff81168114620005fa57600080fd5b9392505050565b600181811c908216806200061657607f821691505b6020821081036200063757634e487b7160e01b600052602260045260246000fd5b50919050565b601f8211156200068b57600081815260208120601f850160051c81016020861015620006665750805b601f850160051c820191505b81811015620006875782815560010162000672565b5050505b505050565b81516001600160401b03811115620006ac57620006ac62000306565b620006c481620006bd845462000601565b846200063d565b602080601f831160018114620006fc5760008415620006e35750858301515b600019600386901b1c1916600185901b17855562000687565b600085815260208120601f198616915b828110156200072d578886015182559484019460019091019084016200070c565b50858210156200074c5787850151600019600388901b60f8161c191681555b5050505050600190811b01905550565b611ebb806200076c6000396000f3fe6080604052600436106101815760003560e01c806371007509116100d1578063d8d2a56d1161008a578063f2fde38b11610064578063f2fde38b1461048a578063f7c618c1146104aa578063f84b903e146104ca578063fd46a171146104f457600080fd5b8063d8d2a56d1461040b578063ddeae03314610462578063e086e5ec1461048257600080fd5b80637100750914610378578063715018a61461038d578063747daec5146103a25780638da5cb5b146103c2578063c6a0e27d146103e0578063cb2ef6f7146103f557600080fd5b80633f138d4b1161013e5780634e71d92d116101185780634e71d92d14610323578063586360ce14610338578063590e1ae31461034e57806362bea93f1461036357600080fd5b80633f138d4b146102ce578063491447a8146102ee5780634b1a4c0c1461030d57600080fd5b806312d3675e146101865780631959a002146101ef5780631b9265b8146102465780632a123b16146102505780632dcc8c6614610288578063313ce567146102aa575b600080fd5b34801561019257600080fd5b50600554600654600754600854600954600a54600b546101b59695949392919087565b604080519788526020880196909652948601939093526060850191909152608084015260a083015260c082015260e0015b60405180910390f35b3480156101fb57600080fd5b5061022b61020a366004611808565b60176020526000908152604090208054600182015460029092015490919083565b604080519384526020840192909252908201526060016101e6565b61024e61050a565b005b34801561025c57600080fd5b50601254610270906001600160a01b031681565b6040516001600160a01b0390911681526020016101e6565b34801561029457600080fd5b5061029d610774565b6040516101e6919061187c565b3480156102b657600080fd5b506102c060035481565b6040519081526020016101e6565b3480156102da57600080fd5b5061024e6102e936600461188f565b610802565b3480156102fa57600080fd5b50600c54600d54600e5461022b92919083565b34801561031957600080fd5b506102c060145481565b34801561032f57600080fd5b5061024e61083d565b34801561034457600080fd5b506102c060155481565b34801561035a57600080fd5b5061024e610848565b34801561036f57600080fd5b506102c061099a565b34801561038457600080fd5b5061024e610a34565b34801561039957600080fd5b5061024e610b95565b3480156103ae57600080fd5b5061024e6103bd36600461192a565b610ba7565b3480156103ce57600080fd5b506000546001600160a01b0316610270565b3480156103ec57600080fd5b5061024e610bb3565b34801561040157600080fd5b506102c060185481565b34801561041757600080fd5b50600f54601054601154610438926001600160a01b03908116928116911683565b604080516001600160a01b03948516815292841660208401529216918101919091526060016101e6565b34801561046e57600080fd5b5061024e61047d366004611808565b610c81565b61024e610c8a565b34801561049657600080fd5b5061024e6104a5366004611808565b611253565b3480156104b657600080fd5b50600254610270906001600160a01b031681565b3480156104d657600080fd5b506016546104e49060ff1681565b60405190151581526020016101e6565b34801561050057600080fd5b506102c060135481565b600c5442101561054f5760405162461bcd60e51b815260206004820152600b60248201526a139bdd081cdd185c9d195960aa1b60448201526064015b60405180910390fd5b600d5442106105885760405162461bcd60e51b8152602060048201526005602482015264115b99195960da1b6044820152606401610546565b6008543410156105d15760405162461bcd60e51b815260206004820152601460248201527313195cdcc81d1a195b881b5a5b88185b5bdd5b9d60621b6044820152606401610546565b60095434111561061a5760405162461bcd60e51b8152602060048201526014602482015273135bdc99481d1a195b881b585e08185b5bdd5b9d60621b6044820152606401610546565b60075460135461062a90346112c9565b11156106655760405162461bcd60e51b815260206004820152600a60248201526913dd995c999a5b1b195960b21b6044820152606401610546565b336000908152601760205260409020600954600282015461068690346112c9565b11156106cb5760405162461bcd60e51b8152602060048201526014602482015273135bdc99481d1a195b881b585e08185b5bdd5b9d60621b6044820152606401610546565b60006106dc346005600001546112de565b6013549091506106ec90346112c9565b6013556014546106fc90826112c9565b601455600282015461070e90346112c9565b6002830155600182015461072290826112c9565b6001830155815461073390826112c9565b8255604080513481526020810183905233917fb55d4ca2fc644ca3f8cdc9c907826e24acd68d2b2d4d73f48b8f2378dbaedf5d910160405180910390a25050565b60048054610781906119aa565b80601f01602080910402602001604051908101604052809291908181526020018280546107ad906119aa565b80156107fa5780601f106107cf576101008083540402835291602001916107fa565b820191906000526020600020905b8154815290600101906020018083116107dd57829003601f168201915b505050505081565b61080a611303565b6002546001600160a01b039081169083160361082557600080fd5b6108396001600160a01b038316338361135d565b5050565b610846336113af565b565b600d5442116108695760405162461bcd60e51b8152600401610546906119e4565b600654601354106108bc5760405162461bcd60e51b815260206004820181905260248201527f5468652049444f20706f6f6c2068617320726561636820736f6674206361702e6044820152606401610546565b33600090815260176020526040902060028101548061091d5760405162461bcd60e51b815260206004820152601760248201527f596f752068617665206e6f20696e766573746d656e742e0000000000000000006044820152606401610546565b60008083556002830181905560018301819055604051339083908381818185875af1925050503d806000811461096f576040519150601f19603f3d011682016040523d82523d6000602084013e610974565b606091505b50509050806109955760405162461bcd60e51b815260040161054690611a1b565b505050565b6002546040516370a0823160e01b815230600482015260009182916001600160a01b03909116906370a0823190602401602060405180830381865afa1580156109e7573d6000803e3d6000fd5b505050506040513d601f19601f82011682018060405250810190610a0b9190611a45565b9050610a2e601454610a28601554846112c990919063ffffffff16565b906114dc565b91505090565b610a3c611303565b600d544211610a5d5760405162461bcd60e51b8152600401610546906119e4565b60065460135410610ab05760405162461bcd60e51b815260206004820181905260248201527f5468652049444f20706f6f6c2068617320726561636820736f6674206361702e6044820152606401610546565b6002546040516370a0823160e01b81523060048201526000916001600160a01b0316906370a0823190602401602060405180830381865afa158015610af9573d6000803e3d6000fd5b505050506040513d601f19601f82011682018060405250810190610b1d9190611a45565b905060008111610b7b5760405162461bcd60e51b815260206004820152602360248201527f5468652049444f20706f6f6c20686173206e6f7420726566756e6420746f6b6560448201526237399760e91b6064820152608401610546565b600254610b92906001600160a01b0316338361135d565b50565b610b9d611303565b61084660006114e8565b60046108398282611aac565b610bbb611303565b60165460ff16610c195760405162461bcd60e51b815260206004820152602360248201527f576974686472617720616c6c6f7765642061667465722064697374726962757460448201526232b21760e91b6064820152608401610546565b6000610c2361099a565b905060008111610b7b5760405162461bcd60e51b815260206004820152602360248201527f5468652049444f20706f6f6c20686173206e6f7420756e736f6c6420746f6b6560448201526237399760e91b6064820152608401610546565b610b92816113af565b610c92611303565b600d544211610cb35760405162461bcd60e51b8152600401610546906119e4565b6006546013541015610cd75760405162461bcd60e51b815260040161054690611b6c565b60165460ff1615610d215760405162461bcd60e51b815260206004820152601460248201527320b63932b0b23c903234b9ba3934b13aba32b21760611b6044820152606401610546565b600b54479015801590610d355750600a5415155b156111d957610d443482611bc6565b90506000606460056006015483610d5b9190611bd9565b610d659190611bf0565b90506000610d738284611bc6565b90506000610d858360058001546112de565b600f5460025460405163095ea7b360e01b81526001600160a01b03928316600482018190526024820185905293945091169063095ea7b3906044016020604051808303816000875af1158015610ddf573d6000803e3d6000fd5b505050506040513d601f19601f82011682018060405250810190610e039190611c12565b506002546000906001600160a01b038084169163f305d7199188911686858030610e2f42610168611c34565b60405160e089901b6001600160e01b03191681526001600160a01b039687166004820152602481019590955260448501939093526064840191909152909216608482015260a481019190915260c40160606040518083038185885af1158015610e9c573d6000803e3d6000fd5b50505050506040513d601f19601f82011682018060405250810190610ec19190611c47565b60105460025460115460405163e6a4390560e01b81526001600160a01b03928316600482015290821660248201529295506000945016915063e6a4390590604401602060405180830381865afa158015610f1f573d6000803e3d6000fd5b505050506040513d601f19601f82011682018060405250810190610f439190611c75565b600e5490915081904210156110e55760125460405163095ea7b360e01b81526001600160a01b039182166004820152602481018590529082169063095ea7b3906044016020604051808303816000875af1158015610fa5573d6000803e3d6000fd5b505050506040513d601f19601f82011682018060405250810190610fc99190611c12565b50601260009054906101000a90046001600160a01b03166001600160a01b03166303f3dbac3483846001600160a01b03166395d89b416040518163ffffffff1660e01b8152600401600060405180830381865afa15801561102e573d6000803e3d6000fd5b505050506040513d6000823e601f3d908101601f191682016040526110569190810190611c92565b6040516020016110669190611d09565b60408051601f1981840301815290829052600e546001600160e01b031960e087901b16835261109c93928a913391600401611d3b565b60206040518083038185885af11580156110ba573d6000803e3d6000fd5b50505050506040513d601f19601f820116820180604052508101906110df9190611c75565b50611164565b60405163a9059cbb60e01b8152336004820152602481018490526001600160a01b0382169063a9059cbb906044016020604051808303816000875af1158015611132573d6000803e3d6000fd5b505050506040513d601f19601f820116820180604052508101906111569190611c12565b506111613487611c34565b95505b604051600090339088908381818185875af1925050503d80600081146111a6576040519150601f19603f3d011682016040523d82523d6000602084013e6111ab565b606091505b50509050806111cc5760405162461bcd60e51b815260040161054690611a1b565b5050505050505050611243565b604051600090339083908381818185875af1925050503d806000811461121b576040519150601f19603f3d011682016040523d82523d6000602084013e611220565b606091505b50509050806112415760405162461bcd60e51b815260040161054690611a1b565b505b506016805460ff19166001179055565b61125b611303565b6001600160a01b0381166112c05760405162461bcd60e51b815260206004820152602660248201527f4f776e61626c653a206e6577206f776e657220697320746865207a65726f206160448201526564647265737360d01b6064820152608401610546565b610b92816114e8565b60006112d58284611c34565b90505b92915050565b6000600354600a6112ef9190611e5d565b6112f98385611bf0565b6112d59190611bd9565b6000546001600160a01b031633146108465760405162461bcd60e51b815260206004820181905260248201527f4f776e61626c653a2063616c6c6572206973206e6f7420746865206f776e65726044820152606401610546565b604080516001600160a01b038416602482015260448082018490528251808303909101815260649091019091526020810180516001600160e01b031663a9059cbb60e01b179052610995908490611538565b6113b761160a565b600d5442116113d85760405162461bcd60e51b8152600401610546906119e4565b60065460135410156113fc5760405162461bcd60e51b815260040161054690611b6c565b6001600160a01b03811660009081526017602052604090208054806114635760405162461bcd60e51b815260206004820152601c60248201527f596f7520646f206e6f742068617665206465627420746f6b656e732e000000006044820152606401610546565b6000825560155461147490826112c9565b60155560025461148e906001600160a01b0316848361135d565b826001600160a01b03167f6352c5382c4a4578e712449ca65e83cdb392d045dfcf1cad9615189db2da244b826040516114c991815260200190565b60405180910390a25050610b9260018055565b60006112d58284611bc6565b600080546001600160a01b038381166001600160a01b0319831681178455604051919092169283917f8be0079c531659141344cd1fd0a4f28419497f9722a3daafe3b4186f6b6457e09190a35050565b600061158d826040518060400160405280602081526020017f5361666545524332303a206c6f772d6c6576656c2063616c6c206661696c6564815250856001600160a01b03166116639092919063ffffffff16565b80519091501561099557808060200190518101906115ab9190611c12565b6109955760405162461bcd60e51b815260206004820152602a60248201527f5361666545524332303a204552433230206f7065726174696f6e20646964206e6044820152691bdd081cdd58d8d9595960b21b6064820152608401610546565b60026001540361165c5760405162461bcd60e51b815260206004820152601f60248201527f5265656e7472616e637947756172643a207265656e7472616e742063616c6c006044820152606401610546565b6002600155565b6060611672848460008561167a565b949350505050565b6060824710156116db5760405162461bcd60e51b815260206004820152602660248201527f416464726573733a20696e73756666696369656e742062616c616e636520666f6044820152651c8818d85b1b60d21b6064820152608401610546565b600080866001600160a01b031685876040516116f79190611e69565b60006040518083038185875af1925050503d8060008114611734576040519150601f19603f3d011682016040523d82523d6000602084013e611739565b606091505b509150915061174a87838387611755565b979650505050505050565b606083156117c45782516000036117bd576001600160a01b0385163b6117bd5760405162461bcd60e51b815260206004820152601d60248201527f416464726573733a2063616c6c20746f206e6f6e2d636f6e74726163740000006044820152606401610546565b5081611672565b61167283838151156117d95781518083602001fd5b8060405162461bcd60e51b8152600401610546919061187c565b6001600160a01b0381168114610b9257600080fd5b60006020828403121561181a57600080fd5b8135611825816117f3565b9392505050565b60005b8381101561184757818101518382015260200161182f565b50506000910152565b6000815180845261186881602086016020860161182c565b601f01601f19169290920160200192915050565b6020815260006112d56020830184611850565b600080604083850312156118a257600080fd5b82356118ad816117f3565b946020939093013593505050565b634e487b7160e01b600052604160045260246000fd5b604051601f8201601f1916810167ffffffffffffffff811182821017156118fa576118fa6118bb565b604052919050565b600067ffffffffffffffff82111561191c5761191c6118bb565b50601f01601f191660200190565b60006020828403121561193c57600080fd5b813567ffffffffffffffff81111561195357600080fd5b8201601f8101841361196457600080fd5b803561197761197282611902565b6118d1565b81815285602083850101111561198c57600080fd5b81602084016020830137600091810160200191909152949350505050565b600181811c908216806119be57607f821691505b6020821081036119de57634e487b7160e01b600052602260045260246000fd5b50919050565b6020808252601b908201527f5468652049444f20706f6f6c20686173206e6f7420656e6465642e0000000000604082015260600190565b60208082526010908201526f2a3930b739b332b9103330b4b632b21760811b604082015260600190565b600060208284031215611a5757600080fd5b5051919050565b601f82111561099557600081815260208120601f850160051c81016020861015611a855750805b601f850160051c820191505b81811015611aa457828155600101611a91565b505050505050565b815167ffffffffffffffff811115611ac657611ac66118bb565b611ada81611ad484546119aa565b84611a5e565b602080601f831160018114611b0f5760008415611af75750858301515b600019600386901b1c1916600185901b178555611aa4565b600085815260208120601f198616915b82811015611b3e57888601518255948401946001909101908401611b1f565b5085821015611b5c5787850151600019600388901b60f8161c191681555b5050505050600190811b01905550565b60208082526024908201527f5468652049444f20706f6f6c20646964206e6f7420726561636820736f66742060408201526331b0b81760e11b606082015260800190565b634e487b7160e01b600052601160045260246000fd5b818103818111156112d8576112d8611bb0565b80820281158282048414176112d8576112d8611bb0565b600082611c0d57634e487b7160e01b600052601260045260246000fd5b500490565b600060208284031215611c2457600080fd5b8151801515811461182557600080fd5b808201808211156112d8576112d8611bb0565b600080600060608486031215611c5c57600080fd5b8351925060208401519150604084015190509250925092565b600060208284031215611c8757600080fd5b8151611825816117f3565b600060208284031215611ca457600080fd5b815167ffffffffffffffff811115611cbb57600080fd5b8201601f81018413611ccc57600080fd5b8051611cda61197282611902565b818152856020838501011115611cef57600080fd5b611d0082602083016020860161182c565b95945050505050565b60008251611d1b81846020870161182c565b6d103a37b5b2b739903637b1b5b2b960911b920191825250600e01919050565b600060018060a01b03808816835260a06020840152611d5d60a0840188611850565b6040840196909652939093166060820152608001525092915050565b600181815b80851115611db4578160001904821115611d9a57611d9a611bb0565b80851615611da757918102915b93841c9390800290611d7e565b509250929050565b600082611dcb575060016112d8565b81611dd8575060006112d8565b8160018114611dee5760028114611df857611e14565b60019150506112d8565b60ff841115611e0957611e09611bb0565b50506001821b6112d8565b5060208310610133831016604e8410600b8410161715611e37575081810a6112d8565b611e418383611d79565b8060001904821115611e5557611e55611bb0565b029392505050565b60006112d58383611dbc565b60008251611e7b81846020870161182c565b919091019291505056fea2646970667358221220af7525062ba08d8833100233861e32a4305add8a80cb8f592114b09045fb40f264736f6c63430008120033a264697066735822122045bd68ef822e080c75e5d80b7aa58818173c33ca70b175f618ec1ceb2d22fd2264736f6c63430008120033",
			"opcodes": "PUSH1 0x80 PUSH1 0x40 MSTORE PUSH1 0x2 PUSH1 0x1 SSTORE PUSH1 0x7 DUP1 SLOAD PUSH1 0xFF NOT AND SWAP1 SSTORE CALLVALUE DUP1 ISZERO PUSH2 0x1F JUMPI PUSH1 0x0 DUP1 REVERT JUMPDEST POP PUSH1 0x40 MLOAD PUSH3 0x5D77 CODESIZE SUB DUP1 PUSH3 0x5D77 DUP4 CODECOPY DUP2 ADD PUSH1 0x40 DUP2 SWAP1 MSTORE PUSH2 0x40 SWAP2 PUSH2 0xCA JUMP JUMPDEST PUSH2 0x49 CALLER PUSH2 0x7A JUMP JUMPDEST PUSH1 0x2 DUP1 SLOAD PUSH1 0x1 PUSH1 0x1 PUSH1 0xA0 SHL SUB NOT AND PUSH1 0x1 PUSH1 0x1 PUSH1 0xA0 SHL SUB SWAP5 SWAP1 SWAP5 AND SWAP4 SWAP1 SWAP4 OR SWAP1 SWAP3 SSTORE PUSH1 0x4 SSTORE PUSH1 0x5 SSTORE PUSH1 0x64 PUSH1 0x6 SSTORE PUSH2 0x10D JUMP JUMPDEST PUSH1 0x0 DUP1 SLOAD PUSH1 0x1 PUSH1 0x1 PUSH1 0xA0 SHL SUB DUP4 DUP2 AND PUSH1 0x1 PUSH1 0x1 PUSH1 0xA0 SHL SUB NOT DUP4 AND DUP2 OR DUP5 SSTORE PUSH1 0x40 MLOAD SWAP2 SWAP1 SWAP3 AND SWAP3 DUP4 SWAP2 PUSH32 0x8BE0079C531659141344CD1FD0A4F28419497F9722A3DAAFE3B4186F6B6457E0 SWAP2 SWAP1 LOG3 POP POP JUMP JUMPDEST PUSH1 0x0 DUP1 PUSH1 0x0 PUSH1 0x60 DUP5 DUP7 SUB SLT ISZERO PUSH2 0xDF JUMPI PUSH1 0x0 DUP1 REVERT JUMPDEST DUP4 MLOAD PUSH1 0x1 PUSH1 0x1 PUSH1 0xA0 SHL SUB DUP2 AND DUP2 EQ PUSH2 0xF6 JUMPI PUSH1 0x0 DUP1 REVERT JUMPDEST PUSH1 0x20 DUP6 ADD MLOAD PUSH1 0x40 SWAP1 SWAP6 ADD MLOAD SWAP1 SWAP7 SWAP5 SWAP6 POP SWAP4 SWAP3 POP POP POP JUMP JUMPDEST PUSH2 0x5C5A DUP1 PUSH3 0x11D PUSH1 0x0 CODECOPY PUSH1 0x0 RETURN INVALID PUSH1 0x80 PUSH1 0x40 MSTORE CALLVALUE DUP1 ISZERO PUSH3 0x11 JUMPI PUSH1 0x0 DUP1 REVERT JUMPDEST POP PUSH1 0x4 CALLDATASIZE LT PUSH3 0x139 JUMPI PUSH1 0x0 CALLDATALOAD PUSH1 0xE0 SHR DUP1 PUSH4 0x6A1860E2 GT PUSH3 0xBB JUMPI DUP1 PUSH4 0x8DA5CB5B GT PUSH3 0x7A JUMPI DUP1 PUSH4 0x8DA5CB5B EQ PUSH3 0x274 JUMPI DUP1 PUSH4 0x8DC12991 EQ PUSH3 0x286 JUMPI DUP1 PUSH4 0x90D49B9D EQ PUSH3 0x29D JUMPI DUP1 PUSH4 0xF25F4B56 EQ PUSH3 0x2B4 JUMPI DUP1 PUSH4 0xF2FDE38B EQ PUSH3 0x2C8 JUMPI PUSH1 0x0 DUP1 REVERT JUMPDEST DUP1 PUSH4 0x6A1860E2 EQ PUSH3 0x204 JUMPI DUP1 PUSH4 0x6B392680 EQ PUSH3 0x21D JUMPI DUP1 PUSH4 0x6E42366B EQ PUSH3 0x234 JUMPI DUP1 PUSH4 0x7104C9FD EQ PUSH3 0x253 JUMPI DUP1 PUSH4 0x715018A6 EQ PUSH3 0x26A JUMPI PUSH1 0x0 DUP1 REVERT JUMPDEST DUP1 PUSH4 0x37491A91 GT PUSH3 0x108 JUMPI DUP1 PUSH4 0x37491A91 EQ PUSH3 0x1A2 JUMPI DUP1 PUSH4 0x378EFA37 EQ PUSH3 0x1B9 JUMPI DUP1 PUSH4 0x54FD4D50 EQ PUSH3 0x1C3 JUMPI DUP1 PUSH4 0x647846A5 EQ PUSH3 0x1CD JUMPI DUP1 PUSH4 0x69E15404 EQ PUSH3 0x1FA JUMPI PUSH1 0x0 DUP1 REVERT JUMPDEST DUP1 PUSH4 0x3807EE5 EQ PUSH3 0x13E JUMPI DUP1 PUSH4 0x103A9981 EQ PUSH3 0x15B JUMPI DUP1 PUSH4 0x15CCE224 EQ PUSH3 0x174 JUMPI DUP1 PUSH4 0x198C46A8 EQ PUSH3 0x18B JUMPI JUMPDEST PUSH1 0x0 DUP1 REVERT JUMPDEST PUSH3 0x148 PUSH1 0x5 SLOAD DUP2 JUMP JUMPDEST PUSH1 0x40 MLOAD SWAP1 DUP2 MSTORE PUSH1 0x20 ADD JUMPDEST PUSH1 0x40 MLOAD DUP1 SWAP2 SUB SWAP1 RETURN JUMPDEST PUSH3 0x172 PUSH3 0x16C CALLDATASIZE PUSH1 0x4 PUSH3 0xF92 JUMP JUMPDEST PUSH3 0x2DF JUMP JUMPDEST STOP JUMPDEST PUSH3 0x172 PUSH3 0x185 CALLDATASIZE PUSH1 0x4 PUSH3 0xFE1 JUMP JUMPDEST PUSH3 0x2FC JUMP JUMPDEST PUSH3 0x172 PUSH3 0x19C CALLDATASIZE PUSH1 0x4 PUSH3 0x119D JUMP JUMPDEST PUSH3 0x3B5 JUMP JUMPDEST PUSH3 0x172 PUSH3 0x1B3 CALLDATASIZE PUSH1 0x4 PUSH3 0x1232 JUMP JUMPDEST PUSH3 0x552 JUMP JUMPDEST PUSH3 0x148 PUSH1 0x6 SLOAD DUP2 JUMP JUMPDEST PUSH3 0x148 PUSH1 0x1 SLOAD DUP2 JUMP JUMPDEST PUSH1 0x2 SLOAD PUSH3 0x1E1 SWAP1 PUSH1 0x1 PUSH1 0x1 PUSH1 0xA0 SHL SUB AND DUP2 JUMP JUMPDEST PUSH1 0x40 MLOAD PUSH1 0x1 PUSH1 0x1 PUSH1 0xA0 SHL SUB SWAP1 SWAP2 AND DUP2 MSTORE PUSH1 0x20 ADD PUSH3 0x152 JUMP JUMPDEST PUSH3 0x148 PUSH1 0x4 SLOAD DUP2 JUMP JUMPDEST PUSH3 0x20E PUSH3 0x6F2 JUMP JUMPDEST PUSH1 0x40 MLOAD PUSH3 0x152 SWAP2 SWAP1 PUSH3 0x1328 JUMP JUMPDEST PUSH3 0x172 PUSH3 0x22E CALLDATASIZE PUSH1 0x4 PUSH3 0x1377 JUMP JUMPDEST PUSH3 0x756 JUMP JUMPDEST PUSH1 0x7 SLOAD PUSH3 0x242 SWAP1 PUSH1 0xFF AND DUP2 JUMP JUMPDEST PUSH1 0x40 MLOAD SWAP1 ISZERO ISZERO DUP2 MSTORE PUSH1 0x20 ADD PUSH3 0x152 JUMP JUMPDEST PUSH3 0x1E1 PUSH3 0x264 CALLDATASIZE PUSH1 0x4 PUSH3 0x1377 JUMP JUMPDEST PUSH3 0x796 JUMP JUMPDEST PUSH3 0x172 PUSH3 0x7C1 JUMP JUMPDEST PUSH1 0x0 SLOAD PUSH1 0x1 PUSH1 0x1 PUSH1 0xA0 SHL SUB AND PUSH3 0x1E1 JUMP JUMPDEST PUSH3 0x172 PUSH3 0x297 CALLDATASIZE PUSH1 0x4 PUSH3 0x1391 JUMP JUMPDEST PUSH3 0x7D9 JUMP JUMPDEST PUSH3 0x172 PUSH3 0x2AE CALLDATASIZE PUSH1 0x4 PUSH3 0xFE1 JUMP JUMPDEST PUSH3 0x88B JUMP JUMPDEST PUSH1 0x3 SLOAD PUSH3 0x1E1 SWAP1 PUSH1 0x1 PUSH1 0x1 PUSH1 0xA0 SHL SUB AND DUP2 JUMP JUMPDEST PUSH3 0x172 PUSH3 0x2D9 CALLDATASIZE PUSH1 0x4 PUSH3 0xFE1 JUMP JUMPDEST PUSH3 0x8E4 JUMP JUMPDEST PUSH3 0x2E9 PUSH3 0x963 JUMP JUMPDEST PUSH1 0x7 DUP1 SLOAD PUSH1 0xFF NOT AND SWAP2 ISZERO ISZERO SWAP2 SWAP1 SWAP2 OR SWAP1 SSTORE JUMP JUMPDEST PUSH3 0x306 PUSH3 0x963 JUMP JUMPDEST DUP1 EXTCODESIZE PUSH4 0xFFFFFFFF AND PUSH3 0x360 JUMPI PUSH1 0x40 MLOAD PUSH3 0x461BCD PUSH1 0xE5 SHL DUP2 MSTORE PUSH1 0x20 PUSH1 0x4 DUP3 ADD MSTORE PUSH1 0x1A PUSH1 0x24 DUP3 ADD MSTORE PUSH32 0x4E65772061646472657373206973206E6F74206120746F6B656E000000000000 PUSH1 0x44 DUP3 ADD MSTORE PUSH1 0x64 ADD JUMPDEST PUSH1 0x40 MLOAD DUP1 SWAP2 SUB SWAP1 REVERT JUMPDEST PUSH1 0x2 DUP1 SLOAD PUSH1 0x1 PUSH1 0x1 PUSH1 0xA0 SHL SUB NOT AND PUSH1 0x1 PUSH1 0x1 PUSH1 0xA0 SHL SUB DUP4 AND SWAP1 DUP2 OR SWAP1 SWAP2 SSTORE PUSH1 0x40 MLOAD SWAP1 DUP2 MSTORE PUSH32 0x9E892F555B0A5CAC6C8CC33C82EBB9308207BD16DFDCA9D0289B96D7E4186C8A SWAP1 PUSH1 0x20 ADD JUMPDEST PUSH1 0x40 MLOAD DUP1 SWAP2 SUB SWAP1 LOG1 POP JUMP JUMPDEST PUSH1 0x7 SLOAD PUSH1 0xFF AND ISZERO PUSH3 0x488 JUMPI ADDRESS PUSH1 0x1 PUSH1 0x1 PUSH1 0xA0 SHL SUB AND PUSH4 0x8DA5CB5B PUSH1 0x40 MLOAD DUP2 PUSH4 0xFFFFFFFF AND PUSH1 0xE0 SHL DUP2 MSTORE PUSH1 0x4 ADD PUSH1 0x20 PUSH1 0x40 MLOAD DUP1 DUP4 SUB DUP2 DUP7 GAS STATICCALL ISZERO DUP1 ISZERO PUSH3 0x400 JUMPI RETURNDATASIZE PUSH1 0x0 DUP1 RETURNDATACOPY RETURNDATASIZE PUSH1 0x0 REVERT JUMPDEST POP POP POP POP PUSH1 0x40 MLOAD RETURNDATASIZE PUSH1 0x1F NOT PUSH1 0x1F DUP3 ADD AND DUP3 ADD DUP1 PUSH1 0x40 MSTORE POP DUP2 ADD SWAP1 PUSH3 0x426 SWAP2 SWAP1 PUSH3 0x13B4 JUMP JUMPDEST PUSH1 0x1 PUSH1 0x1 PUSH1 0xA0 SHL SUB AND CALLER PUSH1 0x1 PUSH1 0x1 PUSH1 0xA0 SHL SUB AND EQ PUSH3 0x488 JUMPI PUSH1 0x40 MLOAD PUSH3 0x461BCD PUSH1 0xE5 SHL DUP2 MSTORE PUSH1 0x20 PUSH1 0x4 DUP3 ADD MSTORE PUSH1 0x1D PUSH1 0x24 DUP3 ADD MSTORE PUSH32 0x4F6E6C79206F776E65722063616E206372656174652049444F506F6F6C000000 PUSH1 0x44 DUP3 ADD MSTORE PUSH1 0x64 ADD PUSH3 0x357 JUMP JUMPDEST PUSH1 0x0 DUP6 DUP6 DUP6 DUP6 DUP6 PUSH1 0x40 MLOAD PUSH3 0x49D SWAP1 PUSH3 0xF67 JUMP JUMPDEST PUSH3 0x4AD SWAP6 SWAP5 SWAP4 SWAP3 SWAP2 SWAP1 PUSH3 0x146C JUMP JUMPDEST PUSH1 0x40 MLOAD DUP1 SWAP2 SUB SWAP1 PUSH1 0x0 CREATE DUP1 ISZERO DUP1 ISZERO PUSH3 0x4CA JUMPI RETURNDATASIZE PUSH1 0x0 DUP1 RETURNDATACOPY RETURNDATASIZE PUSH1 0x0 REVERT JUMPDEST POP PUSH1 0x40 MLOAD PUSH4 0xF2FDE38B PUSH1 0xE0 SHL DUP2 MSTORE CALLER PUSH1 0x4 DUP3 ADD MSTORE SWAP1 SWAP2 POP PUSH1 0x1 PUSH1 0x1 PUSH1 0xA0 SHL SUB DUP3 AND SWAP1 PUSH4 0xF2FDE38B SWAP1 PUSH1 0x24 ADD PUSH1 0x0 PUSH1 0x40 MLOAD DUP1 DUP4 SUB DUP2 PUSH1 0x0 DUP8 DUP1 EXTCODESIZE ISZERO DUP1 ISZERO PUSH3 0x510 JUMPI PUSH1 0x0 DUP1 REVERT JUMPDEST POP GAS CALL ISZERO DUP1 ISZERO PUSH3 0x525 JUMPI RETURNDATASIZE PUSH1 0x0 DUP1 RETURNDATACOPY RETURNDATASIZE PUSH1 0x0 REVERT JUMPDEST POP POP POP POP PUSH3 0x54A DUP7 DUP3 DUP7 PUSH1 0x40 ADD MLOAD DUP8 PUSH1 0x0 ADD MLOAD DUP9 PUSH1 0xC0 ADD MLOAD DUP10 PUSH1 0xA0 ADD MLOAD DUP9 PUSH3 0x9BF JUMP JUMPDEST POP POP POP POP POP POP JUMP JUMPDEST PUSH1 0x7 SLOAD PUSH1 0xFF AND ISZERO PUSH3 0x625 JUMPI ADDRESS PUSH1 0x1 PUSH1 0x1 PUSH1 0xA0 SHL SUB AND PUSH4 0x8DA5CB5B PUSH1 0x40 MLOAD DUP2 PUSH4 0xFFFFFFFF AND PUSH1 0xE0 SHL DUP2 MSTORE PUSH1 0x4 ADD PUSH1 0x20 PUSH1 0x40 MLOAD DUP1 DUP4 SUB DUP2 DUP7 GAS STATICCALL ISZERO DUP1 ISZERO PUSH3 0x59D JUMPI RETURNDATASIZE PUSH1 0x0 DUP1 RETURNDATACOPY RETURNDATASIZE PUSH1 0x0 REVERT JUMPDEST POP POP POP POP PUSH1 0x40 MLOAD RETURNDATASIZE PUSH1 0x1F NOT PUSH1 0x1F DUP3 ADD AND DUP3 ADD DUP1 PUSH1 0x40 MSTORE POP DUP2 ADD SWAP1 PUSH3 0x5C3 SWAP2 SWAP1 PUSH3 0x13B4 JUMP JUMPDEST PUSH1 0x1 PUSH1 0x1 PUSH1 0xA0 SHL SUB AND CALLER PUSH1 0x1 PUSH1 0x1 PUSH1 0xA0 SHL SUB AND EQ PUSH3 0x625 JUMPI PUSH1 0x40 MLOAD PUSH3 0x461BCD PUSH1 0xE5 SHL DUP2 MSTORE PUSH1 0x20 PUSH1 0x4 DUP3 ADD MSTORE PUSH1 0x1D PUSH1 0x24 DUP3 ADD MSTORE PUSH32 0x4F6E6C79206F776E65722063616E206372656174652049444F506F6F6C000000 PUSH1 0x44 DUP3 ADD MSTORE PUSH1 0x64 ADD PUSH3 0x357 JUMP JUMPDEST PUSH1 0x0 DUP7 DUP7 DUP7 DUP7 DUP7 DUP7 PUSH1 0x40 MLOAD PUSH3 0x63B SWAP1 PUSH3 0xF75 JUMP JUMPDEST PUSH3 0x64C SWAP7 SWAP6 SWAP5 SWAP4 SWAP3 SWAP2 SWAP1 PUSH3 0x14D3 JUMP JUMPDEST PUSH1 0x40 MLOAD DUP1 SWAP2 SUB SWAP1 PUSH1 0x0 CREATE DUP1 ISZERO DUP1 ISZERO PUSH3 0x669 JUMPI RETURNDATASIZE PUSH1 0x0 DUP1 RETURNDATACOPY RETURNDATASIZE PUSH1 0x0 REVERT JUMPDEST POP PUSH1 0x40 MLOAD PUSH4 0xF2FDE38B PUSH1 0xE0 SHL DUP2 MSTORE CALLER PUSH1 0x4 DUP3 ADD MSTORE SWAP1 SWAP2 POP PUSH1 0x1 PUSH1 0x1 PUSH1 0xA0 SHL SUB DUP3 AND SWAP1 PUSH4 0xF2FDE38B SWAP1 PUSH1 0x24 ADD PUSH1 0x0 PUSH1 0x40 MLOAD DUP1 DUP4 SUB DUP2 PUSH1 0x0 DUP8 DUP1 EXTCODESIZE ISZERO DUP1 ISZERO PUSH3 0x6AF JUMPI PUSH1 0x0 DUP1 REVERT JUMPDEST POP GAS CALL ISZERO DUP1 ISZERO PUSH3 0x6C4 JUMPI RETURNDATASIZE PUSH1 0x0 DUP1 RETURNDATACOPY RETURNDATASIZE PUSH1 0x0 REVERT JUMPDEST POP POP POP POP PUSH3 0x6E9 DUP8 DUP3 DUP9 PUSH1 0x40 ADD MLOAD DUP10 PUSH1 0x0 ADD MLOAD DUP11 PUSH1 0xC0 ADD MLOAD DUP12 PUSH1 0xA0 ADD MLOAD DUP9 PUSH3 0x9BF JUMP JUMPDEST POP POP POP POP POP POP POP JUMP JUMPDEST PUSH1 0x60 PUSH1 0x8 DUP1 SLOAD DUP1 PUSH1 0x20 MUL PUSH1 0x20 ADD PUSH1 0x40 MLOAD SWAP1 DUP2 ADD PUSH1 0x40 MSTORE DUP1 SWAP3 SWAP2 SWAP1 DUP2 DUP2 MSTORE PUSH1 0x20 ADD DUP3 DUP1 SLOAD DUP1 ISZERO PUSH3 0x74C JUMPI PUSH1 0x20 MUL DUP3 ADD SWAP2 SWAP1 PUSH1 0x0 MSTORE PUSH1 0x20 PUSH1 0x0 KECCAK256 SWAP1 JUMPDEST DUP2 SLOAD PUSH1 0x1 PUSH1 0x1 PUSH1 0xA0 SHL SUB AND DUP2 MSTORE PUSH1 0x1 SWAP1 SWAP2 ADD SWAP1 PUSH1 0x20 ADD DUP1 DUP4 GT PUSH3 0x72D JUMPI JUMPDEST POP POP POP POP POP SWAP1 POP SWAP1 JUMP JUMPDEST PUSH3 0x760 PUSH3 0x963 JUMP JUMPDEST PUSH1 0x4 DUP2 SWAP1 SSTORE PUSH1 0x40 MLOAD DUP2 DUP2 MSTORE PUSH32 0xBB128CD9921D003AFF00ED910FE24B1655B2BF1F4A2090CC3523F61BDC172316 SWAP1 PUSH1 0x20 ADD PUSH3 0x3AA JUMP JUMPDEST PUSH1 0x8 DUP2 DUP2 SLOAD DUP2 LT PUSH3 0x7A7 JUMPI PUSH1 0x0 DUP1 REVERT JUMPDEST PUSH1 0x0 SWAP2 DUP3 MSTORE PUSH1 0x20 SWAP1 SWAP2 KECCAK256 ADD SLOAD PUSH1 0x1 PUSH1 0x1 PUSH1 0xA0 SHL SUB AND SWAP1 POP DUP2 JUMP JUMPDEST PUSH3 0x7CB PUSH3 0x963 JUMP JUMPDEST PUSH3 0x7D7 PUSH1 0x0 PUSH3 0xC42 JUMP JUMPDEST JUMP JUMPDEST PUSH3 0x7E3 PUSH3 0x963 JUMP JUMPDEST DUP1 DUP3 GT ISZERO PUSH3 0x844 JUMPI PUSH1 0x40 MLOAD PUSH3 0x461BCD PUSH1 0xE5 SHL DUP2 MSTORE PUSH1 0x20 PUSH1 0x4 DUP3 ADD MSTORE PUSH1 0x26 PUSH1 0x24 DUP3 ADD MSTORE PUSH32 0x4275726E2070657263656E74206D757374206265206C657373207468616E2064 PUSH1 0x44 DUP3 ADD MSTORE PUSH6 0x34BB34B232B9 PUSH1 0xD1 SHL PUSH1 0x64 DUP3 ADD MSTORE PUSH1 0x84 ADD PUSH3 0x357 JUMP JUMPDEST PUSH1 0x5 DUP3 SWAP1 SSTORE PUSH1 0x6 DUP2 SWAP1 SSTORE PUSH1 0x40 DUP1 MLOAD DUP4 DUP2 MSTORE PUSH1 0x20 DUP2 ADD DUP4 SWAP1 MSTORE PUSH32 0xB62D69C6DDF4F4BD443DCA17EA7405D8018EFB872E82E77BB8EF13B5BE2F2E9C SWAP2 ADD PUSH1 0x40 MLOAD DUP1 SWAP2 SUB SWAP1 LOG1 POP POP JUMP JUMPDEST PUSH3 0x895 PUSH3 0x963 JUMP JUMPDEST PUSH1 0x3 DUP1 SLOAD PUSH1 0x1 PUSH1 0x1 PUSH1 0xA0 SHL SUB NOT AND PUSH1 0x1 PUSH1 0x1 PUSH1 0xA0 SHL SUB DUP4 AND SWAP1 DUP2 OR SWAP1 SWAP2 SSTORE PUSH1 0x40 MLOAD SWAP1 DUP2 MSTORE PUSH32 0x29ACEE77DAFCFA0143D74A7EA236018F3A6E1FA71E27FC59BBFBC6B8CA8EDCCD SWAP1 PUSH1 0x20 ADD PUSH3 0x3AA JUMP JUMPDEST PUSH3 0x8EE PUSH3 0x963 JUMP JUMPDEST PUSH1 0x1 PUSH1 0x1 PUSH1 0xA0 SHL SUB DUP2 AND PUSH3 0x955 JUMPI PUSH1 0x40 MLOAD PUSH3 0x461BCD PUSH1 0xE5 SHL DUP2 MSTORE PUSH1 0x20 PUSH1 0x4 DUP3 ADD MSTORE PUSH1 0x26 PUSH1 0x24 DUP3 ADD MSTORE PUSH32 0x4F776E61626C653A206E6577206F776E657220697320746865207A65726F2061 PUSH1 0x44 DUP3 ADD MSTORE PUSH6 0x646472657373 PUSH1 0xD0 SHL PUSH1 0x64 DUP3 ADD MSTORE PUSH1 0x84 ADD PUSH3 0x357 JUMP JUMPDEST PUSH3 0x960 DUP2 PUSH3 0xC42 JUMP JUMPDEST POP JUMP JUMPDEST PUSH1 0x0 SLOAD PUSH1 0x1 PUSH1 0x1 PUSH1 0xA0 SHL SUB AND CALLER EQ PUSH3 0x7D7 JUMPI PUSH1 0x40 MLOAD PUSH3 0x461BCD PUSH1 0xE5 SHL DUP2 MSTORE PUSH1 0x20 PUSH1 0x4 DUP3 ADD DUP2 SWAP1 MSTORE PUSH1 0x24 DUP3 ADD MSTORE PUSH32 0x4F776E61626C653A2063616C6C6572206973206E6F7420746865206F776E6572 PUSH1 0x44 DUP3 ADD MSTORE PUSH1 0x64 ADD PUSH3 0x357 JUMP JUMPDEST PUSH1 0x0 DUP8 PUSH1 0x1 PUSH1 0x1 PUSH1 0xA0 SHL SUB AND PUSH4 0x313CE567 PUSH1 0x40 MLOAD DUP2 PUSH4 0xFFFFFFFF AND PUSH1 0xE0 SHL DUP2 MSTORE PUSH1 0x4 ADD PUSH1 0x20 PUSH1 0x40 MLOAD DUP1 DUP4 SUB DUP2 DUP7 GAS STATICCALL ISZERO DUP1 ISZERO PUSH3 0xA00 JUMPI RETURNDATASIZE PUSH1 0x0 DUP1 RETURNDATACOPY RETURNDATASIZE PUSH1 0x0 REVERT JUMPDEST POP POP POP POP PUSH1 0x40 MLOAD RETURNDATASIZE PUSH1 0x1F NOT PUSH1 0x1F DUP3 ADD AND DUP3 ADD DUP1 PUSH1 0x40 MSTORE POP DUP2 ADD SWAP1 PUSH3 0xA26 SWAP2 SWAP1 PUSH3 0x1563 JUMP JUMPDEST SWAP1 POP PUSH1 0x0 PUSH3 0xA37 DUP8 DUP8 DUP5 PUSH3 0xC92 JUMP JUMPDEST SWAP1 POP PUSH1 0x0 DUP6 GT DUP1 ISZERO PUSH3 0xA4A JUMPI POP PUSH1 0x0 DUP5 GT JUMPDEST ISZERO PUSH3 0xA85 JUMPI PUSH3 0xA76 PUSH1 0x64 PUSH3 0xA62 DUP8 DUP11 PUSH3 0x159E JUMP JUMPDEST PUSH3 0xA6E SWAP2 SWAP1 PUSH3 0x15B8 JUMP JUMPDEST DUP6 DUP5 PUSH3 0xC92 JUMP JUMPDEST PUSH3 0xA82 SWAP1 DUP3 PUSH3 0x15DB JUMP JUMPDEST SWAP1 POP JUMPDEST PUSH3 0xA9C PUSH1 0x1 PUSH1 0x1 PUSH1 0xA0 SHL SUB DUP11 AND CALLER DUP11 DUP5 PUSH3 0xCC1 JUMP JUMPDEST PUSH1 0x8 DUP1 SLOAD PUSH1 0x1 DUP2 ADD DUP3 SSTORE PUSH1 0x0 SWAP2 SWAP1 SWAP2 MSTORE PUSH32 0xF3F7A9FE364FAAB93B216DA50A3214154F22A0A2B415B23A84C8169E8B636EE3 ADD DUP1 SLOAD PUSH1 0x1 PUSH1 0x1 PUSH1 0xA0 SHL SUB NOT AND PUSH1 0x1 PUSH1 0x1 PUSH1 0xA0 SHL SUB DUP11 DUP2 AND SWAP2 SWAP1 SWAP2 OR SWAP1 SWAP2 SSTORE PUSH1 0x40 MLOAD SWAP1 DUP11 AND SWAP1 CALLER SWAP1 PUSH32 0xF71C11AB5BD622B01D634C5C9E59846D77EE252871F11645B7B8376DDD4DD3E2 SWAP1 PUSH3 0xB26 SWAP1 DUP13 SWAP1 DUP9 SWAP1 PUSH3 0x15F1 JUMP JUMPDEST PUSH1 0x40 MLOAD DUP1 SWAP2 SUB SWAP1 LOG3 PUSH1 0x4 SLOAD ISZERO PUSH3 0xC37 JUMPI PUSH1 0x5 SLOAD ISZERO PUSH3 0xC11 JUMPI PUSH1 0x0 PUSH3 0xB69 PUSH1 0x6 SLOAD PUSH3 0xB62 PUSH1 0x5 SLOAD PUSH1 0x4 SLOAD PUSH3 0xD23 SWAP1 SWAP2 SWAP1 PUSH4 0xFFFFFFFF AND JUMP JUMPDEST SWAP1 PUSH3 0xD3A JUMP JUMPDEST PUSH1 0x3 SLOAD PUSH1 0x4 SLOAD SWAP2 SWAP3 POP PUSH3 0xBA4 SWAP2 CALLER SWAP2 PUSH1 0x1 PUSH1 0x1 PUSH1 0xA0 SHL SUB AND SWAP1 PUSH3 0xB8F SWAP1 DUP6 PUSH3 0xD48 JUMP JUMPDEST PUSH1 0x2 SLOAD PUSH1 0x1 PUSH1 0x1 PUSH1 0xA0 SHL SUB AND SWAP3 SWAP2 SWAP1 PUSH3 0xCC1 JUMP JUMPDEST PUSH1 0x2 SLOAD PUSH1 0x40 MLOAD PUSH4 0x79CC679 PUSH1 0xE4 SHL DUP2 MSTORE CALLER PUSH1 0x4 DUP3 ADD MSTORE PUSH1 0x24 DUP2 ADD DUP4 SWAP1 MSTORE PUSH1 0x1 PUSH1 0x1 PUSH1 0xA0 SHL SUB SWAP1 SWAP2 AND SWAP1 PUSH4 0x79CC6790 SWAP1 PUSH1 0x44 ADD PUSH1 0x0 PUSH1 0x40 MLOAD DUP1 DUP4 SUB DUP2 PUSH1 0x0 DUP8 DUP1 EXTCODESIZE ISZERO DUP1 ISZERO PUSH3 0xBF1 JUMPI PUSH1 0x0 DUP1 REVERT JUMPDEST POP GAS CALL ISZERO DUP1 ISZERO PUSH3 0xC06 JUMPI RETURNDATASIZE PUSH1 0x0 DUP1 RETURNDATACOPY RETURNDATASIZE PUSH1 0x0 REVERT JUMPDEST POP POP POP POP POP PUSH3 0xC37 JUMP JUMPDEST PUSH1 0x3 SLOAD PUSH1 0x4 SLOAD PUSH1 0x2 SLOAD PUSH3 0xC37 SWAP3 PUSH1 0x1 PUSH1 0x1 PUSH1 0xA0 SHL SUB SWAP2 DUP3 AND SWAP3 CALLER SWAP3 SWAP1 SWAP2 AND SWAP1 PUSH3 0xCC1 JUMP JUMPDEST POP POP POP POP POP POP POP POP POP JUMP JUMPDEST PUSH1 0x0 DUP1 SLOAD PUSH1 0x1 PUSH1 0x1 PUSH1 0xA0 SHL SUB DUP4 DUP2 AND PUSH1 0x1 PUSH1 0x1 PUSH1 0xA0 SHL SUB NOT DUP4 AND DUP2 OR DUP5 SSTORE PUSH1 0x40 MLOAD SWAP2 SWAP1 SWAP3 AND SWAP3 DUP4 SWAP2 PUSH32 0x8BE0079C531659141344CD1FD0A4F28419497F9722A3DAAFE3B4186F6B6457E0 SWAP2 SWAP1 LOG3 POP POP JUMP JUMPDEST PUSH1 0x0 PUSH3 0xCA1 DUP3 PUSH1 0xA PUSH3 0x1714 JUMP JUMPDEST PUSH3 0xCAD DUP5 DUP7 PUSH3 0x15B8 JUMP JUMPDEST PUSH3 0xCB9 SWAP2 SWAP1 PUSH3 0x159E JUMP JUMPDEST SWAP5 SWAP4 POP POP POP POP JUMP JUMPDEST PUSH1 0x40 DUP1 MLOAD PUSH1 0x1 PUSH1 0x1 PUSH1 0xA0 SHL SUB DUP6 DUP2 AND PUSH1 0x24 DUP4 ADD MSTORE DUP5 AND PUSH1 0x44 DUP3 ADD MSTORE PUSH1 0x64 DUP1 DUP3 ADD DUP5 SWAP1 MSTORE DUP3 MLOAD DUP1 DUP4 SUB SWAP1 SWAP2 ADD DUP2 MSTORE PUSH1 0x84 SWAP1 SWAP2 ADD SWAP1 SWAP2 MSTORE PUSH1 0x20 DUP2 ADD DUP1 MLOAD PUSH1 0x1 PUSH1 0x1 PUSH1 0xE0 SHL SUB AND PUSH4 0x23B872DD PUSH1 0xE0 SHL OR SWAP1 MSTORE PUSH3 0xD1D SWAP1 DUP6 SWAP1 PUSH3 0xD56 JUMP JUMPDEST POP POP POP POP JUMP JUMPDEST PUSH1 0x0 PUSH3 0xD31 DUP3 DUP5 PUSH3 0x159E JUMP JUMPDEST SWAP1 POP JUMPDEST SWAP3 SWAP2 POP POP JUMP JUMPDEST PUSH1 0x0 PUSH3 0xD31 DUP3 DUP5 PUSH3 0x15B8 JUMP JUMPDEST PUSH1 0x0 PUSH3 0xD31 DUP3 DUP5 PUSH3 0x1725 JUMP JUMPDEST PUSH1 0x0 PUSH3 0xDAD DUP3 PUSH1 0x40 MLOAD DUP1 PUSH1 0x40 ADD PUSH1 0x40 MSTORE DUP1 PUSH1 0x20 DUP2 MSTORE PUSH1 0x20 ADD PUSH32 0x5361666545524332303A206C6F772D6C6576656C2063616C6C206661696C6564 DUP2 MSTORE POP DUP6 PUSH1 0x1 PUSH1 0x1 PUSH1 0xA0 SHL SUB AND PUSH3 0xE34 SWAP1 SWAP3 SWAP2 SWAP1 PUSH4 0xFFFFFFFF AND JUMP JUMPDEST DUP1 MLOAD SWAP1 SWAP2 POP ISZERO PUSH3 0xE2F JUMPI DUP1 DUP1 PUSH1 0x20 ADD SWAP1 MLOAD DUP2 ADD SWAP1 PUSH3 0xDCE SWAP2 SWAP1 PUSH3 0x173B JUMP JUMPDEST PUSH3 0xE2F JUMPI PUSH1 0x40 MLOAD PUSH3 0x461BCD PUSH1 0xE5 SHL DUP2 MSTORE PUSH1 0x20 PUSH1 0x4 DUP3 ADD MSTORE PUSH1 0x2A PUSH1 0x24 DUP3 ADD MSTORE PUSH32 0x5361666545524332303A204552433230206F7065726174696F6E20646964206E PUSH1 0x44 DUP3 ADD MSTORE PUSH10 0x1BDD081CDD58D8D95959 PUSH1 0xB2 SHL PUSH1 0x64 DUP3 ADD MSTORE PUSH1 0x84 ADD PUSH3 0x357 JUMP JUMPDEST POP POP POP JUMP JUMPDEST PUSH1 0x60 PUSH3 0xCB9 DUP5 DUP5 PUSH1 0x0 DUP6 DUP6 PUSH1 0x0 DUP1 DUP7 PUSH1 0x1 PUSH1 0x1 PUSH1 0xA0 SHL SUB AND DUP6 DUP8 PUSH1 0x40 MLOAD PUSH3 0xE5E SWAP2 SWAP1 PUSH3 0x175B JUMP JUMPDEST PUSH1 0x0 PUSH1 0x40 MLOAD DUP1 DUP4 SUB DUP2 DUP6 DUP8 GAS CALL SWAP3 POP POP POP RETURNDATASIZE DUP1 PUSH1 0x0 DUP2 EQ PUSH3 0xE9D JUMPI PUSH1 0x40 MLOAD SWAP2 POP PUSH1 0x1F NOT PUSH1 0x3F RETURNDATASIZE ADD AND DUP3 ADD PUSH1 0x40 MSTORE RETURNDATASIZE DUP3 MSTORE RETURNDATASIZE PUSH1 0x0 PUSH1 0x20 DUP5 ADD RETURNDATACOPY PUSH3 0xEA2 JUMP JUMPDEST PUSH1 0x60 SWAP2 POP JUMPDEST POP SWAP2 POP SWAP2 POP PUSH3 0xEB5 DUP8 DUP4 DUP4 DUP8 PUSH3 0xEC0 JUMP JUMPDEST SWAP8 SWAP7 POP POP POP POP POP POP POP JUMP JUMPDEST PUSH1 0x60 DUP4 ISZERO PUSH3 0xF34 JUMPI DUP3 MLOAD PUSH1 0x0 SUB PUSH3 0xF2C JUMPI PUSH1 0x1 PUSH1 0x1 PUSH1 0xA0 SHL SUB DUP6 AND EXTCODESIZE PUSH3 0xF2C JUMPI PUSH1 0x40 MLOAD PUSH3 0x461BCD PUSH1 0xE5 SHL DUP2 MSTORE PUSH1 0x20 PUSH1 0x4 DUP3 ADD MSTORE PUSH1 0x1D PUSH1 0x24 DUP3 ADD MSTORE PUSH32 0x416464726573733A2063616C6C20746F206E6F6E2D636F6E7472616374000000 PUSH1 0x44 DUP3 ADD MSTORE PUSH1 0x64 ADD PUSH3 0x357 JUMP JUMPDEST POP DUP2 PUSH3 0xCB9 JUMP JUMPDEST PUSH3 0xCB9 DUP4 DUP4 DUP2 MLOAD ISZERO PUSH3 0xF4B JUMPI DUP2 MLOAD DUP1 DUP4 PUSH1 0x20 ADD REVERT JUMPDEST DUP1 PUSH1 0x40 MLOAD PUSH3 0x461BCD PUSH1 0xE5 SHL DUP2 MSTORE PUSH1 0x4 ADD PUSH3 0x357 SWAP2 SWAP1 PUSH3 0x1779 JUMP JUMPDEST PUSH2 0x1E6F DUP1 PUSH3 0x178F DUP4 CODECOPY ADD SWAP1 JUMP JUMPDEST PUSH2 0x2627 DUP1 PUSH3 0x35FE DUP4 CODECOPY ADD SWAP1 JUMP JUMPDEST DUP1 ISZERO ISZERO DUP2 EQ PUSH3 0x960 JUMPI PUSH1 0x0 DUP1 REVERT JUMPDEST PUSH1 0x0 PUSH1 0x20 DUP3 DUP5 SUB SLT ISZERO PUSH3 0xFA5 JUMPI PUSH1 0x0 DUP1 REVERT JUMPDEST DUP2 CALLDATALOAD PUSH3 0xFB2 DUP2 PUSH3 0xF83 JUMP JUMPDEST SWAP4 SWAP3 POP POP POP JUMP JUMPDEST PUSH1 0x1 PUSH1 0x1 PUSH1 0xA0 SHL SUB DUP2 AND DUP2 EQ PUSH3 0x960 JUMPI PUSH1 0x0 DUP1 REVERT JUMPDEST DUP1 CALLDATALOAD PUSH3 0xFDC DUP2 PUSH3 0xFB9 JUMP JUMPDEST SWAP2 SWAP1 POP JUMP JUMPDEST PUSH1 0x0 PUSH1 0x20 DUP3 DUP5 SUB SLT ISZERO PUSH3 0xFF4 JUMPI PUSH1 0x0 DUP1 REVERT JUMPDEST DUP2 CALLDATALOAD PUSH3 0xFB2 DUP2 PUSH3 0xFB9 JUMP JUMPDEST PUSH4 0x4E487B71 PUSH1 0xE0 SHL PUSH1 0x0 MSTORE PUSH1 0x41 PUSH1 0x4 MSTORE PUSH1 0x24 PUSH1 0x0 REVERT JUMPDEST PUSH1 0x40 MLOAD PUSH1 0x60 DUP2 ADD PUSH8 0xFFFFFFFFFFFFFFFF DUP2 GT DUP3 DUP3 LT OR ISZERO PUSH3 0x103D JUMPI PUSH3 0x103D PUSH3 0x1001 JUMP JUMPDEST PUSH1 0x40 MSTORE SWAP1 JUMP JUMPDEST PUSH1 0x0 PUSH1 0xE0 DUP3 DUP5 SUB SLT ISZERO PUSH3 0x1056 JUMPI PUSH1 0x0 DUP1 REVERT JUMPDEST PUSH1 0x40 MLOAD PUSH1 0xE0 DUP2 ADD DUP2 DUP2 LT PUSH8 0xFFFFFFFFFFFFFFFF DUP3 GT OR ISZERO PUSH3 0x107C JUMPI PUSH3 0x107C PUSH3 0x1001 JUMP JUMPDEST DUP1 PUSH1 0x40 MSTORE POP DUP1 SWAP2 POP DUP3 CALLDATALOAD DUP2 MSTORE PUSH1 0x20 DUP4 ADD CALLDATALOAD PUSH1 0x20 DUP3 ADD MSTORE PUSH1 0x40 DUP4 ADD CALLDATALOAD PUSH1 0x40 DUP3 ADD MSTORE PUSH1 0x60 DUP4 ADD CALLDATALOAD PUSH1 0x60 DUP3 ADD MSTORE PUSH1 0x80 DUP4 ADD CALLDATALOAD PUSH1 0x80 DUP3 ADD MSTORE PUSH1 0xA0 DUP4 ADD CALLDATALOAD PUSH1 0xA0 DUP3 ADD MSTORE PUSH1 0xC0 DUP4 ADD CALLDATALOAD PUSH1 0xC0 DUP3 ADD MSTORE POP SWAP3 SWAP2 POP POP JUMP JUMPDEST PUSH1 0x0 PUSH1 0x60 DUP3 DUP5 SUB SLT ISZERO PUSH3 0x10DE JUMPI PUSH1 0x0 DUP1 REVERT JUMPDEST PUSH3 0x10E8 PUSH3 0x1017 JUMP JUMPDEST SWAP1 POP DUP2 CALLDATALOAD DUP2 MSTORE PUSH1 0x20 DUP3 ADD CALLDATALOAD PUSH1 0x20 DUP3 ADD MSTORE PUSH1 0x40 DUP3 ADD CALLDATALOAD PUSH1 0x40 DUP3 ADD MSTORE SWAP3 SWAP2 POP POP JUMP JUMPDEST PUSH1 0x0 DUP3 PUSH1 0x1F DUP4 ADD SLT PUSH3 0x111A JUMPI PUSH1 0x0 DUP1 REVERT JUMPDEST DUP2 CALLDATALOAD PUSH8 0xFFFFFFFFFFFFFFFF DUP1 DUP3 GT ISZERO PUSH3 0x1138 JUMPI PUSH3 0x1138 PUSH3 0x1001 JUMP JUMPDEST PUSH1 0x40 MLOAD PUSH1 0x1F DUP4 ADD PUSH1 0x1F NOT SWAP1 DUP2 AND PUSH1 0x3F ADD AND DUP2 ADD SWAP1 DUP3 DUP3 GT DUP2 DUP4 LT OR ISZERO PUSH3 0x1163 JUMPI PUSH3 0x1163 PUSH3 0x1001 JUMP JUMPDEST DUP2 PUSH1 0x40 MSTORE DUP4 DUP2 MSTORE DUP7 PUSH1 0x20 DUP6 DUP9 ADD ADD GT ISZERO PUSH3 0x117D JUMPI PUSH1 0x0 DUP1 REVERT JUMPDEST DUP4 PUSH1 0x20 DUP8 ADD PUSH1 0x20 DUP4 ADD CALLDATACOPY PUSH1 0x0 PUSH1 0x20 DUP6 DUP4 ADD ADD MSTORE DUP1 SWAP5 POP POP POP POP POP SWAP3 SWAP2 POP POP JUMP JUMPDEST PUSH1 0x0 DUP1 PUSH1 0x0 DUP1 PUSH1 0x0 PUSH2 0x1A0 DUP7 DUP9 SUB SLT ISZERO PUSH3 0x11B7 JUMPI PUSH1 0x0 DUP1 REVERT JUMPDEST DUP6 CALLDATALOAD PUSH3 0x11C4 DUP2 PUSH3 0xFB9 JUMP JUMPDEST SWAP5 POP PUSH1 0x20 DUP7 ADD CALLDATALOAD PUSH3 0x11D6 DUP2 PUSH3 0xFB9 JUMP JUMPDEST SWAP4 POP PUSH3 0x11E7 DUP8 PUSH1 0x40 DUP9 ADD PUSH3 0x1043 JUMP JUMPDEST SWAP3 POP PUSH3 0x11F9 DUP8 PUSH2 0x120 DUP9 ADD PUSH3 0x10CB JUMP JUMPDEST SWAP2 POP PUSH2 0x180 DUP7 ADD CALLDATALOAD PUSH8 0xFFFFFFFFFFFFFFFF DUP2 GT ISZERO PUSH3 0x1217 JUMPI PUSH1 0x0 DUP1 REVERT JUMPDEST PUSH3 0x1225 DUP9 DUP3 DUP10 ADD PUSH3 0x1108 JUMP JUMPDEST SWAP2 POP POP SWAP3 SWAP6 POP SWAP3 SWAP6 SWAP1 SWAP4 POP JUMP JUMPDEST PUSH1 0x0 DUP1 PUSH1 0x0 DUP1 PUSH1 0x0 DUP1 DUP7 DUP9 SUB PUSH2 0x200 DUP2 SLT ISZERO PUSH3 0x124E JUMPI PUSH1 0x0 DUP1 REVERT JUMPDEST DUP8 CALLDATALOAD PUSH3 0x125B DUP2 PUSH3 0xFB9 JUMP JUMPDEST SWAP7 POP PUSH3 0x126C DUP10 PUSH1 0x20 DUP11 ADD PUSH3 0x1043 JUMP JUMPDEST SWAP6 POP PUSH3 0x127E DUP10 PUSH2 0x100 DUP11 ADD PUSH3 0x10CB JUMP JUMPDEST SWAP5 POP PUSH1 0x60 PUSH2 0x15F NOT DUP3 ADD SLT ISZERO PUSH3 0x1294 JUMPI PUSH1 0x0 DUP1 REVERT JUMPDEST POP PUSH3 0x129F PUSH3 0x1017 JUMP JUMPDEST PUSH2 0x160 DUP9 ADD CALLDATALOAD PUSH3 0x12B0 DUP2 PUSH3 0xFB9 JUMP JUMPDEST DUP2 MSTORE PUSH2 0x180 DUP9 ADD CALLDATALOAD PUSH3 0x12C3 DUP2 PUSH3 0xFB9 JUMP JUMPDEST PUSH1 0x20 DUP3 ADD MSTORE PUSH2 0x1A0 DUP9 ADD CALLDATALOAD PUSH3 0x12D9 DUP2 PUSH3 0xFB9 JUMP JUMPDEST PUSH1 0x40 DUP3 ADD MSTORE SWAP3 POP PUSH3 0x12EF PUSH2 0x1C0 DUP9 ADD PUSH3 0xFCF JUMP JUMPDEST SWAP2 POP PUSH2 0x1E0 DUP8 ADD CALLDATALOAD PUSH8 0xFFFFFFFFFFFFFFFF DUP2 GT ISZERO PUSH3 0x130D JUMPI PUSH1 0x0 DUP1 REVERT JUMPDEST PUSH3 0x131B DUP10 DUP3 DUP11 ADD PUSH3 0x1108 JUMP JUMPDEST SWAP2 POP POP SWAP3 SWAP6 POP SWAP3 SWAP6 POP SWAP3 SWAP6 JUMP JUMPDEST PUSH1 0x20 DUP1 DUP3 MSTORE DUP3 MLOAD DUP3 DUP3 ADD DUP2 SWAP1 MSTORE PUSH1 0x0 SWAP2 SWAP1 DUP5 DUP3 ADD SWAP1 PUSH1 0x40 DUP6 ADD SWAP1 DUP5 JUMPDEST DUP2 DUP2 LT ISZERO PUSH3 0x136B JUMPI DUP4 MLOAD PUSH1 0x1 PUSH1 0x1 PUSH1 0xA0 SHL SUB AND DUP4 MSTORE SWAP3 DUP5 ADD SWAP3 SWAP2 DUP5 ADD SWAP2 PUSH1 0x1 ADD PUSH3 0x1344 JUMP JUMPDEST POP SWAP1 SWAP7 SWAP6 POP POP POP POP POP POP JUMP JUMPDEST PUSH1 0x0 PUSH1 0x20 DUP3 DUP5 SUB SLT ISZERO PUSH3 0x138A JUMPI PUSH1 0x0 DUP1 REVERT JUMPDEST POP CALLDATALOAD SWAP2 SWAP1 POP JUMP JUMPDEST PUSH1 0x0 DUP1 PUSH1 0x40 DUP4 DUP6 SUB SLT ISZERO PUSH3 0x13A5 JUMPI PUSH1 0x0 DUP1 REVERT JUMPDEST POP POP DUP1 CALLDATALOAD SWAP3 PUSH1 0x20 SWAP1 SWAP2 ADD CALLDATALOAD SWAP2 POP JUMP JUMPDEST PUSH1 0x0 PUSH1 0x20 DUP3 DUP5 SUB SLT ISZERO PUSH3 0x13C7 JUMPI PUSH1 0x0 DUP1 REVERT JUMPDEST DUP2 MLOAD PUSH3 0xFB2 DUP2 PUSH3 0xFB9 JUMP JUMPDEST DUP1 MLOAD DUP3 MSTORE PUSH1 0x20 DUP2 ADD MLOAD PUSH1 0x20 DUP4 ADD MSTORE PUSH1 0x40 DUP2 ADD MLOAD PUSH1 0x40 DUP4 ADD MSTORE PUSH1 0x60 DUP2 ADD MLOAD PUSH1 0x60 DUP4 ADD MSTORE PUSH1 0x80 DUP2 ADD MLOAD PUSH1 0x80 DUP4 ADD MSTORE PUSH1 0xA0 DUP2 ADD MLOAD PUSH1 0xA0 DUP4 ADD MSTORE PUSH1 0xC0 DUP2 ADD MLOAD PUSH1 0xC0 DUP4 ADD MSTORE POP POP JUMP JUMPDEST PUSH1 0x0 JUMPDEST DUP4 DUP2 LT ISZERO PUSH3 0x1435 JUMPI DUP2 DUP2 ADD MLOAD DUP4 DUP3 ADD MSTORE PUSH1 0x20 ADD PUSH3 0x141B JUMP JUMPDEST POP POP PUSH1 0x0 SWAP2 ADD MSTORE JUMP JUMPDEST PUSH1 0x0 DUP2 MLOAD DUP1 DUP5 MSTORE PUSH3 0x1458 DUP2 PUSH1 0x20 DUP7 ADD PUSH1 0x20 DUP7 ADD PUSH3 0x1418 JUMP JUMPDEST PUSH1 0x1F ADD PUSH1 0x1F NOT AND SWAP3 SWAP1 SWAP3 ADD PUSH1 0x20 ADD SWAP3 SWAP2 POP POP JUMP JUMPDEST PUSH1 0x1 PUSH1 0x1 PUSH1 0xA0 SHL SUB DUP7 DUP2 AND DUP3 MSTORE DUP6 AND PUSH1 0x20 DUP3 ADD MSTORE PUSH1 0x0 PUSH2 0x1A0 PUSH3 0x1494 PUSH1 0x40 DUP5 ADD DUP8 PUSH3 0x13D4 JUMP JUMPDEST DUP5 MLOAD PUSH2 0x120 DUP5 ADD MSTORE PUSH1 0x20 DUP6 ADD MLOAD PUSH2 0x140 DUP5 ADD MSTORE PUSH1 0x40 DUP6 ADD MLOAD PUSH2 0x160 DUP5 ADD MSTORE DUP1 PUSH2 0x180 DUP5 ADD MSTORE PUSH3 0x14C7 DUP2 DUP5 ADD DUP6 PUSH3 0x143E JUMP JUMPDEST SWAP9 SWAP8 POP POP POP POP POP POP POP POP JUMP JUMPDEST PUSH1 0x1 PUSH1 0x1 PUSH1 0xA0 SHL SUB DUP8 DUP2 AND DUP3 MSTORE PUSH1 0x0 SWAP1 PUSH2 0x200 SWAP1 PUSH3 0x14F6 PUSH1 0x20 DUP6 ADD DUP11 PUSH3 0x13D4 JUMP JUMPDEST DUP8 MLOAD PUSH2 0x100 DUP6 ADD MSTORE PUSH1 0x20 DUP9 ADD MLOAD PUSH2 0x120 DUP6 ADD MSTORE PUSH1 0x40 DUP9 ADD MLOAD PUSH2 0x140 DUP6 ADD MSTORE DUP7 MLOAD DUP2 AND PUSH2 0x160 DUP6 ADD MSTORE PUSH1 0x20 DUP8 ADD MLOAD DUP2 AND PUSH2 0x180 DUP6 ADD MSTORE PUSH1 0x40 DUP8 ADD MLOAD DUP2 AND PUSH2 0x1A0 DUP6 ADD MSTORE DUP6 AND PUSH2 0x1C0 DUP5 ADD MSTORE PUSH2 0x1E0 DUP4 ADD DUP2 SWAP1 MSTORE PUSH3 0x1556 DUP2 DUP5 ADD DUP6 PUSH3 0x143E JUMP JUMPDEST SWAP10 SWAP9 POP POP POP POP POP POP POP POP POP JUMP JUMPDEST PUSH1 0x0 PUSH1 0x20 DUP3 DUP5 SUB SLT ISZERO PUSH3 0x1576 JUMPI PUSH1 0x0 DUP1 REVERT JUMPDEST DUP2 MLOAD PUSH1 0xFF DUP2 AND DUP2 EQ PUSH3 0xFB2 JUMPI PUSH1 0x0 DUP1 REVERT JUMPDEST PUSH4 0x4E487B71 PUSH1 0xE0 SHL PUSH1 0x0 MSTORE PUSH1 0x11 PUSH1 0x4 MSTORE PUSH1 0x24 PUSH1 0x0 REVERT JUMPDEST DUP1 DUP3 MUL DUP2 ISZERO DUP3 DUP3 DIV DUP5 EQ OR PUSH3 0xD34 JUMPI PUSH3 0xD34 PUSH3 0x1588 JUMP JUMPDEST PUSH1 0x0 DUP3 PUSH3 0x15D6 JUMPI PUSH4 0x4E487B71 PUSH1 0xE0 SHL PUSH1 0x0 MSTORE PUSH1 0x12 PUSH1 0x4 MSTORE PUSH1 0x24 PUSH1 0x0 REVERT JUMPDEST POP DIV SWAP1 JUMP JUMPDEST DUP1 DUP3 ADD DUP1 DUP3 GT ISZERO PUSH3 0xD34 JUMPI PUSH3 0xD34 PUSH3 0x1588 JUMP JUMPDEST PUSH1 0x1 PUSH1 0x1 PUSH1 0xA0 SHL SUB DUP4 AND DUP2 MSTORE PUSH1 0x40 PUSH1 0x20 DUP3 ADD DUP2 SWAP1 MSTORE PUSH1 0x0 SWAP1 PUSH3 0xCB9 SWAP1 DUP4 ADD DUP5 PUSH3 0x143E JUMP JUMPDEST PUSH1 0x1 DUP2 DUP2 JUMPDEST DUP1 DUP6 GT ISZERO PUSH3 0x1658 JUMPI DUP2 PUSH1 0x0 NOT DIV DUP3 GT ISZERO PUSH3 0x163C JUMPI PUSH3 0x163C PUSH3 0x1588 JUMP JUMPDEST DUP1 DUP6 AND ISZERO PUSH3 0x164A JUMPI SWAP2 DUP2 MUL SWAP2 JUMPDEST SWAP4 DUP5 SHR SWAP4 SWAP1 DUP1 MUL SWAP1 PUSH3 0x161C JUMP JUMPDEST POP SWAP3 POP SWAP3 SWAP1 POP JUMP JUMPDEST PUSH1 0x0 DUP3 PUSH3 0x1671 JUMPI POP PUSH1 0x1 PUSH3 0xD34 JUMP JUMPDEST DUP2 PUSH3 0x1680 JUMPI POP PUSH1 0x0 PUSH3 0xD34 JUMP JUMPDEST DUP2 PUSH1 0x1 DUP2 EQ PUSH3 0x1699 JUMPI PUSH1 0x2 DUP2 EQ PUSH3 0x16A4 JUMPI PUSH3 0x16C4 JUMP JUMPDEST PUSH1 0x1 SWAP2 POP POP PUSH3 0xD34 JUMP JUMPDEST PUSH1 0xFF DUP5 GT ISZERO PUSH3 0x16B8 JUMPI PUSH3 0x16B8 PUSH3 0x1588 JUMP JUMPDEST POP POP PUSH1 0x1 DUP3 SHL PUSH3 0xD34 JUMP JUMPDEST POP PUSH1 0x20 DUP4 LT PUSH2 0x133 DUP4 LT AND PUSH1 0x4E DUP5 LT PUSH1 0xB DUP5 LT AND OR ISZERO PUSH3 0x16E9 JUMPI POP DUP2 DUP2 EXP PUSH3 0xD34 JUMP JUMPDEST PUSH3 0x16F5 DUP4 DUP4 PUSH3 0x1617 JUMP JUMPDEST DUP1 PUSH1 0x0 NOT DIV DUP3 GT ISZERO PUSH3 0x170C JUMPI PUSH3 0x170C PUSH3 0x1588 JUMP JUMPDEST MUL SWAP4 SWAP3 POP POP POP JUMP JUMPDEST PUSH1 0x0 PUSH3 0xD31 PUSH1 0xFF DUP5 AND DUP4 PUSH3 0x1660 JUMP JUMPDEST DUP2 DUP2 SUB DUP2 DUP2 GT ISZERO PUSH3 0xD34 JUMPI PUSH3 0xD34 PUSH3 0x1588 JUMP JUMPDEST PUSH1 0x0 PUSH1 0x20 DUP3 DUP5 SUB SLT ISZERO PUSH3 0x174E JUMPI PUSH1 0x0 DUP1 REVERT JUMPDEST DUP2 MLOAD PUSH3 0xFB2 DUP2 PUSH3 0xF83 JUMP JUMPDEST PUSH1 0x0 DUP3 MLOAD PUSH3 0x176F DUP2 DUP5 PUSH1 0x20 DUP8 ADD PUSH3 0x1418 JUMP JUMPDEST SWAP2 SWAP1 SWAP2 ADD SWAP3 SWAP2 POP POP JUMP JUMPDEST PUSH1 0x20 DUP2 MSTORE PUSH1 0x0 PUSH3 0xD31 PUSH1 0x20 DUP4 ADD DUP5 PUSH3 0x143E JUMP INVALID PUSH1 0x80 PUSH1 0x40 MSTORE PUSH1 0x14 DUP1 SLOAD PUSH1 0xFF NOT AND SWAP1 SSTORE PUSH1 0x2 PUSH1 0x16 SSTORE CALLVALUE DUP1 ISZERO PUSH3 0x20 JUMPI PUSH1 0x0 DUP1 REVERT JUMPDEST POP PUSH1 0x40 MLOAD PUSH3 0x1E6F CODESIZE SUB DUP1 PUSH3 0x1E6F DUP4 CODECOPY DUP2 ADD PUSH1 0x40 DUP2 SWAP1 MSTORE PUSH3 0x43 SWAP2 PUSH3 0x489 JUMP JUMPDEST PUSH3 0x4E CALLER PUSH3 0x1B1 JUMP JUMPDEST PUSH1 0x1 DUP1 SSTORE PUSH1 0x2 DUP1 SLOAD PUSH1 0x1 PUSH1 0x1 PUSH1 0xA0 SHL SUB NOT AND PUSH1 0x1 PUSH1 0x1 PUSH1 0xA0 SHL SUB DUP8 AND SWAP1 DUP2 OR SWAP1 SWAP2 SSTORE PUSH1 0x40 DUP1 MLOAD PUSH4 0x313CE567 PUSH1 0xE0 SHL DUP2 MSTORE SWAP1 MLOAD PUSH4 0x313CE567 SWAP2 PUSH1 0x4 DUP1 DUP3 ADD SWAP3 PUSH1 0x20 SWAP3 SWAP1 SWAP2 SWAP1 DUP3 SWAP1 SUB ADD DUP2 DUP7 GAS STATICCALL ISZERO DUP1 ISZERO PUSH3 0xAC JUMPI RETURNDATASIZE PUSH1 0x0 DUP1 RETURNDATACOPY RETURNDATASIZE PUSH1 0x0 REVERT JUMPDEST POP POP POP POP PUSH1 0x40 MLOAD RETURNDATASIZE PUSH1 0x1F NOT PUSH1 0x1F DUP3 ADD AND DUP3 ADD DUP1 PUSH1 0x40 MSTORE POP DUP2 ADD SWAP1 PUSH3 0xD2 SWAP2 SWAP1 PUSH3 0x570 JUMP JUMPDEST PUSH1 0xFF AND PUSH1 0x3 SSTORE PUSH1 0x4 DUP1 SLOAD PUSH1 0x1 PUSH1 0x1 PUSH1 0xA0 SHL SUB NOT AND PUSH1 0x1 PUSH1 0x1 PUSH1 0xA0 SHL SUB DUP7 AND SWAP1 DUP2 OR DUP3 SSTORE PUSH1 0x40 DUP1 MLOAD PUSH4 0x313CE567 PUSH1 0xE0 SHL DUP2 MSTORE SWAP1 MLOAD SWAP2 SWAP3 PUSH4 0x313CE567 SWAP3 DUP3 DUP3 ADD SWAP3 PUSH1 0x20 SWAP3 SWAP1 DUP3 SWAP1 SUB ADD DUP2 DUP7 GAS STATICCALL ISZERO DUP1 ISZERO PUSH3 0x12F JUMPI RETURNDATASIZE PUSH1 0x0 DUP1 RETURNDATACOPY RETURNDATASIZE PUSH1 0x0 REVERT JUMPDEST POP POP POP POP PUSH1 0x40 MLOAD RETURNDATASIZE PUSH1 0x1F NOT PUSH1 0x1F DUP3 ADD AND DUP3 ADD DUP1 PUSH1 0x40 MSTORE POP DUP2 ADD SWAP1 PUSH3 0x155 SWAP2 SWAP1 PUSH3 0x570 JUMP JUMPDEST PUSH1 0xFF AND PUSH1 0x5 SSTORE DUP3 MLOAD PUSH1 0x7 SSTORE PUSH1 0x20 DUP4 ADD MLOAD PUSH1 0x8 SSTORE PUSH1 0x40 DUP4 ADD MLOAD PUSH1 0x9 SSTORE PUSH1 0x60 DUP4 ADD MLOAD PUSH1 0xA SSTORE PUSH1 0x80 DUP4 ADD MLOAD PUSH1 0xB SSTORE PUSH1 0xA0 DUP4 ADD MLOAD PUSH1 0xC SSTORE PUSH1 0xC0 DUP4 ADD MLOAD PUSH1 0xD SSTORE PUSH3 0x19B DUP3 PUSH3 0x201 JUMP JUMPDEST PUSH3 0x1A6 DUP2 PUSH3 0x2FA JUMP JUMPDEST POP POP POP POP POP PUSH3 0x6F7 JUMP JUMPDEST PUSH1 0x0 DUP1 SLOAD PUSH1 0x1 PUSH1 0x1 PUSH1 0xA0 SHL SUB DUP4 DUP2 AND PUSH1 0x1 PUSH1 0x1 PUSH1 0xA0 SHL SUB NOT DUP4 AND DUP2 OR DUP5 SSTORE PUSH1 0x40 MLOAD SWAP2 SWAP1 SWAP3 AND SWAP3 DUP4 SWAP2 PUSH32 0x8BE0079C531659141344CD1FD0A4F28419497F9722A3DAAFE3B4186F6B6457E0 SWAP2 SWAP1 LOG3 POP POP JUMP JUMPDEST PUSH1 0x20 DUP2 ADD MLOAD DUP2 MLOAD LT PUSH3 0x276 JUMPI PUSH1 0x40 MLOAD PUSH3 0x461BCD PUSH1 0xE5 SHL DUP2 MSTORE PUSH1 0x20 PUSH1 0x4 DUP3 ADD MSTORE PUSH1 0x32 PUSH1 0x24 DUP3 ADD MSTORE PUSH32 0x53746172742074696D657374616D70206D757374206265206C65737320746861 PUSH1 0x44 DUP3 ADD MSTORE PUSH18 0x6E2066696E6973682074696D657374616D7 PUSH1 0x74 SHL PUSH1 0x64 DUP3 ADD MSTORE PUSH1 0x84 ADD JUMPDEST PUSH1 0x40 MLOAD DUP1 SWAP2 SUB SWAP1 REVERT JUMPDEST TIMESTAMP DUP2 PUSH1 0x20 ADD MLOAD GT PUSH3 0x2E4 JUMPI PUSH1 0x40 MLOAD PUSH3 0x461BCD PUSH1 0xE5 SHL DUP2 MSTORE PUSH1 0x20 PUSH1 0x4 DUP3 ADD MSTORE PUSH1 0x30 PUSH1 0x24 DUP3 ADD MSTORE PUSH32 0x46696E6973682074696D657374616D70206D757374206265206D6F7265207468 PUSH1 0x44 DUP3 ADD MSTORE PUSH16 0x616E2063757272656E7420626C6F636B PUSH1 0x80 SHL PUSH1 0x64 DUP3 ADD MSTORE PUSH1 0x84 ADD PUSH3 0x26D JUMP JUMPDEST DUP1 MLOAD PUSH1 0xE SSTORE PUSH1 0x20 DUP2 ADD MLOAD PUSH1 0xF SSTORE PUSH1 0x40 ADD MLOAD PUSH1 0x10 SSTORE JUMP JUMPDEST PUSH1 0x6 PUSH3 0x308 DUP3 DUP3 PUSH3 0x62B JUMP JUMPDEST POP POP JUMP JUMPDEST DUP1 MLOAD PUSH1 0x1 PUSH1 0x1 PUSH1 0xA0 SHL SUB DUP2 AND DUP2 EQ PUSH3 0x324 JUMPI PUSH1 0x0 DUP1 REVERT JUMPDEST SWAP2 SWAP1 POP JUMP JUMPDEST PUSH4 0x4E487B71 PUSH1 0xE0 SHL PUSH1 0x0 MSTORE PUSH1 0x41 PUSH1 0x4 MSTORE PUSH1 0x24 PUSH1 0x0 REVERT JUMPDEST PUSH1 0x40 MLOAD PUSH1 0xE0 DUP2 ADD PUSH1 0x1 PUSH1 0x1 PUSH1 0x40 SHL SUB DUP2 GT DUP3 DUP3 LT OR ISZERO PUSH3 0x364 JUMPI PUSH3 0x364 PUSH3 0x329 JUMP JUMPDEST PUSH1 0x40 MSTORE SWAP1 JUMP JUMPDEST PUSH1 0x40 MLOAD PUSH1 0x1F DUP3 ADD PUSH1 0x1F NOT AND DUP2 ADD PUSH1 0x1 PUSH1 0x1 PUSH1 0x40 SHL SUB DUP2 GT DUP3 DUP3 LT OR ISZERO PUSH3 0x395 JUMPI PUSH3 0x395 PUSH3 0x329 JUMP JUMPDEST PUSH1 0x40 MSTORE SWAP2 SWAP1 POP JUMP JUMPDEST PUSH1 0x0 PUSH1 0x60 DUP3 DUP5 SUB SLT ISZERO PUSH3 0x3B0 JUMPI PUSH1 0x0 DUP1 REVERT JUMPDEST PUSH1 0x40 MLOAD PUSH1 0x60 DUP2 ADD PUSH1 0x1 PUSH1 0x1 PUSH1 0x40 SHL SUB DUP2 GT DUP3 DUP3 LT OR ISZERO PUSH3 0x3D5 JUMPI PUSH3 0x3D5 PUSH3 0x329 JUMP JUMPDEST DUP1 PUSH1 0x40 MSTORE POP DUP1 SWAP2 POP DUP3 MLOAD DUP2 MSTORE PUSH1 0x20 DUP4 ADD MLOAD PUSH1 0x20 DUP3 ADD MSTORE PUSH1 0x40 DUP4 ADD MLOAD PUSH1 0x40 DUP3 ADD MSTORE POP SWAP3 SWAP2 POP POP JUMP JUMPDEST PUSH1 0x0 DUP3 PUSH1 0x1F DUP4 ADD SLT PUSH3 0x40E JUMPI PUSH1 0x0 DUP1 REVERT JUMPDEST DUP2 MLOAD PUSH1 0x1 PUSH1 0x1 PUSH1 0x40 SHL SUB DUP2 GT ISZERO PUSH3 0x42A JUMPI PUSH3 0x42A PUSH3 0x329 JUMP JUMPDEST PUSH1 0x20 PUSH3 0x440 PUSH1 0x1F DUP4 ADD PUSH1 0x1F NOT AND DUP3 ADD PUSH3 0x36A JUMP JUMPDEST DUP3 DUP2 MSTORE DUP6 DUP3 DUP5 DUP8 ADD ADD GT ISZERO PUSH3 0x455 JUMPI PUSH1 0x0 DUP1 REVERT JUMPDEST PUSH1 0x0 JUMPDEST DUP4 DUP2 LT ISZERO PUSH3 0x475 JUMPI DUP6 DUP2 ADD DUP4 ADD MLOAD DUP3 DUP3 ADD DUP5 ADD MSTORE DUP3 ADD PUSH3 0x458 JUMP JUMPDEST POP PUSH1 0x0 SWAP3 DUP2 ADD SWAP1 SWAP2 ADD SWAP2 SWAP1 SWAP2 MSTORE SWAP4 SWAP3 POP POP POP JUMP JUMPDEST PUSH1 0x0 DUP1 PUSH1 0x0 DUP1 PUSH1 0x0 DUP6 DUP8 SUB PUSH2 0x1A0 DUP2 SLT ISZERO PUSH3 0x4A4 JUMPI PUSH1 0x0 DUP1 REVERT JUMPDEST PUSH3 0x4AF DUP8 PUSH3 0x30C JUMP JUMPDEST SWAP6 POP PUSH3 0x4BF PUSH1 0x20 DUP9 ADD PUSH3 0x30C JUMP JUMPDEST SWAP5 POP PUSH1 0xE0 PUSH1 0x3F NOT DUP3 ADD SLT ISZERO PUSH3 0x4D4 JUMPI PUSH1 0x0 DUP1 REVERT JUMPDEST POP PUSH3 0x4DF PUSH3 0x33F JUMP JUMPDEST PUSH1 0x40 DUP8 ADD MLOAD DUP2 MSTORE PUSH1 0x60 DUP8 ADD MLOAD PUSH1 0x20 DUP3 ADD MSTORE PUSH1 0x80 DUP8 ADD MLOAD PUSH1 0x40 DUP3 ADD MSTORE PUSH1 0xA0 DUP8 ADD MLOAD PUSH1 0x60 DUP3 ADD MSTORE PUSH1 0xC0 DUP8 ADD MLOAD PUSH1 0x80 DUP3 ADD MSTORE PUSH1 0xE0 DUP8 ADD MLOAD PUSH1 0xA0 DUP3 ADD MSTORE PUSH2 0x100 DUP8 ADD MLOAD PUSH1 0xC0 DUP3 ADD MSTORE DUP1 SWAP4 POP POP PUSH3 0x537 DUP8 PUSH2 0x120 DUP9 ADD PUSH3 0x39D JUMP JUMPDEST PUSH2 0x180 DUP8 ADD MLOAD SWAP1 SWAP3 POP PUSH1 0x1 PUSH1 0x1 PUSH1 0x40 SHL SUB DUP2 GT ISZERO PUSH3 0x555 JUMPI PUSH1 0x0 DUP1 REVERT JUMPDEST PUSH3 0x563 DUP9 DUP3 DUP10 ADD PUSH3 0x3FC JUMP JUMPDEST SWAP2 POP POP SWAP3 SWAP6 POP SWAP3 SWAP6 SWAP1 SWAP4 POP JUMP JUMPDEST PUSH1 0x0 PUSH1 0x20 DUP3 DUP5 SUB SLT ISZERO PUSH3 0x583 JUMPI PUSH1 0x0 DUP1 REVERT JUMPDEST DUP2 MLOAD PUSH1 0xFF DUP2 AND DUP2 EQ PUSH3 0x595 JUMPI PUSH1 0x0 DUP1 REVERT JUMPDEST SWAP4 SWAP3 POP POP POP JUMP JUMPDEST PUSH1 0x1 DUP2 DUP2 SHR SWAP1 DUP3 AND DUP1 PUSH3 0x5B1 JUMPI PUSH1 0x7F DUP3 AND SWAP2 POP JUMPDEST PUSH1 0x20 DUP3 LT DUP2 SUB PUSH3 0x5D2 JUMPI PUSH4 0x4E487B71 PUSH1 0xE0 SHL PUSH1 0x0 MSTORE PUSH1 0x22 PUSH1 0x4 MSTORE PUSH1 0x24 PUSH1 0x0 REVERT JUMPDEST POP SWAP2 SWAP1 POP JUMP JUMPDEST PUSH1 0x1F DUP3 GT ISZERO PUSH3 0x626 JUMPI PUSH1 0x0 DUP2 DUP2 MSTORE PUSH1 0x20 DUP2 KECCAK256 PUSH1 0x1F DUP6 ADD PUSH1 0x5 SHR DUP2 ADD PUSH1 0x20 DUP7 LT ISZERO PUSH3 0x601 JUMPI POP DUP1 JUMPDEST PUSH1 0x1F DUP6 ADD PUSH1 0x5 SHR DUP3 ADD SWAP2 POP JUMPDEST DUP2 DUP2 LT ISZERO PUSH3 0x622 JUMPI DUP3 DUP2 SSTORE PUSH1 0x1 ADD PUSH3 0x60D JUMP JUMPDEST POP POP POP JUMPDEST POP POP POP JUMP JUMPDEST DUP2 MLOAD PUSH1 0x1 PUSH1 0x1 PUSH1 0x40 SHL SUB DUP2 GT ISZERO PUSH3 0x647 JUMPI PUSH3 0x647 PUSH3 0x329 JUMP JUMPDEST PUSH3 0x65F DUP2 PUSH3 0x658 DUP5 SLOAD PUSH3 0x59C JUMP JUMPDEST DUP5 PUSH3 0x5D8 JUMP JUMPDEST PUSH1 0x20 DUP1 PUSH1 0x1F DUP4 GT PUSH1 0x1 DUP2 EQ PUSH3 0x697 JUMPI PUSH1 0x0 DUP5 ISZERO PUSH3 0x67E JUMPI POP DUP6 DUP4 ADD MLOAD JUMPDEST PUSH1 0x0 NOT PUSH1 0x3 DUP7 SWAP1 SHL SHR NOT AND PUSH1 0x1 DUP6 SWAP1 SHL OR DUP6 SSTORE PUSH3 0x622 JUMP JUMPDEST PUSH1 0x0 DUP6 DUP2 MSTORE PUSH1 0x20 DUP2 KECCAK256 PUSH1 0x1F NOT DUP7 AND SWAP2 JUMPDEST DUP3 DUP2 LT ISZERO PUSH3 0x6C8 JUMPI DUP9 DUP7 ADD MLOAD DUP3 SSTORE SWAP5 DUP5 ADD SWAP5 PUSH1 0x1 SWAP1 SWAP2 ADD SWAP1 DUP5 ADD PUSH3 0x6A7 JUMP JUMPDEST POP DUP6 DUP3 LT ISZERO PUSH3 0x6E7 JUMPI DUP8 DUP6 ADD MLOAD PUSH1 0x0 NOT PUSH1 0x3 DUP9 SWAP1 SHL PUSH1 0xF8 AND SHR NOT AND DUP2 SSTORE JUMPDEST POP POP POP POP POP PUSH1 0x1 SWAP1 DUP2 SHL ADD SWAP1 SSTORE POP JUMP JUMPDEST PUSH2 0x1768 DUP1 PUSH3 0x707 PUSH1 0x0 CODECOPY PUSH1 0x0 RETURN INVALID PUSH1 0x80 PUSH1 0x40 MSTORE CALLVALUE DUP1 ISZERO PUSH2 0x10 JUMPI PUSH1 0x0 DUP1 REVERT JUMPDEST POP PUSH1 0x4 CALLDATASIZE LT PUSH2 0x18E JUMPI PUSH1 0x0 CALLDATALOAD PUSH1 0xE0 SHR DUP1 PUSH4 0x6444E37B GT PUSH2 0xDE JUMPI DUP1 PUSH4 0xC290D691 GT PUSH2 0x97 JUMPI DUP1 PUSH4 0xDDEAE033 GT PUSH2 0x71 JUMPI DUP1 PUSH4 0xDDEAE033 EQ PUSH2 0x34F JUMPI DUP1 PUSH4 0xF2FDE38B EQ PUSH2 0x362 JUMPI DUP1 PUSH4 0xF7C618C1 EQ PUSH2 0x375 JUMPI DUP1 PUSH4 0xF84B903E EQ PUSH2 0x388 JUMPI PUSH1 0x0 DUP1 REVERT JUMPDEST DUP1 PUSH4 0xC290D691 EQ PUSH2 0x32B JUMPI DUP1 PUSH4 0xC6A0E27D EQ PUSH2 0x33E JUMPI DUP1 PUSH4 0xCB2EF6F7 EQ PUSH2 0x346 JUMPI PUSH1 0x0 DUP1 REVERT JUMPDEST DUP1 PUSH4 0x6444E37B EQ PUSH2 0x2C7 JUMPI DUP1 PUSH4 0x71007509 EQ PUSH2 0x2D0 JUMPI DUP1 PUSH4 0x715018A6 EQ PUSH2 0x2D8 JUMPI DUP1 PUSH4 0x747DAEC5 EQ PUSH2 0x2E0 JUMPI DUP1 PUSH4 0x8DA5CB5B EQ PUSH2 0x2F3 JUMPI DUP1 PUSH4 0x96336B30 EQ PUSH2 0x318 JUMPI PUSH1 0x0 DUP1 REVERT JUMPDEST DUP1 PUSH4 0x491447A8 GT PUSH2 0x14B JUMPI DUP1 PUSH4 0x5216AEEC GT PUSH2 0x125 JUMPI DUP1 PUSH4 0x5216AEEC EQ PUSH2 0x2A5 JUMPI DUP1 PUSH4 0x586360CE EQ PUSH2 0x2AE JUMPI DUP1 PUSH4 0x590E1AE3 EQ PUSH2 0x2B7 JUMPI DUP1 PUSH4 0x62BEA93F EQ PUSH2 0x2BF JUMPI PUSH1 0x0 DUP1 REVERT JUMPDEST DUP1 PUSH4 0x491447A8 EQ PUSH2 0x282 JUMPI DUP1 PUSH4 0x4B1A4C0C EQ PUSH2 0x294 JUMPI DUP1 PUSH4 0x4E71D92D EQ PUSH2 0x29D JUMPI PUSH1 0x0 DUP1 REVERT JUMPDEST DUP1 PUSH4 0x12D3675E EQ PUSH2 0x193 JUMPI DUP1 PUSH4 0x1959A002 EQ PUSH2 0x1EF JUMPI DUP1 PUSH4 0x2DCC8C66 EQ PUSH2 0x239 JUMPI DUP1 PUSH4 0x313CE567 EQ PUSH2 0x24E JUMPI DUP1 PUSH4 0x3CCFD60B EQ PUSH2 0x265 JUMPI DUP1 PUSH4 0x3F138D4B EQ PUSH2 0x26F JUMPI JUMPDEST PUSH1 0x0 DUP1 REVERT JUMPDEST PUSH1 0x7 SLOAD PUSH1 0x8 SLOAD PUSH1 0x9 SLOAD PUSH1 0xA SLOAD PUSH1 0xB SLOAD PUSH1 0xC SLOAD PUSH1 0xD SLOAD PUSH2 0x1B5 SWAP7 SWAP6 SWAP5 SWAP4 SWAP3 SWAP2 SWAP1 DUP8 JUMP JUMPDEST PUSH1 0x40 DUP1 MLOAD SWAP8 DUP9 MSTORE PUSH1 0x20 DUP9 ADD SWAP7 SWAP1 SWAP7 MSTORE SWAP5 DUP7 ADD SWAP4 SWAP1 SWAP4 MSTORE PUSH1 0x60 DUP6 ADD SWAP2 SWAP1 SWAP2 MSTORE PUSH1 0x80 DUP5 ADD MSTORE PUSH1 0xA0 DUP4 ADD MSTORE PUSH1 0xC0 DUP3 ADD MSTORE PUSH1 0xE0 ADD JUMPDEST PUSH1 0x40 MLOAD DUP1 SWAP2 SUB SWAP1 RETURN JUMPDEST PUSH2 0x21E PUSH2 0x1FD CALLDATASIZE PUSH1 0x4 PUSH2 0x1230 JUMP JUMPDEST PUSH1 0x15 PUSH1 0x20 MSTORE PUSH1 0x0 SWAP1 DUP2 MSTORE PUSH1 0x40 SWAP1 KECCAK256 DUP1 SLOAD PUSH1 0x1 DUP3 ADD SLOAD PUSH1 0x2 SWAP1 SWAP3 ADD SLOAD SWAP1 SWAP2 SWAP1 DUP4 JUMP JUMPDEST PUSH1 0x40 DUP1 MLOAD SWAP4 DUP5 MSTORE PUSH1 0x20 DUP5 ADD SWAP3 SWAP1 SWAP3 MSTORE SWAP1 DUP3 ADD MSTORE PUSH1 0x60 ADD PUSH2 0x1E6 JUMP JUMPDEST PUSH2 0x241 PUSH2 0x3A5 JUMP JUMPDEST PUSH1 0x40 MLOAD PUSH2 0x1E6 SWAP2 SWAP1 PUSH2 0x126F JUMP JUMPDEST PUSH2 0x257 PUSH1 0x3 SLOAD DUP2 JUMP JUMPDEST PUSH1 0x40 MLOAD SWAP1 DUP2 MSTORE PUSH1 0x20 ADD PUSH2 0x1E6 JUMP JUMPDEST PUSH2 0x26D PUSH2 0x433 JUMP JUMPDEST STOP JUMPDEST PUSH2 0x26D PUSH2 0x27D CALLDATASIZE PUSH1 0x4 PUSH2 0x12A2 JUMP JUMPDEST PUSH2 0x56F JUMP JUMPDEST PUSH1 0xE SLOAD PUSH1 0xF SLOAD PUSH1 0x10 SLOAD PUSH2 0x21E SWAP3 SWAP2 SWAP1 DUP4 JUMP JUMPDEST PUSH2 0x257 PUSH1 0x12 SLOAD DUP2 JUMP JUMPDEST PUSH2 0x26D PUSH2 0x5AA JUMP JUMPDEST PUSH2 0x257 PUSH1 0x11 SLOAD DUP2 JUMP JUMPDEST PUSH2 0x257 PUSH1 0x13 SLOAD DUP2 JUMP JUMPDEST PUSH2 0x26D PUSH2 0x5B5 JUMP JUMPDEST PUSH2 0x257 PUSH2 0x6B2 JUMP JUMPDEST PUSH2 0x257 PUSH1 0x5 SLOAD DUP2 JUMP JUMPDEST PUSH2 0x26D PUSH2 0x74C JUMP JUMPDEST PUSH2 0x26D PUSH2 0x8AD JUMP JUMPDEST PUSH2 0x26D PUSH2 0x2EE CALLDATASIZE PUSH1 0x4 PUSH2 0x12E2 JUMP JUMPDEST PUSH2 0x8BF JUMP JUMPDEST PUSH1 0x0 SLOAD PUSH1 0x1 PUSH1 0x1 PUSH1 0xA0 SHL SUB AND JUMPDEST PUSH1 0x40 MLOAD PUSH1 0x1 PUSH1 0x1 PUSH1 0xA0 SHL SUB SWAP1 SWAP2 AND DUP2 MSTORE PUSH1 0x20 ADD PUSH2 0x1E6 JUMP JUMPDEST PUSH1 0x4 SLOAD PUSH2 0x300 SWAP1 PUSH1 0x1 PUSH1 0x1 PUSH1 0xA0 SHL SUB AND DUP2 JUMP JUMPDEST PUSH2 0x26D PUSH2 0x339 CALLDATASIZE PUSH1 0x4 PUSH2 0x1393 JUMP JUMPDEST PUSH2 0x8CB JUMP JUMPDEST PUSH2 0x26D PUSH2 0xB49 JUMP JUMPDEST PUSH2 0x257 PUSH1 0x16 SLOAD DUP2 JUMP JUMPDEST PUSH2 0x26D PUSH2 0x35D CALLDATASIZE PUSH1 0x4 PUSH2 0x1230 JUMP JUMPDEST PUSH2 0xC17 JUMP JUMPDEST PUSH2 0x26D PUSH2 0x370 CALLDATASIZE PUSH1 0x4 PUSH2 0x1230 JUMP JUMPDEST PUSH2 0xC20 JUMP JUMPDEST PUSH1 0x2 SLOAD PUSH2 0x300 SWAP1 PUSH1 0x1 PUSH1 0x1 PUSH1 0xA0 SHL SUB AND DUP2 JUMP JUMPDEST PUSH1 0x14 SLOAD PUSH2 0x395 SWAP1 PUSH1 0xFF AND DUP2 JUMP JUMPDEST PUSH1 0x40 MLOAD SWAP1 ISZERO ISZERO DUP2 MSTORE PUSH1 0x20 ADD PUSH2 0x1E6 JUMP JUMPDEST PUSH1 0x6 DUP1 SLOAD PUSH2 0x3B2 SWAP1 PUSH2 0x13AC JUMP JUMPDEST DUP1 PUSH1 0x1F ADD PUSH1 0x20 DUP1 SWAP2 DIV MUL PUSH1 0x20 ADD PUSH1 0x40 MLOAD SWAP1 DUP2 ADD PUSH1 0x40 MSTORE DUP1 SWAP3 SWAP2 SWAP1 DUP2 DUP2 MSTORE PUSH1 0x20 ADD DUP3 DUP1 SLOAD PUSH2 0x3DE SWAP1 PUSH2 0x13AC JUMP JUMPDEST DUP1 ISZERO PUSH2 0x42B JUMPI DUP1 PUSH1 0x1F LT PUSH2 0x400 JUMPI PUSH2 0x100 DUP1 DUP4 SLOAD DIV MUL DUP4 MSTORE SWAP2 PUSH1 0x20 ADD SWAP2 PUSH2 0x42B JUMP JUMPDEST DUP3 ADD SWAP2 SWAP1 PUSH1 0x0 MSTORE PUSH1 0x20 PUSH1 0x0 KECCAK256 SWAP1 JUMPDEST DUP2 SLOAD DUP2 MSTORE SWAP1 PUSH1 0x1 ADD SWAP1 PUSH1 0x20 ADD DUP1 DUP4 GT PUSH2 0x40E JUMPI DUP3 SWAP1 SUB PUSH1 0x1F AND DUP3 ADD SWAP2 JUMPDEST POP POP POP POP POP DUP2 JUMP JUMPDEST PUSH2 0x43B PUSH2 0xC96 JUMP JUMPDEST PUSH1 0xF SLOAD TIMESTAMP GT PUSH2 0x465 JUMPI PUSH1 0x40 MLOAD PUSH3 0x461BCD PUSH1 0xE5 SHL DUP2 MSTORE PUSH1 0x4 ADD PUSH2 0x45C SWAP1 PUSH2 0x13E6 JUMP JUMPDEST PUSH1 0x40 MLOAD DUP1 SWAP2 SUB SWAP1 REVERT JUMPDEST PUSH1 0x8 SLOAD PUSH1 0x11 SLOAD LT ISZERO PUSH2 0x489 JUMPI PUSH1 0x40 MLOAD PUSH3 0x461BCD PUSH1 0xE5 SHL DUP2 MSTORE PUSH1 0x4 ADD PUSH2 0x45C SWAP1 PUSH2 0x141D JUMP JUMPDEST PUSH1 0x14 SLOAD PUSH1 0xFF AND ISZERO PUSH2 0x4D3 JUMPI PUSH1 0x40 MLOAD PUSH3 0x461BCD PUSH1 0xE5 SHL DUP2 MSTORE PUSH1 0x20 PUSH1 0x4 DUP3 ADD MSTORE PUSH1 0x14 PUSH1 0x24 DUP3 ADD MSTORE PUSH20 0x20B63932B0B23C903234B9BA3934B13ABA32B217 PUSH1 0x61 SHL PUSH1 0x44 DUP3 ADD MSTORE PUSH1 0x64 ADD PUSH2 0x45C JUMP JUMPDEST PUSH1 0x4 DUP1 SLOAD PUSH1 0x40 MLOAD PUSH4 0x70A08231 PUSH1 0xE0 SHL DUP2 MSTORE ADDRESS SWAP3 DUP2 ADD SWAP3 SWAP1 SWAP3 MSTORE PUSH1 0x0 SWAP2 PUSH1 0x1 PUSH1 0x1 PUSH1 0xA0 SHL SUB SWAP1 SWAP2 AND SWAP1 PUSH4 0x70A08231 SWAP1 PUSH1 0x24 ADD PUSH1 0x20 PUSH1 0x40 MLOAD DUP1 DUP4 SUB DUP2 DUP7 GAS STATICCALL ISZERO DUP1 ISZERO PUSH2 0x521 JUMPI RETURNDATASIZE PUSH1 0x0 DUP1 RETURNDATACOPY RETURNDATASIZE PUSH1 0x0 REVERT JUMPDEST POP POP POP POP PUSH1 0x40 MLOAD RETURNDATASIZE PUSH1 0x1F NOT PUSH1 0x1F DUP3 ADD AND DUP3 ADD DUP1 PUSH1 0x40 MSTORE POP DUP2 ADD SWAP1 PUSH2 0x545 SWAP2 SWAP1 PUSH2 0x1461 JUMP JUMPDEST PUSH1 0x4 SLOAD SWAP1 SWAP2 POP PUSH2 0x55F SWAP1 PUSH1 0x1 PUSH1 0x1 PUSH1 0xA0 SHL SUB AND CALLER DUP4 PUSH2 0xCF0 JUMP JUMPDEST POP PUSH1 0x14 DUP1 SLOAD PUSH1 0xFF NOT AND PUSH1 0x1 OR SWAP1 SSTORE JUMP JUMPDEST PUSH2 0x577 PUSH2 0xC96 JUMP JUMPDEST PUSH1 0x2 SLOAD PUSH1 0x1 PUSH1 0x1 PUSH1 0xA0 SHL SUB SWAP1 DUP2 AND SWAP1 DUP4 AND SUB PUSH2 0x592 JUMPI PUSH1 0x0 DUP1 REVERT JUMPDEST PUSH2 0x5A6 PUSH1 0x1 PUSH1 0x1 PUSH1 0xA0 SHL SUB DUP4 AND CALLER DUP4 PUSH2 0xCF0 JUMP JUMPDEST POP POP JUMP JUMPDEST PUSH2 0x5B3 CALLER PUSH2 0xD58 JUMP JUMPDEST JUMP JUMPDEST PUSH1 0xF SLOAD TIMESTAMP GT PUSH2 0x5D6 JUMPI PUSH1 0x40 MLOAD PUSH3 0x461BCD PUSH1 0xE5 SHL DUP2 MSTORE PUSH1 0x4 ADD PUSH2 0x45C SWAP1 PUSH2 0x13E6 JUMP JUMPDEST PUSH1 0x8 SLOAD PUSH1 0x11 SLOAD LT PUSH2 0x629 JUMPI PUSH1 0x40 MLOAD PUSH3 0x461BCD PUSH1 0xE5 SHL DUP2 MSTORE PUSH1 0x20 PUSH1 0x4 DUP3 ADD DUP2 SWAP1 MSTORE PUSH1 0x24 DUP3 ADD MSTORE PUSH32 0x5468652049444F20706F6F6C2068617320726561636820736F6674206361702E PUSH1 0x44 DUP3 ADD MSTORE PUSH1 0x64 ADD PUSH2 0x45C JUMP JUMPDEST CALLER PUSH1 0x0 SWAP1 DUP2 MSTORE PUSH1 0x15 PUSH1 0x20 MSTORE PUSH1 0x40 SWAP1 KECCAK256 PUSH1 0x2 DUP2 ADD SLOAD DUP1 PUSH2 0x68A JUMPI PUSH1 0x40 MLOAD PUSH3 0x461BCD PUSH1 0xE5 SHL DUP2 MSTORE PUSH1 0x20 PUSH1 0x4 DUP3 ADD MSTORE PUSH1 0x17 PUSH1 0x24 DUP3 ADD MSTORE PUSH32 0x596F752068617665206E6F20696E766573746D656E742E000000000000000000 PUSH1 0x44 DUP3 ADD MSTORE PUSH1 0x64 ADD PUSH2 0x45C JUMP JUMPDEST PUSH1 0x0 DUP1 DUP4 SSTORE PUSH1 0x2 DUP4 ADD DUP2 SWAP1 SSTORE PUSH1 0x1 DUP4 ADD SSTORE PUSH1 0x4 SLOAD PUSH2 0x5A6 SWAP1 PUSH1 0x1 PUSH1 0x1 PUSH1 0xA0 SHL SUB AND CALLER DUP4 PUSH2 0xCF0 JUMP JUMPDEST PUSH1 0x2 SLOAD PUSH1 0x40 MLOAD PUSH4 0x70A08231 PUSH1 0xE0 SHL DUP2 MSTORE ADDRESS PUSH1 0x4 DUP3 ADD MSTORE PUSH1 0x0 SWAP2 DUP3 SWAP2 PUSH1 0x1 PUSH1 0x1 PUSH1 0xA0 SHL SUB SWAP1 SWAP2 AND SWAP1 PUSH4 0x70A08231 SWAP1 PUSH1 0x24 ADD PUSH1 0x20 PUSH1 0x40 MLOAD DUP1 DUP4 SUB DUP2 DUP7 GAS STATICCALL ISZERO DUP1 ISZERO PUSH2 0x6FF JUMPI RETURNDATASIZE PUSH1 0x0 DUP1 RETURNDATACOPY RETURNDATASIZE PUSH1 0x0 REVERT JUMPDEST POP POP POP POP PUSH1 0x40 MLOAD RETURNDATASIZE PUSH1 0x1F NOT PUSH1 0x1F DUP3 ADD AND DUP3 ADD DUP1 PUSH1 0x40 MSTORE POP DUP2 ADD SWAP1 PUSH2 0x723 SWAP2 SWAP1 PUSH2 0x1461 JUMP JUMPDEST SWAP1 POP PUSH2 0x746 PUSH1 0x12 SLOAD PUSH2 0x740 PUSH1 0x13 SLOAD DUP5 PUSH2 0xE85 SWAP1 SWAP2 SWAP1 PUSH4 0xFFFFFFFF AND JUMP JUMPDEST SWAP1 PUSH2 0xE9A JUMP JUMPDEST SWAP2 POP POP SWAP1 JUMP JUMPDEST PUSH2 0x754 PUSH2 0xC96 JUMP JUMPDEST PUSH1 0xF SLOAD TIMESTAMP GT PUSH2 0x775 JUMPI PUSH1 0x40 MLOAD PUSH3 0x461BCD PUSH1 0xE5 SHL DUP2 MSTORE PUSH1 0x4 ADD PUSH2 0x45C SWAP1 PUSH2 0x13E6 JUMP JUMPDEST PUSH1 0x8 SLOAD PUSH1 0x11 SLOAD LT PUSH2 0x7C8 JUMPI PUSH1 0x40 MLOAD PUSH3 0x461BCD PUSH1 0xE5 SHL DUP2 MSTORE PUSH1 0x20 PUSH1 0x4 DUP3 ADD DUP2 SWAP1 MSTORE PUSH1 0x24 DUP3 ADD MSTORE PUSH32 0x5468652049444F20706F6F6C2068617320726561636820736F6674206361702E PUSH1 0x44 DUP3 ADD MSTORE PUSH1 0x64 ADD PUSH2 0x45C JUMP JUMPDEST PUSH1 0x2 SLOAD PUSH1 0x40 MLOAD PUSH4 0x70A08231 PUSH1 0xE0 SHL DUP2 MSTORE ADDRESS PUSH1 0x4 DUP3 ADD MSTORE PUSH1 0x0 SWAP2 PUSH1 0x1 PUSH1 0x1 PUSH1 0xA0 SHL SUB AND SWAP1 PUSH4 0x70A08231 SWAP1 PUSH1 0x24 ADD PUSH1 0x20 PUSH1 0x40 MLOAD DUP1 DUP4 SUB DUP2 DUP7 GAS STATICCALL ISZERO DUP1 ISZERO PUSH2 0x811 JUMPI RETURNDATASIZE PUSH1 0x0 DUP1 RETURNDATACOPY RETURNDATASIZE PUSH1 0x0 REVERT JUMPDEST POP POP POP POP PUSH1 0x40 MLOAD RETURNDATASIZE PUSH1 0x1F NOT PUSH1 0x1F DUP3 ADD AND DUP3 ADD DUP1 PUSH1 0x40 MSTORE POP DUP2 ADD SWAP1 PUSH2 0x835 SWAP2 SWAP1 PUSH2 0x1461 JUMP JUMPDEST SWAP1 POP PUSH1 0x0 DUP2 GT PUSH2 0x893 JUMPI PUSH1 0x40 MLOAD PUSH3 0x461BCD PUSH1 0xE5 SHL DUP2 MSTORE PUSH1 0x20 PUSH1 0x4 DUP3 ADD MSTORE PUSH1 0x23 PUSH1 0x24 DUP3 ADD MSTORE PUSH32 0x5468652049444F20706F6F6C20686173206E6F7420726566756E6420746F6B65 PUSH1 0x44 DUP3 ADD MSTORE PUSH3 0x373997 PUSH1 0xE9 SHL PUSH1 0x64 DUP3 ADD MSTORE PUSH1 0x84 ADD PUSH2 0x45C JUMP JUMPDEST PUSH1 0x2 SLOAD PUSH2 0x8AA SWAP1 PUSH1 0x1 PUSH1 0x1 PUSH1 0xA0 SHL SUB AND CALLER DUP4 PUSH2 0xCF0 JUMP JUMPDEST POP JUMP JUMPDEST PUSH2 0x8B5 PUSH2 0xC96 JUMP JUMPDEST PUSH2 0x5B3 PUSH1 0x0 PUSH2 0xEA6 JUMP JUMPDEST PUSH1 0x6 PUSH2 0x5A6 DUP3 DUP3 PUSH2 0x14C8 JUMP JUMPDEST PUSH1 0xE SLOAD TIMESTAMP LT ISZERO PUSH2 0x90B JUMPI PUSH1 0x40 MLOAD PUSH3 0x461BCD PUSH1 0xE5 SHL DUP2 MSTORE PUSH1 0x20 PUSH1 0x4 DUP3 ADD MSTORE PUSH1 0xB PUSH1 0x24 DUP3 ADD MSTORE PUSH11 0x139BDD081CDD185C9D1959 PUSH1 0xAA SHL PUSH1 0x44 DUP3 ADD MSTORE PUSH1 0x64 ADD PUSH2 0x45C JUMP JUMPDEST PUSH1 0xF SLOAD TIMESTAMP LT PUSH2 0x944 JUMPI PUSH1 0x40 MLOAD PUSH3 0x461BCD PUSH1 0xE5 SHL DUP2 MSTORE PUSH1 0x20 PUSH1 0x4 DUP3 ADD MSTORE PUSH1 0x5 PUSH1 0x24 DUP3 ADD MSTORE PUSH5 0x115B991959 PUSH1 0xDA SHL PUSH1 0x44 DUP3 ADD MSTORE PUSH1 0x64 ADD PUSH2 0x45C JUMP JUMPDEST PUSH1 0xA SLOAD DUP2 LT ISZERO PUSH2 0x98D JUMPI PUSH1 0x40 MLOAD PUSH3 0x461BCD PUSH1 0xE5 SHL DUP2 MSTORE PUSH1 0x20 PUSH1 0x4 DUP3 ADD MSTORE PUSH1 0x14 PUSH1 0x24 DUP3 ADD MSTORE PUSH20 0x13195CDCC81D1A195B881B5A5B88185B5BDD5B9D PUSH1 0x62 SHL PUSH1 0x44 DUP3 ADD MSTORE PUSH1 0x64 ADD PUSH2 0x45C JUMP JUMPDEST PUSH1 0xB SLOAD DUP2 GT ISZERO PUSH2 0x9D6 JUMPI PUSH1 0x40 MLOAD PUSH3 0x461BCD PUSH1 0xE5 SHL DUP2 MSTORE PUSH1 0x20 PUSH1 0x4 DUP3 ADD MSTORE PUSH1 0x14 PUSH1 0x24 DUP3 ADD MSTORE PUSH20 0x135BDC99481D1A195B881B585E08185B5BDD5B9D PUSH1 0x62 SHL PUSH1 0x44 DUP3 ADD MSTORE PUSH1 0x64 ADD PUSH2 0x45C JUMP JUMPDEST PUSH1 0x9 SLOAD PUSH1 0x11 SLOAD PUSH2 0x9E6 SWAP1 DUP4 PUSH2 0xE85 JUMP JUMPDEST GT ISZERO PUSH2 0xA21 JUMPI PUSH1 0x40 MLOAD PUSH3 0x461BCD PUSH1 0xE5 SHL DUP2 MSTORE PUSH1 0x20 PUSH1 0x4 DUP3 ADD MSTORE PUSH1 0xA PUSH1 0x24 DUP3 ADD MSTORE PUSH10 0x13DD995C999A5B1B1959 PUSH1 0xB2 SHL PUSH1 0x44 DUP3 ADD MSTORE PUSH1 0x64 ADD PUSH2 0x45C JUMP JUMPDEST CALLER PUSH1 0x0 SWAP1 DUP2 MSTORE PUSH1 0x15 PUSH1 0x20 MSTORE PUSH1 0x40 SWAP1 KECCAK256 PUSH1 0xB SLOAD PUSH1 0x2 DUP3 ADD SLOAD PUSH2 0xA42 SWAP1 DUP5 PUSH2 0xE85 JUMP JUMPDEST GT ISZERO PUSH2 0xA87 JUMPI PUSH1 0x40 MLOAD PUSH3 0x461BCD PUSH1 0xE5 SHL DUP2 MSTORE PUSH1 0x20 PUSH1 0x4 DUP3 ADD MSTORE PUSH1 0x14 PUSH1 0x24 DUP3 ADD MSTORE PUSH20 0x135BDC99481D1A195B881B585E08185B5BDD5B9D PUSH1 0x62 SHL PUSH1 0x44 DUP3 ADD MSTORE PUSH1 0x64 ADD PUSH2 0x45C JUMP JUMPDEST PUSH1 0x0 PUSH2 0xA98 DUP4 PUSH1 0x7 PUSH1 0x0 ADD SLOAD PUSH2 0xEF6 JUMP JUMPDEST PUSH1 0x4 SLOAD SWAP1 SWAP2 POP PUSH2 0xAB3 SWAP1 PUSH1 0x1 PUSH1 0x1 PUSH1 0xA0 SHL SUB AND CALLER ADDRESS DUP7 PUSH2 0xF1B JUMP JUMPDEST PUSH1 0x11 SLOAD PUSH2 0xAC0 SWAP1 DUP5 PUSH2 0xE85 JUMP JUMPDEST PUSH1 0x11 SSTORE PUSH1 0x12 SLOAD PUSH2 0xAD0 SWAP1 DUP3 PUSH2 0xE85 JUMP JUMPDEST PUSH1 0x12 SSTORE PUSH1 0x2 DUP3 ADD SLOAD PUSH2 0xAE2 SWAP1 DUP5 PUSH2 0xE85 JUMP JUMPDEST PUSH1 0x2 DUP4 ADD SSTORE PUSH1 0x1 DUP3 ADD SLOAD PUSH2 0xAF6 SWAP1 DUP3 PUSH2 0xE85 JUMP JUMPDEST PUSH1 0x1 DUP4 ADD SSTORE DUP2 SLOAD PUSH2 0xB07 SWAP1 DUP3 PUSH2 0xE85 JUMP JUMPDEST DUP3 SSTORE PUSH1 0x40 DUP1 MLOAD DUP5 DUP2 MSTORE PUSH1 0x20 DUP2 ADD DUP4 SWAP1 MSTORE CALLER SWAP2 PUSH32 0xB55D4CA2FC644CA3F8CDC9C907826E24ACD68D2B2D4D73F48B8F2378DBAEDF5D SWAP2 ADD PUSH1 0x40 MLOAD DUP1 SWAP2 SUB SWAP1 LOG2 POP POP POP JUMP JUMPDEST PUSH2 0xB51 PUSH2 0xC96 JUMP JUMPDEST PUSH1 0x14 SLOAD PUSH1 0xFF AND PUSH2 0xBAF JUMPI PUSH1 0x40 MLOAD PUSH3 0x461BCD PUSH1 0xE5 SHL DUP2 MSTORE PUSH1 0x20 PUSH1 0x4 DUP3 ADD MSTORE PUSH1 0x23 PUSH1 0x24 DUP3 ADD MSTORE PUSH32 0x576974686472617720616C6C6F77656420616674657220646973747269627574 PUSH1 0x44 DUP3 ADD MSTORE PUSH3 0x32B217 PUSH1 0xE9 SHL PUSH1 0x64 DUP3 ADD MSTORE PUSH1 0x84 ADD PUSH2 0x45C JUMP JUMPDEST PUSH1 0x0 PUSH2 0xBB9 PUSH2 0x6B2 JUMP JUMPDEST SWAP1 POP PUSH1 0x0 DUP2 GT PUSH2 0x893 JUMPI PUSH1 0x40 MLOAD PUSH3 0x461BCD PUSH1 0xE5 SHL DUP2 MSTORE PUSH1 0x20 PUSH1 0x4 DUP3 ADD MSTORE PUSH1 0x23 PUSH1 0x24 DUP3 ADD MSTORE PUSH32 0x5468652049444F20706F6F6C20686173206E6F7420756E736F6C6420746F6B65 PUSH1 0x44 DUP3 ADD MSTORE PUSH3 0x373997 PUSH1 0xE9 SHL PUSH1 0x64 DUP3 ADD MSTORE PUSH1 0x84 ADD PUSH2 0x45C JUMP JUMPDEST PUSH2 0x8AA DUP2 PUSH2 0xD58 JUMP JUMPDEST PUSH2 0xC28 PUSH2 0xC96 JUMP JUMPDEST PUSH1 0x1 PUSH1 0x1 PUSH1 0xA0 SHL SUB DUP2 AND PUSH2 0xC8D JUMPI PUSH1 0x40 MLOAD PUSH3 0x461BCD PUSH1 0xE5 SHL DUP2 MSTORE PUSH1 0x20 PUSH1 0x4 DUP3 ADD MSTORE PUSH1 0x26 PUSH1 0x24 DUP3 ADD MSTORE PUSH32 0x4F776E61626C653A206E6577206F776E657220697320746865207A65726F2061 PUSH1 0x44 DUP3 ADD MSTORE PUSH6 0x646472657373 PUSH1 0xD0 SHL PUSH1 0x64 DUP3 ADD MSTORE PUSH1 0x84 ADD PUSH2 0x45C JUMP JUMPDEST PUSH2 0x8AA DUP2 PUSH2 0xEA6 JUMP JUMPDEST PUSH1 0x0 SLOAD PUSH1 0x1 PUSH1 0x1 PUSH1 0xA0 SHL SUB AND CALLER EQ PUSH2 0x5B3 JUMPI PUSH1 0x40 MLOAD PUSH3 0x461BCD PUSH1 0xE5 SHL DUP2 MSTORE PUSH1 0x20 PUSH1 0x4 DUP3 ADD DUP2 SWAP1 MSTORE PUSH1 0x24 DUP3 ADD MSTORE PUSH32 0x4F776E61626C653A2063616C6C6572206973206E6F7420746865206F776E6572 PUSH1 0x44 DUP3 ADD MSTORE PUSH1 0x64 ADD PUSH2 0x45C JUMP JUMPDEST PUSH1 0x40 MLOAD PUSH1 0x1 PUSH1 0x1 PUSH1 0xA0 SHL SUB DUP4 AND PUSH1 0x24 DUP3 ADD MSTORE PUSH1 0x44 DUP2 ADD DUP3 SWAP1 MSTORE PUSH2 0xD53 SWAP1 DUP5 SWAP1 PUSH4 0xA9059CBB PUSH1 0xE0 SHL SWAP1 PUSH1 0x64 ADD JUMPDEST PUSH1 0x40 DUP1 MLOAD PUSH1 0x1F NOT DUP2 DUP5 SUB ADD DUP2 MSTORE SWAP2 SWAP1 MSTORE PUSH1 0x20 DUP2 ADD DUP1 MLOAD PUSH1 0x1 PUSH1 0x1 PUSH1 0xE0 SHL SUB AND PUSH1 0x1 PUSH1 0x1 PUSH1 0xE0 SHL SUB NOT SWAP1 SWAP4 AND SWAP3 SWAP1 SWAP3 OR SWAP1 SWAP2 MSTORE PUSH2 0xF59 JUMP JUMPDEST POP POP POP JUMP JUMPDEST PUSH2 0xD60 PUSH2 0x102B JUMP JUMPDEST PUSH1 0xF SLOAD TIMESTAMP GT PUSH2 0xD81 JUMPI PUSH1 0x40 MLOAD PUSH3 0x461BCD PUSH1 0xE5 SHL DUP2 MSTORE PUSH1 0x4 ADD PUSH2 0x45C SWAP1 PUSH2 0x13E6 JUMP JUMPDEST PUSH1 0x8 SLOAD PUSH1 0x11 SLOAD LT ISZERO PUSH2 0xDA5 JUMPI PUSH1 0x40 MLOAD PUSH3 0x461BCD PUSH1 0xE5 SHL DUP2 MSTORE PUSH1 0x4 ADD PUSH2 0x45C SWAP1 PUSH2 0x141D JUMP JUMPDEST PUSH1 0x1 PUSH1 0x1 PUSH1 0xA0 SHL SUB DUP2 AND PUSH1 0x0 SWAP1 DUP2 MSTORE PUSH1 0x15 PUSH1 0x20 MSTORE PUSH1 0x40 SWAP1 KECCAK256 DUP1 SLOAD DUP1 PUSH2 0xE0C JUMPI PUSH1 0x40 MLOAD PUSH3 0x461BCD PUSH1 0xE5 SHL DUP2 MSTORE PUSH1 0x20 PUSH1 0x4 DUP3 ADD MSTORE PUSH1 0x1C PUSH1 0x24 DUP3 ADD MSTORE PUSH32 0x596F7520646F206E6F742068617665206465627420746F6B656E732E00000000 PUSH1 0x44 DUP3 ADD MSTORE PUSH1 0x64 ADD PUSH2 0x45C JUMP JUMPDEST PUSH1 0x0 DUP3 SSTORE PUSH1 0x13 SLOAD PUSH2 0xE1D SWAP1 DUP3 PUSH2 0xE85 JUMP JUMPDEST PUSH1 0x13 SSTORE PUSH1 0x2 SLOAD PUSH2 0xE37 SWAP1 PUSH1 0x1 PUSH1 0x1 PUSH1 0xA0 SHL SUB AND DUP5 DUP4 PUSH2 0xCF0 JUMP JUMPDEST DUP3 PUSH1 0x1 PUSH1 0x1 PUSH1 0xA0 SHL SUB AND PUSH32 0x6352C5382C4A4578E712449CA65E83CDB392D045DFCF1CAD9615189DB2DA244B DUP3 PUSH1 0x40 MLOAD PUSH2 0xE72 SWAP2 DUP2 MSTORE PUSH1 0x20 ADD SWAP1 JUMP JUMPDEST PUSH1 0x40 MLOAD DUP1 SWAP2 SUB SWAP1 LOG2 POP POP PUSH2 0x8AA PUSH1 0x1 DUP1 SSTORE JUMP JUMPDEST PUSH1 0x0 PUSH2 0xE91 DUP3 DUP5 PUSH2 0x159E JUMP JUMPDEST SWAP1 POP JUMPDEST SWAP3 SWAP2 POP POP JUMP JUMPDEST PUSH1 0x0 PUSH2 0xE91 DUP3 DUP5 PUSH2 0x15B1 JUMP JUMPDEST PUSH1 0x0 DUP1 SLOAD PUSH1 0x1 PUSH1 0x1 PUSH1 0xA0 SHL SUB DUP4 DUP2 AND PUSH1 0x1 PUSH1 0x1 PUSH1 0xA0 SHL SUB NOT DUP4 AND DUP2 OR DUP5 SSTORE PUSH1 0x40 MLOAD SWAP2 SWAP1 SWAP3 AND SWAP3 DUP4 SWAP2 PUSH32 0x8BE0079C531659141344CD1FD0A4F28419497F9722A3DAAFE3B4186F6B6457E0 SWAP2 SWAP1 LOG3 POP POP JUMP JUMPDEST PUSH1 0x0 PUSH1 0x3 SLOAD PUSH1 0xA PUSH2 0xF07 SWAP2 SWAP1 PUSH2 0x16A8 JUMP JUMPDEST PUSH2 0xF11 DUP4 DUP6 PUSH2 0x16B4 JUMP JUMPDEST PUSH2 0xE91 SWAP2 SWAP1 PUSH2 0x16D6 JUMP JUMPDEST PUSH1 0x40 MLOAD PUSH1 0x1 PUSH1 0x1 PUSH1 0xA0 SHL SUB DUP1 DUP6 AND PUSH1 0x24 DUP4 ADD MSTORE DUP4 AND PUSH1 0x44 DUP3 ADD MSTORE PUSH1 0x64 DUP2 ADD DUP3 SWAP1 MSTORE PUSH2 0xF53 SWAP1 DUP6 SWAP1 PUSH4 0x23B872DD PUSH1 0xE0 SHL SWAP1 PUSH1 0x84 ADD PUSH2 0xD1C JUMP JUMPDEST POP POP POP POP JUMP JUMPDEST PUSH1 0x0 PUSH2 0xFAE DUP3 PUSH1 0x40 MLOAD DUP1 PUSH1 0x40 ADD PUSH1 0x40 MSTORE DUP1 PUSH1 0x20 DUP2 MSTORE PUSH1 0x20 ADD PUSH32 0x5361666545524332303A206C6F772D6C6576656C2063616C6C206661696C6564 DUP2 MSTORE POP DUP6 PUSH1 0x1 PUSH1 0x1 PUSH1 0xA0 SHL SUB AND PUSH2 0x1084 SWAP1 SWAP3 SWAP2 SWAP1 PUSH4 0xFFFFFFFF AND JUMP JUMPDEST DUP1 MLOAD SWAP1 SWAP2 POP ISZERO PUSH2 0xD53 JUMPI DUP1 DUP1 PUSH1 0x20 ADD SWAP1 MLOAD DUP2 ADD SWAP1 PUSH2 0xFCC SWAP2 SWAP1 PUSH2 0x16ED JUMP JUMPDEST PUSH2 0xD53 JUMPI PUSH1 0x40 MLOAD PUSH3 0x461BCD PUSH1 0xE5 SHL DUP2 MSTORE PUSH1 0x20 PUSH1 0x4 DUP3 ADD MSTORE PUSH1 0x2A PUSH1 0x24 DUP3 ADD MSTORE PUSH32 0x5361666545524332303A204552433230206F7065726174696F6E20646964206E PUSH1 0x44 DUP3 ADD MSTORE PUSH10 0x1BDD081CDD58D8D95959 PUSH1 0xB2 SHL PUSH1 0x64 DUP3 ADD MSTORE PUSH1 0x84 ADD PUSH2 0x45C JUMP JUMPDEST PUSH1 0x2 PUSH1 0x1 SLOAD SUB PUSH2 0x107D JUMPI PUSH1 0x40 MLOAD PUSH3 0x461BCD PUSH1 0xE5 SHL DUP2 MSTORE PUSH1 0x20 PUSH1 0x4 DUP3 ADD MSTORE PUSH1 0x1F PUSH1 0x24 DUP3 ADD MSTORE PUSH32 0x5265656E7472616E637947756172643A207265656E7472616E742063616C6C00 PUSH1 0x44 DUP3 ADD MSTORE PUSH1 0x64 ADD PUSH2 0x45C JUMP JUMPDEST PUSH1 0x2 PUSH1 0x1 SSTORE JUMP JUMPDEST PUSH1 0x60 PUSH2 0x1093 DUP5 DUP5 PUSH1 0x0 DUP6 PUSH2 0x109B JUMP JUMPDEST SWAP5 SWAP4 POP POP POP POP JUMP JUMPDEST PUSH1 0x60 DUP3 SELFBALANCE LT ISZERO PUSH2 0x10FC JUMPI PUSH1 0x40 MLOAD PUSH3 0x461BCD PUSH1 0xE5 SHL DUP2 MSTORE PUSH1 0x20 PUSH1 0x4 DUP3 ADD MSTORE PUSH1 0x26 PUSH1 0x24 DUP3 ADD MSTORE PUSH32 0x416464726573733A20696E73756666696369656E742062616C616E636520666F PUSH1 0x44 DUP3 ADD MSTORE PUSH6 0x1C8818D85B1B PUSH1 0xD2 SHL PUSH1 0x64 DUP3 ADD MSTORE PUSH1 0x84 ADD PUSH2 0x45C JUMP JUMPDEST PUSH1 0x0 DUP1 DUP7 PUSH1 0x1 PUSH1 0x1 PUSH1 0xA0 SHL SUB AND DUP6 DUP8 PUSH1 0x40 MLOAD PUSH2 0x1118 SWAP2 SWAP1 PUSH2 0x1716 JUMP JUMPDEST PUSH1 0x0 PUSH1 0x40 MLOAD DUP1 DUP4 SUB DUP2 DUP6 DUP8 GAS CALL SWAP3 POP POP POP RETURNDATASIZE DUP1 PUSH1 0x0 DUP2 EQ PUSH2 0x1155 JUMPI PUSH1 0x40 MLOAD SWAP2 POP PUSH1 0x1F NOT PUSH1 0x3F RETURNDATASIZE ADD AND DUP3 ADD PUSH1 0x40 MSTORE RETURNDATASIZE DUP3 MSTORE RETURNDATASIZE PUSH1 0x0 PUSH1 0x20 DUP5 ADD RETURNDATACOPY PUSH2 0x115A JUMP JUMPDEST PUSH1 0x60 SWAP2 POP JUMPDEST POP SWAP2 POP SWAP2 POP PUSH2 0x116B DUP8 DUP4 DUP4 DUP8 PUSH2 0x1176 JUMP JUMPDEST SWAP8 SWAP7 POP POP POP POP POP POP POP JUMP JUMPDEST PUSH1 0x60 DUP4 ISZERO PUSH2 0x11E5 JUMPI DUP3 MLOAD PUSH1 0x0 SUB PUSH2 0x11DE JUMPI PUSH1 0x1 PUSH1 0x1 PUSH1 0xA0 SHL SUB DUP6 AND EXTCODESIZE PUSH2 0x11DE JUMPI PUSH1 0x40 MLOAD PUSH3 0x461BCD PUSH1 0xE5 SHL DUP2 MSTORE PUSH1 0x20 PUSH1 0x4 DUP3 ADD MSTORE PUSH1 0x1D PUSH1 0x24 DUP3 ADD MSTORE PUSH32 0x416464726573733A2063616C6C20746F206E6F6E2D636F6E7472616374000000 PUSH1 0x44 DUP3 ADD MSTORE PUSH1 0x64 ADD PUSH2 0x45C JUMP JUMPDEST POP DUP2 PUSH2 0x1093 JUMP JUMPDEST PUSH2 0x1093 DUP4 DUP4 DUP2 MLOAD ISZERO PUSH2 0x11FA JUMPI DUP2 MLOAD DUP1 DUP4 PUSH1 0x20 ADD REVERT JUMPDEST DUP1 PUSH1 0x40 MLOAD PUSH3 0x461BCD PUSH1 0xE5 SHL DUP2 MSTORE PUSH1 0x4 ADD PUSH2 0x45C SWAP2 SWAP1 PUSH2 0x126F JUMP JUMPDEST DUP1 CALLDATALOAD PUSH1 0x1 PUSH1 0x1 PUSH1 0xA0 SHL SUB DUP2 AND DUP2 EQ PUSH2 0x122B JUMPI PUSH1 0x0 DUP1 REVERT JUMPDEST SWAP2 SWAP1 POP JUMP JUMPDEST PUSH1 0x0 PUSH1 0x20 DUP3 DUP5 SUB SLT ISZERO PUSH2 0x1242 JUMPI PUSH1 0x0 DUP1 REVERT JUMPDEST PUSH2 0xE91 DUP3 PUSH2 0x1214 JUMP JUMPDEST PUSH1 0x0 JUMPDEST DUP4 DUP2 LT ISZERO PUSH2 0x1266 JUMPI DUP2 DUP2 ADD MLOAD DUP4 DUP3 ADD MSTORE PUSH1 0x20 ADD PUSH2 0x124E JUMP JUMPDEST POP POP PUSH1 0x0 SWAP2 ADD MSTORE JUMP JUMPDEST PUSH1 0x20 DUP2 MSTORE PUSH1 0x0 DUP3 MLOAD DUP1 PUSH1 0x20 DUP5 ADD MSTORE PUSH2 0x128E DUP2 PUSH1 0x40 DUP6 ADD PUSH1 0x20 DUP8 ADD PUSH2 0x124B JUMP JUMPDEST PUSH1 0x1F ADD PUSH1 0x1F NOT AND SWAP2 SWAP1 SWAP2 ADD PUSH1 0x40 ADD SWAP3 SWAP2 POP POP JUMP JUMPDEST PUSH1 0x0 DUP1 PUSH1 0x40 DUP4 DUP6 SUB SLT ISZERO PUSH2 0x12B5 JUMPI PUSH1 0x0 DUP1 REVERT JUMPDEST PUSH2 0x12BE DUP4 PUSH2 0x1214 JUMP JUMPDEST SWAP5 PUSH1 0x20 SWAP4 SWAP1 SWAP4 ADD CALLDATALOAD SWAP4 POP POP POP JUMP JUMPDEST PUSH4 0x4E487B71 PUSH1 0xE0 SHL PUSH1 0x0 MSTORE PUSH1 0x41 PUSH1 0x4 MSTORE PUSH1 0x24 PUSH1 0x0 REVERT JUMPDEST PUSH1 0x0 PUSH1 0x20 DUP3 DUP5 SUB SLT ISZERO PUSH2 0x12F4 JUMPI PUSH1 0x0 DUP1 REVERT JUMPDEST DUP2 CALLDATALOAD PUSH8 0xFFFFFFFFFFFFFFFF DUP1 DUP3 GT ISZERO PUSH2 0x130C JUMPI PUSH1 0x0 DUP1 REVERT JUMPDEST DUP2 DUP5 ADD SWAP2 POP DUP5 PUSH1 0x1F DUP4 ADD SLT PUSH2 0x1320 JUMPI PUSH1 0x0 DUP1 REVERT JUMPDEST DUP2 CALLDATALOAD DUP2 DUP2 GT ISZERO PUSH2 0x1332 JUMPI PUSH2 0x1332 PUSH2 0x12CC JUMP JUMPDEST PUSH1 0x40 MLOAD PUSH1 0x1F DUP3 ADD PUSH1 0x1F NOT SWAP1 DUP2 AND PUSH1 0x3F ADD AND DUP2 ADD SWAP1 DUP4 DUP3 GT DUP2 DUP4 LT OR ISZERO PUSH2 0x135A JUMPI PUSH2 0x135A PUSH2 0x12CC JUMP JUMPDEST DUP2 PUSH1 0x40 MSTORE DUP3 DUP2 MSTORE DUP8 PUSH1 0x20 DUP5 DUP8 ADD ADD GT ISZERO PUSH2 0x1373 JUMPI PUSH1 0x0 DUP1 REVERT JUMPDEST DUP3 PUSH1 0x20 DUP7 ADD PUSH1 0x20 DUP4 ADD CALLDATACOPY PUSH1 0x0 SWAP3 DUP2 ADD PUSH1 0x20 ADD SWAP3 SWAP1 SWAP3 MSTORE POP SWAP6 SWAP5 POP POP POP POP POP JUMP JUMPDEST PUSH1 0x0 PUSH1 0x20 DUP3 DUP5 SUB SLT ISZERO PUSH2 0x13A5 JUMPI PUSH1 0x0 DUP1 REVERT JUMPDEST POP CALLDATALOAD SWAP2 SWAP1 POP JUMP JUMPDEST PUSH1 0x1 DUP2 DUP2 SHR SWAP1 DUP3 AND DUP1 PUSH2 0x13C0 JUMPI PUSH1 0x7F DUP3 AND SWAP2 POP JUMPDEST PUSH1 0x20 DUP3 LT DUP2 SUB PUSH2 0x13E0 JUMPI PUSH4 0x4E487B71 PUSH1 0xE0 SHL PUSH1 0x0 MSTORE PUSH1 0x22 PUSH1 0x4 MSTORE PUSH1 0x24 PUSH1 0x0 REVERT JUMPDEST POP SWAP2 SWAP1 POP JUMP JUMPDEST PUSH1 0x20 DUP1 DUP3 MSTORE PUSH1 0x1B SWAP1 DUP3 ADD MSTORE PUSH32 0x5468652049444F20706F6F6C20686173206E6F7420656E6465642E0000000000 PUSH1 0x40 DUP3 ADD MSTORE PUSH1 0x60 ADD SWAP1 JUMP JUMPDEST PUSH1 0x20 DUP1 DUP3 MSTORE PUSH1 0x24 SWAP1 DUP3 ADD MSTORE PUSH32 0x5468652049444F20706F6F6C20646964206E6F7420726561636820736F667420 PUSH1 0x40 DUP3 ADD MSTORE PUSH4 0x31B0B817 PUSH1 0xE1 SHL PUSH1 0x60 DUP3 ADD MSTORE PUSH1 0x80 ADD SWAP1 JUMP JUMPDEST PUSH1 0x0 PUSH1 0x20 DUP3 DUP5 SUB SLT ISZERO PUSH2 0x1473 JUMPI PUSH1 0x0 DUP1 REVERT JUMPDEST POP MLOAD SWAP2 SWAP1 POP JUMP JUMPDEST PUSH1 0x1F DUP3 GT ISZERO PUSH2 0xD53 JUMPI PUSH1 0x0 DUP2 DUP2 MSTORE PUSH1 0x20 DUP2 KECCAK256 PUSH1 0x1F DUP6 ADD PUSH1 0x5 SHR DUP2 ADD PUSH1 0x20 DUP7 LT ISZERO PUSH2 0x14A1 JUMPI POP DUP1 JUMPDEST PUSH1 0x1F DUP6 ADD PUSH1 0x5 SHR DUP3 ADD SWAP2 POP JUMPDEST DUP2 DUP2 LT ISZERO PUSH2 0x14C0 JUMPI DUP3 DUP2 SSTORE PUSH1 0x1 ADD PUSH2 0x14AD JUMP JUMPDEST POP POP POP POP POP POP JUMP JUMPDEST DUP2 MLOAD PUSH8 0xFFFFFFFFFFFFFFFF DUP2 GT ISZERO PUSH2 0x14E2 JUMPI PUSH2 0x14E2 PUSH2 0x12CC JUMP JUMPDEST PUSH2 0x14F6 DUP2 PUSH2 0x14F0 DUP5 SLOAD PUSH2 0x13AC JUMP JUMPDEST DUP5 PUSH2 0x147A JUMP JUMPDEST PUSH1 0x20 DUP1 PUSH1 0x1F DUP4 GT PUSH1 0x1 DUP2 EQ PUSH2 0x152B JUMPI PUSH1 0x0 DUP5 ISZERO PUSH2 0x1513 JUMPI POP DUP6 DUP4 ADD MLOAD JUMPDEST PUSH1 0x0 NOT PUSH1 0x3 DUP7 SWAP1 SHL SHR NOT AND PUSH1 0x1 DUP6 SWAP1 SHL OR DUP6 SSTORE PUSH2 0x14C0 JUMP JUMPDEST PUSH1 0x0 DUP6 DUP2 MSTORE PUSH1 0x20 DUP2 KECCAK256 PUSH1 0x1F NOT DUP7 AND SWAP2 JUMPDEST DUP3 DUP2 LT ISZERO PUSH2 0x155A JUMPI DUP9 DUP7 ADD MLOAD DUP3 SSTORE SWAP5 DUP5 ADD SWAP5 PUSH1 0x1 SWAP1 SWAP2 ADD SWAP1 DUP5 ADD PUSH2 0x153B JUMP JUMPDEST POP DUP6 DUP3 LT ISZERO PUSH2 0x1578 JUMPI DUP8 DUP6 ADD MLOAD PUSH1 0x0 NOT PUSH1 0x3 DUP9 SWAP1 SHL PUSH1 0xF8 AND SHR NOT AND DUP2 SSTORE JUMPDEST POP POP POP POP POP PUSH1 0x1 SWAP1 DUP2 SHL ADD SWAP1 SSTORE POP JUMP JUMPDEST PUSH4 0x4E487B71 PUSH1 0xE0 SHL PUSH1 0x0 MSTORE PUSH1 0x11 PUSH1 0x4 MSTORE PUSH1 0x24 PUSH1 0x0 REVERT JUMPDEST DUP1 DUP3 ADD DUP1 DUP3 GT ISZERO PUSH2 0xE94 JUMPI PUSH2 0xE94 PUSH2 0x1588 JUMP JUMPDEST DUP2 DUP2 SUB DUP2 DUP2 GT ISZERO PUSH2 0xE94 JUMPI PUSH2 0xE94 PUSH2 0x1588 JUMP JUMPDEST PUSH1 0x1 DUP2 DUP2 JUMPDEST DUP1 DUP6 GT ISZERO PUSH2 0x15FF JUMPI DUP2 PUSH1 0x0 NOT DIV DUP3 GT ISZERO PUSH2 0x15E5 JUMPI PUSH2 0x15E5 PUSH2 0x1588 JUMP JUMPDEST DUP1 DUP6 AND ISZERO PUSH2 0x15F2 JUMPI SWAP2 DUP2 MUL SWAP2 JUMPDEST SWAP4 DUP5 SHR SWAP4 SWAP1 DUP1 MUL SWAP1 PUSH2 0x15C9 JUMP JUMPDEST POP SWAP3 POP SWAP3 SWAP1 POP JUMP JUMPDEST PUSH1 0x0 DUP3 PUSH2 0x1616 JUMPI POP PUSH1 0x1 PUSH2 0xE94 JUMP JUMPDEST DUP2 PUSH2 0x1623 JUMPI POP PUSH1 0x0 PUSH2 0xE94 JUMP JUMPDEST DUP2 PUSH1 0x1 DUP2 EQ PUSH2 0x1639 JUMPI PUSH1 0x2 DUP2 EQ PUSH2 0x1643 JUMPI PUSH2 0x165F JUMP JUMPDEST PUSH1 0x1 SWAP2 POP POP PUSH2 0xE94 JUMP JUMPDEST PUSH1 0xFF DUP5 GT ISZERO PUSH2 0x1654 JUMPI PUSH2 0x1654 PUSH2 0x1588 JUMP JUMPDEST POP POP PUSH1 0x1 DUP3 SHL PUSH2 0xE94 JUMP JUMPDEST POP PUSH1 0x20 DUP4 LT PUSH2 0x133 DUP4 LT AND PUSH1 0x4E DUP5 LT PUSH1 0xB DUP5 LT AND OR ISZERO PUSH2 0x1682 JUMPI POP DUP2 DUP2 EXP PUSH2 0xE94 JUMP JUMPDEST PUSH2 0x168C DUP4 DUP4 PUSH2 0x15C4 JUMP JUMPDEST DUP1 PUSH1 0x0 NOT DIV DUP3 GT ISZERO PUSH2 0x16A0 JUMPI PUSH2 0x16A0 PUSH2 0x1588 JUMP JUMPDEST MUL SWAP4 SWAP3 POP POP POP JUMP JUMPDEST PUSH1 0x0 PUSH2 0xE91 DUP4 DUP4 PUSH2 0x1607 JUMP JUMPDEST PUSH1 0x0 DUP3 PUSH2 0x16D1 JUMPI PUSH4 0x4E487B71 PUSH1 0xE0 SHL PUSH1 0x0 MSTORE PUSH1 0x12 PUSH1 0x4 MSTORE PUSH1 0x24 PUSH1 0x0 REVERT JUMPDEST POP DIV SWAP1 JUMP JUMPDEST DUP1 DUP3 MUL DUP2 ISZERO DUP3 DUP3 DIV DUP5 EQ OR PUSH2 0xE94 JUMPI PUSH2 0xE94 PUSH2 0x1588 JUMP JUMPDEST PUSH1 0x0 PUSH1 0x20 DUP3 DUP5 SUB SLT ISZERO PUSH2 0x16FF JUMPI PUSH1 0x0 DUP1 REVERT JUMPDEST DUP2 MLOAD DUP1 ISZERO ISZERO DUP2 EQ PUSH2 0x170F JUMPI PUSH1 0x0 DUP1 REVERT JUMPDEST SWAP4 SWAP3 POP POP POP JUMP JUMPDEST PUSH1 0x0 DUP3 MLOAD PUSH2 0x1728 DUP2 DUP5 PUSH1 0x20 DUP8 ADD PUSH2 0x124B JUMP JUMPDEST SWAP2 SWAP1 SWAP2 ADD SWAP3 SWAP2 POP POP JUMP INVALID LOG2 PUSH5 0x6970667358 0x22 SLT KECCAK256 0xD0 CALLER SLT 0xB0 COINBASE 0xB9 SHR SUB PUSH3 0x6B653E 0x49 0xAA SGT 0xF7 DUP14 SDIV INVALID 0xAC SSTORE EXTCODEHASH 0x26 PUSH24 0x804C9B216F64891664736F6C634300081200336080604052 PUSH1 0x16 DUP1 SLOAD PUSH1 0xFF NOT AND SWAP1 SSTORE PUSH1 0x1 PUSH1 0x18 SSTORE CALLVALUE DUP1 ISZERO PUSH3 0x20 JUMPI PUSH1 0x0 DUP1 REVERT JUMPDEST POP PUSH1 0x40 MLOAD PUSH3 0x2627 CODESIZE SUB DUP1 PUSH3 0x2627 DUP4 CODECOPY DUP2 ADD PUSH1 0x40 DUP2 SWAP1 MSTORE PUSH3 0x43 SWAP2 PUSH3 0x4D9 JUMP JUMPDEST PUSH3 0x4E CALLER PUSH3 0x192 JUMP JUMPDEST PUSH1 0x1 DUP1 SSTORE PUSH1 0x2 DUP1 SLOAD PUSH1 0x1 PUSH1 0x1 PUSH1 0xA0 SHL SUB NOT AND PUSH1 0x1 PUSH1 0x1 PUSH1 0xA0 SHL SUB DUP9 AND SWAP1 DUP2 OR SWAP1 SWAP2 SSTORE PUSH1 0x40 DUP1 MLOAD PUSH4 0x313CE567 PUSH1 0xE0 SHL DUP2 MSTORE SWAP1 MLOAD PUSH4 0x313CE567 SWAP2 PUSH1 0x4 DUP1 DUP3 ADD SWAP3 PUSH1 0x20 SWAP3 SWAP1 SWAP2 SWAP1 DUP3 SWAP1 SUB ADD DUP2 DUP7 GAS STATICCALL ISZERO DUP1 ISZERO PUSH3 0xAC JUMPI RETURNDATASIZE PUSH1 0x0 DUP1 RETURNDATACOPY RETURNDATASIZE PUSH1 0x0 REVERT JUMPDEST POP POP POP POP PUSH1 0x40 MLOAD RETURNDATASIZE PUSH1 0x1F NOT PUSH1 0x1F DUP3 ADD AND DUP3 ADD DUP1 PUSH1 0x40 MSTORE POP DUP2 ADD SWAP1 PUSH3 0xD2 SWAP2 SWAP1 PUSH3 0x5D5 JUMP JUMPDEST PUSH1 0xFF AND PUSH1 0x3 SSTORE PUSH1 0x12 DUP1 SLOAD PUSH1 0x1 PUSH1 0x1 PUSH1 0xA0 SHL SUB NOT AND PUSH1 0x1 PUSH1 0x1 PUSH1 0xA0 SHL SUB DUP5 AND OR SWAP1 SSTORE DUP5 MLOAD PUSH1 0x5 SSTORE PUSH1 0x20 DUP6 ADD MLOAD PUSH1 0x6 SSTORE PUSH1 0x40 DUP6 ADD MLOAD PUSH1 0x7 SSTORE PUSH1 0x60 DUP6 ADD MLOAD PUSH1 0x8 SSTORE PUSH1 0x80 DUP6 ADD MLOAD PUSH1 0x9 SSTORE PUSH1 0xA0 DUP6 ADD MLOAD PUSH1 0xA SSTORE PUSH1 0xC0 DUP6 ADD MLOAD PUSH1 0xB SSTORE PUSH3 0x133 DUP5 PUSH3 0x1E2 JUMP JUMPDEST DUP3 MLOAD PUSH1 0xF DUP1 SLOAD PUSH1 0x1 PUSH1 0x1 PUSH1 0xA0 SHL SUB SWAP3 DUP4 AND PUSH1 0x1 PUSH1 0x1 PUSH1 0xA0 SHL SUB NOT SWAP2 DUP3 AND OR SWAP1 SWAP2 SSTORE PUSH1 0x20 DUP6 ADD MLOAD PUSH1 0x10 DUP1 SLOAD SWAP2 DUP5 AND SWAP2 DUP4 AND SWAP2 SWAP1 SWAP2 OR SWAP1 SSTORE PUSH1 0x40 DUP6 ADD MLOAD PUSH1 0x11 DUP1 SLOAD SWAP2 SWAP1 SWAP4 AND SWAP2 AND OR SWAP1 SSTORE PUSH3 0x186 DUP2 PUSH3 0x2DB JUMP JUMPDEST POP POP POP POP POP POP PUSH3 0x75C JUMP JUMPDEST PUSH1 0x0 DUP1 SLOAD PUSH1 0x1 PUSH1 0x1 PUSH1 0xA0 SHL SUB DUP4 DUP2 AND PUSH1 0x1 PUSH1 0x1 PUSH1 0xA0 SHL SUB NOT DUP4 AND DUP2 OR DUP5 SSTORE PUSH1 0x40 MLOAD SWAP2 SWAP1 SWAP3 AND SWAP3 DUP4 SWAP2 PUSH32 0x8BE0079C531659141344CD1FD0A4F28419497F9722A3DAAFE3B4186F6B6457E0 SWAP2 SWAP1 LOG3 POP POP JUMP JUMPDEST PUSH1 0x20 DUP2 ADD MLOAD DUP2 MLOAD LT PUSH3 0x257 JUMPI PUSH1 0x40 MLOAD PUSH3 0x461BCD PUSH1 0xE5 SHL DUP2 MSTORE PUSH1 0x20 PUSH1 0x4 DUP3 ADD MSTORE PUSH1 0x32 PUSH1 0x24 DUP3 ADD MSTORE PUSH32 0x53746172742074696D657374616D70206D757374206265206C65737320746861 PUSH1 0x44 DUP3 ADD MSTORE PUSH18 0x6E2066696E6973682074696D657374616D7 PUSH1 0x74 SHL PUSH1 0x64 DUP3 ADD MSTORE PUSH1 0x84 ADD JUMPDEST PUSH1 0x40 MLOAD DUP1 SWAP2 SUB SWAP1 REVERT JUMPDEST TIMESTAMP DUP2 PUSH1 0x20 ADD MLOAD GT PUSH3 0x2C5 JUMPI PUSH1 0x40 MLOAD PUSH3 0x461BCD PUSH1 0xE5 SHL DUP2 MSTORE PUSH1 0x20 PUSH1 0x4 DUP3 ADD MSTORE PUSH1 0x30 PUSH1 0x24 DUP3 ADD MSTORE PUSH32 0x46696E6973682074696D657374616D70206D757374206265206D6F7265207468 PUSH1 0x44 DUP3 ADD MSTORE PUSH16 0x616E2063757272656E7420626C6F636B PUSH1 0x80 SHL PUSH1 0x64 DUP3 ADD MSTORE PUSH1 0x84 ADD PUSH3 0x24E JUMP JUMPDEST DUP1 MLOAD PUSH1 0xC SSTORE PUSH1 0x20 DUP2 ADD MLOAD PUSH1 0xD SSTORE PUSH1 0x40 ADD MLOAD PUSH1 0xE SSTORE JUMP JUMPDEST PUSH1 0x4 PUSH3 0x2E9 DUP3 DUP3 PUSH3 0x690 JUMP JUMPDEST POP POP JUMP JUMPDEST PUSH1 0x1 PUSH1 0x1 PUSH1 0xA0 SHL SUB DUP2 AND DUP2 EQ PUSH3 0x303 JUMPI PUSH1 0x0 DUP1 REVERT JUMPDEST POP JUMP JUMPDEST PUSH4 0x4E487B71 PUSH1 0xE0 SHL PUSH1 0x0 MSTORE PUSH1 0x41 PUSH1 0x4 MSTORE PUSH1 0x24 PUSH1 0x0 REVERT JUMPDEST PUSH1 0x40 MLOAD PUSH1 0x60 DUP2 ADD PUSH1 0x1 PUSH1 0x1 PUSH1 0x40 SHL SUB DUP2 GT DUP3 DUP3 LT OR ISZERO PUSH3 0x341 JUMPI PUSH3 0x341 PUSH3 0x306 JUMP JUMPDEST PUSH1 0x40 MSTORE SWAP1 JUMP JUMPDEST PUSH1 0x40 MLOAD PUSH1 0xE0 DUP2 ADD PUSH1 0x1 PUSH1 0x1 PUSH1 0x40 SHL SUB DUP2 GT DUP3 DUP3 LT OR ISZERO PUSH3 0x341 JUMPI PUSH3 0x341 PUSH3 0x306 JUMP JUMPDEST PUSH1 0x40 MLOAD PUSH1 0x1F DUP3 ADD PUSH1 0x1F NOT AND DUP2 ADD PUSH1 0x1 PUSH1 0x1 PUSH1 0x40 SHL SUB DUP2 GT DUP3 DUP3 LT OR ISZERO PUSH3 0x397 JUMPI PUSH3 0x397 PUSH3 0x306 JUMP JUMPDEST PUSH1 0x40 MSTORE SWAP2 SWAP1 POP JUMP JUMPDEST PUSH1 0x0 PUSH1 0x60 DUP3 DUP5 SUB SLT ISZERO PUSH3 0x3B2 JUMPI PUSH1 0x0 DUP1 REVERT JUMPDEST PUSH3 0x3BC PUSH3 0x31C JUMP JUMPDEST SWAP1 POP DUP2 MLOAD DUP2 MSTORE PUSH1 0x20 DUP3 ADD MLOAD PUSH1 0x20 DUP3 ADD MSTORE PUSH1 0x40 DUP3 ADD MLOAD PUSH1 0x40 DUP3 ADD MSTORE SWAP3 SWAP2 POP POP JUMP JUMPDEST DUP1 MLOAD PUSH3 0x3E9 DUP2 PUSH3 0x2ED JUMP JUMPDEST SWAP2 SWAP1 POP JUMP JUMPDEST PUSH1 0x0 PUSH1 0x60 DUP3 DUP5 SUB SLT ISZERO PUSH3 0x401 JUMPI PUSH1 0x0 DUP1 REVERT JUMPDEST PUSH3 0x40B PUSH3 0x31C JUMP JUMPDEST SWAP1 POP DUP2 MLOAD PUSH3 0x41A DUP2 PUSH3 0x2ED JUMP JUMPDEST DUP2 MSTORE PUSH1 0x20 DUP3 ADD MLOAD PUSH3 0x42C DUP2 PUSH3 0x2ED JUMP JUMPDEST PUSH1 0x20 DUP3 ADD MSTORE PUSH1 0x40 DUP3 ADD MLOAD PUSH3 0x441 DUP2 PUSH3 0x2ED JUMP JUMPDEST PUSH1 0x40 DUP3 ADD MSTORE SWAP3 SWAP2 POP POP JUMP JUMPDEST PUSH1 0x0 DUP3 PUSH1 0x1F DUP4 ADD SLT PUSH3 0x45E JUMPI PUSH1 0x0 DUP1 REVERT JUMPDEST DUP2 MLOAD PUSH1 0x1 PUSH1 0x1 PUSH1 0x40 SHL SUB DUP2 GT ISZERO PUSH3 0x47A JUMPI PUSH3 0x47A PUSH3 0x306 JUMP JUMPDEST PUSH1 0x20 PUSH3 0x490 PUSH1 0x1F DUP4 ADD PUSH1 0x1F NOT AND DUP3 ADD PUSH3 0x36C JUMP JUMPDEST DUP3 DUP2 MSTORE DUP6 DUP3 DUP5 DUP8 ADD ADD GT ISZERO PUSH3 0x4A5 JUMPI PUSH1 0x0 DUP1 REVERT JUMPDEST PUSH1 0x0 JUMPDEST DUP4 DUP2 LT ISZERO PUSH3 0x4C5 JUMPI DUP6 DUP2 ADD DUP4 ADD MLOAD DUP3 DUP3 ADD DUP5 ADD MSTORE DUP3 ADD PUSH3 0x4A8 JUMP JUMPDEST POP PUSH1 0x0 SWAP3 DUP2 ADD SWAP1 SWAP2 ADD SWAP2 SWAP1 SWAP2 MSTORE SWAP4 SWAP3 POP POP POP JUMP JUMPDEST PUSH1 0x0 DUP1 PUSH1 0x0 DUP1 PUSH1 0x0 DUP1 DUP7 DUP9 SUB PUSH2 0x200 DUP2 SLT ISZERO PUSH3 0x4F5 JUMPI PUSH1 0x0 DUP1 REVERT JUMPDEST DUP8 MLOAD PUSH3 0x502 DUP2 PUSH3 0x2ED JUMP JUMPDEST SWAP7 POP PUSH1 0xE0 PUSH1 0x1F NOT DUP3 ADD SLT ISZERO PUSH3 0x517 JUMPI PUSH1 0x0 DUP1 REVERT JUMPDEST POP PUSH3 0x522 PUSH3 0x347 JUMP JUMPDEST PUSH1 0x20 DUP9 ADD MLOAD DUP2 MSTORE PUSH1 0x40 DUP9 ADD MLOAD PUSH1 0x20 DUP3 ADD MSTORE PUSH1 0x60 DUP9 ADD MLOAD PUSH1 0x40 DUP3 ADD MSTORE PUSH1 0x80 DUP9 ADD MLOAD PUSH1 0x60 DUP3 ADD MSTORE PUSH1 0xA0 DUP9 ADD MLOAD PUSH1 0x80 DUP3 ADD MSTORE PUSH1 0xC0 DUP9 ADD MLOAD PUSH1 0xA0 DUP3 ADD MSTORE PUSH1 0xE0 DUP9 ADD MLOAD PUSH1 0xC0 DUP3 ADD MSTORE DUP1 SWAP6 POP POP PUSH3 0x579 DUP9 PUSH2 0x100 DUP10 ADD PUSH3 0x39F JUMP JUMPDEST SWAP4 POP PUSH3 0x58B DUP9 PUSH2 0x160 DUP10 ADD PUSH3 0x3EE JUMP JUMPDEST SWAP3 POP PUSH3 0x59C PUSH2 0x1C0 DUP9 ADD PUSH3 0x3DC JUMP JUMPDEST PUSH2 0x1E0 DUP9 ADD MLOAD SWAP1 SWAP3 POP PUSH1 0x1 PUSH1 0x1 PUSH1 0x40 SHL SUB DUP2 GT ISZERO PUSH3 0x5BA JUMPI PUSH1 0x0 DUP1 REVERT JUMPDEST PUSH3 0x5C8 DUP10 DUP3 DUP11 ADD PUSH3 0x44C JUMP JUMPDEST SWAP2 POP POP SWAP3 SWAP6 POP SWAP3 SWAP6 POP SWAP3 SWAP6 JUMP JUMPDEST PUSH1 0x0 PUSH1 0x20 DUP3 DUP5 SUB SLT ISZERO PUSH3 0x5E8 JUMPI PUSH1 0x0 DUP1 REVERT JUMPDEST DUP2 MLOAD PUSH1 0xFF DUP2 AND DUP2 EQ PUSH3 0x5FA JUMPI PUSH1 0x0 DUP1 REVERT JUMPDEST SWAP4 SWAP3 POP POP POP JUMP JUMPDEST PUSH1 0x1 DUP2 DUP2 SHR SWAP1 DUP3 AND DUP1 PUSH3 0x616 JUMPI PUSH1 0x7F DUP3 AND SWAP2 POP JUMPDEST PUSH1 0x20 DUP3 LT DUP2 SUB PUSH3 0x637 JUMPI PUSH4 0x4E487B71 PUSH1 0xE0 SHL PUSH1 0x0 MSTORE PUSH1 0x22 PUSH1 0x4 MSTORE PUSH1 0x24 PUSH1 0x0 REVERT JUMPDEST POP SWAP2 SWAP1 POP JUMP JUMPDEST PUSH1 0x1F DUP3 GT ISZERO PUSH3 0x68B JUMPI PUSH1 0x0 DUP2 DUP2 MSTORE PUSH1 0x20 DUP2 KECCAK256 PUSH1 0x1F DUP6 ADD PUSH1 0x5 SHR DUP2 ADD PUSH1 0x20 DUP7 LT ISZERO PUSH3 0x666 JUMPI POP DUP1 JUMPDEST PUSH1 0x1F DUP6 ADD PUSH1 0x5 SHR DUP3 ADD SWAP2 POP JUMPDEST DUP2 DUP2 LT ISZERO PUSH3 0x687 JUMPI DUP3 DUP2 SSTORE PUSH1 0x1 ADD PUSH3 0x672 JUMP JUMPDEST POP POP POP JUMPDEST POP POP POP JUMP JUMPDEST DUP2 MLOAD PUSH1 0x1 PUSH1 0x1 PUSH1 0x40 SHL SUB DUP2 GT ISZERO PUSH3 0x6AC JUMPI PUSH3 0x6AC PUSH3 0x306 JUMP JUMPDEST PUSH3 0x6C4 DUP2 PUSH3 0x6BD DUP5 SLOAD PUSH3 0x601 JUMP JUMPDEST DUP5 PUSH3 0x63D JUMP JUMPDEST PUSH1 0x20 DUP1 PUSH1 0x1F DUP4 GT PUSH1 0x1 DUP2 EQ PUSH3 0x6FC JUMPI PUSH1 0x0 DUP5 ISZERO PUSH3 0x6E3 JUMPI POP DUP6 DUP4 ADD MLOAD JUMPDEST PUSH1 0x0 NOT PUSH1 0x3 DUP7 SWAP1 SHL SHR NOT AND PUSH1 0x1 DUP6 SWAP1 SHL OR DUP6 SSTORE PUSH3 0x687 JUMP JUMPDEST PUSH1 0x0 DUP6 DUP2 MSTORE PUSH1 0x20 DUP2 KECCAK256 PUSH1 0x1F NOT DUP7 AND SWAP2 JUMPDEST DUP3 DUP2 LT ISZERO PUSH3 0x72D JUMPI DUP9 DUP7 ADD MLOAD DUP3 SSTORE SWAP5 DUP5 ADD SWAP5 PUSH1 0x1 SWAP1 SWAP2 ADD SWAP1 DUP5 ADD PUSH3 0x70C JUMP JUMPDEST POP DUP6 DUP3 LT ISZERO PUSH3 0x74C JUMPI DUP8 DUP6 ADD MLOAD PUSH1 0x0 NOT PUSH1 0x3 DUP9 SWAP1 SHL PUSH1 0xF8 AND SHR NOT AND DUP2 SSTORE JUMPDEST POP POP POP POP POP PUSH1 0x1 SWAP1 DUP2 SHL ADD SWAP1 SSTORE POP JUMP JUMPDEST PUSH2 0x1EBB DUP1 PUSH3 0x76C PUSH1 0x0 CODECOPY PUSH1 0x0 RETURN INVALID PUSH1 0x80 PUSH1 0x40 MSTORE PUSH1 0x4 CALLDATASIZE LT PUSH2 0x181 JUMPI PUSH1 0x0 CALLDATALOAD PUSH1 0xE0 SHR DUP1 PUSH4 0x71007509 GT PUSH2 0xD1 JUMPI DUP1 PUSH4 0xD8D2A56D GT PUSH2 0x8A JUMPI DUP1 PUSH4 0xF2FDE38B GT PUSH2 0x64 JUMPI DUP1 PUSH4 0xF2FDE38B EQ PUSH2 0x48A JUMPI DUP1 PUSH4 0xF7C618C1 EQ PUSH2 0x4AA JUMPI DUP1 PUSH4 0xF84B903E EQ PUSH2 0x4CA JUMPI DUP1 PUSH4 0xFD46A171 EQ PUSH2 0x4F4 JUMPI PUSH1 0x0 DUP1 REVERT JUMPDEST DUP1 PUSH4 0xD8D2A56D EQ PUSH2 0x40B JUMPI DUP1 PUSH4 0xDDEAE033 EQ PUSH2 0x462 JUMPI DUP1 PUSH4 0xE086E5EC EQ PUSH2 0x482 JUMPI PUSH1 0x0 DUP1 REVERT JUMPDEST DUP1 PUSH4 0x71007509 EQ PUSH2 0x378 JUMPI DUP1 PUSH4 0x715018A6 EQ PUSH2 0x38D JUMPI DUP1 PUSH4 0x747DAEC5 EQ PUSH2 0x3A2 JUMPI DUP1 PUSH4 0x8DA5CB5B EQ PUSH2 0x3C2 JUMPI DUP1 PUSH4 0xC6A0E27D EQ PUSH2 0x3E0 JUMPI DUP1 PUSH4 0xCB2EF6F7 EQ PUSH2 0x3F5 JUMPI PUSH1 0x0 DUP1 REVERT JUMPDEST DUP1 PUSH4 0x3F138D4B GT PUSH2 0x13E JUMPI DUP1 PUSH4 0x4E71D92D GT PUSH2 0x118 JUMPI DUP1 PUSH4 0x4E71D92D EQ PUSH2 0x323 JUMPI DUP1 PUSH4 0x586360CE EQ PUSH2 0x338 JUMPI DUP1 PUSH4 0x590E1AE3 EQ PUSH2 0x34E JUMPI DUP1 PUSH4 0x62BEA93F EQ PUSH2 0x363 JUMPI PUSH1 0x0 DUP1 REVERT JUMPDEST DUP1 PUSH4 0x3F138D4B EQ PUSH2 0x2CE JUMPI DUP1 PUSH4 0x491447A8 EQ PUSH2 0x2EE JUMPI DUP1 PUSH4 0x4B1A4C0C EQ PUSH2 0x30D JUMPI PUSH1 0x0 DUP1 REVERT JUMPDEST DUP1 PUSH4 0x12D3675E EQ PUSH2 0x186 JUMPI DUP1 PUSH4 0x1959A002 EQ PUSH2 0x1EF JUMPI DUP1 PUSH4 0x1B9265B8 EQ PUSH2 0x246 JUMPI DUP1 PUSH4 0x2A123B16 EQ PUSH2 0x250 JUMPI DUP1 PUSH4 0x2DCC8C66 EQ PUSH2 0x288 JUMPI DUP1 PUSH4 0x313CE567 EQ PUSH2 0x2AA JUMPI JUMPDEST PUSH1 0x0 DUP1 REVERT JUMPDEST CALLVALUE DUP1 ISZERO PUSH2 0x192 JUMPI PUSH1 0x0 DUP1 REVERT JUMPDEST POP PUSH1 0x5 SLOAD PUSH1 0x6 SLOAD PUSH1 0x7 SLOAD PUSH1 0x8 SLOAD PUSH1 0x9 SLOAD PUSH1 0xA SLOAD PUSH1 0xB SLOAD PUSH2 0x1B5 SWAP7 SWAP6 SWAP5 SWAP4 SWAP3 SWAP2 SWAP1 DUP8 JUMP JUMPDEST PUSH1 0x40 DUP1 MLOAD SWAP8 DUP9 MSTORE PUSH1 0x20 DUP9 ADD SWAP7 SWAP1 SWAP7 MSTORE SWAP5 DUP7 ADD SWAP4 SWAP1 SWAP4 MSTORE PUSH1 0x60 DUP6 ADD SWAP2 SWAP1 SWAP2 MSTORE PUSH1 0x80 DUP5 ADD MSTORE PUSH1 0xA0 DUP4 ADD MSTORE PUSH1 0xC0 DUP3 ADD MSTORE PUSH1 0xE0 ADD JUMPDEST PUSH1 0x40 MLOAD DUP1 SWAP2 SUB SWAP1 RETURN JUMPDEST CALLVALUE DUP1 ISZERO PUSH2 0x1FB JUMPI PUSH1 0x0 DUP1 REVERT JUMPDEST POP PUSH2 0x22B PUSH2 0x20A CALLDATASIZE PUSH1 0x4 PUSH2 0x1808 JUMP JUMPDEST PUSH1 0x17 PUSH1 0x20 MSTORE PUSH1 0x0 SWAP1 DUP2 MSTORE PUSH1 0x40 SWAP1 KECCAK256 DUP1 SLOAD PUSH1 0x1 DUP3 ADD SLOAD PUSH1 0x2 SWAP1 SWAP3 ADD SLOAD SWAP1 SWAP2 SWAP1 DUP4 JUMP JUMPDEST PUSH1 0x40 DUP1 MLOAD SWAP4 DUP5 MSTORE PUSH1 0x20 DUP5 ADD SWAP3 SWAP1 SWAP3 MSTORE SWAP1 DUP3 ADD MSTORE PUSH1 0x60 ADD PUSH2 0x1E6 JUMP JUMPDEST PUSH2 0x24E PUSH2 0x50A JUMP JUMPDEST STOP JUMPDEST CALLVALUE DUP1 ISZERO PUSH2 0x25C JUMPI PUSH1 0x0 DUP1 REVERT JUMPDEST POP PUSH1 0x12 SLOAD PUSH2 0x270 SWAP1 PUSH1 0x1 PUSH1 0x1 PUSH1 0xA0 SHL SUB AND DUP2 JUMP JUMPDEST PUSH1 0x40 MLOAD PUSH1 0x1 PUSH1 0x1 PUSH1 0xA0 SHL SUB SWAP1 SWAP2 AND DUP2 MSTORE PUSH1 0x20 ADD PUSH2 0x1E6 JUMP JUMPDEST CALLVALUE DUP1 ISZERO PUSH2 0x294 JUMPI PUSH1 0x0 DUP1 REVERT JUMPDEST POP PUSH2 0x29D PUSH2 0x774 JUMP JUMPDEST PUSH1 0x40 MLOAD PUSH2 0x1E6 SWAP2 SWAP1 PUSH2 0x187C JUMP JUMPDEST CALLVALUE DUP1 ISZERO PUSH2 0x2B6 JUMPI PUSH1 0x0 DUP1 REVERT JUMPDEST POP PUSH2 0x2C0 PUSH1 0x3 SLOAD DUP2 JUMP JUMPDEST PUSH1 0x40 MLOAD SWAP1 DUP2 MSTORE PUSH1 0x20 ADD PUSH2 0x1E6 JUMP JUMPDEST CALLVALUE DUP1 ISZERO PUSH2 0x2DA JUMPI PUSH1 0x0 DUP1 REVERT JUMPDEST POP PUSH2 0x24E PUSH2 0x2E9 CALLDATASIZE PUSH1 0x4 PUSH2 0x188F JUMP JUMPDEST PUSH2 0x802 JUMP JUMPDEST CALLVALUE DUP1 ISZERO PUSH2 0x2FA JUMPI PUSH1 0x0 DUP1 REVERT JUMPDEST POP PUSH1 0xC SLOAD PUSH1 0xD SLOAD PUSH1 0xE SLOAD PUSH2 0x22B SWAP3 SWAP2 SWAP1 DUP4 JUMP JUMPDEST CALLVALUE DUP1 ISZERO PUSH2 0x319 JUMPI PUSH1 0x0 DUP1 REVERT JUMPDEST POP PUSH2 0x2C0 PUSH1 0x14 SLOAD DUP2 JUMP JUMPDEST CALLVALUE DUP1 ISZERO PUSH2 0x32F JUMPI PUSH1 0x0 DUP1 REVERT JUMPDEST POP PUSH2 0x24E PUSH2 0x83D JUMP JUMPDEST CALLVALUE DUP1 ISZERO PUSH2 0x344 JUMPI PUSH1 0x0 DUP1 REVERT JUMPDEST POP PUSH2 0x2C0 PUSH1 0x15 SLOAD DUP2 JUMP JUMPDEST CALLVALUE DUP1 ISZERO PUSH2 0x35A JUMPI PUSH1 0x0 DUP1 REVERT JUMPDEST POP PUSH2 0x24E PUSH2 0x848 JUMP JUMPDEST CALLVALUE DUP1 ISZERO PUSH2 0x36F JUMPI PUSH1 0x0 DUP1 REVERT JUMPDEST POP PUSH2 0x2C0 PUSH2 0x99A JUMP JUMPDEST CALLVALUE DUP1 ISZERO PUSH2 0x384 JUMPI PUSH1 0x0 DUP1 REVERT JUMPDEST POP PUSH2 0x24E PUSH2 0xA34 JUMP JUMPDEST CALLVALUE DUP1 ISZERO PUSH2 0x399 JUMPI PUSH1 0x0 DUP1 REVERT JUMPDEST POP PUSH2 0x24E PUSH2 0xB95 JUMP JUMPDEST CALLVALUE DUP1 ISZERO PUSH2 0x3AE JUMPI PUSH1 0x0 DUP1 REVERT JUMPDEST POP PUSH2 0x24E PUSH2 0x3BD CALLDATASIZE PUSH1 0x4 PUSH2 0x192A JUMP JUMPDEST PUSH2 0xBA7 JUMP JUMPDEST CALLVALUE DUP1 ISZERO PUSH2 0x3CE JUMPI PUSH1 0x0 DUP1 REVERT JUMPDEST POP PUSH1 0x0 SLOAD PUSH1 0x1 PUSH1 0x1 PUSH1 0xA0 SHL SUB AND PUSH2 0x270 JUMP JUMPDEST CALLVALUE DUP1 ISZERO PUSH2 0x3EC JUMPI PUSH1 0x0 DUP1 REVERT JUMPDEST POP PUSH2 0x24E PUSH2 0xBB3 JUMP JUMPDEST CALLVALUE DUP1 ISZERO PUSH2 0x401 JUMPI PUSH1 0x0 DUP1 REVERT JUMPDEST POP PUSH2 0x2C0 PUSH1 0x18 SLOAD DUP2 JUMP JUMPDEST CALLVALUE DUP1 ISZERO PUSH2 0x417 JUMPI PUSH1 0x0 DUP1 REVERT JUMPDEST POP PUSH1 0xF SLOAD PUSH1 0x10 SLOAD PUSH1 0x11 SLOAD PUSH2 0x438 SWAP3 PUSH1 0x1 PUSH1 0x1 PUSH1 0xA0 SHL SUB SWAP1 DUP2 AND SWAP3 DUP2 AND SWAP2 AND DUP4 JUMP JUMPDEST PUSH1 0x40 DUP1 MLOAD PUSH1 0x1 PUSH1 0x1 PUSH1 0xA0 SHL SUB SWAP5 DUP6 AND DUP2 MSTORE SWAP3 DUP5 AND PUSH1 0x20 DUP5 ADD MSTORE SWAP3 AND SWAP2 DUP2 ADD SWAP2 SWAP1 SWAP2 MSTORE PUSH1 0x60 ADD PUSH2 0x1E6 JUMP JUMPDEST CALLVALUE DUP1 ISZERO PUSH2 0x46E JUMPI PUSH1 0x0 DUP1 REVERT JUMPDEST POP PUSH2 0x24E PUSH2 0x47D CALLDATASIZE PUSH1 0x4 PUSH2 0x1808 JUMP JUMPDEST PUSH2 0xC81 JUMP JUMPDEST PUSH2 0x24E PUSH2 0xC8A JUMP JUMPDEST CALLVALUE DUP1 ISZERO PUSH2 0x496 JUMPI PUSH1 0x0 DUP1 REVERT JUMPDEST POP PUSH2 0x24E PUSH2 0x4A5 CALLDATASIZE PUSH1 0x4 PUSH2 0x1808 JUMP JUMPDEST PUSH2 0x1253 JUMP JUMPDEST CALLVALUE DUP1 ISZERO PUSH2 0x4B6 JUMPI PUSH1 0x0 DUP1 REVERT JUMPDEST POP PUSH1 0x2 SLOAD PUSH2 0x270 SWAP1 PUSH1 0x1 PUSH1 0x1 PUSH1 0xA0 SHL SUB AND DUP2 JUMP JUMPDEST CALLVALUE DUP1 ISZERO PUSH2 0x4D6 JUMPI PUSH1 0x0 DUP1 REVERT JUMPDEST POP PUSH1 0x16 SLOAD PUSH2 0x4E4 SWAP1 PUSH1 0xFF AND DUP2 JUMP JUMPDEST PUSH1 0x40 MLOAD SWAP1 ISZERO ISZERO DUP2 MSTORE PUSH1 0x20 ADD PUSH2 0x1E6 JUMP JUMPDEST CALLVALUE DUP1 ISZERO PUSH2 0x500 JUMPI PUSH1 0x0 DUP1 REVERT JUMPDEST POP PUSH2 0x2C0 PUSH1 0x13 SLOAD DUP2 JUMP JUMPDEST PUSH1 0xC SLOAD TIMESTAMP LT ISZERO PUSH2 0x54F JUMPI PUSH1 0x40 MLOAD PUSH3 0x461BCD PUSH1 0xE5 SHL DUP2 MSTORE PUSH1 0x20 PUSH1 0x4 DUP3 ADD MSTORE PUSH1 0xB PUSH1 0x24 DUP3 ADD MSTORE PUSH11 0x139BDD081CDD185C9D1959 PUSH1 0xAA SHL PUSH1 0x44 DUP3 ADD MSTORE PUSH1 0x64 ADD JUMPDEST PUSH1 0x40 MLOAD DUP1 SWAP2 SUB SWAP1 REVERT JUMPDEST PUSH1 0xD SLOAD TIMESTAMP LT PUSH2 0x588 JUMPI PUSH1 0x40 MLOAD PUSH3 0x461BCD PUSH1 0xE5 SHL DUP2 MSTORE PUSH1 0x20 PUSH1 0x4 DUP3 ADD MSTORE PUSH1 0x5 PUSH1 0x24 DUP3 ADD MSTORE PUSH5 0x115B991959 PUSH1 0xDA SHL PUSH1 0x44 DUP3 ADD MSTORE PUSH1 0x64 ADD PUSH2 0x546 JUMP JUMPDEST PUSH1 0x8 SLOAD CALLVALUE LT ISZERO PUSH2 0x5D1 JUMPI PUSH1 0x40 MLOAD PUSH3 0x461BCD PUSH1 0xE5 SHL DUP2 MSTORE PUSH1 0x20 PUSH1 0x4 DUP3 ADD MSTORE PUSH1 0x14 PUSH1 0x24 DUP3 ADD MSTORE PUSH20 0x13195CDCC81D1A195B881B5A5B88185B5BDD5B9D PUSH1 0x62 SHL PUSH1 0x44 DUP3 ADD MSTORE PUSH1 0x64 ADD PUSH2 0x546 JUMP JUMPDEST PUSH1 0x9 SLOAD CALLVALUE GT ISZERO PUSH2 0x61A JUMPI PUSH1 0x40 MLOAD PUSH3 0x461BCD PUSH1 0xE5 SHL DUP2 MSTORE PUSH1 0x20 PUSH1 0x4 DUP3 ADD MSTORE PUSH1 0x14 PUSH1 0x24 DUP3 ADD MSTORE PUSH20 0x135BDC99481D1A195B881B585E08185B5BDD5B9D PUSH1 0x62 SHL PUSH1 0x44 DUP3 ADD MSTORE PUSH1 0x64 ADD PUSH2 0x546 JUMP JUMPDEST PUSH1 0x7 SLOAD PUSH1 0x13 SLOAD PUSH2 0x62A SWAP1 CALLVALUE PUSH2 0x12C9 JUMP JUMPDEST GT ISZERO PUSH2 0x665 JUMPI PUSH1 0x40 MLOAD PUSH3 0x461BCD PUSH1 0xE5 SHL DUP2 MSTORE PUSH1 0x20 PUSH1 0x4 DUP3 ADD MSTORE PUSH1 0xA PUSH1 0x24 DUP3 ADD MSTORE PUSH10 0x13DD995C999A5B1B1959 PUSH1 0xB2 SHL PUSH1 0x44 DUP3 ADD MSTORE PUSH1 0x64 ADD PUSH2 0x546 JUMP JUMPDEST CALLER PUSH1 0x0 SWAP1 DUP2 MSTORE PUSH1 0x17 PUSH1 0x20 MSTORE PUSH1 0x40 SWAP1 KECCAK256 PUSH1 0x9 SLOAD PUSH1 0x2 DUP3 ADD SLOAD PUSH2 0x686 SWAP1 CALLVALUE PUSH2 0x12C9 JUMP JUMPDEST GT ISZERO PUSH2 0x6CB JUMPI PUSH1 0x40 MLOAD PUSH3 0x461BCD PUSH1 0xE5 SHL DUP2 MSTORE PUSH1 0x20 PUSH1 0x4 DUP3 ADD MSTORE PUSH1 0x14 PUSH1 0x24 DUP3 ADD MSTORE PUSH20 0x135BDC99481D1A195B881B585E08185B5BDD5B9D PUSH1 0x62 SHL PUSH1 0x44 DUP3 ADD MSTORE PUSH1 0x64 ADD PUSH2 0x546 JUMP JUMPDEST PUSH1 0x0 PUSH2 0x6DC CALLVALUE PUSH1 0x5 PUSH1 0x0 ADD SLOAD PUSH2 0x12DE JUMP JUMPDEST PUSH1 0x13 SLOAD SWAP1 SWAP2 POP PUSH2 0x6EC SWAP1 CALLVALUE PUSH2 0x12C9 JUMP JUMPDEST PUSH1 0x13 SSTORE PUSH1 0x14 SLOAD PUSH2 0x6FC SWAP1 DUP3 PUSH2 0x12C9 JUMP JUMPDEST PUSH1 0x14 SSTORE PUSH1 0x2 DUP3 ADD SLOAD PUSH2 0x70E SWAP1 CALLVALUE PUSH2 0x12C9 JUMP JUMPDEST PUSH1 0x2 DUP4 ADD SSTORE PUSH1 0x1 DUP3 ADD SLOAD PUSH2 0x722 SWAP1 DUP3 PUSH2 0x12C9 JUMP JUMPDEST PUSH1 0x1 DUP4 ADD SSTORE DUP2 SLOAD PUSH2 0x733 SWAP1 DUP3 PUSH2 0x12C9 JUMP JUMPDEST DUP3 SSTORE PUSH1 0x40 DUP1 MLOAD CALLVALUE DUP2 MSTORE PUSH1 0x20 DUP2 ADD DUP4 SWAP1 MSTORE CALLER SWAP2 PUSH32 0xB55D4CA2FC644CA3F8CDC9C907826E24ACD68D2B2D4D73F48B8F2378DBAEDF5D SWAP2 ADD PUSH1 0x40 MLOAD DUP1 SWAP2 SUB SWAP1 LOG2 POP POP JUMP JUMPDEST PUSH1 0x4 DUP1 SLOAD PUSH2 0x781 SWAP1 PUSH2 0x19AA JUMP JUMPDEST DUP1 PUSH1 0x1F ADD PUSH1 0x20 DUP1 SWAP2 DIV MUL PUSH1 0x20 ADD PUSH1 0x40 MLOAD SWAP1 DUP2 ADD PUSH1 0x40 MSTORE DUP1 SWAP3 SWAP2 SWAP1 DUP2 DUP2 MSTORE PUSH1 0x20 ADD DUP3 DUP1 SLOAD PUSH2 0x7AD SWAP1 PUSH2 0x19AA JUMP JUMPDEST DUP1 ISZERO PUSH2 0x7FA JUMPI DUP1 PUSH1 0x1F LT PUSH2 0x7CF JUMPI PUSH2 0x100 DUP1 DUP4 SLOAD DIV MUL DUP4 MSTORE SWAP2 PUSH1 0x20 ADD SWAP2 PUSH2 0x7FA JUMP JUMPDEST DUP3 ADD SWAP2 SWAP1 PUSH1 0x0 MSTORE PUSH1 0x20 PUSH1 0x0 KECCAK256 SWAP1 JUMPDEST DUP2 SLOAD DUP2 MSTORE SWAP1 PUSH1 0x1 ADD SWAP1 PUSH1 0x20 ADD DUP1 DUP4 GT PUSH2 0x7DD JUMPI DUP3 SWAP1 SUB PUSH1 0x1F AND DUP3 ADD SWAP2 JUMPDEST POP POP POP POP POP DUP2 JUMP JUMPDEST PUSH2 0x80A PUSH2 0x1303 JUMP JUMPDEST PUSH1 0x2 SLOAD PUSH1 0x1 PUSH1 0x1 PUSH1 0xA0 SHL SUB SWAP1 DUP2 AND SWAP1 DUP4 AND SUB PUSH2 0x825 JUMPI PUSH1 0x0 DUP1 REVERT JUMPDEST PUSH2 0x839 PUSH1 0x1 PUSH1 0x1 PUSH1 0xA0 SHL SUB DUP4 AND CALLER DUP4 PUSH2 0x135D JUMP JUMPDEST POP POP JUMP JUMPDEST PUSH2 0x846 CALLER PUSH2 0x13AF JUMP JUMPDEST JUMP JUMPDEST PUSH1 0xD SLOAD TIMESTAMP GT PUSH2 0x869 JUMPI PUSH1 0x40 MLOAD PUSH3 0x461BCD PUSH1 0xE5 SHL DUP2 MSTORE PUSH1 0x4 ADD PUSH2 0x546 SWAP1 PUSH2 0x19E4 JUMP JUMPDEST PUSH1 0x6 SLOAD PUSH1 0x13 SLOAD LT PUSH2 0x8BC JUMPI PUSH1 0x40 MLOAD PUSH3 0x461BCD PUSH1 0xE5 SHL DUP2 MSTORE PUSH1 0x20 PUSH1 0x4 DUP3 ADD DUP2 SWAP1 MSTORE PUSH1 0x24 DUP3 ADD MSTORE PUSH32 0x5468652049444F20706F6F6C2068617320726561636820736F6674206361702E PUSH1 0x44 DUP3 ADD MSTORE PUSH1 0x64 ADD PUSH2 0x546 JUMP JUMPDEST CALLER PUSH1 0x0 SWAP1 DUP2 MSTORE PUSH1 0x17 PUSH1 0x20 MSTORE PUSH1 0x40 SWAP1 KECCAK256 PUSH1 0x2 DUP2 ADD SLOAD DUP1 PUSH2 0x91D JUMPI PUSH1 0x40 MLOAD PUSH3 0x461BCD PUSH1 0xE5 SHL DUP2 MSTORE PUSH1 0x20 PUSH1 0x4 DUP3 ADD MSTORE PUSH1 0x17 PUSH1 0x24 DUP3 ADD MSTORE PUSH32 0x596F752068617665206E6F20696E766573746D656E742E000000000000000000 PUSH1 0x44 DUP3 ADD MSTORE PUSH1 0x64 ADD PUSH2 0x546 JUMP JUMPDEST PUSH1 0x0 DUP1 DUP4 SSTORE PUSH1 0x2 DUP4 ADD DUP2 SWAP1 SSTORE PUSH1 0x1 DUP4 ADD DUP2 SWAP1 SSTORE PUSH1 0x40 MLOAD CALLER SWAP1 DUP4 SWAP1 DUP4 DUP2 DUP2 DUP2 DUP6 DUP8 GAS CALL SWAP3 POP POP POP RETURNDATASIZE DUP1 PUSH1 0x0 DUP2 EQ PUSH2 0x96F JUMPI PUSH1 0x40 MLOAD SWAP2 POP PUSH1 0x1F NOT PUSH1 0x3F RETURNDATASIZE ADD AND DUP3 ADD PUSH1 0x40 MSTORE RETURNDATASIZE DUP3 MSTORE RETURNDATASIZE PUSH1 0x0 PUSH1 0x20 DUP5 ADD RETURNDATACOPY PUSH2 0x974 JUMP JUMPDEST PUSH1 0x60 SWAP2 POP JUMPDEST POP POP SWAP1 POP DUP1 PUSH2 0x995 JUMPI PUSH1 0x40 MLOAD PUSH3 0x461BCD PUSH1 0xE5 SHL DUP2 MSTORE PUSH1 0x4 ADD PUSH2 0x546 SWAP1 PUSH2 0x1A1B JUMP JUMPDEST POP POP POP JUMP JUMPDEST PUSH1 0x2 SLOAD PUSH1 0x40 MLOAD PUSH4 0x70A08231 PUSH1 0xE0 SHL DUP2 MSTORE ADDRESS PUSH1 0x4 DUP3 ADD MSTORE PUSH1 0x0 SWAP2 DUP3 SWAP2 PUSH1 0x1 PUSH1 0x1 PUSH1 0xA0 SHL SUB SWAP1 SWAP2 AND SWAP1 PUSH4 0x70A08231 SWAP1 PUSH1 0x24 ADD PUSH1 0x20 PUSH1 0x40 MLOAD DUP1 DUP4 SUB DUP2 DUP7 GAS STATICCALL ISZERO DUP1 ISZERO PUSH2 0x9E7 JUMPI RETURNDATASIZE PUSH1 0x0 DUP1 RETURNDATACOPY RETURNDATASIZE PUSH1 0x0 REVERT JUMPDEST POP POP POP POP PUSH1 0x40 MLOAD RETURNDATASIZE PUSH1 0x1F NOT PUSH1 0x1F DUP3 ADD AND DUP3 ADD DUP1 PUSH1 0x40 MSTORE POP DUP2 ADD SWAP1 PUSH2 0xA0B SWAP2 SWAP1 PUSH2 0x1A45 JUMP JUMPDEST SWAP1 POP PUSH2 0xA2E PUSH1 0x14 SLOAD PUSH2 0xA28 PUSH1 0x15 SLOAD DUP5 PUSH2 0x12C9 SWAP1 SWAP2 SWAP1 PUSH4 0xFFFFFFFF AND JUMP JUMPDEST SWAP1 PUSH2 0x14DC JUMP JUMPDEST SWAP2 POP POP SWAP1 JUMP JUMPDEST PUSH2 0xA3C PUSH2 0x1303 JUMP JUMPDEST PUSH1 0xD SLOAD TIMESTAMP GT PUSH2 0xA5D JUMPI PUSH1 0x40 MLOAD PUSH3 0x461BCD PUSH1 0xE5 SHL DUP2 MSTORE PUSH1 0x4 ADD PUSH2 0x546 SWAP1 PUSH2 0x19E4 JUMP JUMPDEST PUSH1 0x6 SLOAD PUSH1 0x13 SLOAD LT PUSH2 0xAB0 JUMPI PUSH1 0x40 MLOAD PUSH3 0x461BCD PUSH1 0xE5 SHL DUP2 MSTORE PUSH1 0x20 PUSH1 0x4 DUP3 ADD DUP2 SWAP1 MSTORE PUSH1 0x24 DUP3 ADD MSTORE PUSH32 0x5468652049444F20706F6F6C2068617320726561636820736F6674206361702E PUSH1 0x44 DUP3 ADD MSTORE PUSH1 0x64 ADD PUSH2 0x546 JUMP JUMPDEST PUSH1 0x2 SLOAD PUSH1 0x40 MLOAD PUSH4 0x70A08231 PUSH1 0xE0 SHL DUP2 MSTORE ADDRESS PUSH1 0x4 DUP3 ADD MSTORE PUSH1 0x0 SWAP2 PUSH1 0x1 PUSH1 0x1 PUSH1 0xA0 SHL SUB AND SWAP1 PUSH4 0x70A08231 SWAP1 PUSH1 0x24 ADD PUSH1 0x20 PUSH1 0x40 MLOAD DUP1 DUP4 SUB DUP2 DUP7 GAS STATICCALL ISZERO DUP1 ISZERO PUSH2 0xAF9 JUMPI RETURNDATASIZE PUSH1 0x0 DUP1 RETURNDATACOPY RETURNDATASIZE PUSH1 0x0 REVERT JUMPDEST POP POP POP POP PUSH1 0x40 MLOAD RETURNDATASIZE PUSH1 0x1F NOT PUSH1 0x1F DUP3 ADD AND DUP3 ADD DUP1 PUSH1 0x40 MSTORE POP DUP2 ADD SWAP1 PUSH2 0xB1D SWAP2 SWAP1 PUSH2 0x1A45 JUMP JUMPDEST SWAP1 POP PUSH1 0x0 DUP2 GT PUSH2 0xB7B JUMPI PUSH1 0x40 MLOAD PUSH3 0x461BCD PUSH1 0xE5 SHL DUP2 MSTORE PUSH1 0x20 PUSH1 0x4 DUP3 ADD MSTORE PUSH1 0x23 PUSH1 0x24 DUP3 ADD MSTORE PUSH32 0x5468652049444F20706F6F6C20686173206E6F7420726566756E6420746F6B65 PUSH1 0x44 DUP3 ADD MSTORE PUSH3 0x373997 PUSH1 0xE9 SHL PUSH1 0x64 DUP3 ADD MSTORE PUSH1 0x84 ADD PUSH2 0x546 JUMP JUMPDEST PUSH1 0x2 SLOAD PUSH2 0xB92 SWAP1 PUSH1 0x1 PUSH1 0x1 PUSH1 0xA0 SHL SUB AND CALLER DUP4 PUSH2 0x135D JUMP JUMPDEST POP JUMP JUMPDEST PUSH2 0xB9D PUSH2 0x1303 JUMP JUMPDEST PUSH2 0x846 PUSH1 0x0 PUSH2 0x14E8 JUMP JUMPDEST PUSH1 0x4 PUSH2 0x839 DUP3 DUP3 PUSH2 0x1AAC JUMP JUMPDEST PUSH2 0xBBB PUSH2 0x1303 JUMP JUMPDEST PUSH1 0x16 SLOAD PUSH1 0xFF AND PUSH2 0xC19 JUMPI PUSH1 0x40 MLOAD PUSH3 0x461BCD PUSH1 0xE5 SHL DUP2 MSTORE PUSH1 0x20 PUSH1 0x4 DUP3 ADD MSTORE PUSH1 0x23 PUSH1 0x24 DUP3 ADD MSTORE PUSH32 0x576974686472617720616C6C6F77656420616674657220646973747269627574 PUSH1 0x44 DUP3 ADD MSTORE PUSH3 0x32B217 PUSH1 0xE9 SHL PUSH1 0x64 DUP3 ADD MSTORE PUSH1 0x84 ADD PUSH2 0x546 JUMP JUMPDEST PUSH1 0x0 PUSH2 0xC23 PUSH2 0x99A JUMP JUMPDEST SWAP1 POP PUSH1 0x0 DUP2 GT PUSH2 0xB7B JUMPI PUSH1 0x40 MLOAD PUSH3 0x461BCD PUSH1 0xE5 SHL DUP2 MSTORE PUSH1 0x20 PUSH1 0x4 DUP3 ADD MSTORE PUSH1 0x23 PUSH1 0x24 DUP3 ADD MSTORE PUSH32 0x5468652049444F20706F6F6C20686173206E6F7420756E736F6C6420746F6B65 PUSH1 0x44 DUP3 ADD MSTORE PUSH3 0x373997 PUSH1 0xE9 SHL PUSH1 0x64 DUP3 ADD MSTORE PUSH1 0x84 ADD PUSH2 0x546 JUMP JUMPDEST PUSH2 0xB92 DUP2 PUSH2 0x13AF JUMP JUMPDEST PUSH2 0xC92 PUSH2 0x1303 JUMP JUMPDEST PUSH1 0xD SLOAD TIMESTAMP GT PUSH2 0xCB3 JUMPI PUSH1 0x40 MLOAD PUSH3 0x461BCD PUSH1 0xE5 SHL DUP2 MSTORE PUSH1 0x4 ADD PUSH2 0x546 SWAP1 PUSH2 0x19E4 JUMP JUMPDEST PUSH1 0x6 SLOAD PUSH1 0x13 SLOAD LT ISZERO PUSH2 0xCD7 JUMPI PUSH1 0x40 MLOAD PUSH3 0x461BCD PUSH1 0xE5 SHL DUP2 MSTORE PUSH1 0x4 ADD PUSH2 0x546 SWAP1 PUSH2 0x1B6C JUMP JUMPDEST PUSH1 0x16 SLOAD PUSH1 0xFF AND ISZERO PUSH2 0xD21 JUMPI PUSH1 0x40 MLOAD PUSH3 0x461BCD PUSH1 0xE5 SHL DUP2 MSTORE PUSH1 0x20 PUSH1 0x4 DUP3 ADD MSTORE PUSH1 0x14 PUSH1 0x24 DUP3 ADD MSTORE PUSH20 0x20B63932B0B23C903234B9BA3934B13ABA32B217 PUSH1 0x61 SHL PUSH1 0x44 DUP3 ADD MSTORE PUSH1 0x64 ADD PUSH2 0x546 JUMP JUMPDEST PUSH1 0xB SLOAD SELFBALANCE SWAP1 ISZERO DUP1 ISZERO SWAP1 PUSH2 0xD35 JUMPI POP PUSH1 0xA SLOAD ISZERO ISZERO JUMPDEST ISZERO PUSH2 0x11D9 JUMPI PUSH2 0xD44 CALLVALUE DUP3 PUSH2 0x1BC6 JUMP JUMPDEST SWAP1 POP PUSH1 0x0 PUSH1 0x64 PUSH1 0x5 PUSH1 0x6 ADD SLOAD DUP4 PUSH2 0xD5B SWAP2 SWAP1 PUSH2 0x1BD9 JUMP JUMPDEST PUSH2 0xD65 SWAP2 SWAP1 PUSH2 0x1BF0 JUMP JUMPDEST SWAP1 POP PUSH1 0x0 PUSH2 0xD73 DUP3 DUP5 PUSH2 0x1BC6 JUMP JUMPDEST SWAP1 POP PUSH1 0x0 PUSH2 0xD85 DUP4 PUSH1 0x5 DUP1 ADD SLOAD PUSH2 0x12DE JUMP JUMPDEST PUSH1 0xF SLOAD PUSH1 0x2 SLOAD PUSH1 0x40 MLOAD PUSH4 0x95EA7B3 PUSH1 0xE0 SHL DUP2 MSTORE PUSH1 0x1 PUSH1 0x1 PUSH1 0xA0 SHL SUB SWAP3 DUP4 AND PUSH1 0x4 DUP3 ADD DUP2 SWAP1 MSTORE PUSH1 0x24 DUP3 ADD DUP6 SWAP1 MSTORE SWAP4 SWAP5 POP SWAP2 AND SWAP1 PUSH4 0x95EA7B3 SWAP1 PUSH1 0x44 ADD PUSH1 0x20 PUSH1 0x40 MLOAD DUP1 DUP4 SUB DUP2 PUSH1 0x0 DUP8 GAS CALL ISZERO DUP1 ISZERO PUSH2 0xDDF JUMPI RETURNDATASIZE PUSH1 0x0 DUP1 RETURNDATACOPY RETURNDATASIZE PUSH1 0x0 REVERT JUMPDEST POP POP POP POP PUSH1 0x40 MLOAD RETURNDATASIZE PUSH1 0x1F NOT PUSH1 0x1F DUP3 ADD AND DUP3 ADD DUP1 PUSH1 0x40 MSTORE POP DUP2 ADD SWAP1 PUSH2 0xE03 SWAP2 SWAP1 PUSH2 0x1C12 JUMP JUMPDEST POP PUSH1 0x2 SLOAD PUSH1 0x0 SWAP1 PUSH1 0x1 PUSH1 0x1 PUSH1 0xA0 SHL SUB DUP1 DUP5 AND SWAP2 PUSH4 0xF305D719 SWAP2 DUP9 SWAP2 AND DUP7 DUP6 DUP1 ADDRESS PUSH2 0xE2F TIMESTAMP PUSH2 0x168 PUSH2 0x1C34 JUMP JUMPDEST PUSH1 0x40 MLOAD PUSH1 0xE0 DUP10 SWAP1 SHL PUSH1 0x1 PUSH1 0x1 PUSH1 0xE0 SHL SUB NOT AND DUP2 MSTORE PUSH1 0x1 PUSH1 0x1 PUSH1 0xA0 SHL SUB SWAP7 DUP8 AND PUSH1 0x4 DUP3 ADD MSTORE PUSH1 0x24 DUP2 ADD SWAP6 SWAP1 SWAP6 MSTORE PUSH1 0x44 DUP6 ADD SWAP4 SWAP1 SWAP4 MSTORE PUSH1 0x64 DUP5 ADD SWAP2 SWAP1 SWAP2 MSTORE SWAP1 SWAP3 AND PUSH1 0x84 DUP3 ADD MSTORE PUSH1 0xA4 DUP2 ADD SWAP2 SWAP1 SWAP2 MSTORE PUSH1 0xC4 ADD PUSH1 0x60 PUSH1 0x40 MLOAD DUP1 DUP4 SUB DUP2 DUP6 DUP9 GAS CALL ISZERO DUP1 ISZERO PUSH2 0xE9C JUMPI RETURNDATASIZE PUSH1 0x0 DUP1 RETURNDATACOPY RETURNDATASIZE PUSH1 0x0 REVERT JUMPDEST POP POP POP POP POP PUSH1 0x40 MLOAD RETURNDATASIZE PUSH1 0x1F NOT PUSH1 0x1F DUP3 ADD AND DUP3 ADD DUP1 PUSH1 0x40 MSTORE POP DUP2 ADD SWAP1 PUSH2 0xEC1 SWAP2 SWAP1 PUSH2 0x1C47 JUMP JUMPDEST PUSH1 0x10 SLOAD PUSH1 0x2 SLOAD PUSH1 0x11 SLOAD PUSH1 0x40 MLOAD PUSH4 0xE6A43905 PUSH1 0xE0 SHL DUP2 MSTORE PUSH1 0x1 PUSH1 0x1 PUSH1 0xA0 SHL SUB SWAP3 DUP4 AND PUSH1 0x4 DUP3 ADD MSTORE SWAP1 DUP3 AND PUSH1 0x24 DUP3 ADD MSTORE SWAP3 SWAP6 POP PUSH1 0x0 SWAP5 POP AND SWAP2 POP PUSH4 0xE6A43905 SWAP1 PUSH1 0x44 ADD PUSH1 0x20 PUSH1 0x40 MLOAD DUP1 DUP4 SUB DUP2 DUP7 GAS STATICCALL ISZERO DUP1 ISZERO PUSH2 0xF1F JUMPI RETURNDATASIZE PUSH1 0x0 DUP1 RETURNDATACOPY RETURNDATASIZE PUSH1 0x0 REVERT JUMPDEST POP POP POP POP PUSH1 0x40 MLOAD RETURNDATASIZE PUSH1 0x1F NOT PUSH1 0x1F DUP3 ADD AND DUP3 ADD DUP1 PUSH1 0x40 MSTORE POP DUP2 ADD SWAP1 PUSH2 0xF43 SWAP2 SWAP1 PUSH2 0x1C75 JUMP JUMPDEST PUSH1 0xE SLOAD SWAP1 SWAP2 POP DUP2 SWAP1 TIMESTAMP LT ISZERO PUSH2 0x10E5 JUMPI PUSH1 0x12 SLOAD PUSH1 0x40 MLOAD PUSH4 0x95EA7B3 PUSH1 0xE0 SHL DUP2 MSTORE PUSH1 0x1 PUSH1 0x1 PUSH1 0xA0 SHL SUB SWAP2 DUP3 AND PUSH1 0x4 DUP3 ADD MSTORE PUSH1 0x24 DUP2 ADD DUP6 SWAP1 MSTORE SWAP1 DUP3 AND SWAP1 PUSH4 0x95EA7B3 SWAP1 PUSH1 0x44 ADD PUSH1 0x20 PUSH1 0x40 MLOAD DUP1 DUP4 SUB DUP2 PUSH1 0x0 DUP8 GAS CALL ISZERO DUP1 ISZERO PUSH2 0xFA5 JUMPI RETURNDATASIZE PUSH1 0x0 DUP1 RETURNDATACOPY RETURNDATASIZE PUSH1 0x0 REVERT JUMPDEST POP POP POP POP PUSH1 0x40 MLOAD RETURNDATASIZE PUSH1 0x1F NOT PUSH1 0x1F DUP3 ADD AND DUP3 ADD DUP1 PUSH1 0x40 MSTORE POP DUP2 ADD SWAP1 PUSH2 0xFC9 SWAP2 SWAP1 PUSH2 0x1C12 JUMP JUMPDEST POP PUSH1 0x12 PUSH1 0x0 SWAP1 SLOAD SWAP1 PUSH2 0x100 EXP SWAP1 DIV PUSH1 0x1 PUSH1 0x1 PUSH1 0xA0 SHL SUB AND PUSH1 0x1 PUSH1 0x1 PUSH1 0xA0 SHL SUB AND PUSH4 0x3F3DBAC CALLVALUE DUP4 DUP5 PUSH1 0x1 PUSH1 0x1 PUSH1 0xA0 SHL SUB AND PUSH4 0x95D89B41 PUSH1 0x40 MLOAD DUP2 PUSH4 0xFFFFFFFF AND PUSH1 0xE0 SHL DUP2 MSTORE PUSH1 0x4 ADD PUSH1 0x0 PUSH1 0x40 MLOAD DUP1 DUP4 SUB DUP2 DUP7 GAS STATICCALL ISZERO DUP1 ISZERO PUSH2 0x102E JUMPI RETURNDATASIZE PUSH1 0x0 DUP1 RETURNDATACOPY RETURNDATASIZE PUSH1 0x0 REVERT JUMPDEST POP POP POP POP PUSH1 0x40 MLOAD RETURNDATASIZE PUSH1 0x0 DUP3 RETURNDATACOPY PUSH1 0x1F RETURNDATASIZE SWAP1 DUP2 ADD PUSH1 0x1F NOT AND DUP3 ADD PUSH1 0x40 MSTORE PUSH2 0x1056 SWAP2 SWAP1 DUP2 ADD SWAP1 PUSH2 0x1C92 JUMP JUMPDEST PUSH1 0x40 MLOAD PUSH1 0x20 ADD PUSH2 0x1066 SWAP2 SWAP1 PUSH2 0x1D09 JUMP JUMPDEST PUSH1 0x40 DUP1 MLOAD PUSH1 0x1F NOT DUP2 DUP5 SUB ADD DUP2 MSTORE SWAP1 DUP3 SWAP1 MSTORE PUSH1 0xE SLOAD PUSH1 0x1 PUSH1 0x1 PUSH1 0xE0 SHL SUB NOT PUSH1 0xE0 DUP8 SWAP1 SHL AND DUP4 MSTORE PUSH2 0x109C SWAP4 SWAP3 DUP11 SWAP2 CALLER SWAP2 PUSH1 0x4 ADD PUSH2 0x1D3B JUMP JUMPDEST PUSH1 0x20 PUSH1 0x40 MLOAD DUP1 DUP4 SUB DUP2 DUP6 DUP9 GAS CALL ISZERO DUP1 ISZERO PUSH2 0x10BA JUMPI RETURNDATASIZE PUSH1 0x0 DUP1 RETURNDATACOPY RETURNDATASIZE PUSH1 0x0 REVERT JUMPDEST POP POP POP POP POP PUSH1 0x40 MLOAD RETURNDATASIZE PUSH1 0x1F NOT PUSH1 0x1F DUP3 ADD AND DUP3 ADD DUP1 PUSH1 0x40 MSTORE POP DUP2 ADD SWAP1 PUSH2 0x10DF SWAP2 SWAP1 PUSH2 0x1C75 JUMP JUMPDEST POP PUSH2 0x1164 JUMP JUMPDEST PUSH1 0x40 MLOAD PUSH4 0xA9059CBB PUSH1 0xE0 SHL DUP2 MSTORE CALLER PUSH1 0x4 DUP3 ADD MSTORE PUSH1 0x24 DUP2 ADD DUP5 SWAP1 MSTORE PUSH1 0x1 PUSH1 0x1 PUSH1 0xA0 SHL SUB DUP3 AND SWAP1 PUSH4 0xA9059CBB SWAP1 PUSH1 0x44 ADD PUSH1 0x20 PUSH1 0x40 MLOAD DUP1 DUP4 SUB DUP2 PUSH1 0x0 DUP8 GAS CALL ISZERO DUP1 ISZERO PUSH2 0x1132 JUMPI RETURNDATASIZE PUSH1 0x0 DUP1 RETURNDATACOPY RETURNDATASIZE PUSH1 0x0 REVERT JUMPDEST POP POP POP POP PUSH1 0x40 MLOAD RETURNDATASIZE PUSH1 0x1F NOT PUSH1 0x1F DUP3 ADD AND DUP3 ADD DUP1 PUSH1 0x40 MSTORE POP DUP2 ADD SWAP1 PUSH2 0x1156 SWAP2 SWAP1 PUSH2 0x1C12 JUMP JUMPDEST POP PUSH2 0x1161 CALLVALUE DUP8 PUSH2 0x1C34 JUMP JUMPDEST SWAP6 POP JUMPDEST PUSH1 0x40 MLOAD PUSH1 0x0 SWAP1 CALLER SWAP1 DUP9 SWAP1 DUP4 DUP2 DUP2 DUP2 DUP6 DUP8 GAS CALL SWAP3 POP POP POP RETURNDATASIZE DUP1 PUSH1 0x0 DUP2 EQ PUSH2 0x11A6 JUMPI PUSH1 0x40 MLOAD SWAP2 POP PUSH1 0x1F NOT PUSH1 0x3F RETURNDATASIZE ADD AND DUP3 ADD PUSH1 0x40 MSTORE RETURNDATASIZE DUP3 MSTORE RETURNDATASIZE PUSH1 0x0 PUSH1 0x20 DUP5 ADD RETURNDATACOPY PUSH2 0x11AB JUMP JUMPDEST PUSH1 0x60 SWAP2 POP JUMPDEST POP POP SWAP1 POP DUP1 PUSH2 0x11CC JUMPI PUSH1 0x40 MLOAD PUSH3 0x461BCD PUSH1 0xE5 SHL DUP2 MSTORE PUSH1 0x4 ADD PUSH2 0x546 SWAP1 PUSH2 0x1A1B JUMP JUMPDEST POP POP POP POP POP POP POP POP PUSH2 0x1243 JUMP JUMPDEST PUSH1 0x40 MLOAD PUSH1 0x0 SWAP1 CALLER SWAP1 DUP4 SWAP1 DUP4 DUP2 DUP2 DUP2 DUP6 DUP8 GAS CALL SWAP3 POP POP POP RETURNDATASIZE DUP1 PUSH1 0x0 DUP2 EQ PUSH2 0x121B JUMPI PUSH1 0x40 MLOAD SWAP2 POP PUSH1 0x1F NOT PUSH1 0x3F RETURNDATASIZE ADD AND DUP3 ADD PUSH1 0x40 MSTORE RETURNDATASIZE DUP3 MSTORE RETURNDATASIZE PUSH1 0x0 PUSH1 0x20 DUP5 ADD RETURNDATACOPY PUSH2 0x1220 JUMP JUMPDEST PUSH1 0x60 SWAP2 POP JUMPDEST POP POP SWAP1 POP DUP1 PUSH2 0x1241 JUMPI PUSH1 0x40 MLOAD PUSH3 0x461BCD PUSH1 0xE5 SHL DUP2 MSTORE PUSH1 0x4 ADD PUSH2 0x546 SWAP1 PUSH2 0x1A1B JUMP JUMPDEST POP JUMPDEST POP PUSH1 0x16 DUP1 SLOAD PUSH1 0xFF NOT AND PUSH1 0x1 OR SWAP1 SSTORE JUMP JUMPDEST PUSH2 0x125B PUSH2 0x1303 JUMP JUMPDEST PUSH1 0x1 PUSH1 0x1 PUSH1 0xA0 SHL SUB DUP2 AND PUSH2 0x12C0 JUMPI PUSH1 0x40 MLOAD PUSH3 0x461BCD PUSH1 0xE5 SHL DUP2 MSTORE PUSH1 0x20 PUSH1 0x4 DUP3 ADD MSTORE PUSH1 0x26 PUSH1 0x24 DUP3 ADD MSTORE PUSH32 0x4F776E61626C653A206E6577206F776E657220697320746865207A65726F2061 PUSH1 0x44 DUP3 ADD MSTORE PUSH6 0x646472657373 PUSH1 0xD0 SHL PUSH1 0x64 DUP3 ADD MSTORE PUSH1 0x84 ADD PUSH2 0x546 JUMP JUMPDEST PUSH2 0xB92 DUP2 PUSH2 0x14E8 JUMP JUMPDEST PUSH1 0x0 PUSH2 0x12D5 DUP3 DUP5 PUSH2 0x1C34 JUMP JUMPDEST SWAP1 POP JUMPDEST SWAP3 SWAP2 POP POP JUMP JUMPDEST PUSH1 0x0 PUSH1 0x3 SLOAD PUSH1 0xA PUSH2 0x12EF SWAP2 SWAP1 PUSH2 0x1E5D JUMP JUMPDEST PUSH2 0x12F9 DUP4 DUP6 PUSH2 0x1BF0 JUMP JUMPDEST PUSH2 0x12D5 SWAP2 SWAP1 PUSH2 0x1BD9 JUMP JUMPDEST PUSH1 0x0 SLOAD PUSH1 0x1 PUSH1 0x1 PUSH1 0xA0 SHL SUB AND CALLER EQ PUSH2 0x846 JUMPI PUSH1 0x40 MLOAD PUSH3 0x461BCD PUSH1 0xE5 SHL DUP2 MSTORE PUSH1 0x20 PUSH1 0x4 DUP3 ADD DUP2 SWAP1 MSTORE PUSH1 0x24 DUP3 ADD MSTORE PUSH32 0x4F776E61626C653A2063616C6C6572206973206E6F7420746865206F776E6572 PUSH1 0x44 DUP3 ADD MSTORE PUSH1 0x64 ADD PUSH2 0x546 JUMP JUMPDEST PUSH1 0x40 DUP1 MLOAD PUSH1 0x1 PUSH1 0x1 PUSH1 0xA0 SHL SUB DUP5 AND PUSH1 0x24 DUP3 ADD MSTORE PUSH1 0x44 DUP1 DUP3 ADD DUP5 SWAP1 MSTORE DUP3 MLOAD DUP1 DUP4 SUB SWAP1 SWAP2 ADD DUP2 MSTORE PUSH1 0x64 SWAP1 SWAP2 ADD SWAP1 SWAP2 MSTORE PUSH1 0x20 DUP2 ADD DUP1 MLOAD PUSH1 0x1 PUSH1 0x1 PUSH1 0xE0 SHL SUB AND PUSH4 0xA9059CBB PUSH1 0xE0 SHL OR SWAP1 MSTORE PUSH2 0x995 SWAP1 DUP5 SWAP1 PUSH2 0x1538 JUMP JUMPDEST PUSH2 0x13B7 PUSH2 0x160A JUMP JUMPDEST PUSH1 0xD SLOAD TIMESTAMP GT PUSH2 0x13D8 JUMPI PUSH1 0x40 MLOAD PUSH3 0x461BCD PUSH1 0xE5 SHL DUP2 MSTORE PUSH1 0x4 ADD PUSH2 0x546 SWAP1 PUSH2 0x19E4 JUMP JUMPDEST PUSH1 0x6 SLOAD PUSH1 0x13 SLOAD LT ISZERO PUSH2 0x13FC JUMPI PUSH1 0x40 MLOAD PUSH3 0x461BCD PUSH1 0xE5 SHL DUP2 MSTORE PUSH1 0x4 ADD PUSH2 0x546 SWAP1 PUSH2 0x1B6C JUMP JUMPDEST PUSH1 0x1 PUSH1 0x1 PUSH1 0xA0 SHL SUB DUP2 AND PUSH1 0x0 SWAP1 DUP2 MSTORE PUSH1 0x17 PUSH1 0x20 MSTORE PUSH1 0x40 SWAP1 KECCAK256 DUP1 SLOAD DUP1 PUSH2 0x1463 JUMPI PUSH1 0x40 MLOAD PUSH3 0x461BCD PUSH1 0xE5 SHL DUP2 MSTORE PUSH1 0x20 PUSH1 0x4 DUP3 ADD MSTORE PUSH1 0x1C PUSH1 0x24 DUP3 ADD MSTORE PUSH32 0x596F7520646F206E6F742068617665206465627420746F6B656E732E00000000 PUSH1 0x44 DUP3 ADD MSTORE PUSH1 0x64 ADD PUSH2 0x546 JUMP JUMPDEST PUSH1 0x0 DUP3 SSTORE PUSH1 0x15 SLOAD PUSH2 0x1474 SWAP1 DUP3 PUSH2 0x12C9 JUMP JUMPDEST PUSH1 0x15 SSTORE PUSH1 0x2 SLOAD PUSH2 0x148E SWAP1 PUSH1 0x1 PUSH1 0x1 PUSH1 0xA0 SHL SUB AND DUP5 DUP4 PUSH2 0x135D JUMP JUMPDEST DUP3 PUSH1 0x1 PUSH1 0x1 PUSH1 0xA0 SHL SUB AND PUSH32 0x6352C5382C4A4578E712449CA65E83CDB392D045DFCF1CAD9615189DB2DA244B DUP3 PUSH1 0x40 MLOAD PUSH2 0x14C9 SWAP2 DUP2 MSTORE PUSH1 0x20 ADD SWAP1 JUMP JUMPDEST PUSH1 0x40 MLOAD DUP1 SWAP2 SUB SWAP1 LOG2 POP POP PUSH2 0xB92 PUSH1 0x1 DUP1 SSTORE JUMP JUMPDEST PUSH1 0x0 PUSH2 0x12D5 DUP3 DUP5 PUSH2 0x1BC6 JUMP JUMPDEST PUSH1 0x0 DUP1 SLOAD PUSH1 0x1 PUSH1 0x1 PUSH1 0xA0 SHL SUB DUP4 DUP2 AND PUSH1 0x1 PUSH1 0x1 PUSH1 0xA0 SHL SUB NOT DUP4 AND DUP2 OR DUP5 SSTORE PUSH1 0x40 MLOAD SWAP2 SWAP1 SWAP3 AND SWAP3 DUP4 SWAP2 PUSH32 0x8BE0079C531659141344CD1FD0A4F28419497F9722A3DAAFE3B4186F6B6457E0 SWAP2 SWAP1 LOG3 POP POP JUMP JUMPDEST PUSH1 0x0 PUSH2 0x158D DUP3 PUSH1 0x40 MLOAD DUP1 PUSH1 0x40 ADD PUSH1 0x40 MSTORE DUP1 PUSH1 0x20 DUP2 MSTORE PUSH1 0x20 ADD PUSH32 0x5361666545524332303A206C6F772D6C6576656C2063616C6C206661696C6564 DUP2 MSTORE POP DUP6 PUSH1 0x1 PUSH1 0x1 PUSH1 0xA0 SHL SUB AND PUSH2 0x1663 SWAP1 SWAP3 SWAP2 SWAP1 PUSH4 0xFFFFFFFF AND JUMP JUMPDEST DUP1 MLOAD SWAP1 SWAP2 POP ISZERO PUSH2 0x995 JUMPI DUP1 DUP1 PUSH1 0x20 ADD SWAP1 MLOAD DUP2 ADD SWAP1 PUSH2 0x15AB SWAP2 SWAP1 PUSH2 0x1C12 JUMP JUMPDEST PUSH2 0x995 JUMPI PUSH1 0x40 MLOAD PUSH3 0x461BCD PUSH1 0xE5 SHL DUP2 MSTORE PUSH1 0x20 PUSH1 0x4 DUP3 ADD MSTORE PUSH1 0x2A PUSH1 0x24 DUP3 ADD MSTORE PUSH32 0x5361666545524332303A204552433230206F7065726174696F6E20646964206E PUSH1 0x44 DUP3 ADD MSTORE PUSH10 0x1BDD081CDD58D8D95959 PUSH1 0xB2 SHL PUSH1 0x64 DUP3 ADD MSTORE PUSH1 0x84 ADD PUSH2 0x546 JUMP JUMPDEST PUSH1 0x2 PUSH1 0x1 SLOAD SUB PUSH2 0x165C JUMPI PUSH1 0x40 MLOAD PUSH3 0x461BCD PUSH1 0xE5 SHL DUP2 MSTORE PUSH1 0x20 PUSH1 0x4 DUP3 ADD MSTORE PUSH1 0x1F PUSH1 0x24 DUP3 ADD MSTORE PUSH32 0x5265656E7472616E637947756172643A207265656E7472616E742063616C6C00 PUSH1 0x44 DUP3 ADD MSTORE PUSH1 0x64 ADD PUSH2 0x546 JUMP JUMPDEST PUSH1 0x2 PUSH1 0x1 SSTORE JUMP JUMPDEST PUSH1 0x60 PUSH2 0x1672 DUP5 DUP5 PUSH1 0x0 DUP6 PUSH2 0x167A JUMP JUMPDEST SWAP5 SWAP4 POP POP POP POP JUMP JUMPDEST PUSH1 0x60 DUP3 SELFBALANCE LT ISZERO PUSH2 0x16DB JUMPI PUSH1 0x40 MLOAD PUSH3 0x461BCD PUSH1 0xE5 SHL DUP2 MSTORE PUSH1 0x20 PUSH1 0x4 DUP3 ADD MSTORE PUSH1 0x26 PUSH1 0x24 DUP3 ADD MSTORE PUSH32 0x416464726573733A20696E73756666696369656E742062616C616E636520666F PUSH1 0x44 DUP3 ADD MSTORE PUSH6 0x1C8818D85B1B PUSH1 0xD2 SHL PUSH1 0x64 DUP3 ADD MSTORE PUSH1 0x84 ADD PUSH2 0x546 JUMP JUMPDEST PUSH1 0x0 DUP1 DUP7 PUSH1 0x1 PUSH1 0x1 PUSH1 0xA0 SHL SUB AND DUP6 DUP8 PUSH1 0x40 MLOAD PUSH2 0x16F7 SWAP2 SWAP1 PUSH2 0x1E69 JUMP JUMPDEST PUSH1 0x0 PUSH1 0x40 MLOAD DUP1 DUP4 SUB DUP2 DUP6 DUP8 GAS CALL SWAP3 POP POP POP RETURNDATASIZE DUP1 PUSH1 0x0 DUP2 EQ PUSH2 0x1734 JUMPI PUSH1 0x40 MLOAD SWAP2 POP PUSH1 0x1F NOT PUSH1 0x3F RETURNDATASIZE ADD AND DUP3 ADD PUSH1 0x40 MSTORE RETURNDATASIZE DUP3 MSTORE RETURNDATASIZE PUSH1 0x0 PUSH1 0x20 DUP5 ADD RETURNDATACOPY PUSH2 0x1739 JUMP JUMPDEST PUSH1 0x60 SWAP2 POP JUMPDEST POP SWAP2 POP SWAP2 POP PUSH2 0x174A DUP8 DUP4 DUP4 DUP8 PUSH2 0x1755 JUMP JUMPDEST SWAP8 SWAP7 POP POP POP POP POP POP POP JUMP JUMPDEST PUSH1 0x60 DUP4 ISZERO PUSH2 0x17C4 JUMPI DUP3 MLOAD PUSH1 0x0 SUB PUSH2 0x17BD JUMPI PUSH1 0x1 PUSH1 0x1 PUSH1 0xA0 SHL SUB DUP6 AND EXTCODESIZE PUSH2 0x17BD JUMPI PUSH1 0x40 MLOAD PUSH3 0x461BCD PUSH1 0xE5 SHL DUP2 MSTORE PUSH1 0x20 PUSH1 0x4 DUP3 ADD MSTORE PUSH1 0x1D PUSH1 0x24 DUP3 ADD MSTORE PUSH32 0x416464726573733A2063616C6C20746F206E6F6E2D636F6E7472616374000000 PUSH1 0x44 DUP3 ADD MSTORE PUSH1 0x64 ADD PUSH2 0x546 JUMP JUMPDEST POP DUP2 PUSH2 0x1672 JUMP JUMPDEST PUSH2 0x1672 DUP4 DUP4 DUP2 MLOAD ISZERO PUSH2 0x17D9 JUMPI DUP2 MLOAD DUP1 DUP4 PUSH1 0x20 ADD REVERT JUMPDEST DUP1 PUSH1 0x40 MLOAD PUSH3 0x461BCD PUSH1 0xE5 SHL DUP2 MSTORE PUSH1 0x4 ADD PUSH2 0x546 SWAP2 SWAP1 PUSH2 0x187C JUMP JUMPDEST PUSH1 0x1 PUSH1 0x1 PUSH1 0xA0 SHL SUB DUP2 AND DUP2 EQ PUSH2 0xB92 JUMPI PUSH1 0x0 DUP1 REVERT JUMPDEST PUSH1 0x0 PUSH1 0x20 DUP3 DUP5 SUB SLT ISZERO PUSH2 0x181A JUMPI PUSH1 0x0 DUP1 REVERT JUMPDEST DUP2 CALLDATALOAD PUSH2 0x1825 DUP2 PUSH2 0x17F3 JUMP JUMPDEST SWAP4 SWAP3 POP POP POP JUMP JUMPDEST PUSH1 0x0 JUMPDEST DUP4 DUP2 LT ISZERO PUSH2 0x1847 JUMPI DUP2 DUP2 ADD MLOAD DUP4 DUP3 ADD MSTORE PUSH1 0x20 ADD PUSH2 0x182F JUMP JUMPDEST POP POP PUSH1 0x0 SWAP2 ADD MSTORE JUMP JUMPDEST PUSH1 0x0 DUP2 MLOAD DUP1 DUP5 MSTORE PUSH2 0x1868 DUP2 PUSH1 0x20 DUP7 ADD PUSH1 0x20 DUP7 ADD PUSH2 0x182C JUMP JUMPDEST PUSH1 0x1F ADD PUSH1 0x1F NOT AND SWAP3 SWAP1 SWAP3 ADD PUSH1 0x20 ADD SWAP3 SWAP2 POP POP JUMP JUMPDEST PUSH1 0x20 DUP2 MSTORE PUSH1 0x0 PUSH2 0x12D5 PUSH1 0x20 DUP4 ADD DUP5 PUSH2 0x1850 JUMP JUMPDEST PUSH1 0x0 DUP1 PUSH1 0x40 DUP4 DUP6 SUB SLT ISZERO PUSH2 0x18A2 JUMPI PUSH1 0x0 DUP1 REVERT JUMPDEST DUP3 CALLDATALOAD PUSH2 0x18AD DUP2 PUSH2 0x17F3 JUMP JUMPDEST SWAP5 PUSH1 0x20 SWAP4 SWAP1 SWAP4 ADD CALLDATALOAD SWAP4 POP POP POP JUMP JUMPDEST PUSH4 0x4E487B71 PUSH1 0xE0 SHL PUSH1 0x0 MSTORE PUSH1 0x41 PUSH1 0x4 MSTORE PUSH1 0x24 PUSH1 0x0 REVERT JUMPDEST PUSH1 0x40 MLOAD PUSH1 0x1F DUP3 ADD PUSH1 0x1F NOT AND DUP2 ADD PUSH8 0xFFFFFFFFFFFFFFFF DUP2 GT DUP3 DUP3 LT OR ISZERO PUSH2 0x18FA JUMPI PUSH2 0x18FA PUSH2 0x18BB JUMP JUMPDEST PUSH1 0x40 MSTORE SWAP2 SWAP1 POP JUMP JUMPDEST PUSH1 0x0 PUSH8 0xFFFFFFFFFFFFFFFF DUP3 GT ISZERO PUSH2 0x191C JUMPI PUSH2 0x191C PUSH2 0x18BB JUMP JUMPDEST POP PUSH1 0x1F ADD PUSH1 0x1F NOT AND PUSH1 0x20 ADD SWAP1 JUMP JUMPDEST PUSH1 0x0 PUSH1 0x20 DUP3 DUP5 SUB SLT ISZERO PUSH2 0x193C JUMPI PUSH1 0x0 DUP1 REVERT JUMPDEST DUP2 CALLDATALOAD PUSH8 0xFFFFFFFFFFFFFFFF DUP2 GT ISZERO PUSH2 0x1953 JUMPI PUSH1 0x0 DUP1 REVERT JUMPDEST DUP3 ADD PUSH1 0x1F DUP2 ADD DUP5 SGT PUSH2 0x1964 JUMPI PUSH1 0x0 DUP1 REVERT JUMPDEST DUP1 CALLDATALOAD PUSH2 0x1977 PUSH2 0x1972 DUP3 PUSH2 0x1902 JUMP JUMPDEST PUSH2 0x18D1 JUMP JUMPDEST DUP2 DUP2 MSTORE DUP6 PUSH1 0x20 DUP4 DUP6 ADD ADD GT ISZERO PUSH2 0x198C JUMPI PUSH1 0x0 DUP1 REVERT JUMPDEST DUP2 PUSH1 0x20 DUP5 ADD PUSH1 0x20 DUP4 ADD CALLDATACOPY PUSH1 0x0 SWAP2 DUP2 ADD PUSH1 0x20 ADD SWAP2 SWAP1 SWAP2 MSTORE SWAP5 SWAP4 POP POP POP POP JUMP JUMPDEST PUSH1 0x1 DUP2 DUP2 SHR SWAP1 DUP3 AND DUP1 PUSH2 0x19BE JUMPI PUSH1 0x7F DUP3 AND SWAP2 POP JUMPDEST PUSH1 0x20 DUP3 LT DUP2 SUB PUSH2 0x19DE JUMPI PUSH4 0x4E487B71 PUSH1 0xE0 SHL PUSH1 0x0 MSTORE PUSH1 0x22 PUSH1 0x4 MSTORE PUSH1 0x24 PUSH1 0x0 REVERT JUMPDEST POP SWAP2 SWAP1 POP JUMP JUMPDEST PUSH1 0x20 DUP1 DUP3 MSTORE PUSH1 0x1B SWAP1 DUP3 ADD MSTORE PUSH32 0x5468652049444F20706F6F6C20686173206E6F7420656E6465642E0000000000 PUSH1 0x40 DUP3 ADD MSTORE PUSH1 0x60 ADD SWAP1 JUMP JUMPDEST PUSH1 0x20 DUP1 DUP3 MSTORE PUSH1 0x10 SWAP1 DUP3 ADD MSTORE PUSH16 0x2A3930B739B332B9103330B4B632B217 PUSH1 0x81 SHL PUSH1 0x40 DUP3 ADD MSTORE PUSH1 0x60 ADD SWAP1 JUMP JUMPDEST PUSH1 0x0 PUSH1 0x20 DUP3 DUP5 SUB SLT ISZERO PUSH2 0x1A57 JUMPI PUSH1 0x0 DUP1 REVERT JUMPDEST POP MLOAD SWAP2 SWAP1 POP JUMP JUMPDEST PUSH1 0x1F DUP3 GT ISZERO PUSH2 0x995 JUMPI PUSH1 0x0 DUP2 DUP2 MSTORE PUSH1 0x20 DUP2 KECCAK256 PUSH1 0x1F DUP6 ADD PUSH1 0x5 SHR DUP2 ADD PUSH1 0x20 DUP7 LT ISZERO PUSH2 0x1A85 JUMPI POP DUP1 JUMPDEST PUSH1 0x1F DUP6 ADD PUSH1 0x5 SHR DUP3 ADD SWAP2 POP JUMPDEST DUP2 DUP2 LT ISZERO PUSH2 0x1AA4 JUMPI DUP3 DUP2 SSTORE PUSH1 0x1 ADD PUSH2 0x1A91 JUMP JUMPDEST POP POP POP POP POP POP JUMP JUMPDEST DUP2 MLOAD PUSH8 0xFFFFFFFFFFFFFFFF DUP2 GT ISZERO PUSH2 0x1AC6 JUMPI PUSH2 0x1AC6 PUSH2 0x18BB JUMP JUMPDEST PUSH2 0x1ADA DUP2 PUSH2 0x1AD4 DUP5 SLOAD PUSH2 0x19AA JUMP JUMPDEST DUP5 PUSH2 0x1A5E JUMP JUMPDEST PUSH1 0x20 DUP1 PUSH1 0x1F DUP4 GT PUSH1 0x1 DUP2 EQ PUSH2 0x1B0F JUMPI PUSH1 0x0 DUP5 ISZERO PUSH2 0x1AF7 JUMPI POP DUP6 DUP4 ADD MLOAD JUMPDEST PUSH1 0x0 NOT PUSH1 0x3 DUP7 SWAP1 SHL SHR NOT AND PUSH1 0x1 DUP6 SWAP1 SHL OR DUP6 SSTORE PUSH2 0x1AA4 JUMP JUMPDEST PUSH1 0x0 DUP6 DUP2 MSTORE PUSH1 0x20 DUP2 KECCAK256 PUSH1 0x1F NOT DUP7 AND SWAP2 JUMPDEST DUP3 DUP2 LT ISZERO PUSH2 0x1B3E JUMPI DUP9 DUP7 ADD MLOAD DUP3 SSTORE SWAP5 DUP5 ADD SWAP5 PUSH1 0x1 SWAP1 SWAP2 ADD SWAP1 DUP5 ADD PUSH2 0x1B1F JUMP JUMPDEST POP DUP6 DUP3 LT ISZERO PUSH2 0x1B5C JUMPI DUP8 DUP6 ADD MLOAD PUSH1 0x0 NOT PUSH1 0x3 DUP9 SWAP1 SHL PUSH1 0xF8 AND SHR NOT AND DUP2 SSTORE JUMPDEST POP POP POP POP POP PUSH1 0x1 SWAP1 DUP2 SHL ADD SWAP1 SSTORE POP JUMP JUMPDEST PUSH1 0x20 DUP1 DUP3 MSTORE PUSH1 0x24 SWAP1 DUP3 ADD MSTORE PUSH32 0x5468652049444F20706F6F6C20646964206E6F7420726561636820736F667420 PUSH1 0x40 DUP3 ADD MSTORE PUSH4 0x31B0B817 PUSH1 0xE1 SHL PUSH1 0x60 DUP3 ADD MSTORE PUSH1 0x80 ADD SWAP1 JUMP JUMPDEST PUSH4 0x4E487B71 PUSH1 0xE0 SHL PUSH1 0x0 MSTORE PUSH1 0x11 PUSH1 0x4 MSTORE PUSH1 0x24 PUSH1 0x0 REVERT JUMPDEST DUP2 DUP2 SUB DUP2 DUP2 GT ISZERO PUSH2 0x12D8 JUMPI PUSH2 0x12D8 PUSH2 0x1BB0 JUMP JUMPDEST DUP1 DUP3 MUL DUP2 ISZERO DUP3 DUP3 DIV DUP5 EQ OR PUSH2 0x12D8 JUMPI PUSH2 0x12D8 PUSH2 0x1BB0 JUMP JUMPDEST PUSH1 0x0 DUP3 PUSH2 0x1C0D JUMPI PUSH4 0x4E487B71 PUSH1 0xE0 SHL PUSH1 0x0 MSTORE PUSH1 0x12 PUSH1 0x4 MSTORE PUSH1 0x24 PUSH1 0x0 REVERT JUMPDEST POP DIV SWAP1 JUMP JUMPDEST PUSH1 0x0 PUSH1 0x20 DUP3 DUP5 SUB SLT ISZERO PUSH2 0x1C24 JUMPI PUSH1 0x0 DUP1 REVERT JUMPDEST DUP2 MLOAD DUP1 ISZERO ISZERO DUP2 EQ PUSH2 0x1825 JUMPI PUSH1 0x0 DUP1 REVERT JUMPDEST DUP1 DUP3 ADD DUP1 DUP3 GT ISZERO PUSH2 0x12D8 JUMPI PUSH2 0x12D8 PUSH2 0x1BB0 JUMP JUMPDEST PUSH1 0x0 DUP1 PUSH1 0x0 PUSH1 0x60 DUP5 DUP7 SUB SLT ISZERO PUSH2 0x1C5C JUMPI PUSH1 0x0 DUP1 REVERT JUMPDEST DUP4 MLOAD SWAP3 POP PUSH1 0x20 DUP5 ADD MLOAD SWAP2 POP PUSH1 0x40 DUP5 ADD MLOAD SWAP1 POP SWAP3 POP SWAP3 POP SWAP3 JUMP JUMPDEST PUSH1 0x0 PUSH1 0x20 DUP3 DUP5 SUB SLT ISZERO PUSH2 0x1C87 JUMPI PUSH1 0x0 DUP1 REVERT JUMPDEST DUP2 MLOAD PUSH2 0x1825 DUP2 PUSH2 0x17F3 JUMP JUMPDEST PUSH1 0x0 PUSH1 0x20 DUP3 DUP5 SUB SLT ISZERO PUSH2 0x1CA4 JUMPI PUSH1 0x0 DUP1 REVERT JUMPDEST DUP2 MLOAD PUSH8 0xFFFFFFFFFFFFFFFF DUP2 GT ISZERO PUSH2 0x1CBB JUMPI PUSH1 0x0 DUP1 REVERT JUMPDEST DUP3 ADD PUSH1 0x1F DUP2 ADD DUP5 SGT PUSH2 0x1CCC JUMPI PUSH1 0x0 DUP1 REVERT JUMPDEST DUP1 MLOAD PUSH2 0x1CDA PUSH2 0x1972 DUP3 PUSH2 0x1902 JUMP JUMPDEST DUP2 DUP2 MSTORE DUP6 PUSH1 0x20 DUP4 DUP6 ADD ADD GT ISZERO PUSH2 0x1CEF JUMPI PUSH1 0x0 DUP1 REVERT JUMPDEST PUSH2 0x1D00 DUP3 PUSH1 0x20 DUP4 ADD PUSH1 0x20 DUP7 ADD PUSH2 0x182C JUMP JUMPDEST SWAP6 SWAP5 POP POP POP POP POP JUMP JUMPDEST PUSH1 0x0 DUP3 MLOAD PUSH2 0x1D1B DUP2 DUP5 PUSH1 0x20 DUP8 ADD PUSH2 0x182C JUMP JUMPDEST PUSH14 0x103A37B5B2B739903637B1B5B2B9 PUSH1 0x91 SHL SWAP3 ADD SWAP2 DUP3 MSTORE POP PUSH1 0xE ADD SWAP2 SWAP1 POP JUMP JUMPDEST PUSH1 0x0 PUSH1 0x1 DUP1 PUSH1 0xA0 SHL SUB DUP1 DUP9 AND DUP4 MSTORE PUSH1 0xA0 PUSH1 0x20 DUP5 ADD MSTORE PUSH2 0x1D5D PUSH1 0xA0 DUP5 ADD DUP9 PUSH2 0x1850 JUMP JUMPDEST PUSH1 0x40 DUP5 ADD SWAP7 SWAP1 SWAP7 MSTORE SWAP4 SWAP1 SWAP4 AND PUSH1 0x60 DUP3 ADD MSTORE PUSH1 0x80 ADD MSTORE POP SWAP3 SWAP2 POP POP JUMP JUMPDEST PUSH1 0x1 DUP2 DUP2 JUMPDEST DUP1 DUP6 GT ISZERO PUSH2 0x1DB4 JUMPI DUP2 PUSH1 0x0 NOT DIV DUP3 GT ISZERO PUSH2 0x1D9A JUMPI PUSH2 0x1D9A PUSH2 0x1BB0 JUMP JUMPDEST DUP1 DUP6 AND ISZERO PUSH2 0x1DA7 JUMPI SWAP2 DUP2 MUL SWAP2 JUMPDEST SWAP4 DUP5 SHR SWAP4 SWAP1 DUP1 MUL SWAP1 PUSH2 0x1D7E JUMP JUMPDEST POP SWAP3 POP SWAP3 SWAP1 POP JUMP JUMPDEST PUSH1 0x0 DUP3 PUSH2 0x1DCB JUMPI POP PUSH1 0x1 PUSH2 0x12D8 JUMP JUMPDEST DUP2 PUSH2 0x1DD8 JUMPI POP PUSH1 0x0 PUSH2 0x12D8 JUMP JUMPDEST DUP2 PUSH1 0x1 DUP2 EQ PUSH2 0x1DEE JUMPI PUSH1 0x2 DUP2 EQ PUSH2 0x1DF8 JUMPI PUSH2 0x1E14 JUMP JUMPDEST PUSH1 0x1 SWAP2 POP POP PUSH2 0x12D8 JUMP JUMPDEST PUSH1 0xFF DUP5 GT ISZERO PUSH2 0x1E09 JUMPI PUSH2 0x1E09 PUSH2 0x1BB0 JUMP JUMPDEST POP POP PUSH1 0x1 DUP3 SHL PUSH2 0x12D8 JUMP JUMPDEST POP PUSH1 0x20 DUP4 LT PUSH2 0x133 DUP4 LT AND PUSH1 0x4E DUP5 LT PUSH1 0xB DUP5 LT AND OR ISZERO PUSH2 0x1E37 JUMPI POP DUP2 DUP2 EXP PUSH2 0x12D8 JUMP JUMPDEST PUSH2 0x1E41 DUP4 DUP4 PUSH2 0x1D79 JUMP JUMPDEST DUP1 PUSH1 0x0 NOT DIV DUP3 GT ISZERO PUSH2 0x1E55 JUMPI PUSH2 0x1E55 PUSH2 0x1BB0 JUMP JUMPDEST MUL SWAP4 SWAP3 POP POP POP JUMP JUMPDEST PUSH1 0x0 PUSH2 0x12D5 DUP4 DUP4 PUSH2 0x1DBC JUMP JUMPDEST PUSH1 0x0 DUP3 MLOAD PUSH2 0x1E7B DUP2 DUP5 PUSH1 0x20 DUP8 ADD PUSH2 0x182C JUMP JUMPDEST SWAP2 SWAP1 SWAP2 ADD SWAP3 SWAP2 POP POP JUMP INVALID LOG2 PUSH5 0x6970667358 0x22 SLT KECCAK256 0xAF PUSH22 0x25062BA08D8833100233861E32A4305ADD8A80CB8F59 0x21 EQ 0xB0 SWAP1 GASLIMIT 0xFB BLOCKHASH CALLCODE PUSH5 0x736F6C6343 STOP ADDMOD SLT STOP CALLER LOG2 PUSH5 0x6970667358 0x22 SLT KECCAK256 GASLIMIT 0xBD PUSH9 0xEF822E080C75E5D80B PUSH27 0xA58818173C33CA70B175F618EC1CEB2D22FD2264736F6C63430008 SLT STOP CALLER "
		},
		"gasEstimates": {
			"creation": {
				"codeDepositCost": "4728400",
				"executionCost": "infinite",
				"totalCost": "infinite"
			},
			"external": {
				"burnPercent()": "2308",
				"createIDO(address,(uint256,uint256,uint256,uint256,uint256,uint256,uint256),(uint256,uint256,uint256),(address,address,address),address,string)": "infinite",
				"createIDOERC20(address,address,(uint256,uint256,uint256,uint256,uint256,uint256,uint256),(uint256,uint256,uint256),string)": "infinite",
				"divider()": "2329",
				"feeAmount()": "2395",
				"feeToken()": "2426",
				"feeWallet()": "2425",
				"getIdoPools()": "infinite",
				"idoPools(uint256)": "4703",
				"onlyOwnerCreate()": "2377",
				"owner()": "2353",
				"renounceOwnership()": "infinite",
				"setBurnPercent(uint256,uint256)": "48034",
				"setFeeAmount(uint256)": "25610",
				"setFeeToken(address)": "30474",
				"setFeeWallet(address)": "27860",
				"setOnlyOwnerCreate(bool)": "26733",
				"transferOwnership(address)": "infinite",
				"version()": "2351"
			},
			"internal": {
				"getTokenAmount(uint256,uint256,uint8)": "infinite",
				"isContract(address)": "infinite",
				"processIDOCreate(contract ERC20,address,uint256,uint256,uint256,uint256,string memory)": "infinite"
			}
		},
		"methodIdentifiers": {
			"burnPercent()": "03807ee5",
			"createIDO(address,(uint256,uint256,uint256,uint256,uint256,uint256,uint256),(uint256,uint256,uint256),(address,address,address),address,string)": "37491a91",
			"createIDOERC20(address,address,(uint256,uint256,uint256,uint256,uint256,uint256,uint256),(uint256,uint256,uint256),string)": "198c46a8",
			"divider()": "378efa37",
			"feeAmount()": "69e15404",
			"feeToken()": "647846a5",
			"feeWallet()": "f25f4b56",
			"getIdoPools()": "6a1860e2",
			"idoPools(uint256)": "7104c9fd",
			"onlyOwnerCreate()": "6e42366b",
			"owner()": "8da5cb5b",
			"renounceOwnership()": "715018a6",
			"setBurnPercent(uint256,uint256)": "8dc12991",
			"setFeeAmount(uint256)": "6b392680",
			"setFeeToken(address)": "15cce224",
			"setFeeWallet(address)": "90d49b9d",
			"setOnlyOwnerCreate(bool)": "103a9981",
			"transferOwnership(address)": "f2fde38b",
			"version()": "54fd4d50"
		}
	},
	"abi": [
		{
			"inputs": [
				{
					"internalType": "contract ERC20Burnable",
					"name": "_feeToken",
					"type": "address"
				},
				{
					"internalType": "uint256",
					"name": "_feeAmount",
					"type": "uint256"
				},
				{
					"internalType": "uint256",
					"name": "_burnPercent",
					"type": "uint256"
				}
			],
			"stateMutability": "nonpayable",
			"type": "constructor"
		},
		{
			"anonymous": false,
			"inputs": [
				{
					"indexed": false,
					"internalType": "uint256",
					"name": "newBurnPercent",
					"type": "uint256"
				},
				{
					"indexed": false,
					"internalType": "uint256",
					"name": "divider",
					"type": "uint256"
				}
			],
			"name": "BurnPercentUpdated",
			"type": "event"
		},
		{
			"anonymous": false,
			"inputs": [
				{
					"indexed": false,
					"internalType": "uint256",
					"name": "newFeeAmount",
					"type": "uint256"
				}
			],
			"name": "FeeAmountUpdated",
			"type": "event"
		},
		{
			"anonymous": false,
			"inputs": [
				{
					"indexed": false,
					"internalType": "address",
					"name": "newFeeWallet",
					"type": "address"
				}
			],
			"name": "FeeWalletUpdated",
			"type": "event"
		},
		{
			"anonymous": false,
			"inputs": [
				{
					"indexed": true,
					"internalType": "address",
					"name": "owner",
					"type": "address"
				},
				{
					"indexed": false,
					"internalType": "address",
					"name": "idoPool",
					"type": "address"
				},
				{
					"indexed": true,
					"internalType": "address",
					"name": "rewardToken",
					"type": "address"
				},
				{
					"indexed": false,
					"internalType": "string",
					"name": "tokenURI",
					"type": "string"
				}
			],
			"name": "IDOCreated",
			"type": "event"
		},
		{
			"anonymous": false,
			"inputs": [
				{
					"indexed": true,
					"internalType": "address",
					"name": "previousOwner",
					"type": "address"
				},
				{
					"indexed": true,
					"internalType": "address",
					"name": "newOwner",
					"type": "address"
				}
			],
			"name": "OwnershipTransferred",
			"type": "event"
		},
		{
			"anonymous": false,
			"inputs": [
				{
					"indexed": false,
					"internalType": "address",
					"name": "newFeeToken",
					"type": "address"
				}
			],
			"name": "TokenFeeUpdated",
			"type": "event"
		},
		{
			"inputs": [],
			"name": "burnPercent",
			"outputs": [
				{
					"internalType": "uint256",
					"name": "",
					"type": "uint256"
				}
			],
			"stateMutability": "view",
			"type": "function"
		},
		{
			"inputs": [
				{
					"internalType": "contract ERC20",
					"name": "_rewardToken",
					"type": "address"
				},
				{
					"components": [
						{
							"internalType": "uint256",
							"name": "tokenPrice",
							"type": "uint256"
						},
						{
							"internalType": "uint256",
							"name": "softCap",
							"type": "uint256"
						},
						{
							"internalType": "uint256",
							"name": "hardCap",
							"type": "uint256"
						},
						{
							"internalType": "uint256",
							"name": "minEthPayment",
							"type": "uint256"
						},
						{
							"internalType": "uint256",
							"name": "maxEthPayment",
							"type": "uint256"
						},
						{
							"internalType": "uint256",
							"name": "listingPrice",
							"type": "uint256"
						},
						{
							"internalType": "uint256",
							"name": "lpInterestRate",
							"type": "uint256"
						}
					],
					"internalType": "struct IDOPool.FinInfo",
					"name": "_finInfo",
					"type": "tuple"
				},
				{
					"components": [
						{
							"internalType": "uint256",
							"name": "startTimestamp",
							"type": "uint256"
						},
						{
							"internalType": "uint256",
							"name": "endTimestamp",
							"type": "uint256"
						},
						{
							"internalType": "uint256",
							"name": "unlockTimestamp",
							"type": "uint256"
						}
					],
					"internalType": "struct IDOPool.Timestamps",
					"name": "_timestamps",
					"type": "tuple"
				},
				{
					"components": [
						{
							"internalType": "address",
							"name": "router",
							"type": "address"
						},
						{
							"internalType": "address",
							"name": "factory",
							"type": "address"
						},
						{
							"internalType": "address",
							"name": "weth",
							"type": "address"
						}
					],
					"internalType": "struct IDOPool.DEXInfo",
					"name": "_dexInfo",
					"type": "tuple"
				},
				{
					"internalType": "address",
					"name": "_lockerFactoryAddress",
					"type": "address"
				},
				{
					"internalType": "string",
					"name": "_metadataURL",
					"type": "string"
				}
			],
			"name": "createIDO",
			"outputs": [],
			"stateMutability": "nonpayable",
			"type": "function"
		},
		{
			"inputs": [
				{
					"internalType": "contract ERC20",
					"name": "_rewardToken",
					"type": "address"
				},
				{
					"internalType": "contract ERC20",
					"name": "_payToken",
					"type": "address"
				},
				{
					"components": [
						{
							"internalType": "uint256",
							"name": "tokenPrice",
							"type": "uint256"
						},
						{
							"internalType": "uint256",
							"name": "softCap",
							"type": "uint256"
						},
						{
							"internalType": "uint256",
							"name": "hardCap",
							"type": "uint256"
						},
						{
							"internalType": "uint256",
							"name": "minPayment",
							"type": "uint256"
						},
						{
							"internalType": "uint256",
							"name": "maxPayment",
							"type": "uint256"
						},
						{
							"internalType": "uint256",
							"name": "listingPrice",
							"type": "uint256"
						},
						{
							"internalType": "uint256",
							"name": "lpInterestRate",
							"type": "uint256"
						}
					],
					"internalType": "struct IDOERC20Pool.FinInfo",
					"name": "_finInfo",
					"type": "tuple"
				},
				{
					"components": [
						{
							"internalType": "uint256",
							"name": "startTimestamp",
							"type": "uint256"
						},
						{
							"internalType": "uint256",
							"name": "endTimestamp",
							"type": "uint256"
						},
						{
							"internalType": "uint256",
							"name": "unlockTimestamp",
							"type": "uint256"
						}
					],
					"internalType": "struct IDOERC20Pool.Timestamps",
					"name": "_timestamps",
					"type": "tuple"
				},
				{
					"internalType": "string",
					"name": "_metadataURL",
					"type": "string"
				}
			],
			"name": "createIDOERC20",
			"outputs": [],
			"stateMutability": "nonpayable",
			"type": "function"
		},
		{
			"inputs": [],
			"name": "divider",
			"outputs": [
				{
					"internalType": "uint256",
					"name": "",
					"type": "uint256"
				}
			],
			"stateMutability": "view",
			"type": "function"
		},
		{
			"inputs": [],
			"name": "feeAmount",
			"outputs": [
				{
					"internalType": "uint256",
					"name": "",
					"type": "uint256"
				}
			],
			"stateMutability": "view",
			"type": "function"
		},
		{
			"inputs": [],
			"name": "feeToken",
			"outputs": [
				{
					"internalType": "contract ERC20Burnable",
					"name": "",
					"type": "address"
				}
			],
			"stateMutability": "view",
			"type": "function"
		},
		{
			"inputs": [],
			"name": "feeWallet",
			"outputs": [
				{
					"internalType": "address",
					"name": "",
					"type": "address"
				}
			],
			"stateMutability": "view",
			"type": "function"
		},
		{
			"inputs": [],
			"name": "getIdoPools",
			"outputs": [
				{
					"internalType": "address[]",
					"name": "",
					"type": "address[]"
				}
			],
			"stateMutability": "view",
			"type": "function"
		},
		{
			"inputs": [
				{
					"internalType": "uint256",
					"name": "",
					"type": "uint256"
				}
			],
			"name": "idoPools",
			"outputs": [
				{
					"internalType": "address",
					"name": "",
					"type": "address"
				}
			],
			"stateMutability": "view",
			"type": "function"
		},
		{
			"inputs": [],
			"name": "onlyOwnerCreate",
			"outputs": [
				{
					"internalType": "bool",
					"name": "",
					"type": "bool"
				}
			],
			"stateMutability": "view",
			"type": "function"
		},
		{
			"inputs": [],
			"name": "owner",
			"outputs": [
				{
					"internalType": "address",
					"name": "",
					"type": "address"
				}
			],
			"stateMutability": "view",
			"type": "function"
		},
		{
			"inputs": [],
			"name": "renounceOwnership",
			"outputs": [],
			"stateMutability": "nonpayable",
			"type": "function"
		},
		{
			"inputs": [
				{
					"internalType": "uint256",
					"name": "_newBurnPercent",
					"type": "uint256"
				},
				{
					"internalType": "uint256",
					"name": "_newDivider",
					"type": "uint256"
				}
			],
			"name": "setBurnPercent",
			"outputs": [],
			"stateMutability": "nonpayable",
			"type": "function"
		},
		{
			"inputs": [
				{
					"internalType": "uint256",
					"name": "_newFeeAmount",
					"type": "uint256"
				}
			],
			"name": "setFeeAmount",
			"outputs": [],
			"stateMutability": "nonpayable",
			"type": "function"
		},
		{
			"inputs": [
				{
					"internalType": "address",
					"name": "_newFeeToken",
					"type": "address"
				}
			],
			"name": "setFeeToken",
			"outputs": [],
			"stateMutability": "nonpayable",
			"type": "function"
		},
		{
			"inputs": [
				{
					"internalType": "address",
					"name": "_newFeeWallet",
					"type": "address"
				}
			],
			"name": "setFeeWallet",
			"outputs": [],
			"stateMutability": "nonpayable",
			"type": "function"
		},
		{
			"inputs": [
				{
					"internalType": "bool",
					"name": "_onlyOwnerCreate",
					"type": "bool"
				}
			],
			"name": "setOnlyOwnerCreate",
			"outputs": [],
			"stateMutability": "nonpayable",
			"type": "function"
		},
		{
			"inputs": [
				{
					"internalType": "address",
					"name": "newOwner",
					"type": "address"
				}
			],
			"name": "transferOwnership",
			"outputs": [],
			"stateMutability": "nonpayable",
			"type": "function"
		},
		{
			"inputs": [],
			"name": "version",
			"outputs": [
				{
					"internalType": "uint256",
					"name": "",
					"type": "uint256"
				}
			],
			"stateMutability": "view",
			"type": "function"
		}
	]
}