{
  "contractName": "IDOFactory",
  "abi": [
    {
      "inputs": [
        {
          "internalType": "contract ERC20Burnable",
          "name": "_feeToken",
          "type": "address"
        },
        {
          "internalType": "uint256",
          "name": "_feeAmount",
          "type": "uint256"
        },
        {
          "internalType": "uint256",
          "name": "_burnPercent",
          "type": "uint256"
        }
      ],
      "stateMutability": "nonpayable",
      "type": "constructor"
    },
    {
      "anonymous": false,
      "inputs": [
        {
          "indexed": false,
          "internalType": "uint256",
          "name": "newBurnPercent",
          "type": "uint256"
        },
        {
          "indexed": false,
          "internalType": "uint256",
          "name": "divider",
          "type": "uint256"
        }
      ],
      "name": "BurnPercentUpdated",
      "type": "event"
    },
    {
      "anonymous": false,
      "inputs": [
        {
          "indexed": false,
          "internalType": "uint256",
          "name": "newFeeAmount",
          "type": "uint256"
        }
      ],
      "name": "FeeAmountUpdated",
      "type": "event"
    },
    {
      "anonymous": false,
      "inputs": [
        {
          "indexed": false,
          "internalType": "address",
          "name": "newFeeWallet",
          "type": "address"
        }
      ],
      "name": "FeeWalletUpdated",
      "type": "event"
    },
    {
      "anonymous": false,
      "inputs": [
        {
          "indexed": true,
          "internalType": "address",
          "name": "owner",
          "type": "address"
        },
        {
          "indexed": false,
          "internalType": "address",
          "name": "idoPool",
          "type": "address"
        },
        {
          "indexed": true,
          "internalType": "address",
          "name": "rewardToken",
          "type": "address"
        },
        {
          "indexed": false,
          "internalType": "string",
          "name": "tokenURI",
          "type": "string"
        }
      ],
      "name": "IDOCreated",
      "type": "event"
    },
    {
      "anonymous": false,
      "inputs": [
        {
          "indexed": true,
          "internalType": "address",
          "name": "previousOwner",
          "type": "address"
        },
        {
          "indexed": true,
          "internalType": "address",
          "name": "newOwner",
          "type": "address"
        }
      ],
      "name": "OwnershipTransferred",
      "type": "event"
    },
    {
      "anonymous": false,
      "inputs": [
        {
          "indexed": false,
          "internalType": "address",
          "name": "newFeeToken",
          "type": "address"
        }
      ],
      "name": "TokenFeeUpdated",
      "type": "event"
    },
    {
      "inputs": [],
      "name": "burnPercent",
      "outputs": [
        {
          "internalType": "uint256",
          "name": "",
          "type": "uint256"
        }
      ],
      "stateMutability": "view",
      "type": "function"
    },
    {
      "inputs": [],
      "name": "divider",
      "outputs": [
        {
          "internalType": "uint256",
          "name": "",
          "type": "uint256"
        }
      ],
      "stateMutability": "view",
      "type": "function"
    },
    {
      "inputs": [],
      "name": "feeAmount",
      "outputs": [
        {
          "internalType": "uint256",
          "name": "",
          "type": "uint256"
        }
      ],
      "stateMutability": "view",
      "type": "function"
    },
    {
      "inputs": [],
      "name": "feeToken",
      "outputs": [
        {
          "internalType": "contract ERC20Burnable",
          "name": "",
          "type": "address"
        }
      ],
      "stateMutability": "view",
      "type": "function"
    },
    {
      "inputs": [],
      "name": "feeWallet",
      "outputs": [
        {
          "internalType": "address",
          "name": "",
          "type": "address"
        }
      ],
      "stateMutability": "view",
      "type": "function"
    },
    {
      "inputs": [
        {
          "internalType": "uint256",
          "name": "",
          "type": "uint256"
        }
      ],
      "name": "idoPools",
      "outputs": [
        {
          "internalType": "address",
          "name": "",
          "type": "address"
        }
      ],
      "stateMutability": "view",
      "type": "function"
    },
    {
      "inputs": [],
      "name": "owner",
      "outputs": [
        {
          "internalType": "address",
          "name": "",
          "type": "address"
        }
      ],
      "stateMutability": "view",
      "type": "function"
    },
    {
      "inputs": [],
      "name": "renounceOwnership",
      "outputs": [],
      "stateMutability": "nonpayable",
      "type": "function"
    },
    {
      "inputs": [
        {
          "internalType": "address",
          "name": "newOwner",
          "type": "address"
        }
      ],
      "name": "transferOwnership",
      "outputs": [],
      "stateMutability": "nonpayable",
      "type": "function"
    },
    {
      "inputs": [],
      "name": "getIdoPools",
      "outputs": [
        {
          "internalType": "address[]",
          "name": "",
          "type": "address[]"
        }
      ],
      "stateMutability": "view",
      "type": "function"
    },
    {
      "inputs": [
        {
          "internalType": "address",
          "name": "_newFeeToken",
          "type": "address"
        }
      ],
      "name": "setFeeToken",
      "outputs": [],
      "stateMutability": "nonpayable",
      "type": "function"
    },
    {
      "inputs": [
        {
          "internalType": "uint256",
          "name": "_newFeeAmount",
          "type": "uint256"
        }
      ],
      "name": "setFeeAmount",
      "outputs": [],
      "stateMutability": "nonpayable",
      "type": "function"
    },
    {
      "inputs": [
        {
          "internalType": "address",
          "name": "_newFeeWallet",
          "type": "address"
        }
      ],
      "name": "setFeeWallet",
      "outputs": [],
      "stateMutability": "nonpayable",
      "type": "function"
    },
    {
      "inputs": [
        {
          "internalType": "uint256",
          "name": "_newBurnPercent",
          "type": "uint256"
        },
        {
          "internalType": "uint256",
          "name": "_newDivider",
          "type": "uint256"
        }
      ],
      "name": "setBurnPercent",
      "outputs": [],
      "stateMutability": "nonpayable",
      "type": "function"
    },
    {
      "inputs": [
        {
          "internalType": "contract ERC20",
          "name": "_rewardToken",
          "type": "address"
        },
        {
          "components": [
            {
              "internalType": "uint256",
              "name": "tokenPrice",
              "type": "uint256"
            },
            {
              "internalType": "uint256",
              "name": "softCap",
              "type": "uint256"
            },
            {
              "internalType": "uint256",
              "name": "hardCap",
              "type": "uint256"
            },
            {
              "internalType": "uint256",
              "name": "minEthPayment",
              "type": "uint256"
            },
            {
              "internalType": "uint256",
              "name": "maxEthPayment",
              "type": "uint256"
            },
            {
              "internalType": "uint256",
              "name": "listingPrice",
              "type": "uint256"
            },
            {
              "internalType": "uint256",
              "name": "lpInterestRate",
              "type": "uint256"
            }
          ],
          "internalType": "struct IDOPool.FinInfo",
          "name": "_finInfo",
          "type": "tuple"
        },
        {
          "components": [
            {
              "internalType": "uint256",
              "name": "startTimestamp",
              "type": "uint256"
            },
            {
              "internalType": "uint256",
              "name": "endTimestamp",
              "type": "uint256"
            },
            {
              "internalType": "uint256",
              "name": "unlockTimestamp",
              "type": "uint256"
            }
          ],
          "internalType": "struct IDOPool.Timestamps",
          "name": "_timestamps",
          "type": "tuple"
        },
        {
          "components": [
            {
              "internalType": "address",
              "name": "router",
              "type": "address"
            },
            {
              "internalType": "address",
              "name": "factory",
              "type": "address"
            },
            {
              "internalType": "address",
              "name": "weth",
              "type": "address"
            }
          ],
          "internalType": "struct IDOPool.DEXInfo",
          "name": "_dexInfo",
          "type": "tuple"
        },
        {
          "internalType": "address",
          "name": "_lockerFactoryAddress",
          "type": "address"
        },
        {
          "internalType": "string",
          "name": "_metadataURL",
          "type": "string"
        }
      ],
      "name": "createIDO",
      "outputs": [],
      "stateMutability": "nonpayable",
      "type": "function"
    }
  ],
  "bytecode": "0x608060405234801561001057600080fd5b506040516200484b3803806200484b833981016040819052610031916100bb565b61003a3361006b565b600180546001600160a01b0319166001600160a01b03949094169390931790925560035560045560646005556100fe565b600080546001600160a01b038381166001600160a01b0319831681178455604051919092169283917f8be0079c531659141344cd1fd0a4f28419497f9722a3daafe3b4186f6b6457e09190a35050565b6000806000606084860312156100d057600080fd5b83516001600160a01b03811681146100e757600080fd5b602085015160409095015190969495509392505050565b61473d806200010e6000396000f3fe60806040523480156200001157600080fd5b5060043610620001095760003560e01c80636b39268011620000a35780638dc12991116200006e5780638dc12991146200022657806390d49b9d146200023d578063f25f4b561462000254578063f2fde38b146200027557600080fd5b80636b39268014620001cf5780637104c9fd14620001e6578063715018a614620001fd5780638da5cb5b146200020757600080fd5b8063378efa3711620000e4578063378efa37146200015b578063647846a5146200016557806369e1540414620001ac5780636a1860e214620001b657600080fd5b806303807ee5146200010e57806315cce224146200012b57806337491a911462000144575b600080fd5b6200011860045481565b6040519081526020015b60405180910390f35b620001426200013c36600462000f6c565b6200028c565b005b620001426200015536600462001162565b62000384565b6200011860055481565b600154620001869073ffffffffffffffffffffffffffffffffffffffff1681565b60405173ffffffffffffffffffffffffffffffffffffffff909116815260200162000122565b6200011860035481565b620001c06200077a565b6040516200012291906200127c565b62000142620001e0366004620012d8565b620007eb565b62000186620001f7366004620012d8565b6200082b565b6200014262000863565b60005473ffffffffffffffffffffffffffffffffffffffff1662000186565b6200014262000237366004620012f2565b6200087b565b620001426200024e36600462000f6c565b6200095e565b600254620001869073ffffffffffffffffffffffffffffffffffffffff1681565b620001426200028636600462000f6c565b620009dc565b6200029662000a99565b803b63ffffffff166200030a576040517f08c379a000000000000000000000000000000000000000000000000000000000815260206004820152601a60248201527f4e65772061646472657373206973206e6f74206120746f6b656e00000000000060448201526064015b60405180910390fd5b600180547fffffffffffffffffffffffff00000000000000000000000000000000000000001673ffffffffffffffffffffffffffffffffffffffff83169081179091556040519081527f9e892f555b0a5cac6c8cc33c82ebb9308207bd16dfdca9d0289b96d7e4186c8a906020015b60405180910390a150565b60008686868686866040516200039a9062000f29565b620003ab9695949392919062001387565b604051809103906000f080158015620003c8573d6000803e3d6000fd5b50905060008773ffffffffffffffffffffffffffffffffffffffff1663313ce5676040518163ffffffff1660e01b8152600401602060405180830381865afa15801562000419573d6000803e3d6000fd5b505050506040513d601f19601f820116820180604052508101906200043f919062001483565b9050600062000458886040015189600001518462000b1c565b905060008860c0015111801562000473575060008860a00151115b15620004bc57620004ad60648960c001518a60400151620004959190620014d7565b620004a19190620014f1565b8960a001518462000b1c565b620004b990826200152d565b90505b6040517ff2fde38b00000000000000000000000000000000000000000000000000000000815233600482015273ffffffffffffffffffffffffffffffffffffffff84169063f2fde38b90602401600060405180830381600087803b1580156200052457600080fd5b505af115801562000539573d6000803e3d6000fd5b50620005629250505073ffffffffffffffffffffffffffffffffffffffff8a1633858462000b4b565b600680546001810182556000919091527ff652222313e28459528d920b65115c16c04f3efc82aaedc97be59f3f377c0d3f0180547fffffffffffffffffffffffff00000000000000000000000000000000000000001673ffffffffffffffffffffffffffffffffffffffff85811691909117909155604051908a169033907ff71c11ab5bd622b01d634c5c9e59846d77ee252871f11645b7b8376ddd4dd3e29062000611908790899062001543565b60405180910390a3600354156200076f57600454156200073c576000620006546005546200064d60045460035462000be890919063ffffffff16565b9062000bff565b600254600354919250620006a991339173ffffffffffffffffffffffffffffffffffffffff169062000687908562000c0d565b60015473ffffffffffffffffffffffffffffffffffffffff1692919062000b4b565b6001546040517f79cc67900000000000000000000000000000000000000000000000000000000081523360048201526024810183905273ffffffffffffffffffffffffffffffffffffffff909116906379cc679090604401600060405180830381600087803b1580156200071c57600080fd5b505af115801562000731573d6000803e3d6000fd5b50505050506200076f565b6002546003546001546200076f9273ffffffffffffffffffffffffffffffffffffffff9182169233929091169062000b4b565b505050505050505050565b60606006805480602002602001604051908101604052809291908181526020018280548015620007e157602002820191906000526020600020905b815473ffffffffffffffffffffffffffffffffffffffff168152600190910190602001808311620007b5575b5050505050905090565b620007f562000a99565b60038190556040518181527fbb128cd9921d003aff00ed910fe24b1655b2bf1f4a2090cc3523f61bdc1723169060200162000379565b600681815481106200083c57600080fd5b60009182526020909120015473ffffffffffffffffffffffffffffffffffffffff16905081565b6200086d62000a99565b62000879600062000c1b565b565b6200088562000a99565b8082111562000917576040517f08c379a000000000000000000000000000000000000000000000000000000000815260206004820152602660248201527f4275726e2070657263656e74206d757374206265206c657373207468616e206460448201527f6976696465720000000000000000000000000000000000000000000000000000606482015260840162000301565b6004829055600581905560408051838152602081018390527fb62d69c6ddf4f4bd443dca17ea7405d8018efb872e82e77bb8ef13b5be2f2e9c910160405180910390a15050565b6200096862000a99565b600280547fffffffffffffffffffffffff00000000000000000000000000000000000000001673ffffffffffffffffffffffffffffffffffffffff83169081179091556040519081527f29acee77dafcfa0143d74a7ea236018f3a6e1fa71e27fc59bbfbc6b8ca8edccd9060200162000379565b620009e662000a99565b73ffffffffffffffffffffffffffffffffffffffff811662000a8b576040517f08c379a000000000000000000000000000000000000000000000000000000000815260206004820152602660248201527f4f776e61626c653a206e6577206f776e657220697320746865207a65726f206160448201527f6464726573730000000000000000000000000000000000000000000000000000606482015260840162000301565b62000a968162000c1b565b50565b60005473ffffffffffffffffffffffffffffffffffffffff16331462000879576040517f08c379a000000000000000000000000000000000000000000000000000000000815260206004820181905260248201527f4f776e61626c653a2063616c6c6572206973206e6f7420746865206f776e6572604482015260640162000301565b600062000b2b82600a620016ad565b62000b378486620014f1565b62000b439190620014d7565b949350505050565b6040805173ffffffffffffffffffffffffffffffffffffffff85811660248301528416604482015260648082018490528251808303909101815260849091019091526020810180517bffffffffffffffffffffffffffffffffffffffffffffffffffffffff167f23b872dd0000000000000000000000000000000000000000000000000000000017905262000be290859062000c90565b50505050565b600062000bf68284620014d7565b90505b92915050565b600062000bf68284620014f1565b600062000bf68284620016be565b6000805473ffffffffffffffffffffffffffffffffffffffff8381167fffffffffffffffffffffffff0000000000000000000000000000000000000000831681178455604051919092169283917f8be0079c531659141344cd1fd0a4f28419497f9722a3daafe3b4186f6b6457e09190a35050565b600062000cf4826040518060400160405280602081526020017f5361666545524332303a206c6f772d6c6576656c2063616c6c206661696c65648152508573ffffffffffffffffffffffffffffffffffffffff1662000da89092919063ffffffff16565b80519091501562000da3578080602001905181019062000d159190620016d4565b62000da3576040517f08c379a000000000000000000000000000000000000000000000000000000000815260206004820152602a60248201527f5361666545524332303a204552433230206f7065726174696f6e20646964206e60448201527f6f74207375636365656400000000000000000000000000000000000000000000606482015260840162000301565b505050565b606062000b438484600085856000808673ffffffffffffffffffffffffffffffffffffffff16858760405162000ddf9190620016f8565b60006040518083038185875af1925050503d806000811462000e1e576040519150601f19603f3d011682016040523d82523d6000602084013e62000e23565b606091505b509150915062000e368783838762000e41565b979650505050505050565b6060831562000edc57825160000362000ed45773ffffffffffffffffffffffffffffffffffffffff85163b62000ed4576040517f08c379a000000000000000000000000000000000000000000000000000000000815260206004820152601d60248201527f416464726573733a2063616c6c20746f206e6f6e2d636f6e7472616374000000604482015260640162000301565b508162000b43565b62000b43838381511562000ef35781518083602001fd5b806040517f08c379a000000000000000000000000000000000000000000000000000000000815260040162000301919062001716565b612fdc806200172c83390190565b73ffffffffffffffffffffffffffffffffffffffff8116811462000a9657600080fd5b803562000f678162000f37565b919050565b60006020828403121562000f7f57600080fd5b813562000f8c8162000f37565b9392505050565b7f4e487b7100000000000000000000000000000000000000000000000000000000600052604160045260246000fd5b6040516060810167ffffffffffffffff8111828210171562000fe85762000fe862000f93565b60405290565b60405160e0810167ffffffffffffffff8111828210171562000fe85762000fe862000f93565b6000606082840312156200102757600080fd5b6200103162000fc2565b905081358152602082013560208201526040820135604082015292915050565b6000606082840312156200106457600080fd5b6200106e62000fc2565b905081356200107d8162000f37565b815260208201356200108f8162000f37565b60208201526040820135620010a48162000f37565b604082015292915050565b600082601f830112620010c157600080fd5b813567ffffffffffffffff80821115620010df57620010df62000f93565b604051601f83017fffffffffffffffffffffffffffffffffffffffffffffffffffffffffffffffe0908116603f0116810190828211818310171562001128576200112862000f93565b816040528381528660208588010111156200114257600080fd5b836020870160208301376000602085830101528094505050505092915050565b6000806000806000808688036102008112156200117e57600080fd5b87356200118b8162000f37565b965060e07fffffffffffffffffffffffffffffffffffffffffffffffffffffffffffffffe082011215620011be57600080fd5b50620011c962000fee565b6020880135815260408801356020820152606088013560408201526080880135606082015260a0880135608082015260c088013560a082015260e088013560c0820152809550506200122088610100890162001014565b93506200123288610160890162001051565b9250620012436101c0880162000f5a565b91506101e087013567ffffffffffffffff8111156200126157600080fd5b6200126f89828a01620010af565b9150509295509295509295565b6020808252825182820181905260009190848201906040850190845b81811015620012cc57835173ffffffffffffffffffffffffffffffffffffffff168352928401929184019160010162001298565b50909695505050505050565b600060208284031215620012eb57600080fd5b5035919050565b600080604083850312156200130657600080fd5b50508035926020909101359150565b60005b838110156200133257818101518382015260200162001318565b50506000910152565b600081518084526200135581602086016020860162001315565b601f017fffffffffffffffffffffffffffffffffffffffffffffffffffffffffffffffe0169290920160200192915050565b600061020073ffffffffffffffffffffffffffffffffffffffff8916835287516020840152602088015160408401526040880151606084015260608801516080840152608088015160a084015260a088015160c084015260c088015160e08401526200140b6101008401888051825260208082015190830152604090810151910152565b855173ffffffffffffffffffffffffffffffffffffffff908116610160850152602087015181166101808501526040870151166101a084015273ffffffffffffffffffffffffffffffffffffffff85166101c0840152806101e084015262001476818401856200133b565b9998505050505050505050565b6000602082840312156200149657600080fd5b815160ff8116811462000f8c57600080fd5b7f4e487b7100000000000000000000000000000000000000000000000000000000600052601160045260246000fd5b808202811582820484141762000bf95762000bf9620014a8565b60008262001528577f4e487b7100000000000000000000000000000000000000000000000000000000600052601260045260246000fd5b500490565b8082018082111562000bf95762000bf9620014a8565b73ffffffffffffffffffffffffffffffffffffffff8316815260406020820152600062000b4360408301846200133b565b600181815b80851115620015d357817fffffffffffffffffffffffffffffffffffffffffffffffffffffffffffffffff04821115620015b757620015b7620014a8565b80851615620015c557918102915b93841c939080029062001579565b509250929050565b600082620015ec5750600162000bf9565b81620015fb5750600062000bf9565b81600181146200161457600281146200161f576200163f565b600191505062000bf9565b60ff841115620016335762001633620014a8565b50506001821b62000bf9565b5060208310610133831016604e8410600b841016171562001664575081810a62000bf9565b62001670838362001574565b807fffffffffffffffffffffffffffffffffffffffffffffffffffffffffffffffff04821115620016a557620016a5620014a8565b029392505050565b600062000bf660ff841683620015db565b8181038181111562000bf95762000bf9620014a8565b600060208284031215620016e757600080fd5b8151801515811462000f8c57600080fd5b600082516200170c81846020870162001315565b9190910192915050565b60208152600062000bf660208301846200133b56fe60806040526016805460ff191690553480156200001b57600080fd5b5060405162002fdc38038062002fdc8339810160408190526200003e91620004d4565b62000049336200018d565b60018055600280546001600160a01b0319166001600160a01b0388169081179091556040805163313ce56760e01b8152905163313ce567916004808201926020929091908290030181865afa158015620000a7573d6000803e3d6000fd5b505050506040513d601f19601f82011682018060405250810190620000cd9190620005d0565b60ff16600355601280546001600160a01b0319166001600160a01b0384161790558451600555602085015160065560408501516007556060850151600855608085015160095560a0850151600a5560c0850151600b556200012e84620001dd565b8251600f80546001600160a01b039283166001600160a01b0319918216179091556020850151601080549184169183169190911790556040850151601180549190931691161790556200018181620002d6565b50505050505062000757565b600080546001600160a01b038381166001600160a01b0319831681178455604051919092169283917f8be0079c531659141344cd1fd0a4f28419497f9722a3daafe3b4186f6b6457e09190a35050565b6020810151815110620002525760405162461bcd60e51b815260206004820152603260248201527f53746172742074696d657374616d70206d757374206265206c6573732074686160448201527106e2066696e6973682074696d657374616d760741b60648201526084015b60405180910390fd5b42816020015111620002c05760405162461bcd60e51b815260206004820152603060248201527f46696e6973682074696d657374616d70206d757374206265206d6f726520746860448201526f616e2063757272656e7420626c6f636b60801b606482015260840162000249565b8051600c556020810151600d5560400151600e55565b6004620002e482826200068b565b5050565b6001600160a01b0381168114620002fe57600080fd5b50565b634e487b7160e01b600052604160045260246000fd5b604051606081016001600160401b03811182821017156200033c576200033c62000301565b60405290565b60405160e081016001600160401b03811182821017156200033c576200033c62000301565b604051601f8201601f191681016001600160401b038111828210171562000392576200039262000301565b604052919050565b600060608284031215620003ad57600080fd5b620003b762000317565b905081518152602082015160208201526040820151604082015292915050565b8051620003e481620002e8565b919050565b600060608284031215620003fc57600080fd5b6200040662000317565b905081516200041581620002e8565b815260208201516200042781620002e8565b602082015260408201516200043c81620002e8565b604082015292915050565b600082601f8301126200045957600080fd5b81516001600160401b0381111562000475576200047562000301565b60206200048b601f8301601f1916820162000367565b8281528582848701011115620004a057600080fd5b60005b83811015620004c0578581018301518282018401528201620004a3565b506000928101909101919091529392505050565b600080600080600080868803610200811215620004f057600080fd5b8751620004fd81620002e8565b965060e0601f19820112156200051257600080fd5b506200051d62000342565b6020880151815260408801516020820152606088015160408201526080880151606082015260a0880151608082015260c088015160a082015260e088015160c082015280955050620005748861010089016200039a565b935062000586886101608901620003e9565b9250620005976101c08801620003d7565b6101e08801519092506001600160401b03811115620005b557600080fd5b620005c389828a0162000447565b9150509295509295509295565b600060208284031215620005e357600080fd5b815160ff81168114620005f557600080fd5b9392505050565b600181811c908216806200061157607f821691505b6020821081036200063257634e487b7160e01b600052602260045260246000fd5b50919050565b601f8211156200068657600081815260208120601f850160051c81016020861015620006615750805b601f850160051c820191505b8181101562000682578281556001016200066d565b5050505b505050565b81516001600160401b03811115620006a757620006a762000301565b620006bf81620006b88454620005fc565b8462000638565b602080601f831160018114620006f75760008415620006de5750858301515b600019600386901b1c1916600185901b17855562000682565b600085815260208120601f198616915b82811015620007285788860151825594840194600190910190840162000707565b5085821015620007475787850151600019600388901b60f8161c191681555b5050505050600190811b01905550565b61287580620007676000396000f3fe6080604052600436106101965760003560e01c806362bea93f116100e1578063d8d2a56d1161008a578063f2fde38b11610064578063f2fde38b146104ca578063f7c618c1146104ea578063f84b903e14610517578063fd46a1711461054157600080fd5b8063d8d2a56d14610431578063ddeae033146104a2578063e086e5ec146104c257600080fd5b8063747daec5116100bb578063747daec5146103d15780638da5cb5b146103f1578063c6a0e27d1461041c57600080fd5b806362bea93f1461039257806371007509146103a7578063715018a6146103bc57600080fd5b80633f138d4b116101435780634e71d92d1161011d5780634e71d92d14610352578063586360ce14610367578063590e1ae31461037d57600080fd5b80633f138d4b146102fd578063491447a81461031d5780634b1a4c0c1461033c57600080fd5b80632a123b16116101745780632a123b16146102655780632dcc8c66146102b7578063313ce567146102d957600080fd5b806312d3675e1461019b5780631959a002146102045780631b9265b81461025b575b600080fd5b3480156101a757600080fd5b50600554600654600754600854600954600a54600b546101ca9695949392919087565b604080519788526020880196909652948601939093526060850191909152608084015260a083015260c082015260e0015b60405180910390f35b34801561021057600080fd5b5061024061021f3660046120f6565b60176020526000908152604090208054600182015460029092015490919083565b604080519384526020840192909252908201526060016101fb565b610263610557565b005b34801561027157600080fd5b506012546102929073ffffffffffffffffffffffffffffffffffffffff1681565b60405173ffffffffffffffffffffffffffffffffffffffff90911681526020016101fb565b3480156102c357600080fd5b506102cc6108b5565b6040516101fb9190612188565b3480156102e557600080fd5b506102ef60035481565b6040519081526020016101fb565b34801561030957600080fd5b5061026361031836600461219b565b610943565b34801561032957600080fd5b50600c54600d54600e5461024092919083565b34801561034857600080fd5b506102ef60145481565b34801561035e57600080fd5b50610263610998565b34801561037357600080fd5b506102ef60155481565b34801561038957600080fd5b506102636109a3565b34801561039e57600080fd5b506102ef610bbd565b3480156103b357600080fd5b50610263610c7d565b3480156103c857600080fd5b50610263610ea9565b3480156103dd57600080fd5b506102636103ec36600461228b565b610ebb565b3480156103fd57600080fd5b5060005473ffffffffffffffffffffffffffffffffffffffff16610292565b34801561042857600080fd5b50610263610ec7565b34801561043d57600080fd5b50600f5460105460115461046b9273ffffffffffffffffffffffffffffffffffffffff908116928116911683565b6040805173ffffffffffffffffffffffffffffffffffffffff948516815292841660208401529216918101919091526060016101fb565b3480156104ae57600080fd5b506102636104bd3660046120f6565b610ffd565b610263611006565b3480156104d657600080fd5b506102636104e53660046120f6565b6118a2565b3480156104f657600080fd5b506002546102929073ffffffffffffffffffffffffffffffffffffffff1681565b34801561052357600080fd5b506016546105319060ff1681565b60405190151581526020016101fb565b34801561054d57600080fd5b506102ef60135481565b600c544210156105c8576040517f08c379a000000000000000000000000000000000000000000000000000000000815260206004820152600b60248201527f4e6f74207374617274656400000000000000000000000000000000000000000060448201526064015b60405180910390fd5b600d544210610633576040517f08c379a000000000000000000000000000000000000000000000000000000000815260206004820152600560248201527f456e64656400000000000000000000000000000000000000000000000000000060448201526064016105bf565b60085434101561069f576040517f08c379a000000000000000000000000000000000000000000000000000000000815260206004820152601460248201527f4c657373207468656e206d696e20616d6f756e7400000000000000000000000060448201526064016105bf565b60095434111561070b576040517f08c379a000000000000000000000000000000000000000000000000000000000815260206004820152601460248201527f4d6f7265207468656e206d617820616d6f756e7400000000000000000000000060448201526064016105bf565b60075460135461071b9034611956565b1115610783576040517f08c379a000000000000000000000000000000000000000000000000000000000815260206004820152600a60248201527f4f76657266696c6c65640000000000000000000000000000000000000000000060448201526064016105bf565b33600090815260176020526040902060095460028201546107a49034611956565b111561080c576040517f08c379a000000000000000000000000000000000000000000000000000000000815260206004820152601460248201527f4d6f7265207468656e206d617820616d6f756e7400000000000000000000000060448201526064016105bf565b600061081d3460056000015461196b565b60135490915061082d9034611956565b60135560145461083d9082611956565b601455600282015461084f9034611956565b600283015560018201546108639082611956565b600183015581546108749082611956565b8255604080513481526020810183905233917fb55d4ca2fc644ca3f8cdc9c907826e24acd68d2b2d4d73f48b8f2378dbaedf5d910160405180910390a25050565b600480546108c29061230b565b80601f01602080910402602001604051908101604052809291908181526020018280546108ee9061230b565b801561093b5780601f106109105761010080835404028352916020019161093b565b820191906000526020600020905b81548152906001019060200180831161091e57829003601f168201915b505050505081565b61094b611990565b60025473ffffffffffffffffffffffffffffffffffffffff9081169083160361097357600080fd5b61099473ffffffffffffffffffffffffffffffffffffffff83163383611a11565b5050565b6109a133611a9e565b565b600d544211610a0e576040517f08c379a000000000000000000000000000000000000000000000000000000000815260206004820152601b60248201527f5468652049444f20706f6f6c20686173206e6f7420656e6465642e000000000060448201526064016105bf565b60065460135410610a7b576040517f08c379a000000000000000000000000000000000000000000000000000000000815260206004820181905260248201527f5468652049444f20706f6f6c2068617320726561636820736f6674206361702e60448201526064016105bf565b336000908152601760205260409020600281015480610af6576040517f08c379a000000000000000000000000000000000000000000000000000000000815260206004820152601760248201527f596f752068617665206e6f20696e766573746d656e742e00000000000000000060448201526064016105bf565b60008083556002830181905560018301819055604051339083908381818185875af1925050503d8060008114610b48576040519150601f19603f3d011682016040523d82523d6000602084013e610b4d565b606091505b5050905080610bb8576040517f08c379a000000000000000000000000000000000000000000000000000000000815260206004820152601060248201527f5472616e73666572206661696c65642e0000000000000000000000000000000060448201526064016105bf565b505050565b6002546040517f70a08231000000000000000000000000000000000000000000000000000000008152306004820152600091829173ffffffffffffffffffffffffffffffffffffffff909116906370a0823190602401602060405180830381865afa158015610c30573d6000803e3d6000fd5b505050506040513d601f19601f82011682018060405250810190610c54919061235e565b9050610c77601454610c716015548461195690919063ffffffff16565b90611cc5565b91505090565b610c85611990565b600d544211610cf0576040517f08c379a000000000000000000000000000000000000000000000000000000000815260206004820152601b60248201527f5468652049444f20706f6f6c20686173206e6f7420656e6465642e000000000060448201526064016105bf565b60065460135410610d5d576040517f08c379a000000000000000000000000000000000000000000000000000000000815260206004820181905260248201527f5468652049444f20706f6f6c2068617320726561636820736f6674206361702e60448201526064016105bf565b6002546040517f70a0823100000000000000000000000000000000000000000000000000000000815230600482015260009173ffffffffffffffffffffffffffffffffffffffff16906370a0823190602401602060405180830381865afa158015610dcc573d6000803e3d6000fd5b505050506040513d601f19601f82011682018060405250810190610df0919061235e565b905060008111610e82576040517f08c379a000000000000000000000000000000000000000000000000000000000815260206004820152602360248201527f5468652049444f20706f6f6c20686173206e6f7420726566756e6420746f6b6560448201527f6e732e000000000000000000000000000000000000000000000000000000000060648201526084016105bf565b600254610ea69073ffffffffffffffffffffffffffffffffffffffff163383611a11565b50565b610eb1611990565b6109a16000611cd1565b600461099482826123c5565b610ecf611990565b60165460ff16610f61576040517f08c379a000000000000000000000000000000000000000000000000000000000815260206004820152602360248201527f576974686472617720616c6c6f7765642061667465722064697374726962757460448201527f65642e000000000000000000000000000000000000000000000000000000000060648201526084016105bf565b6000610f6b610bbd565b905060008111610e82576040517f08c379a000000000000000000000000000000000000000000000000000000000815260206004820152602360248201527f5468652049444f20706f6f6c20686173206e6f7420756e736f6c6420746f6b6560448201527f6e732e000000000000000000000000000000000000000000000000000000000060648201526084016105bf565b610ea681611a9e565b61100e611990565b600d544211611079576040517f08c379a000000000000000000000000000000000000000000000000000000000815260206004820152601b60248201527f5468652049444f20706f6f6c20686173206e6f7420656e6465642e000000000060448201526064016105bf565b600654601354101561110c576040517f08c379a0000000000000000000000000000000000000000000000000000000008152602060048201526024808201527f5468652049444f20706f6f6c20646964206e6f7420726561636820736f66742060448201527f6361702e0000000000000000000000000000000000000000000000000000000060648201526084016105bf565b60165460ff1615611179576040517f08c379a000000000000000000000000000000000000000000000000000000000815260206004820152601460248201527f416c72656164792064697374726962757465642e00000000000000000000000060448201526064016105bf565b600b5447901580159061118d5750600a5415155b156117c05761119c348261250e565b905060006064600560060154836111b39190612521565b6111bd9190612538565b905060006111cb828461250e565b905060006111dd83600580015461196b565b600f546002546040517f095ea7b300000000000000000000000000000000000000000000000000000000815273ffffffffffffffffffffffffffffffffffffffff928316600482018190526024820185905293945091169063095ea7b3906044016020604051808303816000875af115801561125d573d6000803e3d6000fd5b505050506040513d601f19601f820116820180604052508101906112819190612573565b5060025460009073ffffffffffffffffffffffffffffffffffffffff8084169163f305d71991889116868580306112ba42610168612595565b60405160e089901b7fffffffff0000000000000000000000000000000000000000000000000000000016815273ffffffffffffffffffffffffffffffffffffffff9687166004820152602481019590955260448501939093526064840191909152909216608482015260a481019190915260c40160606040518083038185885af115801561134c573d6000803e3d6000fd5b50505050506040513d601f19601f8201168201806040525081019061137191906125a8565b6010546002546011546040517fe6a4390500000000000000000000000000000000000000000000000000000000815273ffffffffffffffffffffffffffffffffffffffff928316600482015290821660248201529295506000945016915063e6a4390590604401602060405180830381865afa1580156113f5573d6000803e3d6000fd5b505050506040513d601f19601f8201168201806040525081019061141991906125d6565b600e54909150819042101561165c576012546040517f095ea7b300000000000000000000000000000000000000000000000000000000815273ffffffffffffffffffffffffffffffffffffffff9182166004820152602481018590529082169063095ea7b3906044016020604051808303816000875af11580156114a1573d6000803e3d6000fd5b505050506040513d601f19601f820116820180604052508101906114c59190612573565b50601260009054906101000a900473ffffffffffffffffffffffffffffffffffffffff1673ffffffffffffffffffffffffffffffffffffffff166303f3dbac34838473ffffffffffffffffffffffffffffffffffffffff166395d89b416040518163ffffffff1660e01b8152600401600060405180830381865afa158015611551573d6000803e3d6000fd5b505050506040513d6000823e601f3d9081017fffffffffffffffffffffffffffffffffffffffffffffffffffffffffffffffe016820160405261159791908101906125f3565b6040516020016115a7919061266a565b604080517fffffffffffffffffffffffffffffffffffffffffffffffffffffffffffffffe081840301815290829052600e547fffffffff0000000000000000000000000000000000000000000000000000000060e087901b16835261161393928a9133916004016126ab565b60206040518083038185885af1158015611631573d6000803e3d6000fd5b50505050506040513d601f19601f8201168201806040525081019061165691906125d6565b50611701565b6040517fa9059cbb0000000000000000000000000000000000000000000000000000000081523360048201526024810184905273ffffffffffffffffffffffffffffffffffffffff82169063a9059cbb906044016020604051808303816000875af11580156116cf573d6000803e3d6000fd5b505050506040513d601f19601f820116820180604052508101906116f39190612573565b506116fe3487612595565b95505b604051600090339088908381818185875af1925050503d8060008114611743576040519150601f19603f3d011682016040523d82523d6000602084013e611748565b606091505b50509050806117b3576040517f08c379a000000000000000000000000000000000000000000000000000000000815260206004820152601060248201527f5472616e73666572206661696c65642e0000000000000000000000000000000060448201526064016105bf565b5050505050505050611874565b604051600090339083908381818185875af1925050503d8060008114611802576040519150601f19603f3d011682016040523d82523d6000602084013e611807565b606091505b5050905080611872576040517f08c379a000000000000000000000000000000000000000000000000000000000815260206004820152601060248201527f5472616e73666572206661696c65642e0000000000000000000000000000000060448201526064016105bf565b505b50601680547fffffffffffffffffffffffffffffffffffffffffffffffffffffffffffffff00166001179055565b6118aa611990565b73ffffffffffffffffffffffffffffffffffffffff811661194d576040517f08c379a000000000000000000000000000000000000000000000000000000000815260206004820152602660248201527f4f776e61626c653a206e6577206f776e657220697320746865207a65726f206160448201527f646472657373000000000000000000000000000000000000000000000000000060648201526084016105bf565b610ea681611cd1565b60006119628284612595565b90505b92915050565b6000600354600a61197c9190612817565b6119868385612538565b6119629190612521565b60005473ffffffffffffffffffffffffffffffffffffffff1633146109a1576040517f08c379a000000000000000000000000000000000000000000000000000000000815260206004820181905260248201527f4f776e61626c653a2063616c6c6572206973206e6f7420746865206f776e657260448201526064016105bf565b6040805173ffffffffffffffffffffffffffffffffffffffff8416602482015260448082018490528251808303909101815260649091019091526020810180517bffffffffffffffffffffffffffffffffffffffffffffffffffffffff167fa9059cbb00000000000000000000000000000000000000000000000000000000179052610bb8908490611d46565b611aa6611e52565b600d544211611b11576040517f08c379a000000000000000000000000000000000000000000000000000000000815260206004820152601b60248201527f5468652049444f20706f6f6c20686173206e6f7420656e6465642e000000000060448201526064016105bf565b6006546013541015611ba4576040517f08c379a0000000000000000000000000000000000000000000000000000000008152602060048201526024808201527f5468652049444f20706f6f6c20646964206e6f7420726561636820736f66742060448201527f6361702e0000000000000000000000000000000000000000000000000000000060648201526084016105bf565b73ffffffffffffffffffffffffffffffffffffffff81166000908152601760205260409020805480611c32576040517f08c379a000000000000000000000000000000000000000000000000000000000815260206004820152601c60248201527f596f7520646f206e6f742068617665206465627420746f6b656e732e0000000060448201526064016105bf565b60008255601554611c439082611956565b601555600254611c6a9073ffffffffffffffffffffffffffffffffffffffff168483611a11565b8273ffffffffffffffffffffffffffffffffffffffff167f6352c5382c4a4578e712449ca65e83cdb392d045dfcf1cad9615189db2da244b82604051611cb291815260200190565b60405180910390a25050610ea660018055565b6000611962828461250e565b6000805473ffffffffffffffffffffffffffffffffffffffff8381167fffffffffffffffffffffffff0000000000000000000000000000000000000000831681178455604051919092169283917f8be0079c531659141344cd1fd0a4f28419497f9722a3daafe3b4186f6b6457e09190a35050565b6000611da8826040518060400160405280602081526020017f5361666545524332303a206c6f772d6c6576656c2063616c6c206661696c65648152508573ffffffffffffffffffffffffffffffffffffffff16611ec59092919063ffffffff16565b805190915015610bb85780806020019051810190611dc69190612573565b610bb8576040517f08c379a000000000000000000000000000000000000000000000000000000000815260206004820152602a60248201527f5361666545524332303a204552433230206f7065726174696f6e20646964206e60448201527f6f7420737563636565640000000000000000000000000000000000000000000060648201526084016105bf565b600260015403611ebe576040517f08c379a000000000000000000000000000000000000000000000000000000000815260206004820152601f60248201527f5265656e7472616e637947756172643a207265656e7472616e742063616c6c0060448201526064016105bf565b6002600155565b6060611ed48484600085611edc565b949350505050565b606082471015611f6e576040517f08c379a000000000000000000000000000000000000000000000000000000000815260206004820152602660248201527f416464726573733a20696e73756666696369656e742062616c616e636520666f60448201527f722063616c6c000000000000000000000000000000000000000000000000000060648201526084016105bf565b6000808673ffffffffffffffffffffffffffffffffffffffff168587604051611f979190612823565b60006040518083038185875af1925050503d8060008114611fd4576040519150601f19603f3d011682016040523d82523d6000602084013e611fd9565b606091505b5091509150611fea87838387611ff5565b979650505050505050565b6060831561208b5782516000036120845773ffffffffffffffffffffffffffffffffffffffff85163b612084576040517f08c379a000000000000000000000000000000000000000000000000000000000815260206004820152601d60248201527f416464726573733a2063616c6c20746f206e6f6e2d636f6e747261637400000060448201526064016105bf565b5081611ed4565b611ed483838151156120a05781518083602001fd5b806040517f08c379a00000000000000000000000000000000000000000000000000000000081526004016105bf9190612188565b73ffffffffffffffffffffffffffffffffffffffff81168114610ea657600080fd5b60006020828403121561210857600080fd5b8135612113816120d4565b9392505050565b60005b8381101561213557818101518382015260200161211d565b50506000910152565b6000815180845261215681602086016020860161211a565b601f017fffffffffffffffffffffffffffffffffffffffffffffffffffffffffffffffe0169290920160200192915050565b602081526000611962602083018461213e565b600080604083850312156121ae57600080fd5b82356121b9816120d4565b946020939093013593505050565b7f4e487b7100000000000000000000000000000000000000000000000000000000600052604160045260246000fd5b604051601f82017fffffffffffffffffffffffffffffffffffffffffffffffffffffffffffffffe016810167ffffffffffffffff8111828210171561223d5761223d6121c7565b604052919050565b600067ffffffffffffffff82111561225f5761225f6121c7565b50601f017fffffffffffffffffffffffffffffffffffffffffffffffffffffffffffffffe01660200190565b60006020828403121561229d57600080fd5b813567ffffffffffffffff8111156122b457600080fd5b8201601f810184136122c557600080fd5b80356122d86122d382612245565b6121f6565b8181528560208385010111156122ed57600080fd5b81602084016020830137600091810160200191909152949350505050565b600181811c9082168061231f57607f821691505b602082108103612358577f4e487b7100000000000000000000000000000000000000000000000000000000600052602260045260246000fd5b50919050565b60006020828403121561237057600080fd5b5051919050565b601f821115610bb857600081815260208120601f850160051c8101602086101561239e5750805b601f850160051c820191505b818110156123bd578281556001016123aa565b505050505050565b815167ffffffffffffffff8111156123df576123df6121c7565b6123f3816123ed845461230b565b84612377565b602080601f83116001811461244657600084156124105750858301515b7fffffffffffffffffffffffffffffffffffffffffffffffffffffffffffffffff600386901b1c1916600185901b1785556123bd565b6000858152602081207fffffffffffffffffffffffffffffffffffffffffffffffffffffffffffffffe08616915b8281101561249357888601518255948401946001909101908401612474565b50858210156124cf57878501517fffffffffffffffffffffffffffffffffffffffffffffffffffffffffffffffff600388901b60f8161c191681555b5050505050600190811b01905550565b7f4e487b7100000000000000000000000000000000000000000000000000000000600052601160045260246000fd5b81810381811115611965576119656124df565b8082028115828204841417611965576119656124df565b60008261256e577f4e487b7100000000000000000000000000000000000000000000000000000000600052601260045260246000fd5b500490565b60006020828403121561258557600080fd5b8151801515811461211357600080fd5b80820180821115611965576119656124df565b6000806000606084860312156125bd57600080fd5b8351925060208401519150604084015190509250925092565b6000602082840312156125e857600080fd5b8151612113816120d4565b60006020828403121561260557600080fd5b815167ffffffffffffffff81111561261c57600080fd5b8201601f8101841361262d57600080fd5b805161263b6122d382612245565b81815285602083850101111561265057600080fd5b61266182602083016020860161211a565b95945050505050565b6000825161267c81846020870161211a565b7f20746f6b656e73206c6f636b6572000000000000000000000000000000000000920191825250600e01919050565b600073ffffffffffffffffffffffffffffffffffffffff808816835260a060208401526126db60a084018861213e565b6040840196909652939093166060820152608001525092915050565b600181815b8085111561275057817fffffffffffffffffffffffffffffffffffffffffffffffffffffffffffffffff04821115612736576127366124df565b8085161561274357918102915b93841c93908002906126fc565b509250929050565b60008261276757506001611965565b8161277457506000611965565b816001811461278a5760028114612794576127b0565b6001915050611965565b60ff8411156127a5576127a56124df565b50506001821b611965565b5060208310610133831016604e8410600b84101617156127d3575081810a611965565b6127dd83836126f7565b807fffffffffffffffffffffffffffffffffffffffffffffffffffffffffffffffff0482111561280f5761280f6124df565b029392505050565b60006119628383612758565b6000825161283581846020870161211a565b919091019291505056fea264697066735822122033778f78ca8bb9227cb884ee7d4b7dd5c6567a69c1a2357e3648da0e10e1b35a64736f6c63430008120033a2646970667358221220f96779b559f4989035b68ae0255bc3a18c52c3b7bde168fe80075eaf89d5edf964736f6c63430008120033",
  "immutableReferences": {},
  "source": "pragma solidity ^0.8.0;\r\n\r\nimport \"@openzeppelin/contracts/access/Ownable.sol\";\r\nimport \"@openzeppelin/contracts/utils/math/SafeMath.sol\";\r\nimport \"@openzeppelin/contracts/token/ERC20/utils/SafeERC20.sol\";\r\nimport \"@openzeppelin/contracts/token/ERC20/extensions/ERC20Burnable.sol\";\r\n\r\nimport \"./IDOPool.sol\";\r\n\r\ncontract IDOFactory is Ownable {\r\n    using SafeMath for uint256;\r\n    using SafeERC20 for ERC20Burnable;\r\n    using SafeERC20 for ERC20;\r\n\r\n    ERC20Burnable public feeToken;\r\n    address public feeWallet;\r\n    uint256 public feeAmount;\r\n    uint256 public burnPercent; // use this state only if your token is ERC20Burnable and has burnFrom method\r\n    uint256 public divider;\r\n\r\n    address[] public idoPools;\r\n\r\n    event IDOCreated(\r\n        address indexed owner,\r\n        address idoPool,\r\n        address indexed rewardToken,\r\n        string tokenURI\r\n    );\r\n\r\n    event TokenFeeUpdated(address newFeeToken);\r\n    event FeeAmountUpdated(uint256 newFeeAmount);\r\n    event BurnPercentUpdated(uint256 newBurnPercent, uint256 divider);\r\n    event FeeWalletUpdated(address newFeeWallet);\r\n\r\n    constructor(\r\n        ERC20Burnable _feeToken,\r\n        uint256 _feeAmount,\r\n        uint256 _burnPercent\r\n    ){\r\n        feeToken = _feeToken;\r\n        feeAmount = _feeAmount;\r\n        burnPercent = _burnPercent;\r\n        divider = 100;\r\n    }\r\n\r\n    function getIdoPools() public view returns (address[] memory) {\r\n      return idoPools;\r\n    }\r\n\r\n    function setFeeToken(address _newFeeToken) external onlyOwner {\r\n        require(isContract(_newFeeToken), \"New address is not a token\");\r\n        feeToken = ERC20Burnable(_newFeeToken);\r\n\r\n        emit TokenFeeUpdated(_newFeeToken);\r\n    }\r\n\r\n    function setFeeAmount(uint256 _newFeeAmount) external onlyOwner {\r\n        feeAmount = _newFeeAmount;\r\n\r\n        emit FeeAmountUpdated(_newFeeAmount);\r\n    }\r\n\r\n    function setFeeWallet(address _newFeeWallet) external onlyOwner {\r\n        feeWallet = _newFeeWallet;\r\n\r\n        emit FeeWalletUpdated(_newFeeWallet);\r\n    }\r\n\r\n    function setBurnPercent(uint256 _newBurnPercent, uint256 _newDivider)\r\n        external\r\n        onlyOwner\r\n    {\r\n        require(_newBurnPercent <= _newDivider, \"Burn percent must be less than divider\");\r\n        burnPercent = _newBurnPercent;\r\n        divider = _newDivider;\r\n\r\n        emit BurnPercentUpdated(_newBurnPercent, _newDivider);\r\n    }\r\n\r\n    function createIDO(\r\n        ERC20 _rewardToken,\r\n        IDOPool.FinInfo memory _finInfo,\r\n        IDOPool.Timestamps memory _timestamps,\r\n        IDOPool.DEXInfo memory _dexInfo,\r\n        address _lockerFactoryAddress,\r\n        string memory _metadataURL\r\n    ) external {\r\n        IDOPool idoPool =\r\n            new IDOPool(\r\n                _rewardToken,\r\n                _finInfo,\r\n                _timestamps,\r\n                _dexInfo,\r\n                _lockerFactoryAddress,\r\n                _metadataURL\r\n            );\r\n\r\n        uint8 tokenDecimals = _rewardToken.decimals();\r\n\r\n        uint256 transferAmount = getTokenAmount(_finInfo.hardCap, _finInfo.tokenPrice, tokenDecimals);\r\n\r\n        if (_finInfo.lpInterestRate > 0 && _finInfo.listingPrice > 0) {\r\n            transferAmount += getTokenAmount(_finInfo.hardCap * _finInfo.lpInterestRate / 100, _finInfo.listingPrice, tokenDecimals);\r\n        }\r\n\r\n        idoPool.transferOwnership(msg.sender);\r\n\r\n        _rewardToken.safeTransferFrom(\r\n            msg.sender,\r\n            address(idoPool),\r\n            transferAmount\r\n        );\r\n\r\n        idoPools.push(address(idoPool));\r\n\r\n        emit IDOCreated(\r\n            msg.sender,\r\n            address(idoPool),\r\n            address(_rewardToken),\r\n            _metadataURL\r\n        );\r\n\r\n\r\n        if(feeAmount > 0){\r\n            if (burnPercent > 0){\r\n                uint256 burnAmount = feeAmount.mul(burnPercent).div(divider);\r\n\r\n                feeToken.safeTransferFrom(\r\n                    msg.sender,\r\n                    feeWallet,\r\n                    feeAmount.sub(burnAmount)\r\n                );\r\n\r\n                feeToken.burnFrom(msg.sender, burnAmount);\r\n            } else {\r\n                feeToken.safeTransferFrom(\r\n                    msg.sender,\r\n                    feeWallet,\r\n                    feeAmount\r\n                );\r\n            }\r\n        }\r\n    }\r\n\r\n    function getTokenAmount(uint256 ethAmount, uint256 oneTokenInWei, uint8 decimals)\r\n        internal\r\n        pure\r\n        returns (uint256)\r\n    {\r\n        return (ethAmount / oneTokenInWei) * 10**decimals;\r\n    }\r\n\r\n    function isContract(address _addr) private view returns (bool) {\r\n        uint32 size;\r\n        assembly {\r\n            size := extcodesize(_addr)\r\n        }\r\n        return (size > 0);\r\n    }\r\n\r\n}",
  "sourcePath": "D:\\WORK\\WebServers\\home\\localhost\\www\\main\\launchpad\\contracts\\IDOFactory.sol",
  "compiler": {
    "name": "solc",
    "version": "0.8.18+commit.87f61d96.Emscripten.clang"
  },
  "schemaVersion": "3.4.13",
  "updatedAt": "2023-05-12T12:47:49.585Z",
  "devdoc": {
    "kind": "dev",
    "methods": {
      "owner()": {
        "details": "Returns the address of the current owner."
      },
      "renounceOwnership()": {
        "details": "Leaves the contract without owner. It will not be possible to call `onlyOwner` functions anymore. Can only be called by the current owner. NOTE: Renouncing ownership will leave the contract without an owner, thereby removing any functionality that is only available to the owner."
      },
      "transferOwnership(address)": {
        "details": "Transfers ownership of the contract to a new account (`newOwner`). Can only be called by the current owner."
      }
    },
    "version": 1
  },
  "userdoc": {
    "kind": "user",
    "methods": {},
    "version": 1
  }
}