{
  "contractName": "TokenLockerFactory",
  "abi": [
    {
      "inputs": [],
      "stateMutability": "nonpayable",
      "type": "constructor"
    },
    {
      "anonymous": false,
      "inputs": [
        {
          "indexed": false,
          "internalType": "uint256",
          "name": "lockerId",
          "type": "uint256"
        },
        {
          "indexed": true,
          "internalType": "address",
          "name": "lockerAddress",
          "type": "address"
        },
        {
          "indexed": false,
          "internalType": "address",
          "name": "tokenAddress",
          "type": "address"
        }
      ],
      "name": "LockerCreated",
      "type": "event"
    },
    {
      "anonymous": false,
      "inputs": [
        {
          "indexed": true,
          "internalType": "address",
          "name": "previousOwner",
          "type": "address"
        },
        {
          "indexed": true,
          "internalType": "address",
          "name": "newOwner",
          "type": "address"
        }
      ],
      "name": "OwnershipTransferred",
      "type": "event"
    },
    {
      "inputs": [],
      "name": "fee",
      "outputs": [
        {
          "internalType": "uint256",
          "name": "",
          "type": "uint256"
        }
      ],
      "stateMutability": "view",
      "type": "function"
    },
    {
      "inputs": [
        {
          "internalType": "uint256",
          "name": "",
          "type": "uint256"
        }
      ],
      "name": "lockerAddresses",
      "outputs": [
        {
          "internalType": "address",
          "name": "",
          "type": "address"
        }
      ],
      "stateMutability": "view",
      "type": "function"
    },
    {
      "inputs": [],
      "name": "lockerCount",
      "outputs": [
        {
          "internalType": "uint256",
          "name": "",
          "type": "uint256"
        }
      ],
      "stateMutability": "view",
      "type": "function"
    },
    {
      "inputs": [],
      "name": "owner",
      "outputs": [
        {
          "internalType": "address",
          "name": "",
          "type": "address"
        }
      ],
      "stateMutability": "view",
      "type": "function"
    },
    {
      "inputs": [],
      "name": "renounceOwnership",
      "outputs": [],
      "stateMutability": "nonpayable",
      "type": "function"
    },
    {
      "inputs": [
        {
          "internalType": "address",
          "name": "newOwner",
          "type": "address"
        }
      ],
      "name": "transferOwnership",
      "outputs": [],
      "stateMutability": "nonpayable",
      "type": "function"
    },
    {
      "inputs": [
        {
          "internalType": "address[]",
          "name": "_lockerAddresses",
          "type": "address[]"
        }
      ],
      "name": "setLockerAddresses",
      "outputs": [],
      "stateMutability": "nonpayable",
      "type": "function"
    },
    {
      "inputs": [
        {
          "internalType": "contract ERC20",
          "name": "_tokenAddress",
          "type": "address"
        },
        {
          "internalType": "string",
          "name": "_name",
          "type": "string"
        },
        {
          "internalType": "uint256",
          "name": "_lockAmount",
          "type": "uint256"
        },
        {
          "internalType": "address",
          "name": "_withdrawer",
          "type": "address"
        },
        {
          "internalType": "uint256",
          "name": "_withdrawTime",
          "type": "uint256"
        }
      ],
      "name": "createLocker",
      "outputs": [
        {
          "internalType": "address",
          "name": "",
          "type": "address"
        }
      ],
      "stateMutability": "payable",
      "type": "function"
    },
    {
      "inputs": [],
      "name": "withdrawFee",
      "outputs": [],
      "stateMutability": "nonpayable",
      "type": "function"
    },
    {
      "inputs": [
        {
          "internalType": "uint256",
          "name": "amount",
          "type": "uint256"
        }
      ],
      "name": "setFee",
      "outputs": [],
      "stateMutability": "nonpayable",
      "type": "function"
    }
  ],
  "bytecode": "0x60806040525f6001555f600255348015610017575f80fd5b5061002133610026565b610075565b5f80546001600160a01b038381166001600160a01b0319831681178455604051919092169283917f8be0079c531659141344cd1fd0a4f28419497f9722a3daafe3b4186f6b6457e09190a35050565b611e93806100825f395ff3fe608060405260043610620000bb575f3560e01c8063ccd96eb6116200006e578063e5555d0b1162000052578063e5555d0b14620001c9578063e941fa7814620001ed578063f2fde38b1462000204575f80fd5b8063ccd96eb6146200018c578063ddca3f4314620001b2575f80fd5b806369fe0e2d11620000a257806369fe0e2d1462000126578063715018a6146200014a5780638da5cb5b1462000161575f80fd5b806303f3dbac14620000bf5780633ea6aeee1462000100575b5f80fd5b620000d6620000d036600462000c6f565b62000228565b60405173ffffffffffffffffffffffffffffffffffffffff90911681526020015b60405180910390f35b3480156200010c575f80fd5b50620001246200011e36600462000d5c565b6200044c565b005b34801562000132575f80fd5b50620001246200014436600462000e16565b6200046f565b34801562000156575f80fd5b50620001246200047e565b3480156200016d575f80fd5b505f5473ffffffffffffffffffffffffffffffffffffffff16620000d6565b34801562000198575f80fd5b50620001a360015481565b604051908152602001620000f7565b348015620001be575f80fd5b50620001a360025481565b348015620001d5575f80fd5b50620000d6620001e736600462000e16565b62000495565b348015620001f9575f80fd5b5062000124620004cb565b34801562000210575f80fd5b50620001246200022236600462000e2e565b6200058b565b5f60025434146200029a576040517f08c379a000000000000000000000000000000000000000000000000000000000815260206004820152601660248201527f46656520616d6f756e742069732072657175697265640000000000000000000060448201526064015b60405180910390fd5b5f86868585604051620002ad9062000b0b565b620002bc949392919062000ec2565b604051809103905ff080158015620002d6573d5f803e3d5ffd5b506040517ff2fde38b00000000000000000000000000000000000000000000000000000000815233600482015290915073ffffffffffffffffffffffffffffffffffffffff82169063f2fde38b906024015f604051808303815f87803b1580156200033f575f80fd5b505af115801562000352573d5f803e3d5ffd5b506200037b9250505073ffffffffffffffffffffffffffffffffffffffff881633838862000645565b60038054600180820183555f929092527fc2575a0e9e593c00f959f8c92f12db2869c3395a3b0502d05e2516446f71f85b0180547fffffffffffffffffffffffff00000000000000000000000000000000000000001673ffffffffffffffffffffffffffffffffffffffff848116918217909255915460408051918252918a1660208201527f4fd7b129e67605fe15d5e55ba0e969876d1549f11dc6aa106a702d51b27f5f4d910160405180910390a260018054905f6200043c8362000f05565b9091555090979650505050505050565b62000456620006e2565b80516200046b90600390602084019062000b19565b5050565b62000479620006e2565b600255565b62000488620006e2565b620004935f62000764565b565b60038181548110620004a5575f80fd5b5f9182526020909120015473ffffffffffffffffffffffffffffffffffffffff16905081565b620004d5620006e2565b6040515f90339047908381818185875af1925050503d805f811462000516576040519150601f19603f3d011682016040523d82523d5f602084013e6200051b565b606091505b505090508062000588576040517f08c379a000000000000000000000000000000000000000000000000000000000815260206004820152601060248201527f5472616e73666572206661696c65642e00000000000000000000000000000000604482015260640162000291565b50565b62000595620006e2565b73ffffffffffffffffffffffffffffffffffffffff81166200063a576040517f08c379a000000000000000000000000000000000000000000000000000000000815260206004820152602660248201527f4f776e61626c653a206e6577206f776e657220697320746865207a65726f206160448201527f6464726573730000000000000000000000000000000000000000000000000000606482015260840162000291565b620005888162000764565b6040805173ffffffffffffffffffffffffffffffffffffffff85811660248301528416604482015260648082018490528251808303909101815260849091019091526020810180517bffffffffffffffffffffffffffffffffffffffffffffffffffffffff167f23b872dd00000000000000000000000000000000000000000000000000000000179052620006dc908590620007d8565b50505050565b5f5473ffffffffffffffffffffffffffffffffffffffff16331462000493576040517f08c379a000000000000000000000000000000000000000000000000000000000815260206004820181905260248201527f4f776e61626c653a2063616c6c6572206973206e6f7420746865206f776e6572604482015260640162000291565b5f805473ffffffffffffffffffffffffffffffffffffffff8381167fffffffffffffffffffffffff0000000000000000000000000000000000000000831681178455604051919092169283917f8be0079c531659141344cd1fd0a4f28419497f9722a3daafe3b4186f6b6457e09190a35050565b5f6200083b826040518060400160405280602081526020017f5361666545524332303a206c6f772d6c6576656c2063616c6c206661696c65648152508573ffffffffffffffffffffffffffffffffffffffff16620008ef9092919063ffffffff16565b805190915015620008ea57808060200190518101906200085c919062000f62565b620008ea576040517f08c379a000000000000000000000000000000000000000000000000000000000815260206004820152602a60248201527f5361666545524332303a204552433230206f7065726174696f6e20646964206e60448201527f6f74207375636365656400000000000000000000000000000000000000000000606482015260840162000291565b505050565b6060620008ff84845f8562000907565b949350505050565b6060824710156200099b576040517f08c379a000000000000000000000000000000000000000000000000000000000815260206004820152602660248201527f416464726573733a20696e73756666696369656e742062616c616e636520666f60448201527f722063616c6c0000000000000000000000000000000000000000000000000000606482015260840162000291565b5f808673ffffffffffffffffffffffffffffffffffffffff168587604051620009c5919062000f83565b5f6040518083038185875af1925050503d805f811462000a01576040519150601f19603f3d011682016040523d82523d5f602084013e62000a06565b606091505b509150915062000a198783838762000a24565b979650505050505050565b6060831562000abe5782515f0362000ab65773ffffffffffffffffffffffffffffffffffffffff85163b62000ab6576040517f08c379a000000000000000000000000000000000000000000000000000000000815260206004820152601d60248201527f416464726573733a2063616c6c20746f206e6f6e2d636f6e7472616374000000604482015260640162000291565b5081620008ff565b620008ff838381511562000ad55781518083602001fd5b806040517f08c379a000000000000000000000000000000000000000000000000000000000815260040162000291919062000fa0565b610ea98062000fb583390190565b828054828255905f5260205f2090810192821562000b94579160200282015b8281111562000b9457825182547fffffffffffffffffffffffff00000000000000000000000000000000000000001673ffffffffffffffffffffffffffffffffffffffff90911617825560209092019160019091019062000b38565b5062000ba292915062000ba6565b5090565b5b8082111562000ba2575f815560010162000ba7565b73ffffffffffffffffffffffffffffffffffffffff8116811462000588575f80fd5b7f4e487b71000000000000000000000000000000000000000000000000000000005f52604160045260245ffd5b604051601f82017fffffffffffffffffffffffffffffffffffffffffffffffffffffffffffffffe016810167ffffffffffffffff8111828210171562000c555762000c5562000bde565b604052919050565b803562000c6a8162000bbc565b919050565b5f805f805f60a0868803121562000c84575f80fd5b853562000c918162000bbc565b945060208681013567ffffffffffffffff8082111562000caf575f80fd5b818901915089601f83011262000cc3575f80fd5b81358181111562000cd85762000cd862000bde565b62000d0a847fffffffffffffffffffffffffffffffffffffffffffffffffffffffffffffffe0601f8401160162000c0b565b91508082528a8482850101111562000d20575f80fd5b80848401858401375f848284010152508096505050506040860135925062000d4b6060870162000c5d565b949793965091946080013592915050565b5f602080838503121562000d6e575f80fd5b823567ffffffffffffffff8082111562000d86575f80fd5b818501915085601f83011262000d9a575f80fd5b81358181111562000daf5762000daf62000bde565b8060051b915062000dc284830162000c0b565b818152918301840191848101908884111562000ddc575f80fd5b938501935b8385101562000e0a578435925062000df98362000bbc565b828252938501939085019062000de1565b98975050505050505050565b5f6020828403121562000e27575f80fd5b5035919050565b5f6020828403121562000e3f575f80fd5b813562000e4c8162000bbc565b9392505050565b5f5b8381101562000e6f57818101518382015260200162000e55565b50505f910152565b5f815180845262000e9081602086016020860162000e53565b601f017fffffffffffffffffffffffffffffffffffffffffffffffffffffffffffffffe0169290920160200192915050565b5f73ffffffffffffffffffffffffffffffffffffffff80871683526080602084015262000ef3608084018762000e77565b94166040830152506060015292915050565b5f7fffffffffffffffffffffffffffffffffffffffffffffffffffffffffffffffff820362000f5b577f4e487b71000000000000000000000000000000000000000000000000000000005f52601160045260245ffd5b5060010190565b5f6020828403121562000f73575f80fd5b8151801515811462000e4c575f80fd5b5f825162000f9681846020870162000e53565b9190910192915050565b602081525f62000e4c602083018462000e7756fe608060405234801562000010575f80fd5b5060405162000ea938038062000ea9833981016040819052620000339162000184565b6200003e33620000f7565b428111620000a05760405162461bcd60e51b815260206004820152602560248201527f77697468647261772074696d652073686f756c64206265206d6f7265207468616044820152646e206e6f7760d81b606482015260840160405180910390fd5b600180546001600160a01b0319166001600160a01b0386161790556004620000c984826200030d565b50600280546001600160a01b0319166001600160a01b03939093169290921790915560035550620003d59050565b5f80546001600160a01b038381166001600160a01b0319831681178455604051919092169283917f8be0079c531659141344cd1fd0a4f28419497f9722a3daafe3b4186f6b6457e09190a35050565b6001600160a01b03811681146200015b575f80fd5b50565b634e487b7160e01b5f52604160045260245ffd5b80516200017f8162000146565b919050565b5f805f806080858703121562000198575f80fd5b8451620001a58162000146565b602086810151919550906001600160401b0380821115620001c4575f80fd5b818801915088601f830112620001d8575f80fd5b815181811115620001ed57620001ed6200015e565b604051601f8201601f19908116603f011681019083821181831017156200021857620002186200015e565b816040528281528b8684870101111562000230575f80fd5b5f93505b8284101562000253578484018601518185018701529285019262000234565b5f868483010152809850505050505050620002716040860162000172565b6060959095015193969295505050565b600181811c908216806200029657607f821691505b602082108103620002b557634e487b7160e01b5f52602260045260245ffd5b50919050565b601f82111562000308575f81815260208120601f850160051c81016020861015620002e35750805b601f850160051c820191505b818110156200030457828155600101620002ef565b5050505b505050565b81516001600160401b038111156200032957620003296200015e565b62000341816200033a845462000281565b84620002bb565b602080601f83116001811462000377575f84156200035f5750858301515b5f19600386901b1c1916600185901b17855562000304565b5f85815260208120601f198616915b82811015620003a75788860151825594840194600190910190840162000386565b5085821015620003c557878501515f19600388901b60f8161c191681555b5050505050600190811b01905550565b610ac680620003e35f395ff3fe608060405234801561000f575f80fd5b50600436106100b9575f3560e01c80637fc0254d11610072578063cdc1842411610058578063cdc184241461015d578063f2fde38b1461017d578063fc0c546a14610190575f80fd5b80637fc0254d146101175780638da5cb5b1461011f575f80fd5b806350baa622116100a257806350baa622146100f257806368646cf014610107578063715018a61461010f575f80fd5b806306fdde03146100bd57806345cb3dde146100db575b5f80fd5b6100c56101b0565b6040516100d2919061094f565b60405180910390f35b6100e460035481565b6040519081526020016100d2565b6101056101003660046109b8565b61023c565b005b6100e4610522565b6101056105b7565b6101056105ca565b5f5473ffffffffffffffffffffffffffffffffffffffff165b60405173ffffffffffffffffffffffffffffffffffffffff90911681526020016100d2565b6002546101389073ffffffffffffffffffffffffffffffffffffffff1681565b61010561018b3660046109cf565b6107a4565b6001546101389073ffffffffffffffffffffffffffffffffffffffff1681565b600480546101bd90610a09565b80601f01602080910402602001604051908101604052809291908181526020018280546101e990610a09565b80156102345780601f1061020b57610100808354040283529160200191610234565b820191905f5260205f20905b81548152906001019060200180831161021757829003601f168201915b505050505081565b6001546040517f70a0823100000000000000000000000000000000000000000000000000000000815230600482015273ffffffffffffffffffffffffffffffffffffffff909116906370a0823190602401602060405180830381865afa1580156102a8573d5f803e3d5ffd5b505050506040513d601f19601f820116820180604052508101906102cc9190610a5a565b811015610360576040517f08c379a000000000000000000000000000000000000000000000000000000000815260206004820152602160248201527f576974686472617720616d6f756e74206973206578636565642062616c616e6360448201527f650000000000000000000000000000000000000000000000000000000000000060648201526084015b60405180910390fd5b60025473ffffffffffffffffffffffffffffffffffffffff1633146103e1576040517f08c379a000000000000000000000000000000000000000000000000000000000815260206004820152601660248201527f596f7520617265206e6f742077697468647261776572000000000000000000006044820152606401610357565b600354421161044c576040517f08c379a000000000000000000000000000000000000000000000000000000000815260206004820152600c60248201527f4e6f742074696d652079657400000000000000000000000000000000000000006044820152606401610357565b6001546040517fa9059cbb0000000000000000000000000000000000000000000000000000000081523360048201526024810183905273ffffffffffffffffffffffffffffffffffffffff9091169063a9059cbb906044015b6020604051808303815f875af11580156104c1573d5f803e3d5ffd5b505050506040513d601f19601f820116820180604052508101906104e59190610a71565b5060408051428152602081018390527fa4fa6d4c08e67b66804f329195ed12feecfe9057e79e17edf30ff90f6cf37d8f910160405180910390a150565b6001546040517f70a082310000000000000000000000000000000000000000000000000000000081523060048201525f9173ffffffffffffffffffffffffffffffffffffffff16906370a0823190602401602060405180830381865afa15801561058e573d5f803e3d5ffd5b505050506040513d601f19601f820116820180604052508101906105b29190610a5a565b905090565b6105bf61085b565b6105c85f6108db565b565b60025473ffffffffffffffffffffffffffffffffffffffff16331461064b576040517f08c379a000000000000000000000000000000000000000000000000000000000815260206004820152601660248201527f596f7520617265206e6f742077697468647261776572000000000000000000006044820152606401610357565b60035442116106b6576040517f08c379a000000000000000000000000000000000000000000000000000000000815260206004820152600c60248201527f4e6f742074696d652079657400000000000000000000000000000000000000006044820152606401610357565b6001546040517f70a082310000000000000000000000000000000000000000000000000000000081523060048201525f9173ffffffffffffffffffffffffffffffffffffffff16906370a0823190602401602060405180830381865afa158015610722573d5f803e3d5ffd5b505050506040513d601f19601f820116820180604052508101906107469190610a5a565b6001546040517fa9059cbb0000000000000000000000000000000000000000000000000000000081523360048201526024810183905291925073ffffffffffffffffffffffffffffffffffffffff169063a9059cbb906044016104a5565b6107ac61085b565b73ffffffffffffffffffffffffffffffffffffffff811661084f576040517f08c379a000000000000000000000000000000000000000000000000000000000815260206004820152602660248201527f4f776e61626c653a206e6577206f776e657220697320746865207a65726f206160448201527f64647265737300000000000000000000000000000000000000000000000000006064820152608401610357565b610858816108db565b50565b5f5473ffffffffffffffffffffffffffffffffffffffff1633146105c8576040517f08c379a000000000000000000000000000000000000000000000000000000000815260206004820181905260248201527f4f776e61626c653a2063616c6c6572206973206e6f7420746865206f776e65726044820152606401610357565b5f805473ffffffffffffffffffffffffffffffffffffffff8381167fffffffffffffffffffffffff0000000000000000000000000000000000000000831681178455604051919092169283917f8be0079c531659141344cd1fd0a4f28419497f9722a3daafe3b4186f6b6457e09190a35050565b5f6020808352835180828501525f5b8181101561097a5785810183015185820160400152820161095e565b505f6040828601015260407fffffffffffffffffffffffffffffffffffffffffffffffffffffffffffffffe0601f8301168501019250505092915050565b5f602082840312156109c8575f80fd5b5035919050565b5f602082840312156109df575f80fd5b813573ffffffffffffffffffffffffffffffffffffffff81168114610a02575f80fd5b9392505050565b600181811c90821680610a1d57607f821691505b602082108103610a54577f4e487b71000000000000000000000000000000000000000000000000000000005f52602260045260245ffd5b50919050565b5f60208284031215610a6a575f80fd5b5051919050565b5f60208284031215610a81575f80fd5b81518015158114610a02575f80fdfea26469706673582212203b9f116eaeabf2db38b4ba9ab462e21f35cbb2f838df2b0c7bbf520ad83526b064736f6c63430008140033a264697066735822122035546d2495f1314d7750cd205ccde69990570cf72d06af7db84c81063001e4d364736f6c63430008140033",
  "immutableReferences": {},
  "source": "pragma solidity ^0.8.0;\r\n\r\nimport \"@openzeppelin/contracts/access/Ownable.sol\";\r\nimport \"@openzeppelin/contracts/security/ReentrancyGuard.sol\";\r\nimport \"@openzeppelin/contracts/utils/math/SafeMath.sol\";\r\nimport \"@openzeppelin/contracts/token/ERC20/utils/SafeERC20.sol\";\r\nimport \"@openzeppelin/contracts/token/ERC20/ERC20.sol\";\r\nimport \"./TokenLocker.sol\";\r\n\r\ncontract TokenLockerFactory is Ownable {\r\n    using SafeMath for uint256;\r\n    using SafeERC20 for ERC20;\r\n\r\n    uint256 public lockerCount = 0;\r\n    uint256 public fee = 0;\r\n\r\n    struct lockerInfo {\r\n        uint256 lockerId;\r\n        address tokenAddress;\r\n        address creator;\r\n        uint256 ramaining;\r\n        address withdrawer;\r\n        uint256 withdrawTime;\r\n    }\r\n\r\n    address[] public lockerAddresses;\r\n\r\n    event LockerCreated(uint256 lockerId, address indexed lockerAddress, address tokenAddress);\r\n\r\n    constructor(\r\n    ){\r\n\r\n    }\r\n\r\n    function setLockerAddresses(address[] memory _lockerAddresses) public onlyOwner {\r\n      lockerAddresses = _lockerAddresses;\r\n    }\r\n\r\n    function createLocker(\r\n        ERC20 _tokenAddress,\r\n        string memory _name,\r\n        uint256 _lockAmount,\r\n        address _withdrawer,\r\n        uint256 _withdrawTime\r\n        ) payable public returns(address){\r\n        require(msg.value == fee, 'Fee amount is required');\r\n\r\n        TokenLocker tokenLocker = new TokenLocker(_tokenAddress, _name, _withdrawer, _withdrawTime);\r\n        tokenLocker.transferOwnership(msg.sender);\r\n\r\n        _tokenAddress.safeTransferFrom(\r\n                msg.sender,\r\n                address(tokenLocker),\r\n                _lockAmount\r\n            );\r\n\r\n        lockerAddresses.push(address(tokenLocker));\r\n\r\n        emit LockerCreated(lockerCount, address(tokenLocker), address(_tokenAddress));\r\n        lockerCount++;\r\n        return address(tokenLocker);\r\n\r\n    }\r\n\r\n    function withdrawFee() public onlyOwner{\r\n        (bool success, ) = msg.sender.call{value: address(this).balance}(\"\");\r\n        require(success, \"Transfer failed.\");\r\n    }\r\n\r\n    function setFee(uint256 amount) public onlyOwner{\r\n        fee = amount;\r\n    }\r\n}",
  "sourcePath": "D:\\WORK\\WebServers\\home\\localhost\\www\\main\\launchpad\\contracts\\TokenLockerFactory.sol",
  "compiler": {
    "name": "solc",
    "version": "0.8.20+commit.a1b79de6.Emscripten.clang"
  },
  "schemaVersion": "3.4.13",
  "updatedAt": "2023-05-12T08:55:23.839Z",
  "devdoc": {
    "kind": "dev",
    "methods": {
      "owner()": {
        "details": "Returns the address of the current owner."
      },
      "renounceOwnership()": {
        "details": "Leaves the contract without owner. It will not be possible to call `onlyOwner` functions anymore. Can only be called by the current owner. NOTE: Renouncing ownership will leave the contract without an owner, thereby removing any functionality that is only available to the owner."
      },
      "transferOwnership(address)": {
        "details": "Transfers ownership of the contract to a new account (`newOwner`). Can only be called by the current owner."
      }
    },
    "version": 1
  },
  "userdoc": {
    "kind": "user",
    "methods": {},
    "version": 1
  }
}