{
  "contractName": "TokenLockerFactory",
  "abi": [
    {
      "inputs": [],
      "stateMutability": "nonpayable",
      "type": "constructor"
    },
    {
      "anonymous": false,
      "inputs": [
        {
          "indexed": false,
          "internalType": "uint256",
          "name": "lockerId",
          "type": "uint256"
        },
        {
          "indexed": true,
          "internalType": "address",
          "name": "lockerAddress",
          "type": "address"
        },
        {
          "indexed": false,
          "internalType": "address",
          "name": "tokenAddress",
          "type": "address"
        }
      ],
      "name": "LockerCreated",
      "type": "event"
    },
    {
      "anonymous": false,
      "inputs": [
        {
          "indexed": true,
          "internalType": "address",
          "name": "previousOwner",
          "type": "address"
        },
        {
          "indexed": true,
          "internalType": "address",
          "name": "newOwner",
          "type": "address"
        }
      ],
      "name": "OwnershipTransferred",
      "type": "event"
    },
    {
      "inputs": [],
      "name": "fee",
      "outputs": [
        {
          "internalType": "uint256",
          "name": "",
          "type": "uint256"
        }
      ],
      "stateMutability": "view",
      "type": "function"
    },
    {
      "inputs": [
        {
          "internalType": "uint256",
          "name": "",
          "type": "uint256"
        }
      ],
      "name": "lockerAddresses",
      "outputs": [
        {
          "internalType": "address",
          "name": "",
          "type": "address"
        }
      ],
      "stateMutability": "view",
      "type": "function"
    },
    {
      "inputs": [],
      "name": "lockerCount",
      "outputs": [
        {
          "internalType": "uint256",
          "name": "",
          "type": "uint256"
        }
      ],
      "stateMutability": "view",
      "type": "function"
    },
    {
      "inputs": [],
      "name": "owner",
      "outputs": [
        {
          "internalType": "address",
          "name": "",
          "type": "address"
        }
      ],
      "stateMutability": "view",
      "type": "function"
    },
    {
      "inputs": [],
      "name": "renounceOwnership",
      "outputs": [],
      "stateMutability": "nonpayable",
      "type": "function"
    },
    {
      "inputs": [
        {
          "internalType": "address",
          "name": "newOwner",
          "type": "address"
        }
      ],
      "name": "transferOwnership",
      "outputs": [],
      "stateMutability": "nonpayable",
      "type": "function"
    },
    {
      "inputs": [],
      "name": "getLockerAddresses",
      "outputs": [
        {
          "internalType": "address[]",
          "name": "",
          "type": "address[]"
        }
      ],
      "stateMutability": "view",
      "type": "function"
    },
    {
      "inputs": [
        {
          "internalType": "contract ERC20",
          "name": "_tokenAddress",
          "type": "address"
        },
        {
          "internalType": "string",
          "name": "_name",
          "type": "string"
        },
        {
          "internalType": "uint256",
          "name": "_lockAmount",
          "type": "uint256"
        },
        {
          "internalType": "address",
          "name": "_withdrawer",
          "type": "address"
        },
        {
          "internalType": "uint256",
          "name": "_withdrawTime",
          "type": "uint256"
        }
      ],
      "name": "createLocker",
      "outputs": [
        {
          "internalType": "address",
          "name": "",
          "type": "address"
        }
      ],
      "stateMutability": "payable",
      "type": "function"
    },
    {
      "inputs": [],
      "name": "withdrawFee",
      "outputs": [],
      "stateMutability": "nonpayable",
      "type": "function"
    },
    {
      "inputs": [
        {
          "internalType": "uint256",
          "name": "amount",
          "type": "uint256"
        }
      ],
      "name": "setFee",
      "outputs": [],
      "stateMutability": "nonpayable",
      "type": "function"
    }
  ],
  "bytecode": "0x60806040526000600155600060025534801561001a57600080fd5b5061002433610029565b610079565b600080546001600160a01b038381166001600160a01b0319831681178455604051919092169283917f8be0079c531659141344cd1fd0a4f28419497f9722a3daafe3b4186f6b6457e09190a35050565b611e2e806100886000396000f3fe608060405260043610620000bf5760003560e01c8063ddca3f431162000071578063e75759881162000054578063e757598814620001d5578063e941fa7814620001fc578063f2fde38b146200021457600080fd5b8063ddca3f431462000198578063e5555d0b14620001b057600080fd5b8063715018a611620000a6578063715018a6146200012c5780638da5cb5b1462000144578063ccd96eb6146200017157600080fd5b806303f3dbac14620000c457806369fe0e2d1462000105575b600080fd5b620000db620000d536600462000bf7565b62000239565b60405173ffffffffffffffffffffffffffffffffffffffff90911681526020015b60405180910390f35b3480156200011257600080fd5b506200012a6200012436600462000d09565b62000469565b005b3480156200013957600080fd5b506200012a62000478565b3480156200015157600080fd5b5060005473ffffffffffffffffffffffffffffffffffffffff16620000db565b3480156200017e57600080fd5b506200018960015481565b604051908152602001620000fc565b348015620001a557600080fd5b506200018960025481565b348015620001bd57600080fd5b50620000db620001cf36600462000d09565b62000490565b348015620001e257600080fd5b50620001ed620004c8565b604051620000fc919062000d23565b3480156200020957600080fd5b506200012a62000539565b3480156200022157600080fd5b506200012a6200023336600462000d7f565b620005fc565b60006002543414620002ac576040517f08c379a000000000000000000000000000000000000000000000000000000000815260206004820152601660248201527f46656520616d6f756e742069732072657175697265640000000000000000000060448201526064015b60405180910390fd5b600086868585604051620002c09062000b85565b620002cf949392919062000e18565b604051809103906000f080158015620002ec573d6000803e3d6000fd5b506040517ff2fde38b00000000000000000000000000000000000000000000000000000000815233600482015290915073ffffffffffffffffffffffffffffffffffffffff82169063f2fde38b90602401600060405180830381600087803b1580156200035857600080fd5b505af11580156200036d573d6000803e3d6000fd5b50620003969250505073ffffffffffffffffffffffffffffffffffffffff8816338388620006b6565b60038054600180820183556000929092527fc2575a0e9e593c00f959f8c92f12db2869c3395a3b0502d05e2516446f71f85b0180547fffffffffffffffffffffffff00000000000000000000000000000000000000001673ffffffffffffffffffffffffffffffffffffffff848116918217909255915460408051918252918a1660208201527f4fd7b129e67605fe15d5e55ba0e969876d1549f11dc6aa106a702d51b27f5f4d910160405180910390a260018054906000620004598362000e5c565b9091555090979650505050505050565b6200047362000753565b600255565b6200048262000753565b6200048e6000620007d6565b565b60038181548110620004a157600080fd5b60009182526020909120015473ffffffffffffffffffffffffffffffffffffffff16905081565b606060038054806020026020016040519081016040528092919081815260200182805480156200052f57602002820191906000526020600020905b815473ffffffffffffffffffffffffffffffffffffffff16815260019091019060200180831162000503575b5050505050905090565b6200054362000753565b604051600090339047908381818185875af1925050503d806000811462000587576040519150601f19603f3d011682016040523d82523d6000602084013e6200058c565b606091505b5050905080620005f9576040517f08c379a000000000000000000000000000000000000000000000000000000000815260206004820152601060248201527f5472616e73666572206661696c65642e000000000000000000000000000000006044820152606401620002a3565b50565b6200060662000753565b73ffffffffffffffffffffffffffffffffffffffff8116620006ab576040517f08c379a000000000000000000000000000000000000000000000000000000000815260206004820152602660248201527f4f776e61626c653a206e6577206f776e657220697320746865207a65726f206160448201527f64647265737300000000000000000000000000000000000000000000000000006064820152608401620002a3565b620005f981620007d6565b6040805173ffffffffffffffffffffffffffffffffffffffff85811660248301528416604482015260648082018490528251808303909101815260849091019091526020810180517bffffffffffffffffffffffffffffffffffffffffffffffffffffffff167f23b872dd000000000000000000000000000000000000000000000000000000001790526200074d9085906200084b565b50505050565b60005473ffffffffffffffffffffffffffffffffffffffff1633146200048e576040517f08c379a000000000000000000000000000000000000000000000000000000000815260206004820181905260248201527f4f776e61626c653a2063616c6c6572206973206e6f7420746865206f776e65726044820152606401620002a3565b6000805473ffffffffffffffffffffffffffffffffffffffff8381167fffffffffffffffffffffffff0000000000000000000000000000000000000000831681178455604051919092169283917f8be0079c531659141344cd1fd0a4f28419497f9722a3daafe3b4186f6b6457e09190a35050565b6000620008af826040518060400160405280602081526020017f5361666545524332303a206c6f772d6c6576656c2063616c6c206661696c65648152508573ffffffffffffffffffffffffffffffffffffffff16620009639092919063ffffffff16565b8051909150156200095e5780806020019051810190620008d0919062000ebc565b6200095e576040517f08c379a000000000000000000000000000000000000000000000000000000000815260206004820152602a60248201527f5361666545524332303a204552433230206f7065726174696f6e20646964206e60448201527f6f742073756363656564000000000000000000000000000000000000000000006064820152608401620002a3565b505050565b60606200097484846000856200097c565b949350505050565b60608247101562000a10576040517f08c379a000000000000000000000000000000000000000000000000000000000815260206004820152602660248201527f416464726573733a20696e73756666696369656e742062616c616e636520666f60448201527f722063616c6c00000000000000000000000000000000000000000000000000006064820152608401620002a3565b6000808673ffffffffffffffffffffffffffffffffffffffff16858760405162000a3b919062000ee0565b60006040518083038185875af1925050503d806000811462000a7a576040519150601f19603f3d011682016040523d82523d6000602084013e62000a7f565b606091505b509150915062000a928783838762000a9d565b979650505050505050565b6060831562000b3857825160000362000b305773ffffffffffffffffffffffffffffffffffffffff85163b62000b30576040517f08c379a000000000000000000000000000000000000000000000000000000000815260206004820152601d60248201527f416464726573733a2063616c6c20746f206e6f6e2d636f6e74726163740000006044820152606401620002a3565b508162000974565b62000974838381511562000b4f5781518083602001fd5b806040517f08c379a0000000000000000000000000000000000000000000000000000000008152600401620002a3919062000efe565b610ee58062000f1483390190565b73ffffffffffffffffffffffffffffffffffffffff81168114620005f957600080fd5b7f4e487b7100000000000000000000000000000000000000000000000000000000600052604160045260246000fd5b803562000bf28162000b93565b919050565b600080600080600060a0868803121562000c1057600080fd5b853562000c1d8162000b93565b9450602086013567ffffffffffffffff8082111562000c3b57600080fd5b818801915088601f83011262000c5057600080fd5b81358181111562000c655762000c6562000bb6565b604051601f82017fffffffffffffffffffffffffffffffffffffffffffffffffffffffffffffffe0908116603f0116810190838211818310171562000cae5762000cae62000bb6565b816040528281528b602084870101111562000cc857600080fd5b8260208601602083013760006020848301015280985050505050506040860135925062000cf86060870162000be5565b949793965091946080013592915050565b60006020828403121562000d1c57600080fd5b5035919050565b6020808252825182820181905260009190848201906040850190845b8181101562000d7357835173ffffffffffffffffffffffffffffffffffffffff168352928401929184019160010162000d3f565b50909695505050505050565b60006020828403121562000d9257600080fd5b813562000d9f8162000b93565b9392505050565b60005b8381101562000dc357818101518382015260200162000da9565b50506000910152565b6000815180845262000de681602086016020860162000da6565b601f017fffffffffffffffffffffffffffffffffffffffffffffffffffffffffffffffe0169290920160200192915050565b600073ffffffffffffffffffffffffffffffffffffffff80871683526080602084015262000e4a608084018762000dcc565b94166040830152506060015292915050565b60007fffffffffffffffffffffffffffffffffffffffffffffffffffffffffffffffff820362000eb5577f4e487b7100000000000000000000000000000000000000000000000000000000600052601160045260246000fd5b5060010190565b60006020828403121562000ecf57600080fd5b8151801515811462000d9f57600080fd5b6000825162000ef481846020870162000da6565b9190910192915050565b60208152600062000d9f602083018462000dcc56fe60806040523480156200001157600080fd5b5060405162000ee538038062000ee5833981016040819052620000349162000189565b6200003f33620000f8565b428111620000a15760405162461bcd60e51b815260206004820152602560248201527f77697468647261772074696d652073686f756c64206265206d6f7265207468616044820152646e206e6f7760d81b606482015260840160405180910390fd5b600180546001600160a01b0319166001600160a01b0386161790556004620000ca84826200031d565b50600280546001600160a01b0319166001600160a01b03939093169290921790915560035550620003e99050565b600080546001600160a01b038381166001600160a01b0319831681178455604051919092169283917f8be0079c531659141344cd1fd0a4f28419497f9722a3daafe3b4186f6b6457e09190a35050565b6001600160a01b03811681146200015e57600080fd5b50565b634e487b7160e01b600052604160045260246000fd5b8051620001848162000148565b919050565b60008060008060808587031215620001a057600080fd5b8451620001ad8162000148565b602086810151919550906001600160401b0380821115620001cd57600080fd5b818801915088601f830112620001e257600080fd5b815181811115620001f757620001f762000161565b604051601f8201601f19908116603f0116810190838211818310171562000222576200022262000161565b816040528281528b868487010111156200023b57600080fd5b600093505b828410156200025f578484018601518185018701529285019262000240565b60008684830101528098505050505050506200027e6040860162000177565b6060959095015193969295505050565b600181811c90821680620002a357607f821691505b602082108103620002c457634e487b7160e01b600052602260045260246000fd5b50919050565b601f8211156200031857600081815260208120601f850160051c81016020861015620002f35750805b601f850160051c820191505b818110156200031457828155600101620002ff565b5050505b505050565b81516001600160401b0381111562000339576200033962000161565b62000351816200034a84546200028e565b84620002ca565b602080601f831160018114620003895760008415620003705750858301515b600019600386901b1c1916600185901b17855562000314565b600085815260208120601f198616915b82811015620003ba5788860151825594840194600190910190840162000399565b5085821015620003d95787850151600019600388901b60f8161c191681555b5050505050600190811b01905550565b610aec80620003f96000396000f3fe608060405234801561001057600080fd5b50600436106100be5760003560e01c80637fc0254d11610076578063cdc184241161005b578063cdc1842414610164578063f2fde38b14610184578063fc0c546a1461019757600080fd5b80637fc0254d1461011d5780638da5cb5b1461012557600080fd5b806350baa622116100a757806350baa622146100f857806368646cf01461010d578063715018a61461011557600080fd5b806306fdde03146100c357806345cb3dde146100e1575b600080fd5b6100cb6101b7565b6040516100d89190610966565b60405180910390f35b6100ea60035481565b6040519081526020016100d8565b61010b6101063660046109d2565b610245565b005b6100ea610530565b61010b6105c8565b61010b6105dc565b60005473ffffffffffffffffffffffffffffffffffffffff165b60405173ffffffffffffffffffffffffffffffffffffffff90911681526020016100d8565b60025461013f9073ffffffffffffffffffffffffffffffffffffffff1681565b61010b6101923660046109eb565b6107b9565b60015461013f9073ffffffffffffffffffffffffffffffffffffffff1681565b600480546101c490610a28565b80601f01602080910402602001604051908101604052809291908181526020018280546101f090610a28565b801561023d5780601f106102125761010080835404028352916020019161023d565b820191906000526020600020905b81548152906001019060200180831161022057829003601f168201915b505050505081565b6001546040517f70a0823100000000000000000000000000000000000000000000000000000000815230600482015273ffffffffffffffffffffffffffffffffffffffff909116906370a0823190602401602060405180830381865afa1580156102b3573d6000803e3d6000fd5b505050506040513d601f19601f820116820180604052508101906102d79190610a7b565b81101561036b576040517f08c379a000000000000000000000000000000000000000000000000000000000815260206004820152602160248201527f576974686472617720616d6f756e74206973206578636565642062616c616e6360448201527f650000000000000000000000000000000000000000000000000000000000000060648201526084015b60405180910390fd5b60025473ffffffffffffffffffffffffffffffffffffffff1633146103ec576040517f08c379a000000000000000000000000000000000000000000000000000000000815260206004820152601660248201527f596f7520617265206e6f742077697468647261776572000000000000000000006044820152606401610362565b6003544211610457576040517f08c379a000000000000000000000000000000000000000000000000000000000815260206004820152600c60248201527f4e6f742074696d652079657400000000000000000000000000000000000000006044820152606401610362565b6001546040517fa9059cbb0000000000000000000000000000000000000000000000000000000081523360048201526024810183905273ffffffffffffffffffffffffffffffffffffffff9091169063a9059cbb906044015b6020604051808303816000875af11580156104cf573d6000803e3d6000fd5b505050506040513d601f19601f820116820180604052508101906104f39190610a94565b5060408051428152602081018390527fa4fa6d4c08e67b66804f329195ed12feecfe9057e79e17edf30ff90f6cf37d8f910160405180910390a150565b6001546040517f70a0823100000000000000000000000000000000000000000000000000000000815230600482015260009173ffffffffffffffffffffffffffffffffffffffff16906370a0823190602401602060405180830381865afa15801561059f573d6000803e3d6000fd5b505050506040513d601f19601f820116820180604052508101906105c39190610a7b565b905090565b6105d0610870565b6105da60006108f1565b565b60025473ffffffffffffffffffffffffffffffffffffffff16331461065d576040517f08c379a000000000000000000000000000000000000000000000000000000000815260206004820152601660248201527f596f7520617265206e6f742077697468647261776572000000000000000000006044820152606401610362565b60035442116106c8576040517f08c379a000000000000000000000000000000000000000000000000000000000815260206004820152600c60248201527f4e6f742074696d652079657400000000000000000000000000000000000000006044820152606401610362565b6001546040517f70a0823100000000000000000000000000000000000000000000000000000000815230600482015260009173ffffffffffffffffffffffffffffffffffffffff16906370a0823190602401602060405180830381865afa158015610737573d6000803e3d6000fd5b505050506040513d601f19601f8201168201806040525081019061075b9190610a7b565b6001546040517fa9059cbb0000000000000000000000000000000000000000000000000000000081523360048201526024810183905291925073ffffffffffffffffffffffffffffffffffffffff169063a9059cbb906044016104b0565b6107c1610870565b73ffffffffffffffffffffffffffffffffffffffff8116610864576040517f08c379a000000000000000000000000000000000000000000000000000000000815260206004820152602660248201527f4f776e61626c653a206e6577206f776e657220697320746865207a65726f206160448201527f64647265737300000000000000000000000000000000000000000000000000006064820152608401610362565b61086d816108f1565b50565b60005473ffffffffffffffffffffffffffffffffffffffff1633146105da576040517f08c379a000000000000000000000000000000000000000000000000000000000815260206004820181905260248201527f4f776e61626c653a2063616c6c6572206973206e6f7420746865206f776e65726044820152606401610362565b6000805473ffffffffffffffffffffffffffffffffffffffff8381167fffffffffffffffffffffffff0000000000000000000000000000000000000000831681178455604051919092169283917f8be0079c531659141344cd1fd0a4f28419497f9722a3daafe3b4186f6b6457e09190a35050565b600060208083528351808285015260005b8181101561099357858101830151858201604001528201610977565b5060006040828601015260407fffffffffffffffffffffffffffffffffffffffffffffffffffffffffffffffe0601f8301168501019250505092915050565b6000602082840312156109e457600080fd5b5035919050565b6000602082840312156109fd57600080fd5b813573ffffffffffffffffffffffffffffffffffffffff81168114610a2157600080fd5b9392505050565b600181811c90821680610a3c57607f821691505b602082108103610a75577f4e487b7100000000000000000000000000000000000000000000000000000000600052602260045260246000fd5b50919050565b600060208284031215610a8d57600080fd5b5051919050565b600060208284031215610aa657600080fd5b81518015158114610a2157600080fdfea2646970667358221220c482f8661cce6959b7ac09ad1711dec6a98a331b362b01ad625c749fbd95185764736f6c63430008120033a2646970667358221220cd73969b5151767cdad1b1db4dd047df8f210186fc4807e4afafc481790b4d1664736f6c63430008120033",
  "immutableReferences": {},
  "source": "pragma solidity ^0.8.0;\r\n\r\nimport \"@openzeppelin/contracts/access/Ownable.sol\";\r\nimport \"@openzeppelin/contracts/security/ReentrancyGuard.sol\";\r\nimport \"@openzeppelin/contracts/utils/math/SafeMath.sol\";\r\nimport \"@openzeppelin/contracts/token/ERC20/utils/SafeERC20.sol\";\r\nimport \"@openzeppelin/contracts/token/ERC20/ERC20.sol\";\r\nimport \"./TokenLocker.sol\";\r\n\r\ncontract TokenLockerFactory is Ownable {\r\n    using SafeMath for uint256;\r\n    using SafeERC20 for ERC20;\r\n\r\n    uint256 public lockerCount = 0;\r\n    uint256 public fee = 0;\r\n\r\n    struct lockerInfo {\r\n        uint256 lockerId;\r\n        address tokenAddress;\r\n        address creator;\r\n        uint256 ramaining;\r\n        address withdrawer;\r\n        uint256 withdrawTime;\r\n    }\r\n\r\n    address[] public lockerAddresses;\r\n\r\n    event LockerCreated(uint256 lockerId, address indexed lockerAddress, address tokenAddress);\r\n\r\n    constructor(\r\n    ){\r\n\r\n    }\r\n\r\n    function getLockerAddresses() public view returns (address[] memory) {\r\n      return lockerAddresses;\r\n    }\r\n\r\n    function createLocker(\r\n        ERC20 _tokenAddress,\r\n        string memory _name,\r\n        uint256 _lockAmount,\r\n        address _withdrawer,\r\n        uint256 _withdrawTime\r\n        ) payable public returns(address){\r\n        require(msg.value == fee, 'Fee amount is required');\r\n\r\n        TokenLocker tokenLocker = new TokenLocker(_tokenAddress, _name, _withdrawer, _withdrawTime);\r\n        tokenLocker.transferOwnership(msg.sender);\r\n\r\n        _tokenAddress.safeTransferFrom(\r\n                msg.sender,\r\n                address(tokenLocker),\r\n                _lockAmount\r\n            );\r\n\r\n        lockerAddresses.push(address(tokenLocker));\r\n\r\n        emit LockerCreated(lockerCount, address(tokenLocker), address(_tokenAddress));\r\n        lockerCount++;\r\n        return address(tokenLocker);\r\n\r\n    }\r\n\r\n    function withdrawFee() public onlyOwner{\r\n        (bool success, ) = msg.sender.call{value: address(this).balance}(\"\");\r\n        require(success, \"Transfer failed.\");\r\n    }\r\n\r\n    function setFee(uint256 amount) public onlyOwner{\r\n        fee = amount;\r\n    }\r\n}",
  "sourcePath": "D:\\WORK\\WebServers\\home\\localhost\\www\\main\\launchpad\\contracts\\TokenLockerFactory.sol",
  "compiler": {
    "name": "solc",
    "version": "0.8.18+commit.87f61d96.Emscripten.clang"
  },
  "schemaVersion": "3.4.13",
  "updatedAt": "2023-05-12T12:47:49.618Z",
  "devdoc": {
    "kind": "dev",
    "methods": {
      "owner()": {
        "details": "Returns the address of the current owner."
      },
      "renounceOwnership()": {
        "details": "Leaves the contract without owner. It will not be possible to call `onlyOwner` functions anymore. Can only be called by the current owner. NOTE: Renouncing ownership will leave the contract without an owner, thereby removing any functionality that is only available to the owner."
      },
      "transferOwnership(address)": {
        "details": "Transfers ownership of the contract to a new account (`newOwner`). Can only be called by the current owner."
      }
    },
    "version": 1
  },
  "userdoc": {
    "kind": "user",
    "methods": {},
    "version": 1
  }
}